{
	"Prediction-Market/MarketData.sol": {
		"MarketData": {
			"abi": [
				{
					"inputs": [],
					"name": "OrderMarketid",
					"outputs": [
						{
							"internalType": "uint256",
							"name": "",
							"type": "uint256"
						}
					],
					"stateMutability": "view",
					"type": "function"
				},
				{
					"inputs": [
						{
							"internalType": "uint256",
							"name": "id",
							"type": "uint256"
						}
					],
					"name": "marketTotalPools",
					"outputs": [
						{
							"internalType": "uint256",
							"name": "totalPool",
							"type": "uint256"
						}
					],
					"stateMutability": "view",
					"type": "function"
				},
				{
					"inputs": [
						{
							"internalType": "uint256",
							"name": "market_id",
							"type": "uint256"
						}
					],
					"name": "markets",
					"outputs": [
						{
							"internalType": "uint256",
							"name": "id",
							"type": "uint256"
						},
						{
							"internalType": "string",
							"name": "description",
							"type": "string"
						},
						{
							"internalType": "enum MarketData.MarketStatus",
							"name": "state",
							"type": "uint8"
						},
						{
							"internalType": "uint48",
							"name": "createTimeStamp",
							"type": "uint48"
						},
						{
							"internalType": "uint48",
							"name": "closeTime",
							"type": "uint48"
						},
						{
							"internalType": "uint48",
							"name": "resolveWindow",
							"type": "uint48"
						},
						{
							"internalType": "uint48",
							"name": "resolveTimeStamp",
							"type": "uint48"
						},
						{
							"internalType": "bytes32",
							"name": "functionsRequest_id",
							"type": "bytes32"
						},
						{
							"internalType": "string",
							"name": "functionsSource",
							"type": "string"
						},
						{
							"internalType": "bytes",
							"name": "encryptedSecrets",
							"type": "bytes"
						},
						{
							"internalType": "uint8",
							"name": "outcome",
							"type": "uint8"
						},
						{
							"internalType": "bool",
							"name": "resolved",
							"type": "bool"
						}
					],
					"stateMutability": "view",
					"type": "function"
				}
			],
			"devdoc": {
				"kind": "dev",
				"methods": {},
				"version": 1
			},
			"evm": {
				"assembly": "    /* \"Prediction-Market/MarketData.sol\":57:2245  contract MarketData{... */\n  mstore(0x40, 0x80)\n  callvalue\n  dup1\n  iszero\n  tag_1\n  jumpi\n  revert(0x00, 0x00)\ntag_1:\n  pop\n  dataSize(sub_0)\n  dup1\n  dataOffset(sub_0)\n  0x00\n  codecopy\n  0x00\n  return\nstop\n\nsub_0: assembly {\n        /* \"Prediction-Market/MarketData.sol\":57:2245  contract MarketData{... */\n      mstore(0x40, 0x80)\n      callvalue\n      dup1\n      iszero\n      tag_1\n      jumpi\n      revert(0x00, 0x00)\n    tag_1:\n      pop\n      jumpi(tag_2, lt(calldatasize, 0x04))\n      shr(0xe0, calldataload(0x00))\n      dup1\n      0x92b408ba\n      eq\n      tag_3\n      jumpi\n      dup1\n      0x96fcd761\n      eq\n      tag_4\n      jumpi\n      dup1\n      0xb1283e77\n      eq\n      tag_5\n      jumpi\n    tag_2:\n      revert(0x00, 0x00)\n        /* \"Prediction-Market/MarketData.sol\":1771:1799  uint256 public OrderMarketid */\n    tag_3:\n      tag_6\n      tag_7\n      jump\t// in\n    tag_6:\n      mload(0x40)\n      tag_8\n      swap2\n      swap1\n      tag_9\n      jump\t// in\n    tag_8:\n      mload(0x40)\n      dup1\n      swap2\n      sub\n      swap1\n      return\n        /* \"Prediction-Market/MarketData.sol\":1568:1633  mapping (uint256 id => uint256 totalPool) public marketTotalPools */\n    tag_4:\n      tag_10\n      0x04\n      dup1\n      calldatasize\n      sub\n      dup2\n      add\n      swap1\n      tag_11\n      swap2\n      swap1\n      tag_12\n      jump\t// in\n    tag_11:\n      tag_13\n      jump\t// in\n    tag_10:\n      mload(0x40)\n      tag_14\n      swap2\n      swap1\n      tag_9\n      jump\t// in\n    tag_14:\n      mload(0x40)\n      dup1\n      swap2\n      sub\n      swap1\n      return\n        /* \"Prediction-Market/MarketData.sol\":1695:1747  mapping (uint256 market_id => Market) public markets */\n    tag_5:\n      tag_15\n      0x04\n      dup1\n      calldatasize\n      sub\n      dup2\n      add\n      swap1\n      tag_16\n      swap2\n      swap1\n      tag_12\n      jump\t// in\n    tag_16:\n      tag_17\n      jump\t// in\n    tag_15:\n      mload(0x40)\n      tag_18\n      swap13\n      swap12\n      swap11\n      swap10\n      swap9\n      swap8\n      swap7\n      swap6\n      swap5\n      swap4\n      swap3\n      swap2\n      swap1\n      tag_19\n      jump\t// in\n    tag_18:\n      mload(0x40)\n      dup1\n      swap2\n      sub\n      swap1\n      return\n        /* \"Prediction-Market/MarketData.sol\":1771:1799  uint256 public OrderMarketid */\n    tag_7:\n      sload(0x02)\n      dup2\n      jump\t// out\n        /* \"Prediction-Market/MarketData.sol\":1568:1633  mapping (uint256 id => uint256 totalPool) public marketTotalPools */\n    tag_13:\n      mstore(0x20, 0x00)\n      dup1\n      0x00\n      mstore\n      keccak256(0x00, 0x40)\n      0x00\n      swap2\n      pop\n      swap1\n      pop\n      sload\n      dup2\n      jump\t// out\n        /* \"Prediction-Market/MarketData.sol\":1695:1747  mapping (uint256 market_id => Market) public markets */\n    tag_17:\n      mstore(0x20, 0x01)\n      dup1\n      0x00\n      mstore\n      keccak256(0x00, 0x40)\n      0x00\n      swap2\n      pop\n      swap1\n      pop\n      dup1\n      0x00\n      add\n      sload\n      swap1\n      dup1\n      0x01\n      add\n      dup1\n      sload\n      tag_20\n      swap1\n      tag_21\n      jump\t// in\n    tag_20:\n      dup1\n      0x1f\n      add\n      0x20\n      dup1\n      swap2\n      div\n      mul\n      0x20\n      add\n      mload(0x40)\n      swap1\n      dup2\n      add\n      0x40\n      mstore\n      dup1\n      swap3\n      swap2\n      swap1\n      dup2\n      dup2\n      mstore\n      0x20\n      add\n      dup3\n      dup1\n      sload\n      tag_22\n      swap1\n      tag_21\n      jump\t// in\n    tag_22:\n      dup1\n      iszero\n      tag_23\n      jumpi\n      dup1\n      0x1f\n      lt\n      tag_24\n      jumpi\n      0x0100\n      dup1\n      dup4\n      sload\n      div\n      mul\n      dup4\n      mstore\n      swap2\n      0x20\n      add\n      swap2\n      jump(tag_23)\n    tag_24:\n      dup3\n      add\n      swap2\n      swap1\n      0x00\n      mstore\n      keccak256(0x00, 0x20)\n      swap1\n    tag_25:\n      dup2\n      sload\n      dup2\n      mstore\n      swap1\n      0x01\n      add\n      swap1\n      0x20\n      add\n      dup1\n      dup4\n      gt\n      tag_25\n      jumpi\n      dup3\n      swap1\n      sub\n      0x1f\n      and\n      dup3\n      add\n      swap2\n    tag_23:\n      pop\n      pop\n      pop\n      pop\n      pop\n      swap1\n      dup1\n      0x02\n      add\n      0x00\n      swap1\n      sload\n      swap1\n      0x0100\n      exp\n      swap1\n      div\n      0xff\n      and\n      swap1\n      dup1\n      0x02\n      add\n      0x01\n      swap1\n      sload\n      swap1\n      0x0100\n      exp\n      swap1\n      div\n      0xffffffffffff\n      and\n      swap1\n      dup1\n      0x02\n      add\n      0x07\n      swap1\n      sload\n      swap1\n      0x0100\n      exp\n      swap1\n      div\n      0xffffffffffff\n      and\n      swap1\n      dup1\n      0x02\n      add\n      0x0d\n      swap1\n      sload\n      swap1\n      0x0100\n      exp\n      swap1\n      div\n      0xffffffffffff\n      and\n      swap1\n      dup1\n      0x02\n      add\n      0x13\n      swap1\n      sload\n      swap1\n      0x0100\n      exp\n      swap1\n      div\n      0xffffffffffff\n      and\n      swap1\n      dup1\n      0x05\n      add\n      sload\n      swap1\n      dup1\n      0x06\n      add\n      dup1\n      sload\n      tag_26\n      swap1\n      tag_21\n      jump\t// in\n    tag_26:\n      dup1\n      0x1f\n      add\n      0x20\n      dup1\n      swap2\n      div\n      mul\n      0x20\n      add\n      mload(0x40)\n      swap1\n      dup2\n      add\n      0x40\n      mstore\n      dup1\n      swap3\n      swap2\n      swap1\n      dup2\n      dup2\n      mstore\n      0x20\n      add\n      dup3\n      dup1\n      sload\n      tag_27\n      swap1\n      tag_21\n      jump\t// in\n    tag_27:\n      dup1\n      iszero\n      tag_28\n      jumpi\n      dup1\n      0x1f\n      lt\n      tag_29\n      jumpi\n      0x0100\n      dup1\n      dup4\n      sload\n      div\n      mul\n      dup4\n      mstore\n      swap2\n      0x20\n      add\n      swap2\n      jump(tag_28)\n    tag_29:\n      dup3\n      add\n      swap2\n      swap1\n      0x00\n      mstore\n      keccak256(0x00, 0x20)\n      swap1\n    tag_30:\n      dup2\n      sload\n      dup2\n      mstore\n      swap1\n      0x01\n      add\n      swap1\n      0x20\n      add\n      dup1\n      dup4\n      gt\n      tag_30\n      jumpi\n      dup3\n      swap1\n      sub\n      0x1f\n      and\n      dup3\n      add\n      swap2\n    tag_28:\n      pop\n      pop\n      pop\n      pop\n      pop\n      swap1\n      dup1\n      0x07\n      add\n      dup1\n      sload\n      tag_31\n      swap1\n      tag_21\n      jump\t// in\n    tag_31:\n      dup1\n      0x1f\n      add\n      0x20\n      dup1\n      swap2\n      div\n      mul\n      0x20\n      add\n      mload(0x40)\n      swap1\n      dup2\n      add\n      0x40\n      mstore\n      dup1\n      swap3\n      swap2\n      swap1\n      dup2\n      dup2\n      mstore\n      0x20\n      add\n      dup3\n      dup1\n      sload\n      tag_32\n      swap1\n      tag_21\n      jump\t// in\n    tag_32:\n      dup1\n      iszero\n      tag_33\n      jumpi\n      dup1\n      0x1f\n      lt\n      tag_34\n      jumpi\n      0x0100\n      dup1\n      dup4\n      sload\n      div\n      mul\n      dup4\n      mstore\n      swap2\n      0x20\n      add\n      swap2\n      jump(tag_33)\n    tag_34:\n      dup3\n      add\n      swap2\n      swap1\n      0x00\n      mstore\n      keccak256(0x00, 0x20)\n      swap1\n    tag_35:\n      dup2\n      sload\n      dup2\n      mstore\n      swap1\n      0x01\n      add\n      swap1\n      0x20\n      add\n      dup1\n      dup4\n      gt\n      tag_35\n      jumpi\n      dup3\n      swap1\n      sub\n      0x1f\n      and\n      dup3\n      add\n      swap2\n    tag_33:\n      pop\n      pop\n      pop\n      pop\n      pop\n      swap1\n      dup1\n      0x08\n      add\n      0x00\n      swap1\n      sload\n      swap1\n      0x0100\n      exp\n      swap1\n      div\n      0xff\n      and\n      swap1\n      dup1\n      0x08\n      add\n      0x01\n      swap1\n      sload\n      swap1\n      0x0100\n      exp\n      swap1\n      div\n      0xff\n      and\n      swap1\n      pop\n      dup13\n      jump\t// out\n        /* \"#utility.yul\":7:84   */\n    tag_36:\n        /* \"#utility.yul\":44:51   */\n      0x00\n        /* \"#utility.yul\":73:78   */\n      dup2\n        /* \"#utility.yul\":62:78   */\n      swap1\n      pop\n        /* \"#utility.yul\":7:84   */\n      swap2\n      swap1\n      pop\n      jump\t// out\n        /* \"#utility.yul\":90:208   */\n    tag_37:\n        /* \"#utility.yul\":177:201   */\n      tag_68\n        /* \"#utility.yul\":195:200   */\n      dup2\n        /* \"#utility.yul\":177:201   */\n      tag_36\n      jump\t// in\n    tag_68:\n        /* \"#utility.yul\":172:175   */\n      dup3\n        /* \"#utility.yul\":165:202   */\n      mstore\n        /* \"#utility.yul\":90:208   */\n      pop\n      pop\n      jump\t// out\n        /* \"#utility.yul\":214:436   */\n    tag_9:\n        /* \"#utility.yul\":307:311   */\n      0x00\n        /* \"#utility.yul\":345:347   */\n      0x20\n        /* \"#utility.yul\":334:343   */\n      dup3\n        /* \"#utility.yul\":330:348   */\n      add\n        /* \"#utility.yul\":322:348   */\n      swap1\n      pop\n        /* \"#utility.yul\":358:429   */\n      tag_70\n        /* \"#utility.yul\":426:427   */\n      0x00\n        /* \"#utility.yul\":415:424   */\n      dup4\n        /* \"#utility.yul\":411:428   */\n      add\n        /* \"#utility.yul\":402:408   */\n      dup5\n        /* \"#utility.yul\":358:429   */\n      tag_37\n      jump\t// in\n    tag_70:\n        /* \"#utility.yul\":214:436   */\n      swap3\n      swap2\n      pop\n      pop\n      jump\t// out\n        /* \"#utility.yul\":523:640   */\n    tag_39:\n        /* \"#utility.yul\":632:633   */\n      0x00\n        /* \"#utility.yul\":629:630   */\n      0x00\n        /* \"#utility.yul\":622:634   */\n      revert\n        /* \"#utility.yul\":769:891   */\n    tag_41:\n        /* \"#utility.yul\":842:866   */\n      tag_75\n        /* \"#utility.yul\":860:865   */\n      dup2\n        /* \"#utility.yul\":842:866   */\n      tag_36\n      jump\t// in\n    tag_75:\n        /* \"#utility.yul\":835:840   */\n      dup2\n        /* \"#utility.yul\":832:867   */\n      eq\n        /* \"#utility.yul\":822:885   */\n      tag_76\n      jumpi\n        /* \"#utility.yul\":881:882   */\n      0x00\n        /* \"#utility.yul\":878:879   */\n      0x00\n        /* \"#utility.yul\":871:883   */\n      revert\n        /* \"#utility.yul\":822:885   */\n    tag_76:\n        /* \"#utility.yul\":769:891   */\n      pop\n      jump\t// out\n        /* \"#utility.yul\":897:1036   */\n    tag_42:\n        /* \"#utility.yul\":943:948   */\n      0x00\n        /* \"#utility.yul\":981:987   */\n      dup2\n        /* \"#utility.yul\":968:988   */\n      calldataload\n        /* \"#utility.yul\":959:988   */\n      swap1\n      pop\n        /* \"#utility.yul\":997:1030   */\n      tag_78\n        /* \"#utility.yul\":1024:1029   */\n      dup2\n        /* \"#utility.yul\":997:1030   */\n      tag_41\n      jump\t// in\n    tag_78:\n        /* \"#utility.yul\":897:1036   */\n      swap3\n      swap2\n      pop\n      pop\n      jump\t// out\n        /* \"#utility.yul\":1042:1371   */\n    tag_12:\n        /* \"#utility.yul\":1101:1107   */\n      0x00\n        /* \"#utility.yul\":1150:1152   */\n      0x20\n        /* \"#utility.yul\":1138:1147   */\n      dup3\n        /* \"#utility.yul\":1129:1136   */\n      dup5\n        /* \"#utility.yul\":1125:1148   */\n      sub\n        /* \"#utility.yul\":1121:1153   */\n      slt\n        /* \"#utility.yul\":1118:1237   */\n      iszero\n      tag_80\n      jumpi\n        /* \"#utility.yul\":1156:1235   */\n      tag_81\n      tag_39\n      jump\t// in\n    tag_81:\n        /* \"#utility.yul\":1118:1237   */\n    tag_80:\n        /* \"#utility.yul\":1276:1277   */\n      0x00\n        /* \"#utility.yul\":1301:1354   */\n      tag_82\n        /* \"#utility.yul\":1346:1353   */\n      dup5\n        /* \"#utility.yul\":1337:1343   */\n      dup3\n        /* \"#utility.yul\":1326:1335   */\n      dup6\n        /* \"#utility.yul\":1322:1344   */\n      add\n        /* \"#utility.yul\":1301:1354   */\n      tag_42\n      jump\t// in\n    tag_82:\n        /* \"#utility.yul\":1291:1354   */\n      swap2\n      pop\n        /* \"#utility.yul\":1247:1364   */\n      pop\n        /* \"#utility.yul\":1042:1371   */\n      swap3\n      swap2\n      pop\n      pop\n      jump\t// out\n        /* \"#utility.yul\":1377:1476   */\n    tag_43:\n        /* \"#utility.yul\":1429:1435   */\n      0x00\n        /* \"#utility.yul\":1463:1468   */\n      dup2\n        /* \"#utility.yul\":1457:1469   */\n      mload\n        /* \"#utility.yul\":1447:1469   */\n      swap1\n      pop\n        /* \"#utility.yul\":1377:1476   */\n      swap2\n      swap1\n      pop\n      jump\t// out\n        /* \"#utility.yul\":1482:1651   */\n    tag_44:\n        /* \"#utility.yul\":1566:1577   */\n      0x00\n        /* \"#utility.yul\":1600:1606   */\n      dup3\n        /* \"#utility.yul\":1595:1598   */\n      dup3\n        /* \"#utility.yul\":1588:1607   */\n      mstore\n        /* \"#utility.yul\":1640:1644   */\n      0x20\n        /* \"#utility.yul\":1635:1638   */\n      dup3\n        /* \"#utility.yul\":1631:1645   */\n      add\n        /* \"#utility.yul\":1616:1645   */\n      swap1\n      pop\n        /* \"#utility.yul\":1482:1651   */\n      swap3\n      swap2\n      pop\n      pop\n      jump\t// out\n        /* \"#utility.yul\":1657:1796   */\n    tag_45:\n        /* \"#utility.yul\":1746:1752   */\n      dup3\n        /* \"#utility.yul\":1741:1744   */\n      dup2\n        /* \"#utility.yul\":1736:1739   */\n      dup4\n        /* \"#utility.yul\":1730:1753   */\n      mcopy\n        /* \"#utility.yul\":1787:1788   */\n      0x00\n        /* \"#utility.yul\":1778:1784   */\n      dup4\n        /* \"#utility.yul\":1773:1776   */\n      dup4\n        /* \"#utility.yul\":1769:1785   */\n      add\n        /* \"#utility.yul\":1762:1789   */\n      mstore\n        /* \"#utility.yul\":1657:1796   */\n      pop\n      pop\n      pop\n      jump\t// out\n        /* \"#utility.yul\":1802:1904   */\n    tag_46:\n        /* \"#utility.yul\":1843:1849   */\n      0x00\n        /* \"#utility.yul\":1894:1896   */\n      0x1f\n        /* \"#utility.yul\":1890:1897   */\n      not\n        /* \"#utility.yul\":1885:1887   */\n      0x1f\n        /* \"#utility.yul\":1878:1883   */\n      dup4\n        /* \"#utility.yul\":1874:1888   */\n      add\n        /* \"#utility.yul\":1870:1898   */\n      and\n        /* \"#utility.yul\":1860:1898   */\n      swap1\n      pop\n        /* \"#utility.yul\":1802:1904   */\n      swap2\n      swap1\n      pop\n      jump\t// out\n        /* \"#utility.yul\":1910:2287   */\n    tag_47:\n        /* \"#utility.yul\":1998:2001   */\n      0x00\n        /* \"#utility.yul\":2026:2065   */\n      tag_88\n        /* \"#utility.yul\":2059:2064   */\n      dup3\n        /* \"#utility.yul\":2026:2065   */\n      tag_43\n      jump\t// in\n    tag_88:\n        /* \"#utility.yul\":2081:2152   */\n      tag_89\n        /* \"#utility.yul\":2145:2151   */\n      dup2\n        /* \"#utility.yul\":2140:2143   */\n      dup6\n        /* \"#utility.yul\":2081:2152   */\n      tag_44\n      jump\t// in\n    tag_89:\n        /* \"#utility.yul\":2074:2152   */\n      swap4\n      pop\n        /* \"#utility.yul\":2161:2226   */\n      tag_90\n        /* \"#utility.yul\":2219:2225   */\n      dup2\n        /* \"#utility.yul\":2214:2217   */\n      dup6\n        /* \"#utility.yul\":2207:2211   */\n      0x20\n        /* \"#utility.yul\":2200:2205   */\n      dup7\n        /* \"#utility.yul\":2196:2212   */\n      add\n        /* \"#utility.yul\":2161:2226   */\n      tag_45\n      jump\t// in\n    tag_90:\n        /* \"#utility.yul\":2251:2280   */\n      tag_91\n        /* \"#utility.yul\":2273:2279   */\n      dup2\n        /* \"#utility.yul\":2251:2280   */\n      tag_46\n      jump\t// in\n    tag_91:\n        /* \"#utility.yul\":2246:2249   */\n      dup5\n        /* \"#utility.yul\":2242:2281   */\n      add\n        /* \"#utility.yul\":2235:2281   */\n      swap2\n      pop\n        /* \"#utility.yul\":2002:2287   */\n      pop\n        /* \"#utility.yul\":1910:2287   */\n      swap3\n      swap2\n      pop\n      pop\n      jump\t// out\n        /* \"#utility.yul\":2293:2473   */\n    tag_48:\n        /* \"#utility.yul\":2341:2418   */\n      0x4e487b7100000000000000000000000000000000000000000000000000000000\n        /* \"#utility.yul\":2338:2339   */\n      0x00\n        /* \"#utility.yul\":2331:2419   */\n      mstore\n        /* \"#utility.yul\":2438:2442   */\n      0x21\n        /* \"#utility.yul\":2435:2436   */\n      0x04\n        /* \"#utility.yul\":2428:2443   */\n      mstore\n        /* \"#utility.yul\":2462:2466   */\n      0x24\n        /* \"#utility.yul\":2459:2460   */\n      0x00\n        /* \"#utility.yul\":2452:2467   */\n      revert\n        /* \"#utility.yul\":2479:2598   */\n    tag_49:\n        /* \"#utility.yul\":2566:2567   */\n      0x06\n        /* \"#utility.yul\":2559:2564   */\n      dup2\n        /* \"#utility.yul\":2556:2568   */\n      lt\n        /* \"#utility.yul\":2546:2592   */\n      tag_94\n      jumpi\n        /* \"#utility.yul\":2572:2590   */\n      tag_95\n      tag_48\n      jump\t// in\n    tag_95:\n        /* \"#utility.yul\":2546:2592   */\n    tag_94:\n        /* \"#utility.yul\":2479:2598   */\n      pop\n      jump\t// out\n        /* \"#utility.yul\":2604:2743   */\n    tag_50:\n        /* \"#utility.yul\":2655:2662   */\n      0x00\n        /* \"#utility.yul\":2684:2689   */\n      dup2\n        /* \"#utility.yul\":2673:2689   */\n      swap1\n      pop\n        /* \"#utility.yul\":2690:2737   */\n      tag_97\n        /* \"#utility.yul\":2731:2736   */\n      dup3\n        /* \"#utility.yul\":2690:2737   */\n      tag_49\n      jump\t// in\n    tag_97:\n        /* \"#utility.yul\":2604:2743   */\n      swap2\n      swap1\n      pop\n      jump\t// out\n        /* \"#utility.yul\":2749:2888   */\n    tag_51:\n        /* \"#utility.yul\":2811:2820   */\n      0x00\n        /* \"#utility.yul\":2844:2882   */\n      tag_99\n        /* \"#utility.yul\":2876:2881   */\n      dup3\n        /* \"#utility.yul\":2844:2882   */\n      tag_50\n      jump\t// in\n    tag_99:\n        /* \"#utility.yul\":2831:2882   */\n      swap1\n      pop\n        /* \"#utility.yul\":2749:2888   */\n      swap2\n      swap1\n      pop\n      jump\t// out\n        /* \"#utility.yul\":2894:3049   */\n    tag_52:\n        /* \"#utility.yul\":2993:3042   */\n      tag_101\n        /* \"#utility.yul\":3036:3041   */\n      dup2\n        /* \"#utility.yul\":2993:3042   */\n      tag_51\n      jump\t// in\n    tag_101:\n        /* \"#utility.yul\":2988:2991   */\n      dup3\n        /* \"#utility.yul\":2981:3043   */\n      mstore\n        /* \"#utility.yul\":2894:3049   */\n      pop\n      pop\n      jump\t// out\n        /* \"#utility.yul\":3055:3152   */\n    tag_53:\n        /* \"#utility.yul\":3091:3098   */\n      0x00\n        /* \"#utility.yul\":3131:3145   */\n      0xffffffffffff\n        /* \"#utility.yul\":3124:3129   */\n      dup3\n        /* \"#utility.yul\":3120:3146   */\n      and\n        /* \"#utility.yul\":3109:3146   */\n      swap1\n      pop\n        /* \"#utility.yul\":3055:3152   */\n      swap2\n      swap1\n      pop\n      jump\t// out\n        /* \"#utility.yul\":3158:3273   */\n    tag_54:\n        /* \"#utility.yul\":3243:3266   */\n      tag_104\n        /* \"#utility.yul\":3260:3265   */\n      dup2\n        /* \"#utility.yul\":3243:3266   */\n      tag_53\n      jump\t// in\n    tag_104:\n        /* \"#utility.yul\":3238:3241   */\n      dup3\n        /* \"#utility.yul\":3231:3267   */\n      mstore\n        /* \"#utility.yul\":3158:3273   */\n      pop\n      pop\n      jump\t// out\n        /* \"#utility.yul\":3279:3356   */\n    tag_55:\n        /* \"#utility.yul\":3316:3323   */\n      0x00\n        /* \"#utility.yul\":3345:3350   */\n      dup2\n        /* \"#utility.yul\":3334:3350   */\n      swap1\n      pop\n        /* \"#utility.yul\":3279:3356   */\n      swap2\n      swap1\n      pop\n      jump\t// out\n        /* \"#utility.yul\":3362:3480   */\n    tag_56:\n        /* \"#utility.yul\":3449:3473   */\n      tag_107\n        /* \"#utility.yul\":3467:3472   */\n      dup2\n        /* \"#utility.yul\":3449:3473   */\n      tag_55\n      jump\t// in\n    tag_107:\n        /* \"#utility.yul\":3444:3447   */\n      dup3\n        /* \"#utility.yul\":3437:3474   */\n      mstore\n        /* \"#utility.yul\":3362:3480   */\n      pop\n      pop\n      jump\t// out\n        /* \"#utility.yul\":3486:3584   */\n    tag_57:\n        /* \"#utility.yul\":3537:3543   */\n      0x00\n        /* \"#utility.yul\":3571:3576   */\n      dup2\n        /* \"#utility.yul\":3565:3577   */\n      mload\n        /* \"#utility.yul\":3555:3577   */\n      swap1\n      pop\n        /* \"#utility.yul\":3486:3584   */\n      swap2\n      swap1\n      pop\n      jump\t// out\n        /* \"#utility.yul\":3590:3758   */\n    tag_58:\n        /* \"#utility.yul\":3673:3684   */\n      0x00\n        /* \"#utility.yul\":3707:3713   */\n      dup3\n        /* \"#utility.yul\":3702:3705   */\n      dup3\n        /* \"#utility.yul\":3695:3714   */\n      mstore\n        /* \"#utility.yul\":3747:3751   */\n      0x20\n        /* \"#utility.yul\":3742:3745   */\n      dup3\n        /* \"#utility.yul\":3738:3752   */\n      add\n        /* \"#utility.yul\":3723:3752   */\n      swap1\n      pop\n        /* \"#utility.yul\":3590:3758   */\n      swap3\n      swap2\n      pop\n      pop\n      jump\t// out\n        /* \"#utility.yul\":3764:4137   */\n    tag_59:\n        /* \"#utility.yul\":3850:3853   */\n      0x00\n        /* \"#utility.yul\":3878:3916   */\n      tag_111\n        /* \"#utility.yul\":3910:3915   */\n      dup3\n        /* \"#utility.yul\":3878:3916   */\n      tag_57\n      jump\t// in\n    tag_111:\n        /* \"#utility.yul\":3932:4002   */\n      tag_112\n        /* \"#utility.yul\":3995:4001   */\n      dup2\n        /* \"#utility.yul\":3990:3993   */\n      dup6\n        /* \"#utility.yul\":3932:4002   */\n      tag_58\n      jump\t// in\n    tag_112:\n        /* \"#utility.yul\":3925:4002   */\n      swap4\n      pop\n        /* \"#utility.yul\":4011:4076   */\n      tag_113\n        /* \"#utility.yul\":4069:4075   */\n      dup2\n        /* \"#utility.yul\":4064:4067   */\n      dup6\n        /* \"#utility.yul\":4057:4061   */\n      0x20\n        /* \"#utility.yul\":4050:4055   */\n      dup7\n        /* \"#utility.yul\":4046:4062   */\n      add\n        /* \"#utility.yul\":4011:4076   */\n      tag_45\n      jump\t// in\n    tag_113:\n        /* \"#utility.yul\":4101:4130   */\n      tag_114\n        /* \"#utility.yul\":4123:4129   */\n      dup2\n        /* \"#utility.yul\":4101:4130   */\n      tag_46\n      jump\t// in\n    tag_114:\n        /* \"#utility.yul\":4096:4099   */\n      dup5\n        /* \"#utility.yul\":4092:4131   */\n      add\n        /* \"#utility.yul\":4085:4131   */\n      swap2\n      pop\n        /* \"#utility.yul\":3854:4137   */\n      pop\n        /* \"#utility.yul\":3764:4137   */\n      swap3\n      swap2\n      pop\n      pop\n      jump\t// out\n        /* \"#utility.yul\":4143:4229   */\n    tag_60:\n        /* \"#utility.yul\":4178:4185   */\n      0x00\n        /* \"#utility.yul\":4218:4222   */\n      0xff\n        /* \"#utility.yul\":4211:4216   */\n      dup3\n        /* \"#utility.yul\":4207:4223   */\n      and\n        /* \"#utility.yul\":4196:4223   */\n      swap1\n      pop\n        /* \"#utility.yul\":4143:4229   */\n      swap2\n      swap1\n      pop\n      jump\t// out\n        /* \"#utility.yul\":4235:4347   */\n    tag_61:\n        /* \"#utility.yul\":4318:4340   */\n      tag_117\n        /* \"#utility.yul\":4334:4339   */\n      dup2\n        /* \"#utility.yul\":4318:4340   */\n      tag_60\n      jump\t// in\n    tag_117:\n        /* \"#utility.yul\":4313:4316   */\n      dup3\n        /* \"#utility.yul\":4306:4341   */\n      mstore\n        /* \"#utility.yul\":4235:4347   */\n      pop\n      pop\n      jump\t// out\n        /* \"#utility.yul\":4353:4443   */\n    tag_62:\n        /* \"#utility.yul\":4387:4394   */\n      0x00\n        /* \"#utility.yul\":4430:4435   */\n      dup2\n        /* \"#utility.yul\":4423:4436   */\n      iszero\n        /* \"#utility.yul\":4416:4437   */\n      iszero\n        /* \"#utility.yul\":4405:4437   */\n      swap1\n      pop\n        /* \"#utility.yul\":4353:4443   */\n      swap2\n      swap1\n      pop\n      jump\t// out\n        /* \"#utility.yul\":4449:4558   */\n    tag_63:\n        /* \"#utility.yul\":4530:4551   */\n      tag_120\n        /* \"#utility.yul\":4545:4550   */\n      dup2\n        /* \"#utility.yul\":4530:4551   */\n      tag_62\n      jump\t// in\n    tag_120:\n        /* \"#utility.yul\":4525:4528   */\n      dup3\n        /* \"#utility.yul\":4518:4552   */\n      mstore\n        /* \"#utility.yul\":4449:4558   */\n      pop\n      pop\n      jump\t// out\n        /* \"#utility.yul\":4564:6266   */\n    tag_19:\n        /* \"#utility.yul\":5019:5023   */\n      0x00\n        /* \"#utility.yul\":5057:5060   */\n      0x0180\n        /* \"#utility.yul\":5046:5055   */\n      dup3\n        /* \"#utility.yul\":5042:5061   */\n      add\n        /* \"#utility.yul\":5034:5061   */\n      swap1\n      pop\n        /* \"#utility.yul\":5071:5142   */\n      tag_122\n        /* \"#utility.yul\":5139:5140   */\n      0x00\n        /* \"#utility.yul\":5128:5137   */\n      dup4\n        /* \"#utility.yul\":5124:5141   */\n      add\n        /* \"#utility.yul\":5115:5121   */\n      dup16\n        /* \"#utility.yul\":5071:5142   */\n      tag_37\n      jump\t// in\n    tag_122:\n        /* \"#utility.yul\":5189:5198   */\n      dup2\n        /* \"#utility.yul\":5183:5187   */\n      dup2\n        /* \"#utility.yul\":5179:5199   */\n      sub\n        /* \"#utility.yul\":5174:5176   */\n      0x20\n        /* \"#utility.yul\":5163:5172   */\n      dup4\n        /* \"#utility.yul\":5159:5177   */\n      add\n        /* \"#utility.yul\":5152:5200   */\n      mstore\n        /* \"#utility.yul\":5217:5295   */\n      tag_123\n        /* \"#utility.yul\":5290:5294   */\n      dup2\n        /* \"#utility.yul\":5281:5287   */\n      dup15\n        /* \"#utility.yul\":5217:5295   */\n      tag_47\n      jump\t// in\n    tag_123:\n        /* \"#utility.yul\":5209:5295   */\n      swap1\n      pop\n        /* \"#utility.yul\":5305:5389   */\n      tag_124\n        /* \"#utility.yul\":5385:5387   */\n      0x40\n        /* \"#utility.yul\":5374:5383   */\n      dup4\n        /* \"#utility.yul\":5370:5388   */\n      add\n        /* \"#utility.yul\":5361:5367   */\n      dup14\n        /* \"#utility.yul\":5305:5389   */\n      tag_52\n      jump\t// in\n    tag_124:\n        /* \"#utility.yul\":5399:5469   */\n      tag_125\n        /* \"#utility.yul\":5465:5467   */\n      0x60\n        /* \"#utility.yul\":5454:5463   */\n      dup4\n        /* \"#utility.yul\":5450:5468   */\n      add\n        /* \"#utility.yul\":5441:5447   */\n      dup13\n        /* \"#utility.yul\":5399:5469   */\n      tag_54\n      jump\t// in\n    tag_125:\n        /* \"#utility.yul\":5479:5550   */\n      tag_126\n        /* \"#utility.yul\":5545:5548   */\n      0x80\n        /* \"#utility.yul\":5534:5543   */\n      dup4\n        /* \"#utility.yul\":5530:5549   */\n      add\n        /* \"#utility.yul\":5521:5527   */\n      dup12\n        /* \"#utility.yul\":5479:5550   */\n      tag_54\n      jump\t// in\n    tag_126:\n        /* \"#utility.yul\":5560:5631   */\n      tag_127\n        /* \"#utility.yul\":5626:5629   */\n      0xa0\n        /* \"#utility.yul\":5615:5624   */\n      dup4\n        /* \"#utility.yul\":5611:5630   */\n      add\n        /* \"#utility.yul\":5602:5608   */\n      dup11\n        /* \"#utility.yul\":5560:5631   */\n      tag_54\n      jump\t// in\n    tag_127:\n        /* \"#utility.yul\":5641:5712   */\n      tag_128\n        /* \"#utility.yul\":5707:5710   */\n      0xc0\n        /* \"#utility.yul\":5696:5705   */\n      dup4\n        /* \"#utility.yul\":5692:5711   */\n      add\n        /* \"#utility.yul\":5683:5689   */\n      dup10\n        /* \"#utility.yul\":5641:5712   */\n      tag_54\n      jump\t// in\n    tag_128:\n        /* \"#utility.yul\":5722:5795   */\n      tag_129\n        /* \"#utility.yul\":5790:5793   */\n      0xe0\n        /* \"#utility.yul\":5779:5788   */\n      dup4\n        /* \"#utility.yul\":5775:5794   */\n      add\n        /* \"#utility.yul\":5766:5772   */\n      dup9\n        /* \"#utility.yul\":5722:5795   */\n      tag_56\n      jump\t// in\n    tag_129:\n        /* \"#utility.yul\":5843:5852   */\n      dup2\n        /* \"#utility.yul\":5837:5841   */\n      dup2\n        /* \"#utility.yul\":5833:5853   */\n      sub\n        /* \"#utility.yul\":5827:5830   */\n      0x0100\n        /* \"#utility.yul\":5816:5825   */\n      dup4\n        /* \"#utility.yul\":5812:5831   */\n      add\n        /* \"#utility.yul\":5805:5854   */\n      mstore\n        /* \"#utility.yul\":5871:5949   */\n      tag_130\n        /* \"#utility.yul\":5944:5948   */\n      dup2\n        /* \"#utility.yul\":5935:5941   */\n      dup8\n        /* \"#utility.yul\":5871:5949   */\n      tag_47\n      jump\t// in\n    tag_130:\n        /* \"#utility.yul\":5863:5949   */\n      swap1\n      pop\n        /* \"#utility.yul\":5997:6006   */\n      dup2\n        /* \"#utility.yul\":5991:5995   */\n      dup2\n        /* \"#utility.yul\":5987:6007   */\n      sub\n        /* \"#utility.yul\":5981:5984   */\n      0x0120\n        /* \"#utility.yul\":5970:5979   */\n      dup4\n        /* \"#utility.yul\":5966:5985   */\n      add\n        /* \"#utility.yul\":5959:6008   */\n      mstore\n        /* \"#utility.yul\":6025:6101   */\n      tag_131\n        /* \"#utility.yul\":6096:6100   */\n      dup2\n        /* \"#utility.yul\":6087:6093   */\n      dup7\n        /* \"#utility.yul\":6025:6101   */\n      tag_59\n      jump\t// in\n    tag_131:\n        /* \"#utility.yul\":6017:6101   */\n      swap1\n      pop\n        /* \"#utility.yul\":6111:6181   */\n      tag_132\n        /* \"#utility.yul\":6176:6179   */\n      0x0140\n        /* \"#utility.yul\":6165:6174   */\n      dup4\n        /* \"#utility.yul\":6161:6180   */\n      add\n        /* \"#utility.yul\":6151:6158   */\n      dup6\n        /* \"#utility.yul\":6111:6181   */\n      tag_61\n      jump\t// in\n    tag_132:\n        /* \"#utility.yul\":6191:6259   */\n      tag_133\n        /* \"#utility.yul\":6254:6257   */\n      0x0160\n        /* \"#utility.yul\":6243:6252   */\n      dup4\n        /* \"#utility.yul\":6239:6258   */\n      add\n        /* \"#utility.yul\":6229:6236   */\n      dup5\n        /* \"#utility.yul\":6191:6259   */\n      tag_63\n      jump\t// in\n    tag_133:\n        /* \"#utility.yul\":4564:6266   */\n      swap14\n      swap13\n      pop\n      pop\n      pop\n      pop\n      pop\n      pop\n      pop\n      pop\n      pop\n      pop\n      pop\n      pop\n      pop\n      jump\t// out\n        /* \"#utility.yul\":6272:6452   */\n    tag_64:\n        /* \"#utility.yul\":6320:6397   */\n      0x4e487b7100000000000000000000000000000000000000000000000000000000\n        /* \"#utility.yul\":6317:6318   */\n      0x00\n        /* \"#utility.yul\":6310:6398   */\n      mstore\n        /* \"#utility.yul\":6417:6421   */\n      0x22\n        /* \"#utility.yul\":6414:6415   */\n      0x04\n        /* \"#utility.yul\":6407:6422   */\n      mstore\n        /* \"#utility.yul\":6441:6445   */\n      0x24\n        /* \"#utility.yul\":6438:6439   */\n      0x00\n        /* \"#utility.yul\":6431:6446   */\n      revert\n        /* \"#utility.yul\":6458:6778   */\n    tag_21:\n        /* \"#utility.yul\":6502:6508   */\n      0x00\n        /* \"#utility.yul\":6539:6540   */\n      0x02\n        /* \"#utility.yul\":6533:6537   */\n      dup3\n        /* \"#utility.yul\":6529:6541   */\n      div\n        /* \"#utility.yul\":6519:6541   */\n      swap1\n      pop\n        /* \"#utility.yul\":6586:6587   */\n      0x01\n        /* \"#utility.yul\":6580:6584   */\n      dup3\n        /* \"#utility.yul\":6576:6588   */\n      and\n        /* \"#utility.yul\":6607:6625   */\n      dup1\n        /* \"#utility.yul\":6597:6678   */\n      tag_136\n      jumpi\n        /* \"#utility.yul\":6663:6667   */\n      0x7f\n        /* \"#utility.yul\":6655:6661   */\n      dup3\n        /* \"#utility.yul\":6651:6668   */\n      and\n        /* \"#utility.yul\":6641:6668   */\n      swap2\n      pop\n        /* \"#utility.yul\":6597:6678   */\n    tag_136:\n        /* \"#utility.yul\":6725:6727   */\n      0x20\n        /* \"#utility.yul\":6717:6723   */\n      dup3\n        /* \"#utility.yul\":6714:6728   */\n      lt\n        /* \"#utility.yul\":6694:6712   */\n      dup2\n        /* \"#utility.yul\":6691:6729   */\n      sub\n        /* \"#utility.yul\":6688:6772   */\n      tag_137\n      jumpi\n        /* \"#utility.yul\":6744:6762   */\n      tag_138\n      tag_64\n      jump\t// in\n    tag_138:\n        /* \"#utility.yul\":6688:6772   */\n    tag_137:\n        /* \"#utility.yul\":6509:6778   */\n      pop\n        /* \"#utility.yul\":6458:6778   */\n      swap2\n      swap1\n      pop\n      jump\t// out\n\n    auxdata: 0xa2646970667358221220c6847fa5527754f766703f06a30ad6b127e7eb8455101e3dc3dc70205e092a3464736f6c63430008220033\n}\n",
				"bytecode": {
					"linkReferences": {},
					"object": "6080604052348015600e575f5ffd5b506106cd8061001c5f395ff3fe608060405234801561000f575f5ffd5b506004361061003f575f3560e01c806392b408ba1461004357806396fcd76114610061578063b1283e7714610091575b5f5ffd5b61004b6100cc565b6040516100589190610359565b60405180910390f35b61007b600480360381019061007691906103a0565b6100d2565b6040516100889190610359565b60405180910390f35b6100ab60048036038101906100a691906103a0565b6100e6565b6040516100c39c9b9a9998979695949392919061056d565b60405180910390f35b60025481565b5f602052805f5260405f205f915090505481565b6001602052805f5260405f205f91509050805f01549080600101805461010b90610667565b80601f016020809104026020016040519081016040528092919081815260200182805461013790610667565b80156101825780601f1061015957610100808354040283529160200191610182565b820191905f5260205f20905b81548152906001019060200180831161016557829003601f168201915b505050505090806002015f9054906101000a900460ff16908060020160019054906101000a900465ffffffffffff16908060020160079054906101000a900465ffffffffffff169080600201600d9054906101000a900465ffffffffffff16908060020160139054906101000a900465ffffffffffff169080600501549080600601805461020f90610667565b80601f016020809104026020016040519081016040528092919081815260200182805461023b90610667565b80156102865780601f1061025d57610100808354040283529160200191610286565b820191905f5260205f20905b81548152906001019060200180831161026957829003601f168201915b50505050509080600701805461029b90610667565b80601f01602080910402602001604051908101604052809291908181526020018280546102c790610667565b80156103125780601f106102e957610100808354040283529160200191610312565b820191905f5260205f20905b8154815290600101906020018083116102f557829003601f168201915b505050505090806008015f9054906101000a900460ff16908060080160019054906101000a900460ff1690508c565b5f819050919050565b61035381610341565b82525050565b5f60208201905061036c5f83018461034a565b92915050565b5f5ffd5b61037f81610341565b8114610389575f5ffd5b50565b5f8135905061039a81610376565b92915050565b5f602082840312156103b5576103b4610372565b5b5f6103c28482850161038c565b91505092915050565b5f81519050919050565b5f82825260208201905092915050565b8281835e5f83830152505050565b5f601f19601f8301169050919050565b5f61040d826103cb565b61041781856103d5565b93506104278185602086016103e5565b610430816103f3565b840191505092915050565b7f4e487b71000000000000000000000000000000000000000000000000000000005f52602160045260245ffd5b600681106104795761047861043b565b5b50565b5f81905061048982610468565b919050565b5f6104988261047c565b9050919050565b6104a88161048e565b82525050565b5f65ffffffffffff82169050919050565b6104c8816104ae565b82525050565b5f819050919050565b6104e0816104ce565b82525050565b5f81519050919050565b5f82825260208201905092915050565b5f61050a826104e6565b61051481856104f0565b93506105248185602086016103e5565b61052d816103f3565b840191505092915050565b5f60ff82169050919050565b61054d81610538565b82525050565b5f8115159050919050565b61056781610553565b82525050565b5f610180820190506105815f83018f61034a565b8181036020830152610593818e610403565b90506105a2604083018d61049f565b6105af606083018c6104bf565b6105bc608083018b6104bf565b6105c960a083018a6104bf565b6105d660c08301896104bf565b6105e360e08301886104d7565b8181036101008301526105f68187610403565b905081810361012083015261060b8186610500565b905061061b610140830185610544565b61062961016083018461055e565b9d9c50505050505050505050505050565b7f4e487b71000000000000000000000000000000000000000000000000000000005f52602260045260245ffd5b5f600282049050600182168061067e57607f821691505b6020821081036106915761069061063a565b5b5091905056fea2646970667358221220c6847fa5527754f766703f06a30ad6b127e7eb8455101e3dc3dc70205e092a3464736f6c63430008220033",
					"opcodes": "PUSH1 0x80 PUSH1 0x40 MSTORE CALLVALUE DUP1 ISZERO PUSH1 0xE JUMPI PUSH0 PUSH0 REVERT JUMPDEST POP PUSH2 0x6CD DUP1 PUSH2 0x1C PUSH0 CODECOPY PUSH0 RETURN INVALID PUSH1 0x80 PUSH1 0x40 MSTORE CALLVALUE DUP1 ISZERO PUSH2 0xF JUMPI PUSH0 PUSH0 REVERT JUMPDEST POP PUSH1 0x4 CALLDATASIZE LT PUSH2 0x3F JUMPI PUSH0 CALLDATALOAD PUSH1 0xE0 SHR DUP1 PUSH4 0x92B408BA EQ PUSH2 0x43 JUMPI DUP1 PUSH4 0x96FCD761 EQ PUSH2 0x61 JUMPI DUP1 PUSH4 0xB1283E77 EQ PUSH2 0x91 JUMPI JUMPDEST PUSH0 PUSH0 REVERT JUMPDEST PUSH2 0x4B PUSH2 0xCC JUMP JUMPDEST PUSH1 0x40 MLOAD PUSH2 0x58 SWAP2 SWAP1 PUSH2 0x359 JUMP JUMPDEST PUSH1 0x40 MLOAD DUP1 SWAP2 SUB SWAP1 RETURN JUMPDEST PUSH2 0x7B PUSH1 0x4 DUP1 CALLDATASIZE SUB DUP2 ADD SWAP1 PUSH2 0x76 SWAP2 SWAP1 PUSH2 0x3A0 JUMP JUMPDEST PUSH2 0xD2 JUMP JUMPDEST PUSH1 0x40 MLOAD PUSH2 0x88 SWAP2 SWAP1 PUSH2 0x359 JUMP JUMPDEST PUSH1 0x40 MLOAD DUP1 SWAP2 SUB SWAP1 RETURN JUMPDEST PUSH2 0xAB PUSH1 0x4 DUP1 CALLDATASIZE SUB DUP2 ADD SWAP1 PUSH2 0xA6 SWAP2 SWAP1 PUSH2 0x3A0 JUMP JUMPDEST PUSH2 0xE6 JUMP JUMPDEST PUSH1 0x40 MLOAD PUSH2 0xC3 SWAP13 SWAP12 SWAP11 SWAP10 SWAP9 SWAP8 SWAP7 SWAP6 SWAP5 SWAP4 SWAP3 SWAP2 SWAP1 PUSH2 0x56D JUMP JUMPDEST PUSH1 0x40 MLOAD DUP1 SWAP2 SUB SWAP1 RETURN JUMPDEST PUSH1 0x2 SLOAD DUP2 JUMP JUMPDEST PUSH0 PUSH1 0x20 MSTORE DUP1 PUSH0 MSTORE PUSH1 0x40 PUSH0 KECCAK256 PUSH0 SWAP2 POP SWAP1 POP SLOAD DUP2 JUMP JUMPDEST PUSH1 0x1 PUSH1 0x20 MSTORE DUP1 PUSH0 MSTORE PUSH1 0x40 PUSH0 KECCAK256 PUSH0 SWAP2 POP SWAP1 POP DUP1 PUSH0 ADD SLOAD SWAP1 DUP1 PUSH1 0x1 ADD DUP1 SLOAD PUSH2 0x10B SWAP1 PUSH2 0x667 JUMP JUMPDEST DUP1 PUSH1 0x1F ADD PUSH1 0x20 DUP1 SWAP2 DIV MUL PUSH1 0x20 ADD PUSH1 0x40 MLOAD SWAP1 DUP2 ADD PUSH1 0x40 MSTORE DUP1 SWAP3 SWAP2 SWAP1 DUP2 DUP2 MSTORE PUSH1 0x20 ADD DUP3 DUP1 SLOAD PUSH2 0x137 SWAP1 PUSH2 0x667 JUMP JUMPDEST DUP1 ISZERO PUSH2 0x182 JUMPI DUP1 PUSH1 0x1F LT PUSH2 0x159 JUMPI PUSH2 0x100 DUP1 DUP4 SLOAD DIV MUL DUP4 MSTORE SWAP2 PUSH1 0x20 ADD SWAP2 PUSH2 0x182 JUMP JUMPDEST DUP3 ADD SWAP2 SWAP1 PUSH0 MSTORE PUSH1 0x20 PUSH0 KECCAK256 SWAP1 JUMPDEST DUP2 SLOAD DUP2 MSTORE SWAP1 PUSH1 0x1 ADD SWAP1 PUSH1 0x20 ADD DUP1 DUP4 GT PUSH2 0x165 JUMPI DUP3 SWAP1 SUB PUSH1 0x1F AND DUP3 ADD SWAP2 JUMPDEST POP POP POP POP POP SWAP1 DUP1 PUSH1 0x2 ADD PUSH0 SWAP1 SLOAD SWAP1 PUSH2 0x100 EXP SWAP1 DIV PUSH1 0xFF AND SWAP1 DUP1 PUSH1 0x2 ADD PUSH1 0x1 SWAP1 SLOAD SWAP1 PUSH2 0x100 EXP SWAP1 DIV PUSH6 0xFFFFFFFFFFFF AND SWAP1 DUP1 PUSH1 0x2 ADD PUSH1 0x7 SWAP1 SLOAD SWAP1 PUSH2 0x100 EXP SWAP1 DIV PUSH6 0xFFFFFFFFFFFF AND SWAP1 DUP1 PUSH1 0x2 ADD PUSH1 0xD SWAP1 SLOAD SWAP1 PUSH2 0x100 EXP SWAP1 DIV PUSH6 0xFFFFFFFFFFFF AND SWAP1 DUP1 PUSH1 0x2 ADD PUSH1 0x13 SWAP1 SLOAD SWAP1 PUSH2 0x100 EXP SWAP1 DIV PUSH6 0xFFFFFFFFFFFF AND SWAP1 DUP1 PUSH1 0x5 ADD SLOAD SWAP1 DUP1 PUSH1 0x6 ADD DUP1 SLOAD PUSH2 0x20F SWAP1 PUSH2 0x667 JUMP JUMPDEST DUP1 PUSH1 0x1F ADD PUSH1 0x20 DUP1 SWAP2 DIV MUL PUSH1 0x20 ADD PUSH1 0x40 MLOAD SWAP1 DUP2 ADD PUSH1 0x40 MSTORE DUP1 SWAP3 SWAP2 SWAP1 DUP2 DUP2 MSTORE PUSH1 0x20 ADD DUP3 DUP1 SLOAD PUSH2 0x23B SWAP1 PUSH2 0x667 JUMP JUMPDEST DUP1 ISZERO PUSH2 0x286 JUMPI DUP1 PUSH1 0x1F LT PUSH2 0x25D JUMPI PUSH2 0x100 DUP1 DUP4 SLOAD DIV MUL DUP4 MSTORE SWAP2 PUSH1 0x20 ADD SWAP2 PUSH2 0x286 JUMP JUMPDEST DUP3 ADD SWAP2 SWAP1 PUSH0 MSTORE PUSH1 0x20 PUSH0 KECCAK256 SWAP1 JUMPDEST DUP2 SLOAD DUP2 MSTORE SWAP1 PUSH1 0x1 ADD SWAP1 PUSH1 0x20 ADD DUP1 DUP4 GT PUSH2 0x269 JUMPI DUP3 SWAP1 SUB PUSH1 0x1F AND DUP3 ADD SWAP2 JUMPDEST POP POP POP POP POP SWAP1 DUP1 PUSH1 0x7 ADD DUP1 SLOAD PUSH2 0x29B SWAP1 PUSH2 0x667 JUMP JUMPDEST DUP1 PUSH1 0x1F ADD PUSH1 0x20 DUP1 SWAP2 DIV MUL PUSH1 0x20 ADD PUSH1 0x40 MLOAD SWAP1 DUP2 ADD PUSH1 0x40 MSTORE DUP1 SWAP3 SWAP2 SWAP1 DUP2 DUP2 MSTORE PUSH1 0x20 ADD DUP3 DUP1 SLOAD PUSH2 0x2C7 SWAP1 PUSH2 0x667 JUMP JUMPDEST DUP1 ISZERO PUSH2 0x312 JUMPI DUP1 PUSH1 0x1F LT PUSH2 0x2E9 JUMPI PUSH2 0x100 DUP1 DUP4 SLOAD DIV MUL DUP4 MSTORE SWAP2 PUSH1 0x20 ADD SWAP2 PUSH2 0x312 JUMP JUMPDEST DUP3 ADD SWAP2 SWAP1 PUSH0 MSTORE PUSH1 0x20 PUSH0 KECCAK256 SWAP1 JUMPDEST DUP2 SLOAD DUP2 MSTORE SWAP1 PUSH1 0x1 ADD SWAP1 PUSH1 0x20 ADD DUP1 DUP4 GT PUSH2 0x2F5 JUMPI DUP3 SWAP1 SUB PUSH1 0x1F AND DUP3 ADD SWAP2 JUMPDEST POP POP POP POP POP SWAP1 DUP1 PUSH1 0x8 ADD PUSH0 SWAP1 SLOAD SWAP1 PUSH2 0x100 EXP SWAP1 DIV PUSH1 0xFF AND SWAP1 DUP1 PUSH1 0x8 ADD PUSH1 0x1 SWAP1 SLOAD SWAP1 PUSH2 0x100 EXP SWAP1 DIV PUSH1 0xFF AND SWAP1 POP DUP13 JUMP JUMPDEST PUSH0 DUP2 SWAP1 POP SWAP2 SWAP1 POP JUMP JUMPDEST PUSH2 0x353 DUP2 PUSH2 0x341 JUMP JUMPDEST DUP3 MSTORE POP POP JUMP JUMPDEST PUSH0 PUSH1 0x20 DUP3 ADD SWAP1 POP PUSH2 0x36C PUSH0 DUP4 ADD DUP5 PUSH2 0x34A JUMP JUMPDEST SWAP3 SWAP2 POP POP JUMP JUMPDEST PUSH0 PUSH0 REVERT JUMPDEST PUSH2 0x37F DUP2 PUSH2 0x341 JUMP JUMPDEST DUP2 EQ PUSH2 0x389 JUMPI PUSH0 PUSH0 REVERT JUMPDEST POP JUMP JUMPDEST PUSH0 DUP2 CALLDATALOAD SWAP1 POP PUSH2 0x39A DUP2 PUSH2 0x376 JUMP JUMPDEST SWAP3 SWAP2 POP POP JUMP JUMPDEST PUSH0 PUSH1 0x20 DUP3 DUP5 SUB SLT ISZERO PUSH2 0x3B5 JUMPI PUSH2 0x3B4 PUSH2 0x372 JUMP JUMPDEST JUMPDEST PUSH0 PUSH2 0x3C2 DUP5 DUP3 DUP6 ADD PUSH2 0x38C JUMP JUMPDEST SWAP2 POP POP SWAP3 SWAP2 POP POP JUMP JUMPDEST PUSH0 DUP2 MLOAD SWAP1 POP SWAP2 SWAP1 POP JUMP JUMPDEST PUSH0 DUP3 DUP3 MSTORE PUSH1 0x20 DUP3 ADD SWAP1 POP SWAP3 SWAP2 POP POP JUMP JUMPDEST DUP3 DUP2 DUP4 MCOPY PUSH0 DUP4 DUP4 ADD MSTORE POP POP POP JUMP JUMPDEST PUSH0 PUSH1 0x1F NOT PUSH1 0x1F DUP4 ADD AND SWAP1 POP SWAP2 SWAP1 POP JUMP JUMPDEST PUSH0 PUSH2 0x40D DUP3 PUSH2 0x3CB JUMP JUMPDEST PUSH2 0x417 DUP2 DUP6 PUSH2 0x3D5 JUMP JUMPDEST SWAP4 POP PUSH2 0x427 DUP2 DUP6 PUSH1 0x20 DUP7 ADD PUSH2 0x3E5 JUMP JUMPDEST PUSH2 0x430 DUP2 PUSH2 0x3F3 JUMP JUMPDEST DUP5 ADD SWAP2 POP POP SWAP3 SWAP2 POP POP JUMP JUMPDEST PUSH32 0x4E487B7100000000000000000000000000000000000000000000000000000000 PUSH0 MSTORE PUSH1 0x21 PUSH1 0x4 MSTORE PUSH1 0x24 PUSH0 REVERT JUMPDEST PUSH1 0x6 DUP2 LT PUSH2 0x479 JUMPI PUSH2 0x478 PUSH2 0x43B JUMP JUMPDEST JUMPDEST POP JUMP JUMPDEST PUSH0 DUP2 SWAP1 POP PUSH2 0x489 DUP3 PUSH2 0x468 JUMP JUMPDEST SWAP2 SWAP1 POP JUMP JUMPDEST PUSH0 PUSH2 0x498 DUP3 PUSH2 0x47C JUMP JUMPDEST SWAP1 POP SWAP2 SWAP1 POP JUMP JUMPDEST PUSH2 0x4A8 DUP2 PUSH2 0x48E JUMP JUMPDEST DUP3 MSTORE POP POP JUMP JUMPDEST PUSH0 PUSH6 0xFFFFFFFFFFFF DUP3 AND SWAP1 POP SWAP2 SWAP1 POP JUMP JUMPDEST PUSH2 0x4C8 DUP2 PUSH2 0x4AE JUMP JUMPDEST DUP3 MSTORE POP POP JUMP JUMPDEST PUSH0 DUP2 SWAP1 POP SWAP2 SWAP1 POP JUMP JUMPDEST PUSH2 0x4E0 DUP2 PUSH2 0x4CE JUMP JUMPDEST DUP3 MSTORE POP POP JUMP JUMPDEST PUSH0 DUP2 MLOAD SWAP1 POP SWAP2 SWAP1 POP JUMP JUMPDEST PUSH0 DUP3 DUP3 MSTORE PUSH1 0x20 DUP3 ADD SWAP1 POP SWAP3 SWAP2 POP POP JUMP JUMPDEST PUSH0 PUSH2 0x50A DUP3 PUSH2 0x4E6 JUMP JUMPDEST PUSH2 0x514 DUP2 DUP6 PUSH2 0x4F0 JUMP JUMPDEST SWAP4 POP PUSH2 0x524 DUP2 DUP6 PUSH1 0x20 DUP7 ADD PUSH2 0x3E5 JUMP JUMPDEST PUSH2 0x52D DUP2 PUSH2 0x3F3 JUMP JUMPDEST DUP5 ADD SWAP2 POP POP SWAP3 SWAP2 POP POP JUMP JUMPDEST PUSH0 PUSH1 0xFF DUP3 AND SWAP1 POP SWAP2 SWAP1 POP JUMP JUMPDEST PUSH2 0x54D DUP2 PUSH2 0x538 JUMP JUMPDEST DUP3 MSTORE POP POP JUMP JUMPDEST PUSH0 DUP2 ISZERO ISZERO SWAP1 POP SWAP2 SWAP1 POP JUMP JUMPDEST PUSH2 0x567 DUP2 PUSH2 0x553 JUMP JUMPDEST DUP3 MSTORE POP POP JUMP JUMPDEST PUSH0 PUSH2 0x180 DUP3 ADD SWAP1 POP PUSH2 0x581 PUSH0 DUP4 ADD DUP16 PUSH2 0x34A JUMP JUMPDEST DUP2 DUP2 SUB PUSH1 0x20 DUP4 ADD MSTORE PUSH2 0x593 DUP2 DUP15 PUSH2 0x403 JUMP JUMPDEST SWAP1 POP PUSH2 0x5A2 PUSH1 0x40 DUP4 ADD DUP14 PUSH2 0x49F JUMP JUMPDEST PUSH2 0x5AF PUSH1 0x60 DUP4 ADD DUP13 PUSH2 0x4BF JUMP JUMPDEST PUSH2 0x5BC PUSH1 0x80 DUP4 ADD DUP12 PUSH2 0x4BF JUMP JUMPDEST PUSH2 0x5C9 PUSH1 0xA0 DUP4 ADD DUP11 PUSH2 0x4BF JUMP JUMPDEST PUSH2 0x5D6 PUSH1 0xC0 DUP4 ADD DUP10 PUSH2 0x4BF JUMP JUMPDEST PUSH2 0x5E3 PUSH1 0xE0 DUP4 ADD DUP9 PUSH2 0x4D7 JUMP JUMPDEST DUP2 DUP2 SUB PUSH2 0x100 DUP4 ADD MSTORE PUSH2 0x5F6 DUP2 DUP8 PUSH2 0x403 JUMP JUMPDEST SWAP1 POP DUP2 DUP2 SUB PUSH2 0x120 DUP4 ADD MSTORE PUSH2 0x60B DUP2 DUP7 PUSH2 0x500 JUMP JUMPDEST SWAP1 POP PUSH2 0x61B PUSH2 0x140 DUP4 ADD DUP6 PUSH2 0x544 JUMP JUMPDEST PUSH2 0x629 PUSH2 0x160 DUP4 ADD DUP5 PUSH2 0x55E JUMP JUMPDEST SWAP14 SWAP13 POP POP POP POP POP POP POP POP POP POP POP POP POP JUMP JUMPDEST PUSH32 0x4E487B7100000000000000000000000000000000000000000000000000000000 PUSH0 MSTORE PUSH1 0x22 PUSH1 0x4 MSTORE PUSH1 0x24 PUSH0 REVERT JUMPDEST PUSH0 PUSH1 0x2 DUP3 DIV SWAP1 POP PUSH1 0x1 DUP3 AND DUP1 PUSH2 0x67E JUMPI PUSH1 0x7F DUP3 AND SWAP2 POP JUMPDEST PUSH1 0x20 DUP3 LT DUP2 SUB PUSH2 0x691 JUMPI PUSH2 0x690 PUSH2 0x63A JUMP JUMPDEST JUMPDEST POP SWAP2 SWAP1 POP JUMP INVALID LOG2 PUSH5 0x6970667358 0x22 SLT KECCAK256 0xC6 DUP5 PUSH32 0xA5527754F766703F06A30AD6B127E7EB8455101E3DC3DC70205E092A3464736F PUSH13 0x63430008220033000000000000 "
				},
				"gasEstimates": {
					"creation": {
						"codeDepositCost": "348200",
						"executionCost": "384",
						"totalCost": "348584"
					},
					"external": {
						"OrderMarketid()": "2403",
						"marketTotalPools(uint256)": "infinite",
						"markets(uint256)": "infinite"
					}
				},
				"methodIdentifiers": {
					"OrderMarketid()": "92b408ba",
					"marketTotalPools(uint256)": "96fcd761",
					"markets(uint256)": "b1283e77"
				}
			},
			"storageLayout": {
				"storage": [
					{
						"astId": 56,
						"contract": "Prediction-Market/MarketData.sol:MarketData",
						"label": "marketTotalPools",
						"offset": 0,
						"slot": "0",
						"type": "t_mapping(t_uint256,t_uint256)"
					},
					{
						"astId": 61,
						"contract": "Prediction-Market/MarketData.sol:MarketData",
						"label": "markets",
						"offset": 0,
						"slot": "1",
						"type": "t_mapping(t_uint256,t_struct(Market)52_storage)"
					},
					{
						"astId": 63,
						"contract": "Prediction-Market/MarketData.sol:MarketData",
						"label": "OrderMarketid",
						"offset": 0,
						"slot": "2",
						"type": "t_uint256"
					},
					{
						"astId": 65,
						"contract": "Prediction-Market/MarketData.sol:MarketData",
						"label": "functionsRouter",
						"offset": 0,
						"slot": "3",
						"type": "t_address"
					},
					{
						"astId": 67,
						"contract": "Prediction-Market/MarketData.sol:MarketData",
						"label": "functionsSubscriptionid",
						"offset": 20,
						"slot": "3",
						"type": "t_uint64"
					}
				],
				"types": {
					"t_address": {
						"encoding": "inplace",
						"label": "address",
						"numberOfBytes": "20"
					},
					"t_array(t_struct(Bet)19_storage)dyn_storage": {
						"base": "t_struct(Bet)19_storage",
						"encoding": "dynamic_array",
						"label": "struct MarketData.Bet[]",
						"numberOfBytes": "32"
					},
					"t_array(t_uint256)dyn_storage": {
						"base": "t_uint256",
						"encoding": "dynamic_array",
						"label": "uint256[]",
						"numberOfBytes": "32"
					},
					"t_bool": {
						"encoding": "inplace",
						"label": "bool",
						"numberOfBytes": "1"
					},
					"t_bytes32": {
						"encoding": "inplace",
						"label": "bytes32",
						"numberOfBytes": "32"
					},
					"t_bytes_storage": {
						"encoding": "bytes",
						"label": "bytes",
						"numberOfBytes": "32"
					},
					"t_enum(MarketStatus)8": {
						"encoding": "inplace",
						"label": "enum MarketData.MarketStatus",
						"numberOfBytes": "1"
					},
					"t_mapping(t_uint256,t_struct(Market)52_storage)": {
						"encoding": "mapping",
						"key": "t_uint256",
						"label": "mapping(uint256 => struct MarketData.Market)",
						"numberOfBytes": "32",
						"value": "t_struct(Market)52_storage"
					},
					"t_mapping(t_uint256,t_uint256)": {
						"encoding": "mapping",
						"key": "t_uint256",
						"label": "mapping(uint256 => uint256)",
						"numberOfBytes": "32",
						"value": "t_uint256"
					},
					"t_string_storage": {
						"encoding": "bytes",
						"label": "string",
						"numberOfBytes": "32"
					},
					"t_struct(Bet)19_storage": {
						"encoding": "inplace",
						"label": "struct MarketData.Bet",
						"members": [
							{
								"astId": 10,
								"contract": "Prediction-Market/MarketData.sol:MarketData",
								"label": "user",
								"offset": 0,
								"slot": "0",
								"type": "t_address"
							},
							{
								"astId": 12,
								"contract": "Prediction-Market/MarketData.sol:MarketData",
								"label": "encryptedBet",
								"offset": 0,
								"slot": "1",
								"type": "t_bytes_storage"
							},
							{
								"astId": 14,
								"contract": "Prediction-Market/MarketData.sol:MarketData",
								"label": "amount",
								"offset": 0,
								"slot": "2",
								"type": "t_uint256"
							},
							{
								"astId": 16,
								"contract": "Prediction-Market/MarketData.sol:MarketData",
								"label": "option",
								"offset": 0,
								"slot": "3",
								"type": "t_uint8"
							},
							{
								"astId": 18,
								"contract": "Prediction-Market/MarketData.sol:MarketData",
								"label": "claimed",
								"offset": 1,
								"slot": "3",
								"type": "t_bool"
							}
						],
						"numberOfBytes": "128"
					},
					"t_struct(Market)52_storage": {
						"encoding": "inplace",
						"label": "struct MarketData.Market",
						"members": [
							{
								"astId": 21,
								"contract": "Prediction-Market/MarketData.sol:MarketData",
								"label": "id",
								"offset": 0,
								"slot": "0",
								"type": "t_uint256"
							},
							{
								"astId": 23,
								"contract": "Prediction-Market/MarketData.sol:MarketData",
								"label": "description",
								"offset": 0,
								"slot": "1",
								"type": "t_string_storage"
							},
							{
								"astId": 26,
								"contract": "Prediction-Market/MarketData.sol:MarketData",
								"label": "state",
								"offset": 0,
								"slot": "2",
								"type": "t_enum(MarketStatus)8"
							},
							{
								"astId": 28,
								"contract": "Prediction-Market/MarketData.sol:MarketData",
								"label": "createTimeStamp",
								"offset": 1,
								"slot": "2",
								"type": "t_uint48"
							},
							{
								"astId": 30,
								"contract": "Prediction-Market/MarketData.sol:MarketData",
								"label": "closeTime",
								"offset": 7,
								"slot": "2",
								"type": "t_uint48"
							},
							{
								"astId": 32,
								"contract": "Prediction-Market/MarketData.sol:MarketData",
								"label": "resolveWindow",
								"offset": 13,
								"slot": "2",
								"type": "t_uint48"
							},
							{
								"astId": 34,
								"contract": "Prediction-Market/MarketData.sol:MarketData",
								"label": "resolveTimeStamp",
								"offset": 19,
								"slot": "2",
								"type": "t_uint48"
							},
							{
								"astId": 37,
								"contract": "Prediction-Market/MarketData.sol:MarketData",
								"label": "optionTotals",
								"offset": 0,
								"slot": "3",
								"type": "t_array(t_uint256)dyn_storage"
							},
							{
								"astId": 41,
								"contract": "Prediction-Market/MarketData.sol:MarketData",
								"label": "bets",
								"offset": 0,
								"slot": "4",
								"type": "t_array(t_struct(Bet)19_storage)dyn_storage"
							},
							{
								"astId": 43,
								"contract": "Prediction-Market/MarketData.sol:MarketData",
								"label": "functionsRequest_id",
								"offset": 0,
								"slot": "5",
								"type": "t_bytes32"
							},
							{
								"astId": 45,
								"contract": "Prediction-Market/MarketData.sol:MarketData",
								"label": "functionsSource",
								"offset": 0,
								"slot": "6",
								"type": "t_string_storage"
							},
							{
								"astId": 47,
								"contract": "Prediction-Market/MarketData.sol:MarketData",
								"label": "encryptedSecrets",
								"offset": 0,
								"slot": "7",
								"type": "t_bytes_storage"
							},
							{
								"astId": 49,
								"contract": "Prediction-Market/MarketData.sol:MarketData",
								"label": "outcome",
								"offset": 0,
								"slot": "8",
								"type": "t_uint8"
							},
							{
								"astId": 51,
								"contract": "Prediction-Market/MarketData.sol:MarketData",
								"label": "resolved",
								"offset": 1,
								"slot": "8",
								"type": "t_bool"
							}
						],
						"numberOfBytes": "288"
					},
					"t_uint256": {
						"encoding": "inplace",
						"label": "uint256",
						"numberOfBytes": "32"
					},
					"t_uint48": {
						"encoding": "inplace",
						"label": "uint48",
						"numberOfBytes": "6"
					},
					"t_uint64": {
						"encoding": "inplace",
						"label": "uint64",
						"numberOfBytes": "8"
					},
					"t_uint8": {
						"encoding": "inplace",
						"label": "uint8",
						"numberOfBytes": "1"
					}
				}
			},
			"userdoc": {
				"kind": "user",
				"methods": {},
				"version": 1
			}
		}
	}
}