{
	"Prediction-Market/Market.sol": {
		"ConfidentialMarket": {
			"abi": [
				{
					"inputs": [],
					"stateMutability": "nonpayable",
					"type": "constructor"
				},
				{
					"inputs": [],
					"name": "OrderMarketid",
					"outputs": [
						{
							"internalType": "uint256",
							"name": "",
							"type": "uint256"
						}
					],
					"stateMutability": "view",
					"type": "function"
				},
				{
					"inputs": [
						{
							"internalType": "string",
							"name": "description",
							"type": "string"
						},
						{
							"internalType": "uint48",
							"name": "deadlinetimestamp",
							"type": "uint48"
						},
						{
							"internalType": "uint48",
							"name": "analysiswindowtime",
							"type": "uint48"
						},
						{
							"internalType": "string",
							"name": "_functionsSource",
							"type": "string"
						},
						{
							"internalType": "bytes",
							"name": "_encryptedSecrets",
							"type": "bytes"
						}
					],
					"name": "createEvent",
					"outputs": [
						{
							"internalType": "uint256",
							"name": "market_id",
							"type": "uint256"
						}
					],
					"stateMutability": "nonpayable",
					"type": "function"
				},
				{
					"inputs": [
						{
							"internalType": "address",
							"name": "_admin",
							"type": "address"
						}
					],
					"name": "deleteAdmin",
					"outputs": [],
					"stateMutability": "nonpayable",
					"type": "function"
				},
				{
					"inputs": [],
					"name": "functionsRouter",
					"outputs": [
						{
							"internalType": "address",
							"name": "",
							"type": "address"
						}
					],
					"stateMutability": "view",
					"type": "function"
				},
				{
					"inputs": [],
					"name": "functionsSubscriptionid",
					"outputs": [
						{
							"internalType": "uint64",
							"name": "",
							"type": "uint64"
						}
					],
					"stateMutability": "view",
					"type": "function"
				},
				{
					"inputs": [
						{
							"internalType": "uint256",
							"name": "market_id",
							"type": "uint256"
						}
					],
					"name": "markets",
					"outputs": [
						{
							"internalType": "uint256",
							"name": "id",
							"type": "uint256"
						},
						{
							"internalType": "string",
							"name": "description",
							"type": "string"
						},
						{
							"internalType": "enum MarketData.MarketStatus",
							"name": "state",
							"type": "uint8"
						},
						{
							"internalType": "uint48",
							"name": "createTimeStamp",
							"type": "uint48"
						},
						{
							"internalType": "uint48",
							"name": "closeTime",
							"type": "uint48"
						},
						{
							"internalType": "uint48",
							"name": "resolveWindow",
							"type": "uint48"
						},
						{
							"internalType": "uint48",
							"name": "resolveTimeStamp",
							"type": "uint48"
						},
						{
							"internalType": "bytes32",
							"name": "functionsRequest_id",
							"type": "bytes32"
						},
						{
							"internalType": "string",
							"name": "functionsSource",
							"type": "string"
						},
						{
							"internalType": "bytes",
							"name": "encryptedSecrets",
							"type": "bytes"
						},
						{
							"internalType": "uint8",
							"name": "outcome",
							"type": "uint8"
						},
						{
							"internalType": "bool",
							"name": "resolved",
							"type": "bool"
						}
					],
					"stateMutability": "view",
					"type": "function"
				},
				{
					"inputs": [],
					"name": "owner",
					"outputs": [
						{
							"internalType": "address",
							"name": "",
							"type": "address"
						}
					],
					"stateMutability": "view",
					"type": "function"
				},
				{
					"inputs": [
						{
							"internalType": "address",
							"name": "_admin",
							"type": "address"
						}
					],
					"name": "setAdmin",
					"outputs": [],
					"stateMutability": "nonpayable",
					"type": "function"
				}
			],
			"devdoc": {
				"kind": "dev",
				"methods": {},
				"version": 1
			},
			"evm": {
				"assembly": "    /* \"Prediction-Market/Market.sol\":121:2910  contract ConfidentialMarket is MarketData{... */\n  mstore(0x40, 0x80)\n    /* \"Prediction-Market/Market.sol\":374:567  constructor(){... */\n  callvalue\n  dup1\n  iszero\n  tag_1\n  jumpi\n  revert(0x00, 0x00)\ntag_1:\n  pop\n    /* \"Prediction-Market/Market.sol\":403:413  msg.sender */\n  caller\n    /* \"Prediction-Market/Market.sol\":397:402  owner */\n  0x03\n  0x00\n    /* \"Prediction-Market/Market.sol\":397:413  owner=msg.sender */\n  0x0100\n  exp\n  dup2\n  sload\n  dup2\n  0xffffffffffffffffffffffffffffffffffffffff\n  mul\n  not\n  and\n  swap1\n  dup4\n  0xffffffffffffffffffffffffffffffffffffffff\n  and\n  mul\n  or\n  swap1\n  sstore\n  pop\n    /* \"Prediction-Market/Market.sol\":492:507  block.timestamp */\n  timestamp\n    /* \"Prediction-Market/Market.sol\":469:484  createtimestamp */\n  0x03\n  0x14\n    /* \"Prediction-Market/Market.sol\":469:508  createtimestamp=uint48(block.timestamp) */\n  0x0100\n  exp\n  dup2\n  sload\n  dup2\n  0xffffffffffff\n  mul\n  not\n  and\n  swap1\n  dup4\n  0xffffffffffff\n  and\n  mul\n  or\n  swap1\n  sstore\n  pop\n    /* \"Prediction-Market/Market.sol\":121:2910  contract ConfidentialMarket is MarketData{... */\n  dataSize(sub_0)\n  dup1\n  dataOffset(sub_0)\n  0x00\n  codecopy\n  0x00\n  return\nstop\n\nsub_0: assembly {\n        /* \"Prediction-Market/Market.sol\":121:2910  contract ConfidentialMarket is MarketData{... */\n      mstore(0x40, 0x80)\n      callvalue\n      dup1\n      iszero\n      tag_1\n      jumpi\n      revert(0x00, 0x00)\n    tag_1:\n      pop\n      jumpi(tag_2, lt(calldatasize, 0x04))\n      shr(0xe0, calldataload(0x00))\n      dup1\n      0x92b408ba\n      gt\n      tag_11\n      jumpi\n      dup1\n      0x92b408ba\n      eq\n      tag_7\n      jumpi\n      dup1\n      0xb1283e77\n      eq\n      tag_8\n      jumpi\n      dup1\n      0xd58f05da\n      eq\n      tag_9\n      jumpi\n      dup1\n      0xe8268509\n      eq\n      tag_10\n      jumpi\n      jump(tag_2)\n    tag_11:\n      dup1\n      0x27e1f7df\n      eq\n      tag_3\n      jumpi\n      dup1\n      0x30a3463f\n      eq\n      tag_4\n      jumpi\n      dup1\n      0x704b6c02\n      eq\n      tag_5\n      jumpi\n      dup1\n      0x8da5cb5b\n      eq\n      tag_6\n      jumpi\n    tag_2:\n      revert(0x00, 0x00)\n        /* \"Prediction-Market/Market.sol\":885:1047  function deleteAdmin(address _admin)... */\n    tag_3:\n      tag_12\n      0x04\n      dup1\n      calldatasize\n      sub\n      dup2\n      add\n      swap1\n      tag_13\n      swap2\n      swap1\n      tag_14\n      jump\t// in\n    tag_13:\n      tag_15\n      jump\t// in\n    tag_12:\n      stop\n        /* \"Prediction-Market/MarketData.sol\":1899:1936  uint64 public functionsSubscriptionid */\n    tag_4:\n      tag_16\n      tag_17\n      jump\t// in\n    tag_16:\n      mload(0x40)\n      tag_18\n      swap2\n      swap1\n      tag_19\n      jump\t// in\n    tag_18:\n      mload(0x40)\n      dup1\n      swap2\n      sub\n      swap1\n      return\n        /* \"Prediction-Market/Market.sol\":702:842  function setAdmin(address _admin)... */\n    tag_5:\n      tag_20\n      0x04\n      dup1\n      calldatasize\n      sub\n      dup2\n      add\n      swap1\n      tag_21\n      swap2\n      swap1\n      tag_14\n      jump\t// in\n    tag_21:\n      tag_22\n      jump\t// in\n    tag_20:\n      stop\n        /* \"Prediction-Market/Market.sol\":187:207  address public owner */\n    tag_6:\n      tag_23\n      tag_24\n      jump\t// in\n    tag_23:\n      mload(0x40)\n      tag_25\n      swap2\n      swap1\n      tag_26\n      jump\t// in\n    tag_25:\n      mload(0x40)\n      dup1\n      swap2\n      sub\n      swap1\n      return\n        /* \"Prediction-Market/MarketData.sol\":1612:1640  uint256 public OrderMarketid */\n    tag_7:\n      tag_27\n      tag_28\n      jump\t// in\n    tag_27:\n      mload(0x40)\n      tag_29\n      swap2\n      swap1\n      tag_30\n      jump\t// in\n    tag_29:\n      mload(0x40)\n      dup1\n      swap2\n      sub\n      swap1\n      return\n        /* \"Prediction-Market/MarketData.sol\":1536:1588  mapping (uint256 market_id => Market) public markets */\n    tag_8:\n      tag_31\n      0x04\n      dup1\n      calldatasize\n      sub\n      dup2\n      add\n      swap1\n      tag_32\n      swap2\n      swap1\n      tag_33\n      jump\t// in\n    tag_32:\n      tag_34\n      jump\t// in\n    tag_31:\n      mload(0x40)\n      tag_35\n      swap13\n      swap12\n      swap11\n      swap10\n      swap9\n      swap8\n      swap7\n      swap6\n      swap5\n      swap4\n      swap3\n      swap2\n      swap1\n      tag_36\n      jump\t// in\n    tag_35:\n      mload(0x40)\n      dup1\n      swap2\n      sub\n      swap1\n      return\n        /* \"Prediction-Market/MarketData.sol\":1696:1726  address public functionsRouter */\n    tag_9:\n      tag_37\n      tag_38\n      jump\t// in\n    tag_37:\n      mload(0x40)\n      tag_39\n      swap2\n      swap1\n      tag_26\n      jump\t// in\n    tag_39:\n      mload(0x40)\n      dup1\n      swap2\n      sub\n      swap1\n      return\n        /* \"Prediction-Market/Market.sol\":1470:2906  function createEvent(... */\n    tag_10:\n      tag_40\n      0x04\n      dup1\n      calldatasize\n      sub\n      dup2\n      add\n      swap1\n      tag_41\n      swap2\n      swap1\n      tag_42\n      jump\t// in\n    tag_41:\n      tag_43\n      jump\t// in\n    tag_40:\n      mload(0x40)\n      tag_44\n      swap2\n      swap1\n      tag_30\n      jump\t// in\n    tag_44:\n      mload(0x40)\n      dup1\n      swap2\n      sub\n      swap1\n      return\n        /* \"Prediction-Market/Market.sol\":885:1047  function deleteAdmin(address _admin)... */\n    tag_15:\n        /* \"Prediction-Market/Market.sol\":951:961  msg.sender */\n      caller\n        /* \"Prediction-Market/Market.sol\":1116:1121  owner */\n      0x03\n      0x00\n      swap1\n      sload\n      swap1\n      0x0100\n      exp\n      swap1\n      div\n      0xffffffffffffffffffffffffffffffffffffffff\n      and\n        /* \"Prediction-Market/Market.sol\":1108:1121  sender==owner */\n      0xffffffffffffffffffffffffffffffffffffffff\n      and\n        /* \"Prediction-Market/Market.sol\":1108:1114  sender */\n      dup2\n        /* \"Prediction-Market/Market.sol\":1108:1121  sender==owner */\n      0xffffffffffffffffffffffffffffffffffffffff\n      and\n      eq\n        /* \"Prediction-Market/Market.sol\":1100:1141  require(sender==owner,\"You not owner!!!\") */\n      tag_46\n      jumpi\n      mload(0x40)\n      0x08c379a000000000000000000000000000000000000000000000000000000000\n      dup2\n      mstore\n      0x04\n      add\n      tag_47\n      swap1\n      tag_48\n      jump\t// in\n    tag_47:\n      mload(0x40)\n      dup1\n      swap2\n      sub\n      swap1\n      revert\n    tag_46:\n        /* \"Prediction-Market/Market.sol\":975:981  _admin */\n      dup2\n        /* \"Prediction-Market/Market.sol\":1298:1302  true */\n      0x01\n        /* \"Prediction-Market/Market.sol\":1274:1302  admin_list[admin_addr]==true */\n      iszero\n      iszero\n        /* \"Prediction-Market/Market.sol\":1274:1284  admin_list */\n      0x04\n        /* \"Prediction-Market/Market.sol\":1274:1296  admin_list[admin_addr] */\n      0x00\n        /* \"Prediction-Market/Market.sol\":1285:1295  admin_addr */\n      dup4\n        /* \"Prediction-Market/Market.sol\":1274:1296  admin_list[admin_addr] */\n      0xffffffffffffffffffffffffffffffffffffffff\n      and\n      0xffffffffffffffffffffffffffffffffffffffff\n      and\n      dup2\n      mstore\n      0x20\n      add\n      swap1\n      dup2\n      mstore\n      0x20\n      add\n      0x00\n      keccak256\n      0x00\n      swap1\n      sload\n      swap1\n      0x0100\n      exp\n      swap1\n      div\n      0xff\n      and\n        /* \"Prediction-Market/Market.sol\":1274:1302  admin_list[admin_addr]==true */\n      iszero\n      iszero\n      eq\n        /* \"Prediction-Market/Market.sol\":1266:1322  require(admin_list[admin_addr]==true,\"You not admin!!!\") */\n      tag_50\n      jumpi\n      mload(0x40)\n      0x08c379a000000000000000000000000000000000000000000000000000000000\n      dup2\n      mstore\n      0x04\n      add\n      tag_51\n      swap1\n      tag_52\n      jump\t// in\n    tag_51:\n      mload(0x40)\n      dup1\n      swap2\n      sub\n      swap1\n      revert\n    tag_50:\n        /* \"Prediction-Market/Market.sol\":1035:1040  false */\n      0x00\n        /* \"Prediction-Market/Market.sol\":1016:1026  admin_list */\n      0x04\n        /* \"Prediction-Market/Market.sol\":1016:1034  admin_list[_admin] */\n      0x00\n        /* \"Prediction-Market/Market.sol\":1027:1033  _admin */\n      dup6\n        /* \"Prediction-Market/Market.sol\":1016:1034  admin_list[_admin] */\n      0xffffffffffffffffffffffffffffffffffffffff\n      and\n      0xffffffffffffffffffffffffffffffffffffffff\n      and\n      dup2\n      mstore\n      0x20\n      add\n      swap1\n      dup2\n      mstore\n      0x20\n      add\n      0x00\n      keccak256\n      0x00\n        /* \"Prediction-Market/Market.sol\":1016:1040  admin_list[_admin]=false */\n      0x0100\n      exp\n      dup2\n      sload\n      dup2\n      0xff\n      mul\n      not\n      and\n      swap1\n      dup4\n      iszero\n      iszero\n      mul\n      or\n      swap1\n      sstore\n      pop\n        /* \"Prediction-Market/Market.sol\":1206:1207  _ */\n      pop\n        /* \"Prediction-Market/Market.sol\":885:1047  function deleteAdmin(address _admin)... */\n      pop\n      pop\n      jump\t// out\n        /* \"Prediction-Market/MarketData.sol\":1899:1936  uint64 public functionsSubscriptionid */\n    tag_17:\n      0x02\n      0x14\n      swap1\n      sload\n      swap1\n      0x0100\n      exp\n      swap1\n      div\n      0xffffffffffffffff\n      and\n      dup2\n      jump\t// out\n        /* \"Prediction-Market/Market.sol\":702:842  function setAdmin(address _admin)... */\n    tag_22:\n        /* \"Prediction-Market/Market.sol\":765:775  msg.sender */\n      caller\n        /* \"Prediction-Market/Market.sol\":1116:1121  owner */\n      0x03\n      0x00\n      swap1\n      sload\n      swap1\n      0x0100\n      exp\n      swap1\n      div\n      0xffffffffffffffffffffffffffffffffffffffff\n      and\n        /* \"Prediction-Market/Market.sol\":1108:1121  sender==owner */\n      0xffffffffffffffffffffffffffffffffffffffff\n      and\n        /* \"Prediction-Market/Market.sol\":1108:1114  sender */\n      dup2\n        /* \"Prediction-Market/Market.sol\":1108:1121  sender==owner */\n      0xffffffffffffffffffffffffffffffffffffffff\n      and\n      eq\n        /* \"Prediction-Market/Market.sol\":1100:1141  require(sender==owner,\"You not owner!!!\") */\n      tag_55\n      jumpi\n      mload(0x40)\n      0x08c379a000000000000000000000000000000000000000000000000000000000\n      dup2\n      mstore\n      0x04\n      add\n      tag_56\n      swap1\n      tag_48\n      jump\t// in\n    tag_56:\n      mload(0x40)\n      dup1\n      swap2\n      sub\n      swap1\n      revert\n    tag_55:\n        /* \"Prediction-Market/Market.sol\":831:835  true */\n      0x01\n        /* \"Prediction-Market/Market.sol\":812:822  admin_list */\n      0x04\n        /* \"Prediction-Market/Market.sol\":812:830  admin_list[_admin] */\n      0x00\n        /* \"Prediction-Market/Market.sol\":823:829  _admin */\n      dup5\n        /* \"Prediction-Market/Market.sol\":812:830  admin_list[_admin] */\n      0xffffffffffffffffffffffffffffffffffffffff\n      and\n      0xffffffffffffffffffffffffffffffffffffffff\n      and\n      dup2\n      mstore\n      0x20\n      add\n      swap1\n      dup2\n      mstore\n      0x20\n      add\n      0x00\n      keccak256\n      0x00\n        /* \"Prediction-Market/Market.sol\":812:835  admin_list[_admin]=true */\n      0x0100\n      exp\n      dup2\n      sload\n      dup2\n      0xff\n      mul\n      not\n      and\n      swap1\n      dup4\n      iszero\n      iszero\n      mul\n      or\n      swap1\n      sstore\n      pop\n        /* \"Prediction-Market/Market.sol\":702:842  function setAdmin(address _admin)... */\n      pop\n      pop\n      jump\t// out\n        /* \"Prediction-Market/Market.sol\":187:207  address public owner */\n    tag_24:\n      0x03\n      0x00\n      swap1\n      sload\n      swap1\n      0x0100\n      exp\n      swap1\n      div\n      0xffffffffffffffffffffffffffffffffffffffff\n      and\n      dup2\n      jump\t// out\n        /* \"Prediction-Market/MarketData.sol\":1612:1640  uint256 public OrderMarketid */\n    tag_28:\n      sload(0x01)\n      dup2\n      jump\t// out\n        /* \"Prediction-Market/MarketData.sol\":1536:1588  mapping (uint256 market_id => Market) public markets */\n    tag_34:\n      mstore(0x20, 0x00)\n      dup1\n      0x00\n      mstore\n      keccak256(0x00, 0x40)\n      0x00\n      swap2\n      pop\n      swap1\n      pop\n      dup1\n      0x00\n      add\n      sload\n      swap1\n      dup1\n      0x01\n      add\n      dup1\n      sload\n      tag_58\n      swap1\n      tag_59\n      jump\t// in\n    tag_58:\n      dup1\n      0x1f\n      add\n      0x20\n      dup1\n      swap2\n      div\n      mul\n      0x20\n      add\n      mload(0x40)\n      swap1\n      dup2\n      add\n      0x40\n      mstore\n      dup1\n      swap3\n      swap2\n      swap1\n      dup2\n      dup2\n      mstore\n      0x20\n      add\n      dup3\n      dup1\n      sload\n      tag_60\n      swap1\n      tag_59\n      jump\t// in\n    tag_60:\n      dup1\n      iszero\n      tag_61\n      jumpi\n      dup1\n      0x1f\n      lt\n      tag_62\n      jumpi\n      0x0100\n      dup1\n      dup4\n      sload\n      div\n      mul\n      dup4\n      mstore\n      swap2\n      0x20\n      add\n      swap2\n      jump(tag_61)\n    tag_62:\n      dup3\n      add\n      swap2\n      swap1\n      0x00\n      mstore\n      keccak256(0x00, 0x20)\n      swap1\n    tag_63:\n      dup2\n      sload\n      dup2\n      mstore\n      swap1\n      0x01\n      add\n      swap1\n      0x20\n      add\n      dup1\n      dup4\n      gt\n      tag_63\n      jumpi\n      dup3\n      swap1\n      sub\n      0x1f\n      and\n      dup3\n      add\n      swap2\n    tag_61:\n      pop\n      pop\n      pop\n      pop\n      pop\n      swap1\n      dup1\n      0x02\n      add\n      0x00\n      swap1\n      sload\n      swap1\n      0x0100\n      exp\n      swap1\n      div\n      0xff\n      and\n      swap1\n      dup1\n      0x02\n      add\n      0x01\n      swap1\n      sload\n      swap1\n      0x0100\n      exp\n      swap1\n      div\n      0xffffffffffff\n      and\n      swap1\n      dup1\n      0x02\n      add\n      0x07\n      swap1\n      sload\n      swap1\n      0x0100\n      exp\n      swap1\n      div\n      0xffffffffffff\n      and\n      swap1\n      dup1\n      0x02\n      add\n      0x0d\n      swap1\n      sload\n      swap1\n      0x0100\n      exp\n      swap1\n      div\n      0xffffffffffff\n      and\n      swap1\n      dup1\n      0x02\n      add\n      0x13\n      swap1\n      sload\n      swap1\n      0x0100\n      exp\n      swap1\n      div\n      0xffffffffffff\n      and\n      swap1\n      dup1\n      0x05\n      add\n      sload\n      swap1\n      dup1\n      0x06\n      add\n      dup1\n      sload\n      tag_64\n      swap1\n      tag_59\n      jump\t// in\n    tag_64:\n      dup1\n      0x1f\n      add\n      0x20\n      dup1\n      swap2\n      div\n      mul\n      0x20\n      add\n      mload(0x40)\n      swap1\n      dup2\n      add\n      0x40\n      mstore\n      dup1\n      swap3\n      swap2\n      swap1\n      dup2\n      dup2\n      mstore\n      0x20\n      add\n      dup3\n      dup1\n      sload\n      tag_65\n      swap1\n      tag_59\n      jump\t// in\n    tag_65:\n      dup1\n      iszero\n      tag_66\n      jumpi\n      dup1\n      0x1f\n      lt\n      tag_67\n      jumpi\n      0x0100\n      dup1\n      dup4\n      sload\n      div\n      mul\n      dup4\n      mstore\n      swap2\n      0x20\n      add\n      swap2\n      jump(tag_66)\n    tag_67:\n      dup3\n      add\n      swap2\n      swap1\n      0x00\n      mstore\n      keccak256(0x00, 0x20)\n      swap1\n    tag_68:\n      dup2\n      sload\n      dup2\n      mstore\n      swap1\n      0x01\n      add\n      swap1\n      0x20\n      add\n      dup1\n      dup4\n      gt\n      tag_68\n      jumpi\n      dup3\n      swap1\n      sub\n      0x1f\n      and\n      dup3\n      add\n      swap2\n    tag_66:\n      pop\n      pop\n      pop\n      pop\n      pop\n      swap1\n      dup1\n      0x07\n      add\n      dup1\n      sload\n      tag_69\n      swap1\n      tag_59\n      jump\t// in\n    tag_69:\n      dup1\n      0x1f\n      add\n      0x20\n      dup1\n      swap2\n      div\n      mul\n      0x20\n      add\n      mload(0x40)\n      swap1\n      dup2\n      add\n      0x40\n      mstore\n      dup1\n      swap3\n      swap2\n      swap1\n      dup2\n      dup2\n      mstore\n      0x20\n      add\n      dup3\n      dup1\n      sload\n      tag_70\n      swap1\n      tag_59\n      jump\t// in\n    tag_70:\n      dup1\n      iszero\n      tag_71\n      jumpi\n      dup1\n      0x1f\n      lt\n      tag_72\n      jumpi\n      0x0100\n      dup1\n      dup4\n      sload\n      div\n      mul\n      dup4\n      mstore\n      swap2\n      0x20\n      add\n      swap2\n      jump(tag_71)\n    tag_72:\n      dup3\n      add\n      swap2\n      swap1\n      0x00\n      mstore\n      keccak256(0x00, 0x20)\n      swap1\n    tag_73:\n      dup2\n      sload\n      dup2\n      mstore\n      swap1\n      0x01\n      add\n      swap1\n      0x20\n      add\n      dup1\n      dup4\n      gt\n      tag_73\n      jumpi\n      dup3\n      swap1\n      sub\n      0x1f\n      and\n      dup3\n      add\n      swap2\n    tag_71:\n      pop\n      pop\n      pop\n      pop\n      pop\n      swap1\n      dup1\n      0x08\n      add\n      0x00\n      swap1\n      sload\n      swap1\n      0x0100\n      exp\n      swap1\n      div\n      0xff\n      and\n      swap1\n      dup1\n      0x08\n      add\n      0x01\n      swap1\n      sload\n      swap1\n      0x0100\n      exp\n      swap1\n      div\n      0xff\n      and\n      swap1\n      pop\n      dup13\n      jump\t// out\n        /* \"Prediction-Market/MarketData.sol\":1696:1726  address public functionsRouter */\n    tag_38:\n      0x02\n      0x00\n      swap1\n      sload\n      swap1\n      0x0100\n      exp\n      swap1\n      div\n      0xffffffffffffffffffffffffffffffffffffffff\n      and\n      dup2\n      jump\t// out\n        /* \"Prediction-Market/Market.sol\":1470:2906  function createEvent(... */\n    tag_43:\n        /* \"Prediction-Market/Market.sol\":1960:1977  uint256 market_id */\n      0x00\n        /* \"Prediction-Market/Market.sol\":1936:1946  msg.sender */\n      caller\n        /* \"Prediction-Market/Market.sol\":1298:1302  true */\n      0x01\n        /* \"Prediction-Market/Market.sol\":1274:1302  admin_list[admin_addr]==true */\n      iszero\n      iszero\n        /* \"Prediction-Market/Market.sol\":1274:1284  admin_list */\n      0x04\n        /* \"Prediction-Market/Market.sol\":1274:1296  admin_list[admin_addr] */\n      0x00\n        /* \"Prediction-Market/Market.sol\":1285:1295  admin_addr */\n      dup4\n        /* \"Prediction-Market/Market.sol\":1274:1296  admin_list[admin_addr] */\n      0xffffffffffffffffffffffffffffffffffffffff\n      and\n      0xffffffffffffffffffffffffffffffffffffffff\n      and\n      dup2\n      mstore\n      0x20\n      add\n      swap1\n      dup2\n      mstore\n      0x20\n      add\n      0x00\n      keccak256\n      0x00\n      swap1\n      sload\n      swap1\n      0x0100\n      exp\n      swap1\n      div\n      0xff\n      and\n        /* \"Prediction-Market/Market.sol\":1274:1302  admin_list[admin_addr]==true */\n      iszero\n      iszero\n      eq\n        /* \"Prediction-Market/Market.sol\":1266:1322  require(admin_list[admin_addr]==true,\"You not admin!!!\") */\n      tag_75\n      jumpi\n      mload(0x40)\n      0x08c379a000000000000000000000000000000000000000000000000000000000\n      dup2\n      mstore\n      0x04\n      add\n      tag_76\n      swap1\n      tag_52\n      jump\t// in\n    tag_76:\n      mload(0x40)\n      dup1\n      swap2\n      sub\n      swap1\n      revert\n    tag_75:\n        /* \"Prediction-Market/Market.sol\":2017:2034  deadlinetimestamp */\n      dup6\n        /* \"Prediction-Market/Market.sol\":2001:2034  block.timestamp<deadlinetimestamp */\n      0xffffffffffff\n      and\n        /* \"Prediction-Market/Market.sol\":2001:2016  block.timestamp */\n      timestamp\n        /* \"Prediction-Market/Market.sol\":2001:2034  block.timestamp<deadlinetimestamp */\n      lt\n        /* \"Prediction-Market/Market.sol\":1993:2073  require(block.timestamp<deadlinetimestamp,\"Deadline timestamp must be later!!!\") */\n      tag_78\n      jumpi\n      mload(0x40)\n      0x08c379a000000000000000000000000000000000000000000000000000000000\n      dup2\n      mstore\n      0x04\n      add\n      tag_79\n      swap1\n      tag_80\n      jump\t// in\n    tag_79:\n      mload(0x40)\n      dup1\n      swap2\n      sub\n      swap1\n      revert\n    tag_78:\n        /* \"Prediction-Market/Market.sol\":2152:2153  0 */\n      0x00\n        /* \"Prediction-Market/Market.sol\":2133:2151  analysiswindowtime */\n      dup6\n        /* \"Prediction-Market/Market.sol\":2133:2153  analysiswindowtime>0 */\n      0xffffffffffff\n      and\n      gt\n        /* \"Prediction-Market/Market.sol\":2125:2189  require(analysiswindowtime>0,\"Resolve time can't equal zero!!!\") */\n      tag_81\n      jumpi\n      mload(0x40)\n      0x08c379a000000000000000000000000000000000000000000000000000000000\n      dup2\n      mstore\n      0x04\n      add\n      tag_82\n      swap1\n      tag_83\n      jump\t// in\n    tag_82:\n      mload(0x40)\n      dup1\n      swap2\n      sub\n      swap1\n      revert\n    tag_81:\n        /* \"Prediction-Market/Market.sol\":2235:2248  OrderMarketid */\n      0x01\n      0x00\n        /* \"Prediction-Market/Market.sol\":2235:2250  OrderMarketid++ */\n      dup2\n      sload\n      dup1\n      swap3\n      swap2\n      swap1\n      tag_84\n      swap1\n      tag_85\n      jump\t// in\n    tag_84:\n      swap2\n      swap1\n      pop\n      sstore\n        /* \"Prediction-Market/Market.sol\":2225:2250  market_id=OrderMarketid++ */\n      swap2\n      pop\n        /* \"Prediction-Market/Market.sol\":2318:2339  Market storage market */\n      0x00\n        /* \"Prediction-Market/Market.sol\":2342:2349  markets */\n      0x00\n        /* \"Prediction-Market/Market.sol\":2342:2360  markets[market_id] */\n      0x00\n        /* \"Prediction-Market/Market.sol\":2350:2359  market_id */\n      dup5\n        /* \"Prediction-Market/Market.sol\":2342:2360  markets[market_id] */\n      dup2\n      mstore\n      0x20\n      add\n      swap1\n      dup2\n      mstore\n      0x20\n      add\n      0x00\n      keccak256\n        /* \"Prediction-Market/Market.sol\":2318:2360  Market storage market = markets[market_id] */\n      swap1\n      pop\n        /* \"Prediction-Market/Market.sol\":2421:2430  market_id */\n      dup3\n        /* \"Prediction-Market/Market.sol\":2411:2417  market */\n      dup2\n        /* \"Prediction-Market/Market.sol\":2411:2420  market.id */\n      0x00\n      add\n        /* \"Prediction-Market/Market.sol\":2411:2430  market.id=market_id */\n      dup2\n      swap1\n      sstore\n      pop\n        /* \"Prediction-Market/Market.sol\":2460:2471  description */\n      dup8\n        /* \"Prediction-Market/Market.sol\":2441:2447  market */\n      dup2\n        /* \"Prediction-Market/Market.sol\":2441:2459  market.description */\n      0x01\n      add\n        /* \"Prediction-Market/Market.sol\":2441:2471  market.description=description */\n      swap1\n      dup2\n      tag_86\n      swap2\n      swap1\n      tag_87\n      jump\t// in\n    tag_86:\n      pop\n        /* \"Prediction-Market/Market.sol\":2494:2511  MarketStatus.Open */\n      0x01\n        /* \"Prediction-Market/Market.sol\":2481:2487  market */\n      dup2\n        /* \"Prediction-Market/Market.sol\":2481:2493  market.state */\n      0x02\n      add\n      0x00\n        /* \"Prediction-Market/Market.sol\":2481:2511  market.state=MarketStatus.Open */\n      0x0100\n      exp\n      dup2\n      sload\n      dup2\n      0xff\n      mul\n      not\n      and\n      swap1\n      dup4\n      0x05\n      dup2\n      gt\n      iszero\n      tag_88\n      jumpi\n      tag_89\n      tag_90\n      jump\t// in\n    tag_89:\n    tag_88:\n      mul\n      or\n      swap1\n      sstore\n      pop\n        /* \"Prediction-Market/Market.sol\":2551:2566  block.timestamp */\n      timestamp\n        /* \"Prediction-Market/Market.sol\":2521:2527  market */\n      dup2\n        /* \"Prediction-Market/Market.sol\":2521:2543  market.createTimeStamp */\n      0x02\n      add\n      0x01\n        /* \"Prediction-Market/Market.sol\":2521:2567  market.createTimeStamp=uint48(block.timestamp) */\n      0x0100\n      exp\n      dup2\n      sload\n      dup2\n      0xffffffffffff\n      mul\n      not\n      and\n      swap1\n      dup4\n      0xffffffffffff\n      and\n      mul\n      or\n      swap1\n      sstore\n      pop\n        /* \"Prediction-Market/Market.sol\":2594:2611  deadlinetimestamp */\n      dup7\n        /* \"Prediction-Market/Market.sol\":2577:2583  market */\n      dup2\n        /* \"Prediction-Market/Market.sol\":2577:2593  market.closeTime */\n      0x02\n      add\n      0x07\n        /* \"Prediction-Market/Market.sol\":2577:2611  market.closeTime=deadlinetimestamp */\n      0x0100\n      exp\n      dup2\n      sload\n      dup2\n      0xffffffffffff\n      mul\n      not\n      and\n      swap1\n      dup4\n      0xffffffffffff\n      and\n      mul\n      or\n      swap1\n      sstore\n      pop\n        /* \"Prediction-Market/Market.sol\":2642:2660  analysiswindowtime */\n      dup6\n        /* \"Prediction-Market/Market.sol\":2621:2627  market */\n      dup2\n        /* \"Prediction-Market/Market.sol\":2621:2641  market.resolveWindow */\n      0x02\n      add\n      0x0d\n        /* \"Prediction-Market/Market.sol\":2621:2660  market.resolveWindow=analysiswindowtime */\n      0x0100\n      exp\n      dup2\n      sload\n      dup2\n      0xffffffffffff\n      mul\n      not\n      and\n      swap1\n      dup4\n      0xffffffffffff\n      and\n      mul\n      or\n      swap1\n      sstore\n      pop\n        /* \"Prediction-Market/Market.sol\":2711:2717  market */\n      dup1\n        /* \"Prediction-Market/Market.sol\":2711:2731  market.resolveWindow */\n      0x02\n      add\n      0x0d\n      swap1\n      sload\n      swap1\n      0x0100\n      exp\n      swap1\n      div\n      0xffffffffffff\n      and\n        /* \"Prediction-Market/Market.sol\":2694:2700  market */\n      dup2\n        /* \"Prediction-Market/Market.sol\":2694:2710  market.closeTime */\n      0x02\n      add\n      0x07\n      swap1\n      sload\n      swap1\n      0x0100\n      exp\n      swap1\n      div\n      0xffffffffffff\n      and\n        /* \"Prediction-Market/Market.sol\":2694:2731  market.closeTime+market.resolveWindow */\n      tag_91\n      swap2\n      swap1\n      tag_92\n      jump\t// in\n    tag_91:\n        /* \"Prediction-Market/Market.sol\":2670:2676  market */\n      dup2\n        /* \"Prediction-Market/Market.sol\":2670:2693  market.resolveTimeStamp */\n      0x02\n      add\n      0x13\n        /* \"Prediction-Market/Market.sol\":2670:2731  market.resolveTimeStamp=market.closeTime+market.resolveWindow */\n      0x0100\n      exp\n      dup2\n      sload\n      dup2\n      0xffffffffffff\n      mul\n      not\n      and\n      swap1\n      dup4\n      0xffffffffffff\n      and\n      mul\n      or\n      swap1\n      sstore\n      pop\n        /* \"Prediction-Market/Market.sol\":2764:2780  _functionsSource */\n      dup5\n        /* \"Prediction-Market/Market.sol\":2741:2747  market */\n      dup2\n        /* \"Prediction-Market/Market.sol\":2741:2763  market.functionsSource */\n      0x06\n      add\n        /* \"Prediction-Market/Market.sol\":2741:2780  market.functionsSource=_functionsSource */\n      swap1\n      dup2\n      tag_93\n      swap2\n      swap1\n      tag_87\n      jump\t// in\n    tag_93:\n      pop\n        /* \"Prediction-Market/Market.sol\":2814:2831  _encryptedSecrets */\n      dup4\n        /* \"Prediction-Market/Market.sol\":2790:2796  market */\n      dup2\n        /* \"Prediction-Market/Market.sol\":2790:2813  market.encryptedSecrets */\n      0x07\n      add\n        /* \"Prediction-Market/Market.sol\":2790:2831  market.encryptedSecrets=_encryptedSecrets */\n      swap1\n      dup2\n      tag_94\n      swap2\n      swap1\n      tag_95\n      jump\t// in\n    tag_94:\n      pop\n        /* \"Prediction-Market/Market.sol\":1983:2906  {... */\n      pop\n        /* \"Prediction-Market/Market.sol\":1470:2906  function createEvent(... */\n      pop\n      swap6\n      swap5\n      pop\n      pop\n      pop\n      pop\n      pop\n      jump\t// out\n        /* \"#utility.yul\":7:82   */\n    tag_96:\n        /* \"#utility.yul\":40:46   */\n      0x00\n        /* \"#utility.yul\":73:75   */\n      0x40\n        /* \"#utility.yul\":67:76   */\n      mload\n        /* \"#utility.yul\":57:76   */\n      swap1\n      pop\n        /* \"#utility.yul\":7:82   */\n      swap1\n      jump\t// out\n        /* \"#utility.yul\":88:205   */\n    tag_97:\n        /* \"#utility.yul\":197:198   */\n      0x00\n        /* \"#utility.yul\":194:195   */\n      0x00\n        /* \"#utility.yul\":187:199   */\n      revert\n        /* \"#utility.yul\":211:328   */\n    tag_98:\n        /* \"#utility.yul\":320:321   */\n      0x00\n        /* \"#utility.yul\":317:318   */\n      0x00\n        /* \"#utility.yul\":310:322   */\n      revert\n        /* \"#utility.yul\":334:460   */\n    tag_99:\n        /* \"#utility.yul\":371:378   */\n      0x00\n        /* \"#utility.yul\":411:453   */\n      0xffffffffffffffffffffffffffffffffffffffff\n        /* \"#utility.yul\":404:409   */\n      dup3\n        /* \"#utility.yul\":400:454   */\n      and\n        /* \"#utility.yul\":389:454   */\n      swap1\n      pop\n        /* \"#utility.yul\":334:460   */\n      swap2\n      swap1\n      pop\n      jump\t// out\n        /* \"#utility.yul\":466:562   */\n    tag_100:\n        /* \"#utility.yul\":503:510   */\n      0x00\n        /* \"#utility.yul\":532:556   */\n      tag_177\n        /* \"#utility.yul\":550:555   */\n      dup3\n        /* \"#utility.yul\":532:556   */\n      tag_99\n      jump\t// in\n    tag_177:\n        /* \"#utility.yul\":521:556   */\n      swap1\n      pop\n        /* \"#utility.yul\":466:562   */\n      swap2\n      swap1\n      pop\n      jump\t// out\n        /* \"#utility.yul\":568:690   */\n    tag_101:\n        /* \"#utility.yul\":641:665   */\n      tag_179\n        /* \"#utility.yul\":659:664   */\n      dup2\n        /* \"#utility.yul\":641:665   */\n      tag_100\n      jump\t// in\n    tag_179:\n        /* \"#utility.yul\":634:639   */\n      dup2\n        /* \"#utility.yul\":631:666   */\n      eq\n        /* \"#utility.yul\":621:684   */\n      tag_180\n      jumpi\n        /* \"#utility.yul\":680:681   */\n      0x00\n        /* \"#utility.yul\":677:678   */\n      0x00\n        /* \"#utility.yul\":670:682   */\n      revert\n        /* \"#utility.yul\":621:684   */\n    tag_180:\n        /* \"#utility.yul\":568:690   */\n      pop\n      jump\t// out\n        /* \"#utility.yul\":696:835   */\n    tag_102:\n        /* \"#utility.yul\":742:747   */\n      0x00\n        /* \"#utility.yul\":780:786   */\n      dup2\n        /* \"#utility.yul\":767:787   */\n      calldataload\n        /* \"#utility.yul\":758:787   */\n      swap1\n      pop\n        /* \"#utility.yul\":796:829   */\n      tag_182\n        /* \"#utility.yul\":823:828   */\n      dup2\n        /* \"#utility.yul\":796:829   */\n      tag_101\n      jump\t// in\n    tag_182:\n        /* \"#utility.yul\":696:835   */\n      swap3\n      swap2\n      pop\n      pop\n      jump\t// out\n        /* \"#utility.yul\":841:1170   */\n    tag_14:\n        /* \"#utility.yul\":900:906   */\n      0x00\n        /* \"#utility.yul\":949:951   */\n      0x20\n        /* \"#utility.yul\":937:946   */\n      dup3\n        /* \"#utility.yul\":928:935   */\n      dup5\n        /* \"#utility.yul\":924:947   */\n      sub\n        /* \"#utility.yul\":920:952   */\n      slt\n        /* \"#utility.yul\":917:1036   */\n      iszero\n      tag_184\n      jumpi\n        /* \"#utility.yul\":955:1034   */\n      tag_185\n      tag_97\n      jump\t// in\n    tag_185:\n        /* \"#utility.yul\":917:1036   */\n    tag_184:\n        /* \"#utility.yul\":1075:1076   */\n      0x00\n        /* \"#utility.yul\":1100:1153   */\n      tag_186\n        /* \"#utility.yul\":1145:1152   */\n      dup5\n        /* \"#utility.yul\":1136:1142   */\n      dup3\n        /* \"#utility.yul\":1125:1134   */\n      dup6\n        /* \"#utility.yul\":1121:1143   */\n      add\n        /* \"#utility.yul\":1100:1153   */\n      tag_102\n      jump\t// in\n    tag_186:\n        /* \"#utility.yul\":1090:1153   */\n      swap2\n      pop\n        /* \"#utility.yul\":1046:1163   */\n      pop\n        /* \"#utility.yul\":841:1170   */\n      swap3\n      swap2\n      pop\n      pop\n      jump\t// out\n        /* \"#utility.yul\":1176:1277   */\n    tag_103:\n        /* \"#utility.yul\":1212:1219   */\n      0x00\n        /* \"#utility.yul\":1252:1270   */\n      0xffffffffffffffff\n        /* \"#utility.yul\":1245:1250   */\n      dup3\n        /* \"#utility.yul\":1241:1271   */\n      and\n        /* \"#utility.yul\":1230:1271   */\n      swap1\n      pop\n        /* \"#utility.yul\":1176:1277   */\n      swap2\n      swap1\n      pop\n      jump\t// out\n        /* \"#utility.yul\":1283:1398   */\n    tag_104:\n        /* \"#utility.yul\":1368:1391   */\n      tag_189\n        /* \"#utility.yul\":1385:1390   */\n      dup2\n        /* \"#utility.yul\":1368:1391   */\n      tag_103\n      jump\t// in\n    tag_189:\n        /* \"#utility.yul\":1363:1366   */\n      dup3\n        /* \"#utility.yul\":1356:1392   */\n      mstore\n        /* \"#utility.yul\":1283:1398   */\n      pop\n      pop\n      jump\t// out\n        /* \"#utility.yul\":1404:1622   */\n    tag_19:\n        /* \"#utility.yul\":1495:1499   */\n      0x00\n        /* \"#utility.yul\":1533:1535   */\n      0x20\n        /* \"#utility.yul\":1522:1531   */\n      dup3\n        /* \"#utility.yul\":1518:1536   */\n      add\n        /* \"#utility.yul\":1510:1536   */\n      swap1\n      pop\n        /* \"#utility.yul\":1546:1615   */\n      tag_191\n        /* \"#utility.yul\":1612:1613   */\n      0x00\n        /* \"#utility.yul\":1601:1610   */\n      dup4\n        /* \"#utility.yul\":1597:1614   */\n      add\n        /* \"#utility.yul\":1588:1594   */\n      dup5\n        /* \"#utility.yul\":1546:1615   */\n      tag_104\n      jump\t// in\n    tag_191:\n        /* \"#utility.yul\":1404:1622   */\n      swap3\n      swap2\n      pop\n      pop\n      jump\t// out\n        /* \"#utility.yul\":1628:1746   */\n    tag_105:\n        /* \"#utility.yul\":1715:1739   */\n      tag_193\n        /* \"#utility.yul\":1733:1738   */\n      dup2\n        /* \"#utility.yul\":1715:1739   */\n      tag_100\n      jump\t// in\n    tag_193:\n        /* \"#utility.yul\":1710:1713   */\n      dup3\n        /* \"#utility.yul\":1703:1740   */\n      mstore\n        /* \"#utility.yul\":1628:1746   */\n      pop\n      pop\n      jump\t// out\n        /* \"#utility.yul\":1752:1974   */\n    tag_26:\n        /* \"#utility.yul\":1845:1849   */\n      0x00\n        /* \"#utility.yul\":1883:1885   */\n      0x20\n        /* \"#utility.yul\":1872:1881   */\n      dup3\n        /* \"#utility.yul\":1868:1886   */\n      add\n        /* \"#utility.yul\":1860:1886   */\n      swap1\n      pop\n        /* \"#utility.yul\":1896:1967   */\n      tag_195\n        /* \"#utility.yul\":1964:1965   */\n      0x00\n        /* \"#utility.yul\":1953:1962   */\n      dup4\n        /* \"#utility.yul\":1949:1966   */\n      add\n        /* \"#utility.yul\":1940:1946   */\n      dup5\n        /* \"#utility.yul\":1896:1967   */\n      tag_105\n      jump\t// in\n    tag_195:\n        /* \"#utility.yul\":1752:1974   */\n      swap3\n      swap2\n      pop\n      pop\n      jump\t// out\n        /* \"#utility.yul\":1980:2057   */\n    tag_106:\n        /* \"#utility.yul\":2017:2024   */\n      0x00\n        /* \"#utility.yul\":2046:2051   */\n      dup2\n        /* \"#utility.yul\":2035:2051   */\n      swap1\n      pop\n        /* \"#utility.yul\":1980:2057   */\n      swap2\n      swap1\n      pop\n      jump\t// out\n        /* \"#utility.yul\":2063:2181   */\n    tag_107:\n        /* \"#utility.yul\":2150:2174   */\n      tag_198\n        /* \"#utility.yul\":2168:2173   */\n      dup2\n        /* \"#utility.yul\":2150:2174   */\n      tag_106\n      jump\t// in\n    tag_198:\n        /* \"#utility.yul\":2145:2148   */\n      dup3\n        /* \"#utility.yul\":2138:2175   */\n      mstore\n        /* \"#utility.yul\":2063:2181   */\n      pop\n      pop\n      jump\t// out\n        /* \"#utility.yul\":2187:2409   */\n    tag_30:\n        /* \"#utility.yul\":2280:2284   */\n      0x00\n        /* \"#utility.yul\":2318:2320   */\n      0x20\n        /* \"#utility.yul\":2307:2316   */\n      dup3\n        /* \"#utility.yul\":2303:2321   */\n      add\n        /* \"#utility.yul\":2295:2321   */\n      swap1\n      pop\n        /* \"#utility.yul\":2331:2402   */\n      tag_200\n        /* \"#utility.yul\":2399:2400   */\n      0x00\n        /* \"#utility.yul\":2388:2397   */\n      dup4\n        /* \"#utility.yul\":2384:2401   */\n      add\n        /* \"#utility.yul\":2375:2381   */\n      dup5\n        /* \"#utility.yul\":2331:2402   */\n      tag_107\n      jump\t// in\n    tag_200:\n        /* \"#utility.yul\":2187:2409   */\n      swap3\n      swap2\n      pop\n      pop\n      jump\t// out\n        /* \"#utility.yul\":2415:2537   */\n    tag_108:\n        /* \"#utility.yul\":2488:2512   */\n      tag_202\n        /* \"#utility.yul\":2506:2511   */\n      dup2\n        /* \"#utility.yul\":2488:2512   */\n      tag_106\n      jump\t// in\n    tag_202:\n        /* \"#utility.yul\":2481:2486   */\n      dup2\n        /* \"#utility.yul\":2478:2513   */\n      eq\n        /* \"#utility.yul\":2468:2531   */\n      tag_203\n      jumpi\n        /* \"#utility.yul\":2527:2528   */\n      0x00\n        /* \"#utility.yul\":2524:2525   */\n      0x00\n        /* \"#utility.yul\":2517:2529   */\n      revert\n        /* \"#utility.yul\":2468:2531   */\n    tag_203:\n        /* \"#utility.yul\":2415:2537   */\n      pop\n      jump\t// out\n        /* \"#utility.yul\":2543:2682   */\n    tag_109:\n        /* \"#utility.yul\":2589:2594   */\n      0x00\n        /* \"#utility.yul\":2627:2633   */\n      dup2\n        /* \"#utility.yul\":2614:2634   */\n      calldataload\n        /* \"#utility.yul\":2605:2634   */\n      swap1\n      pop\n        /* \"#utility.yul\":2643:2676   */\n      tag_205\n        /* \"#utility.yul\":2670:2675   */\n      dup2\n        /* \"#utility.yul\":2643:2676   */\n      tag_108\n      jump\t// in\n    tag_205:\n        /* \"#utility.yul\":2543:2682   */\n      swap3\n      swap2\n      pop\n      pop\n      jump\t// out\n        /* \"#utility.yul\":2688:3017   */\n    tag_33:\n        /* \"#utility.yul\":2747:2753   */\n      0x00\n        /* \"#utility.yul\":2796:2798   */\n      0x20\n        /* \"#utility.yul\":2784:2793   */\n      dup3\n        /* \"#utility.yul\":2775:2782   */\n      dup5\n        /* \"#utility.yul\":2771:2794   */\n      sub\n        /* \"#utility.yul\":2767:2799   */\n      slt\n        /* \"#utility.yul\":2764:2883   */\n      iszero\n      tag_207\n      jumpi\n        /* \"#utility.yul\":2802:2881   */\n      tag_208\n      tag_97\n      jump\t// in\n    tag_208:\n        /* \"#utility.yul\":2764:2883   */\n    tag_207:\n        /* \"#utility.yul\":2922:2923   */\n      0x00\n        /* \"#utility.yul\":2947:3000   */\n      tag_209\n        /* \"#utility.yul\":2992:2999   */\n      dup5\n        /* \"#utility.yul\":2983:2989   */\n      dup3\n        /* \"#utility.yul\":2972:2981   */\n      dup6\n        /* \"#utility.yul\":2968:2990   */\n      add\n        /* \"#utility.yul\":2947:3000   */\n      tag_109\n      jump\t// in\n    tag_209:\n        /* \"#utility.yul\":2937:3000   */\n      swap2\n      pop\n        /* \"#utility.yul\":2893:3010   */\n      pop\n        /* \"#utility.yul\":2688:3017   */\n      swap3\n      swap2\n      pop\n      pop\n      jump\t// out\n        /* \"#utility.yul\":3023:3122   */\n    tag_110:\n        /* \"#utility.yul\":3075:3081   */\n      0x00\n        /* \"#utility.yul\":3109:3114   */\n      dup2\n        /* \"#utility.yul\":3103:3115   */\n      mload\n        /* \"#utility.yul\":3093:3115   */\n      swap1\n      pop\n        /* \"#utility.yul\":3023:3122   */\n      swap2\n      swap1\n      pop\n      jump\t// out\n        /* \"#utility.yul\":3128:3297   */\n    tag_111:\n        /* \"#utility.yul\":3212:3223   */\n      0x00\n        /* \"#utility.yul\":3246:3252   */\n      dup3\n        /* \"#utility.yul\":3241:3244   */\n      dup3\n        /* \"#utility.yul\":3234:3253   */\n      mstore\n        /* \"#utility.yul\":3286:3290   */\n      0x20\n        /* \"#utility.yul\":3281:3284   */\n      dup3\n        /* \"#utility.yul\":3277:3291   */\n      add\n        /* \"#utility.yul\":3262:3291   */\n      swap1\n      pop\n        /* \"#utility.yul\":3128:3297   */\n      swap3\n      swap2\n      pop\n      pop\n      jump\t// out\n        /* \"#utility.yul\":3303:3442   */\n    tag_112:\n        /* \"#utility.yul\":3392:3398   */\n      dup3\n        /* \"#utility.yul\":3387:3390   */\n      dup2\n        /* \"#utility.yul\":3382:3385   */\n      dup4\n        /* \"#utility.yul\":3376:3399   */\n      mcopy\n        /* \"#utility.yul\":3433:3434   */\n      0x00\n        /* \"#utility.yul\":3424:3430   */\n      dup4\n        /* \"#utility.yul\":3419:3422   */\n      dup4\n        /* \"#utility.yul\":3415:3431   */\n      add\n        /* \"#utility.yul\":3408:3435   */\n      mstore\n        /* \"#utility.yul\":3303:3442   */\n      pop\n      pop\n      pop\n      jump\t// out\n        /* \"#utility.yul\":3448:3550   */\n    tag_113:\n        /* \"#utility.yul\":3489:3495   */\n      0x00\n        /* \"#utility.yul\":3540:3542   */\n      0x1f\n        /* \"#utility.yul\":3536:3543   */\n      not\n        /* \"#utility.yul\":3531:3533   */\n      0x1f\n        /* \"#utility.yul\":3524:3529   */\n      dup4\n        /* \"#utility.yul\":3520:3534   */\n      add\n        /* \"#utility.yul\":3516:3544   */\n      and\n        /* \"#utility.yul\":3506:3544   */\n      swap1\n      pop\n        /* \"#utility.yul\":3448:3550   */\n      swap2\n      swap1\n      pop\n      jump\t// out\n        /* \"#utility.yul\":3556:3933   */\n    tag_114:\n        /* \"#utility.yul\":3644:3647   */\n      0x00\n        /* \"#utility.yul\":3672:3711   */\n      tag_215\n        /* \"#utility.yul\":3705:3710   */\n      dup3\n        /* \"#utility.yul\":3672:3711   */\n      tag_110\n      jump\t// in\n    tag_215:\n        /* \"#utility.yul\":3727:3798   */\n      tag_216\n        /* \"#utility.yul\":3791:3797   */\n      dup2\n        /* \"#utility.yul\":3786:3789   */\n      dup6\n        /* \"#utility.yul\":3727:3798   */\n      tag_111\n      jump\t// in\n    tag_216:\n        /* \"#utility.yul\":3720:3798   */\n      swap4\n      pop\n        /* \"#utility.yul\":3807:3872   */\n      tag_217\n        /* \"#utility.yul\":3865:3871   */\n      dup2\n        /* \"#utility.yul\":3860:3863   */\n      dup6\n        /* \"#utility.yul\":3853:3857   */\n      0x20\n        /* \"#utility.yul\":3846:3851   */\n      dup7\n        /* \"#utility.yul\":3842:3858   */\n      add\n        /* \"#utility.yul\":3807:3872   */\n      tag_112\n      jump\t// in\n    tag_217:\n        /* \"#utility.yul\":3897:3926   */\n      tag_218\n        /* \"#utility.yul\":3919:3925   */\n      dup2\n        /* \"#utility.yul\":3897:3926   */\n      tag_113\n      jump\t// in\n    tag_218:\n        /* \"#utility.yul\":3892:3895   */\n      dup5\n        /* \"#utility.yul\":3888:3927   */\n      add\n        /* \"#utility.yul\":3881:3927   */\n      swap2\n      pop\n        /* \"#utility.yul\":3648:3933   */\n      pop\n        /* \"#utility.yul\":3556:3933   */\n      swap3\n      swap2\n      pop\n      pop\n      jump\t// out\n        /* \"#utility.yul\":3939:4119   */\n    tag_90:\n        /* \"#utility.yul\":3987:4064   */\n      0x4e487b7100000000000000000000000000000000000000000000000000000000\n        /* \"#utility.yul\":3984:3985   */\n      0x00\n        /* \"#utility.yul\":3977:4065   */\n      mstore\n        /* \"#utility.yul\":4084:4088   */\n      0x21\n        /* \"#utility.yul\":4081:4082   */\n      0x04\n        /* \"#utility.yul\":4074:4089   */\n      mstore\n        /* \"#utility.yul\":4108:4112   */\n      0x24\n        /* \"#utility.yul\":4105:4106   */\n      0x00\n        /* \"#utility.yul\":4098:4113   */\n      revert\n        /* \"#utility.yul\":4125:4246   */\n    tag_115:\n        /* \"#utility.yul\":4214:4215   */\n      0x06\n        /* \"#utility.yul\":4207:4212   */\n      dup2\n        /* \"#utility.yul\":4204:4216   */\n      lt\n        /* \"#utility.yul\":4194:4240   */\n      tag_221\n      jumpi\n        /* \"#utility.yul\":4220:4238   */\n      tag_222\n      tag_90\n      jump\t// in\n    tag_222:\n        /* \"#utility.yul\":4194:4240   */\n    tag_221:\n        /* \"#utility.yul\":4125:4246   */\n      pop\n      jump\t// out\n        /* \"#utility.yul\":4252:4395   */\n    tag_116:\n        /* \"#utility.yul\":4305:4312   */\n      0x00\n        /* \"#utility.yul\":4334:4339   */\n      dup2\n        /* \"#utility.yul\":4323:4339   */\n      swap1\n      pop\n        /* \"#utility.yul\":4340:4389   */\n      tag_224\n        /* \"#utility.yul\":4383:4388   */\n      dup3\n        /* \"#utility.yul\":4340:4389   */\n      tag_115\n      jump\t// in\n    tag_224:\n        /* \"#utility.yul\":4252:4395   */\n      swap2\n      swap1\n      pop\n      jump\t// out\n        /* \"#utility.yul\":4401:4544   */\n    tag_117:\n        /* \"#utility.yul\":4465:4474   */\n      0x00\n        /* \"#utility.yul\":4498:4538   */\n      tag_226\n        /* \"#utility.yul\":4532:4537   */\n      dup3\n        /* \"#utility.yul\":4498:4538   */\n      tag_116\n      jump\t// in\n    tag_226:\n        /* \"#utility.yul\":4485:4538   */\n      swap1\n      pop\n        /* \"#utility.yul\":4401:4544   */\n      swap2\n      swap1\n      pop\n      jump\t// out\n        /* \"#utility.yul\":4550:4709   */\n    tag_118:\n        /* \"#utility.yul\":4651:4702   */\n      tag_228\n        /* \"#utility.yul\":4696:4701   */\n      dup2\n        /* \"#utility.yul\":4651:4702   */\n      tag_117\n      jump\t// in\n    tag_228:\n        /* \"#utility.yul\":4646:4649   */\n      dup3\n        /* \"#utility.yul\":4639:4703   */\n      mstore\n        /* \"#utility.yul\":4550:4709   */\n      pop\n      pop\n      jump\t// out\n        /* \"#utility.yul\":4715:4812   */\n    tag_119:\n        /* \"#utility.yul\":4751:4758   */\n      0x00\n        /* \"#utility.yul\":4791:4805   */\n      0xffffffffffff\n        /* \"#utility.yul\":4784:4789   */\n      dup3\n        /* \"#utility.yul\":4780:4806   */\n      and\n        /* \"#utility.yul\":4769:4806   */\n      swap1\n      pop\n        /* \"#utility.yul\":4715:4812   */\n      swap2\n      swap1\n      pop\n      jump\t// out\n        /* \"#utility.yul\":4818:4933   */\n    tag_120:\n        /* \"#utility.yul\":4903:4926   */\n      tag_231\n        /* \"#utility.yul\":4920:4925   */\n      dup2\n        /* \"#utility.yul\":4903:4926   */\n      tag_119\n      jump\t// in\n    tag_231:\n        /* \"#utility.yul\":4898:4901   */\n      dup3\n        /* \"#utility.yul\":4891:4927   */\n      mstore\n        /* \"#utility.yul\":4818:4933   */\n      pop\n      pop\n      jump\t// out\n        /* \"#utility.yul\":4939:5016   */\n    tag_121:\n        /* \"#utility.yul\":4976:4983   */\n      0x00\n        /* \"#utility.yul\":5005:5010   */\n      dup2\n        /* \"#utility.yul\":4994:5010   */\n      swap1\n      pop\n        /* \"#utility.yul\":4939:5016   */\n      swap2\n      swap1\n      pop\n      jump\t// out\n        /* \"#utility.yul\":5022:5140   */\n    tag_122:\n        /* \"#utility.yul\":5109:5133   */\n      tag_234\n        /* \"#utility.yul\":5127:5132   */\n      dup2\n        /* \"#utility.yul\":5109:5133   */\n      tag_121\n      jump\t// in\n    tag_234:\n        /* \"#utility.yul\":5104:5107   */\n      dup3\n        /* \"#utility.yul\":5097:5134   */\n      mstore\n        /* \"#utility.yul\":5022:5140   */\n      pop\n      pop\n      jump\t// out\n        /* \"#utility.yul\":5146:5244   */\n    tag_123:\n        /* \"#utility.yul\":5197:5203   */\n      0x00\n        /* \"#utility.yul\":5231:5236   */\n      dup2\n        /* \"#utility.yul\":5225:5237   */\n      mload\n        /* \"#utility.yul\":5215:5237   */\n      swap1\n      pop\n        /* \"#utility.yul\":5146:5244   */\n      swap2\n      swap1\n      pop\n      jump\t// out\n        /* \"#utility.yul\":5250:5418   */\n    tag_124:\n        /* \"#utility.yul\":5333:5344   */\n      0x00\n        /* \"#utility.yul\":5367:5373   */\n      dup3\n        /* \"#utility.yul\":5362:5365   */\n      dup3\n        /* \"#utility.yul\":5355:5374   */\n      mstore\n        /* \"#utility.yul\":5407:5411   */\n      0x20\n        /* \"#utility.yul\":5402:5405   */\n      dup3\n        /* \"#utility.yul\":5398:5412   */\n      add\n        /* \"#utility.yul\":5383:5412   */\n      swap1\n      pop\n        /* \"#utility.yul\":5250:5418   */\n      swap3\n      swap2\n      pop\n      pop\n      jump\t// out\n        /* \"#utility.yul\":5424:5797   */\n    tag_125:\n        /* \"#utility.yul\":5510:5513   */\n      0x00\n        /* \"#utility.yul\":5538:5576   */\n      tag_238\n        /* \"#utility.yul\":5570:5575   */\n      dup3\n        /* \"#utility.yul\":5538:5576   */\n      tag_123\n      jump\t// in\n    tag_238:\n        /* \"#utility.yul\":5592:5662   */\n      tag_239\n        /* \"#utility.yul\":5655:5661   */\n      dup2\n        /* \"#utility.yul\":5650:5653   */\n      dup6\n        /* \"#utility.yul\":5592:5662   */\n      tag_124\n      jump\t// in\n    tag_239:\n        /* \"#utility.yul\":5585:5662   */\n      swap4\n      pop\n        /* \"#utility.yul\":5671:5736   */\n      tag_240\n        /* \"#utility.yul\":5729:5735   */\n      dup2\n        /* \"#utility.yul\":5724:5727   */\n      dup6\n        /* \"#utility.yul\":5717:5721   */\n      0x20\n        /* \"#utility.yul\":5710:5715   */\n      dup7\n        /* \"#utility.yul\":5706:5722   */\n      add\n        /* \"#utility.yul\":5671:5736   */\n      tag_112\n      jump\t// in\n    tag_240:\n        /* \"#utility.yul\":5761:5790   */\n      tag_241\n        /* \"#utility.yul\":5783:5789   */\n      dup2\n        /* \"#utility.yul\":5761:5790   */\n      tag_113\n      jump\t// in\n    tag_241:\n        /* \"#utility.yul\":5756:5759   */\n      dup5\n        /* \"#utility.yul\":5752:5791   */\n      add\n        /* \"#utility.yul\":5745:5791   */\n      swap2\n      pop\n        /* \"#utility.yul\":5514:5797   */\n      pop\n        /* \"#utility.yul\":5424:5797   */\n      swap3\n      swap2\n      pop\n      pop\n      jump\t// out\n        /* \"#utility.yul\":5803:5889   */\n    tag_126:\n        /* \"#utility.yul\":5838:5845   */\n      0x00\n        /* \"#utility.yul\":5878:5882   */\n      0xff\n        /* \"#utility.yul\":5871:5876   */\n      dup3\n        /* \"#utility.yul\":5867:5883   */\n      and\n        /* \"#utility.yul\":5856:5883   */\n      swap1\n      pop\n        /* \"#utility.yul\":5803:5889   */\n      swap2\n      swap1\n      pop\n      jump\t// out\n        /* \"#utility.yul\":5895:6007   */\n    tag_127:\n        /* \"#utility.yul\":5978:6000   */\n      tag_244\n        /* \"#utility.yul\":5994:5999   */\n      dup2\n        /* \"#utility.yul\":5978:6000   */\n      tag_126\n      jump\t// in\n    tag_244:\n        /* \"#utility.yul\":5973:5976   */\n      dup3\n        /* \"#utility.yul\":5966:6001   */\n      mstore\n        /* \"#utility.yul\":5895:6007   */\n      pop\n      pop\n      jump\t// out\n        /* \"#utility.yul\":6013:6103   */\n    tag_128:\n        /* \"#utility.yul\":6047:6054   */\n      0x00\n        /* \"#utility.yul\":6090:6095   */\n      dup2\n        /* \"#utility.yul\":6083:6096   */\n      iszero\n        /* \"#utility.yul\":6076:6097   */\n      iszero\n        /* \"#utility.yul\":6065:6097   */\n      swap1\n      pop\n        /* \"#utility.yul\":6013:6103   */\n      swap2\n      swap1\n      pop\n      jump\t// out\n        /* \"#utility.yul\":6109:6218   */\n    tag_129:\n        /* \"#utility.yul\":6190:6211   */\n      tag_247\n        /* \"#utility.yul\":6205:6210   */\n      dup2\n        /* \"#utility.yul\":6190:6211   */\n      tag_128\n      jump\t// in\n    tag_247:\n        /* \"#utility.yul\":6185:6188   */\n      dup3\n        /* \"#utility.yul\":6178:6212   */\n      mstore\n        /* \"#utility.yul\":6109:6218   */\n      pop\n      pop\n      jump\t// out\n        /* \"#utility.yul\":6224:7930   */\n    tag_36:\n        /* \"#utility.yul\":6681:6685   */\n      0x00\n        /* \"#utility.yul\":6719:6722   */\n      0x0180\n        /* \"#utility.yul\":6708:6717   */\n      dup3\n        /* \"#utility.yul\":6704:6723   */\n      add\n        /* \"#utility.yul\":6696:6723   */\n      swap1\n      pop\n        /* \"#utility.yul\":6733:6804   */\n      tag_249\n        /* \"#utility.yul\":6801:6802   */\n      0x00\n        /* \"#utility.yul\":6790:6799   */\n      dup4\n        /* \"#utility.yul\":6786:6803   */\n      add\n        /* \"#utility.yul\":6777:6783   */\n      dup16\n        /* \"#utility.yul\":6733:6804   */\n      tag_107\n      jump\t// in\n    tag_249:\n        /* \"#utility.yul\":6851:6860   */\n      dup2\n        /* \"#utility.yul\":6845:6849   */\n      dup2\n        /* \"#utility.yul\":6841:6861   */\n      sub\n        /* \"#utility.yul\":6836:6838   */\n      0x20\n        /* \"#utility.yul\":6825:6834   */\n      dup4\n        /* \"#utility.yul\":6821:6839   */\n      add\n        /* \"#utility.yul\":6814:6862   */\n      mstore\n        /* \"#utility.yul\":6879:6957   */\n      tag_250\n        /* \"#utility.yul\":6952:6956   */\n      dup2\n        /* \"#utility.yul\":6943:6949   */\n      dup15\n        /* \"#utility.yul\":6879:6957   */\n      tag_114\n      jump\t// in\n    tag_250:\n        /* \"#utility.yul\":6871:6957   */\n      swap1\n      pop\n        /* \"#utility.yul\":6967:7053   */\n      tag_251\n        /* \"#utility.yul\":7049:7051   */\n      0x40\n        /* \"#utility.yul\":7038:7047   */\n      dup4\n        /* \"#utility.yul\":7034:7052   */\n      add\n        /* \"#utility.yul\":7025:7031   */\n      dup14\n        /* \"#utility.yul\":6967:7053   */\n      tag_118\n      jump\t// in\n    tag_251:\n        /* \"#utility.yul\":7063:7133   */\n      tag_252\n        /* \"#utility.yul\":7129:7131   */\n      0x60\n        /* \"#utility.yul\":7118:7127   */\n      dup4\n        /* \"#utility.yul\":7114:7132   */\n      add\n        /* \"#utility.yul\":7105:7111   */\n      dup13\n        /* \"#utility.yul\":7063:7133   */\n      tag_120\n      jump\t// in\n    tag_252:\n        /* \"#utility.yul\":7143:7214   */\n      tag_253\n        /* \"#utility.yul\":7209:7212   */\n      0x80\n        /* \"#utility.yul\":7198:7207   */\n      dup4\n        /* \"#utility.yul\":7194:7213   */\n      add\n        /* \"#utility.yul\":7185:7191   */\n      dup12\n        /* \"#utility.yul\":7143:7214   */\n      tag_120\n      jump\t// in\n    tag_253:\n        /* \"#utility.yul\":7224:7295   */\n      tag_254\n        /* \"#utility.yul\":7290:7293   */\n      0xa0\n        /* \"#utility.yul\":7279:7288   */\n      dup4\n        /* \"#utility.yul\":7275:7294   */\n      add\n        /* \"#utility.yul\":7266:7272   */\n      dup11\n        /* \"#utility.yul\":7224:7295   */\n      tag_120\n      jump\t// in\n    tag_254:\n        /* \"#utility.yul\":7305:7376   */\n      tag_255\n        /* \"#utility.yul\":7371:7374   */\n      0xc0\n        /* \"#utility.yul\":7360:7369   */\n      dup4\n        /* \"#utility.yul\":7356:7375   */\n      add\n        /* \"#utility.yul\":7347:7353   */\n      dup10\n        /* \"#utility.yul\":7305:7376   */\n      tag_120\n      jump\t// in\n    tag_255:\n        /* \"#utility.yul\":7386:7459   */\n      tag_256\n        /* \"#utility.yul\":7454:7457   */\n      0xe0\n        /* \"#utility.yul\":7443:7452   */\n      dup4\n        /* \"#utility.yul\":7439:7458   */\n      add\n        /* \"#utility.yul\":7430:7436   */\n      dup9\n        /* \"#utility.yul\":7386:7459   */\n      tag_122\n      jump\t// in\n    tag_256:\n        /* \"#utility.yul\":7507:7516   */\n      dup2\n        /* \"#utility.yul\":7501:7505   */\n      dup2\n        /* \"#utility.yul\":7497:7517   */\n      sub\n        /* \"#utility.yul\":7491:7494   */\n      0x0100\n        /* \"#utility.yul\":7480:7489   */\n      dup4\n        /* \"#utility.yul\":7476:7495   */\n      add\n        /* \"#utility.yul\":7469:7518   */\n      mstore\n        /* \"#utility.yul\":7535:7613   */\n      tag_257\n        /* \"#utility.yul\":7608:7612   */\n      dup2\n        /* \"#utility.yul\":7599:7605   */\n      dup8\n        /* \"#utility.yul\":7535:7613   */\n      tag_114\n      jump\t// in\n    tag_257:\n        /* \"#utility.yul\":7527:7613   */\n      swap1\n      pop\n        /* \"#utility.yul\":7661:7670   */\n      dup2\n        /* \"#utility.yul\":7655:7659   */\n      dup2\n        /* \"#utility.yul\":7651:7671   */\n      sub\n        /* \"#utility.yul\":7645:7648   */\n      0x0120\n        /* \"#utility.yul\":7634:7643   */\n      dup4\n        /* \"#utility.yul\":7630:7649   */\n      add\n        /* \"#utility.yul\":7623:7672   */\n      mstore\n        /* \"#utility.yul\":7689:7765   */\n      tag_258\n        /* \"#utility.yul\":7760:7764   */\n      dup2\n        /* \"#utility.yul\":7751:7757   */\n      dup7\n        /* \"#utility.yul\":7689:7765   */\n      tag_125\n      jump\t// in\n    tag_258:\n        /* \"#utility.yul\":7681:7765   */\n      swap1\n      pop\n        /* \"#utility.yul\":7775:7845   */\n      tag_259\n        /* \"#utility.yul\":7840:7843   */\n      0x0140\n        /* \"#utility.yul\":7829:7838   */\n      dup4\n        /* \"#utility.yul\":7825:7844   */\n      add\n        /* \"#utility.yul\":7815:7822   */\n      dup6\n        /* \"#utility.yul\":7775:7845   */\n      tag_127\n      jump\t// in\n    tag_259:\n        /* \"#utility.yul\":7855:7923   */\n      tag_260\n        /* \"#utility.yul\":7918:7921   */\n      0x0160\n        /* \"#utility.yul\":7907:7916   */\n      dup4\n        /* \"#utility.yul\":7903:7922   */\n      add\n        /* \"#utility.yul\":7893:7900   */\n      dup5\n        /* \"#utility.yul\":7855:7923   */\n      tag_129\n      jump\t// in\n    tag_260:\n        /* \"#utility.yul\":6224:7930   */\n      swap14\n      swap13\n      pop\n      pop\n      pop\n      pop\n      pop\n      pop\n      pop\n      pop\n      pop\n      pop\n      pop\n      pop\n      pop\n      jump\t// out\n        /* \"#utility.yul\":7936:8053   */\n    tag_130:\n        /* \"#utility.yul\":8045:8046   */\n      0x00\n        /* \"#utility.yul\":8042:8043   */\n      0x00\n        /* \"#utility.yul\":8035:8047   */\n      revert\n        /* \"#utility.yul\":8059:8176   */\n    tag_131:\n        /* \"#utility.yul\":8168:8169   */\n      0x00\n        /* \"#utility.yul\":8165:8166   */\n      0x00\n        /* \"#utility.yul\":8158:8170   */\n      revert\n        /* \"#utility.yul\":8182:8362   */\n    tag_132:\n        /* \"#utility.yul\":8230:8307   */\n      0x4e487b7100000000000000000000000000000000000000000000000000000000\n        /* \"#utility.yul\":8227:8228   */\n      0x00\n        /* \"#utility.yul\":8220:8308   */\n      mstore\n        /* \"#utility.yul\":8327:8331   */\n      0x41\n        /* \"#utility.yul\":8324:8325   */\n      0x04\n        /* \"#utility.yul\":8317:8332   */\n      mstore\n        /* \"#utility.yul\":8351:8355   */\n      0x24\n        /* \"#utility.yul\":8348:8349   */\n      0x00\n        /* \"#utility.yul\":8341:8356   */\n      revert\n        /* \"#utility.yul\":8368:8649   */\n    tag_133:\n        /* \"#utility.yul\":8451:8478   */\n      tag_265\n        /* \"#utility.yul\":8473:8477   */\n      dup3\n        /* \"#utility.yul\":8451:8478   */\n      tag_113\n      jump\t// in\n    tag_265:\n        /* \"#utility.yul\":8443:8449   */\n      dup2\n        /* \"#utility.yul\":8439:8479   */\n      add\n        /* \"#utility.yul\":8581:8587   */\n      dup2\n        /* \"#utility.yul\":8569:8579   */\n      dup2\n        /* \"#utility.yul\":8566:8588   */\n      lt\n        /* \"#utility.yul\":8545:8563   */\n      0xffffffffffffffff\n        /* \"#utility.yul\":8533:8543   */\n      dup3\n        /* \"#utility.yul\":8530:8564   */\n      gt\n        /* \"#utility.yul\":8527:8589   */\n      or\n        /* \"#utility.yul\":8524:8612   */\n      iszero\n      tag_266\n      jumpi\n        /* \"#utility.yul\":8592:8610   */\n      tag_267\n      tag_132\n      jump\t// in\n    tag_267:\n        /* \"#utility.yul\":8524:8612   */\n    tag_266:\n        /* \"#utility.yul\":8632:8642   */\n      dup1\n        /* \"#utility.yul\":8628:8630   */\n      0x40\n        /* \"#utility.yul\":8621:8643   */\n      mstore\n        /* \"#utility.yul\":8411:8649   */\n      pop\n        /* \"#utility.yul\":8368:8649   */\n      pop\n      pop\n      jump\t// out\n        /* \"#utility.yul\":8655:8784   */\n    tag_134:\n        /* \"#utility.yul\":8689:8695   */\n      0x00\n        /* \"#utility.yul\":8716:8736   */\n      tag_269\n      tag_96\n      jump\t// in\n    tag_269:\n        /* \"#utility.yul\":8706:8736   */\n      swap1\n      pop\n        /* \"#utility.yul\":8745:8778   */\n      tag_270\n        /* \"#utility.yul\":8773:8777   */\n      dup3\n        /* \"#utility.yul\":8765:8771   */\n      dup3\n        /* \"#utility.yul\":8745:8778   */\n      tag_133\n      jump\t// in\n    tag_270:\n        /* \"#utility.yul\":8655:8784   */\n      swap2\n      swap1\n      pop\n      jump\t// out\n        /* \"#utility.yul\":8790:9098   */\n    tag_135:\n        /* \"#utility.yul\":8852:8856   */\n      0x00\n        /* \"#utility.yul\":8942:8960   */\n      0xffffffffffffffff\n        /* \"#utility.yul\":8934:8940   */\n      dup3\n        /* \"#utility.yul\":8931:8961   */\n      gt\n        /* \"#utility.yul\":8928:8984   */\n      iszero\n      tag_272\n      jumpi\n        /* \"#utility.yul\":8964:8982   */\n      tag_273\n      tag_132\n      jump\t// in\n    tag_273:\n        /* \"#utility.yul\":8928:8984   */\n    tag_272:\n        /* \"#utility.yul\":9002:9031   */\n      tag_274\n        /* \"#utility.yul\":9024:9030   */\n      dup3\n        /* \"#utility.yul\":9002:9031   */\n      tag_113\n      jump\t// in\n    tag_274:\n        /* \"#utility.yul\":8994:9031   */\n      swap1\n      pop\n        /* \"#utility.yul\":9086:9090   */\n      0x20\n        /* \"#utility.yul\":9080:9084   */\n      dup2\n        /* \"#utility.yul\":9076:9091   */\n      add\n        /* \"#utility.yul\":9068:9091   */\n      swap1\n      pop\n        /* \"#utility.yul\":8790:9098   */\n      swap2\n      swap1\n      pop\n      jump\t// out\n        /* \"#utility.yul\":9104:9252   */\n    tag_136:\n        /* \"#utility.yul\":9202:9208   */\n      dup3\n        /* \"#utility.yul\":9197:9200   */\n      dup2\n        /* \"#utility.yul\":9192:9195   */\n      dup4\n        /* \"#utility.yul\":9179:9209   */\n      calldatacopy\n        /* \"#utility.yul\":9243:9244   */\n      0x00\n        /* \"#utility.yul\":9234:9240   */\n      dup4\n        /* \"#utility.yul\":9229:9232   */\n      dup4\n        /* \"#utility.yul\":9225:9241   */\n      add\n        /* \"#utility.yul\":9218:9245   */\n      mstore\n        /* \"#utility.yul\":9104:9252   */\n      pop\n      pop\n      pop\n      jump\t// out\n        /* \"#utility.yul\":9258:9683   */\n    tag_137:\n        /* \"#utility.yul\":9336:9341   */\n      0x00\n        /* \"#utility.yul\":9361:9427   */\n      tag_277\n        /* \"#utility.yul\":9377:9426   */\n      tag_278\n        /* \"#utility.yul\":9419:9425   */\n      dup5\n        /* \"#utility.yul\":9377:9426   */\n      tag_135\n      jump\t// in\n    tag_278:\n        /* \"#utility.yul\":9361:9427   */\n      tag_134\n      jump\t// in\n    tag_277:\n        /* \"#utility.yul\":9352:9427   */\n      swap1\n      pop\n        /* \"#utility.yul\":9450:9456   */\n      dup3\n        /* \"#utility.yul\":9443:9448   */\n      dup2\n        /* \"#utility.yul\":9436:9457   */\n      mstore\n        /* \"#utility.yul\":9488:9492   */\n      0x20\n        /* \"#utility.yul\":9481:9486   */\n      dup2\n        /* \"#utility.yul\":9477:9493   */\n      add\n        /* \"#utility.yul\":9526:9529   */\n      dup5\n        /* \"#utility.yul\":9517:9523   */\n      dup5\n        /* \"#utility.yul\":9512:9515   */\n      dup5\n        /* \"#utility.yul\":9508:9524   */\n      add\n        /* \"#utility.yul\":9505:9530   */\n      gt\n        /* \"#utility.yul\":9502:9614   */\n      iszero\n      tag_279\n      jumpi\n        /* \"#utility.yul\":9533:9612   */\n      tag_280\n      tag_131\n      jump\t// in\n    tag_280:\n        /* \"#utility.yul\":9502:9614   */\n    tag_279:\n        /* \"#utility.yul\":9623:9677   */\n      tag_281\n        /* \"#utility.yul\":9670:9676   */\n      dup5\n        /* \"#utility.yul\":9665:9668   */\n      dup3\n        /* \"#utility.yul\":9660:9663   */\n      dup6\n        /* \"#utility.yul\":9623:9677   */\n      tag_136\n      jump\t// in\n    tag_281:\n        /* \"#utility.yul\":9342:9683   */\n      pop\n        /* \"#utility.yul\":9258:9683   */\n      swap4\n      swap3\n      pop\n      pop\n      pop\n      jump\t// out\n        /* \"#utility.yul\":9703:10043   */\n    tag_138:\n        /* \"#utility.yul\":9759:9764   */\n      0x00\n        /* \"#utility.yul\":9808:9811   */\n      dup3\n        /* \"#utility.yul\":9801:9805   */\n      0x1f\n        /* \"#utility.yul\":9793:9799   */\n      dup4\n        /* \"#utility.yul\":9789:9806   */\n      add\n        /* \"#utility.yul\":9785:9812   */\n      slt\n        /* \"#utility.yul\":9775:9897   */\n      tag_283\n      jumpi\n        /* \"#utility.yul\":9816:9895   */\n      tag_284\n      tag_130\n      jump\t// in\n    tag_284:\n        /* \"#utility.yul\":9775:9897   */\n    tag_283:\n        /* \"#utility.yul\":9933:9939   */\n      dup2\n        /* \"#utility.yul\":9920:9940   */\n      calldataload\n        /* \"#utility.yul\":9958:10037   */\n      tag_285\n        /* \"#utility.yul\":10033:10036   */\n      dup5\n        /* \"#utility.yul\":10025:10031   */\n      dup3\n        /* \"#utility.yul\":10018:10022   */\n      0x20\n        /* \"#utility.yul\":10010:10016   */\n      dup7\n        /* \"#utility.yul\":10006:10023   */\n      add\n        /* \"#utility.yul\":9958:10037   */\n      tag_137\n      jump\t// in\n    tag_285:\n        /* \"#utility.yul\":9949:10037   */\n      swap2\n      pop\n        /* \"#utility.yul\":9765:10043   */\n      pop\n        /* \"#utility.yul\":9703:10043   */\n      swap3\n      swap2\n      pop\n      pop\n      jump\t// out\n        /* \"#utility.yul\":10049:10169   */\n    tag_139:\n        /* \"#utility.yul\":10121:10144   */\n      tag_287\n        /* \"#utility.yul\":10138:10143   */\n      dup2\n        /* \"#utility.yul\":10121:10144   */\n      tag_119\n      jump\t// in\n    tag_287:\n        /* \"#utility.yul\":10114:10119   */\n      dup2\n        /* \"#utility.yul\":10111:10145   */\n      eq\n        /* \"#utility.yul\":10101:10163   */\n      tag_288\n      jumpi\n        /* \"#utility.yul\":10159:10160   */\n      0x00\n        /* \"#utility.yul\":10156:10157   */\n      0x00\n        /* \"#utility.yul\":10149:10161   */\n      revert\n        /* \"#utility.yul\":10101:10163   */\n    tag_288:\n        /* \"#utility.yul\":10049:10169   */\n      pop\n      jump\t// out\n        /* \"#utility.yul\":10175:10312   */\n    tag_140:\n        /* \"#utility.yul\":10220:10225   */\n      0x00\n        /* \"#utility.yul\":10258:10264   */\n      dup2\n        /* \"#utility.yul\":10245:10265   */\n      calldataload\n        /* \"#utility.yul\":10236:10265   */\n      swap1\n      pop\n        /* \"#utility.yul\":10274:10306   */\n      tag_290\n        /* \"#utility.yul\":10300:10305   */\n      dup2\n        /* \"#utility.yul\":10274:10306   */\n      tag_139\n      jump\t// in\n    tag_290:\n        /* \"#utility.yul\":10175:10312   */\n      swap3\n      swap2\n      pop\n      pop\n      jump\t// out\n        /* \"#utility.yul\":10318:10625   */\n    tag_141:\n        /* \"#utility.yul\":10379:10383   */\n      0x00\n        /* \"#utility.yul\":10469:10487   */\n      0xffffffffffffffff\n        /* \"#utility.yul\":10461:10467   */\n      dup3\n        /* \"#utility.yul\":10458:10488   */\n      gt\n        /* \"#utility.yul\":10455:10511   */\n      iszero\n      tag_292\n      jumpi\n        /* \"#utility.yul\":10491:10509   */\n      tag_293\n      tag_132\n      jump\t// in\n    tag_293:\n        /* \"#utility.yul\":10455:10511   */\n    tag_292:\n        /* \"#utility.yul\":10529:10558   */\n      tag_294\n        /* \"#utility.yul\":10551:10557   */\n      dup3\n        /* \"#utility.yul\":10529:10558   */\n      tag_113\n      jump\t// in\n    tag_294:\n        /* \"#utility.yul\":10521:10558   */\n      swap1\n      pop\n        /* \"#utility.yul\":10613:10617   */\n      0x20\n        /* \"#utility.yul\":10607:10611   */\n      dup2\n        /* \"#utility.yul\":10603:10618   */\n      add\n        /* \"#utility.yul\":10595:10618   */\n      swap1\n      pop\n        /* \"#utility.yul\":10318:10625   */\n      swap2\n      swap1\n      pop\n      jump\t// out\n        /* \"#utility.yul\":10631:11054   */\n    tag_142:\n        /* \"#utility.yul\":10708:10713   */\n      0x00\n        /* \"#utility.yul\":10733:10798   */\n      tag_296\n        /* \"#utility.yul\":10749:10797   */\n      tag_297\n        /* \"#utility.yul\":10790:10796   */\n      dup5\n        /* \"#utility.yul\":10749:10797   */\n      tag_141\n      jump\t// in\n    tag_297:\n        /* \"#utility.yul\":10733:10798   */\n      tag_134\n      jump\t// in\n    tag_296:\n        /* \"#utility.yul\":10724:10798   */\n      swap1\n      pop\n        /* \"#utility.yul\":10821:10827   */\n      dup3\n        /* \"#utility.yul\":10814:10819   */\n      dup2\n        /* \"#utility.yul\":10807:10828   */\n      mstore\n        /* \"#utility.yul\":10859:10863   */\n      0x20\n        /* \"#utility.yul\":10852:10857   */\n      dup2\n        /* \"#utility.yul\":10848:10864   */\n      add\n        /* \"#utility.yul\":10897:10900   */\n      dup5\n        /* \"#utility.yul\":10888:10894   */\n      dup5\n        /* \"#utility.yul\":10883:10886   */\n      dup5\n        /* \"#utility.yul\":10879:10895   */\n      add\n        /* \"#utility.yul\":10876:10901   */\n      gt\n        /* \"#utility.yul\":10873:10985   */\n      iszero\n      tag_298\n      jumpi\n        /* \"#utility.yul\":10904:10983   */\n      tag_299\n      tag_131\n      jump\t// in\n    tag_299:\n        /* \"#utility.yul\":10873:10985   */\n    tag_298:\n        /* \"#utility.yul\":10994:11048   */\n      tag_300\n        /* \"#utility.yul\":11041:11047   */\n      dup5\n        /* \"#utility.yul\":11036:11039   */\n      dup3\n        /* \"#utility.yul\":11031:11034   */\n      dup6\n        /* \"#utility.yul\":10994:11048   */\n      tag_136\n      jump\t// in\n    tag_300:\n        /* \"#utility.yul\":10714:11054   */\n      pop\n        /* \"#utility.yul\":10631:11054   */\n      swap4\n      swap3\n      pop\n      pop\n      pop\n      jump\t// out\n        /* \"#utility.yul\":11073:11411   */\n    tag_143:\n        /* \"#utility.yul\":11128:11133   */\n      0x00\n        /* \"#utility.yul\":11177:11180   */\n      dup3\n        /* \"#utility.yul\":11170:11174   */\n      0x1f\n        /* \"#utility.yul\":11162:11168   */\n      dup4\n        /* \"#utility.yul\":11158:11175   */\n      add\n        /* \"#utility.yul\":11154:11181   */\n      slt\n        /* \"#utility.yul\":11144:11266   */\n      tag_302\n      jumpi\n        /* \"#utility.yul\":11185:11264   */\n      tag_303\n      tag_130\n      jump\t// in\n    tag_303:\n        /* \"#utility.yul\":11144:11266   */\n    tag_302:\n        /* \"#utility.yul\":11302:11308   */\n      dup2\n        /* \"#utility.yul\":11289:11309   */\n      calldataload\n        /* \"#utility.yul\":11327:11405   */\n      tag_304\n        /* \"#utility.yul\":11401:11404   */\n      dup5\n        /* \"#utility.yul\":11393:11399   */\n      dup3\n        /* \"#utility.yul\":11386:11390   */\n      0x20\n        /* \"#utility.yul\":11378:11384   */\n      dup7\n        /* \"#utility.yul\":11374:11391   */\n      add\n        /* \"#utility.yul\":11327:11405   */\n      tag_142\n      jump\t// in\n    tag_304:\n        /* \"#utility.yul\":11318:11405   */\n      swap2\n      pop\n        /* \"#utility.yul\":11134:11411   */\n      pop\n        /* \"#utility.yul\":11073:11411   */\n      swap3\n      swap2\n      pop\n      pop\n      jump\t// out\n        /* \"#utility.yul\":11417:12862   */\n    tag_42:\n        /* \"#utility.yul\":11539:11545   */\n      0x00\n        /* \"#utility.yul\":11547:11553   */\n      0x00\n        /* \"#utility.yul\":11555:11561   */\n      0x00\n        /* \"#utility.yul\":11563:11569   */\n      0x00\n        /* \"#utility.yul\":11571:11577   */\n      0x00\n        /* \"#utility.yul\":11620:11623   */\n      0xa0\n        /* \"#utility.yul\":11608:11617   */\n      dup7\n        /* \"#utility.yul\":11599:11606   */\n      dup9\n        /* \"#utility.yul\":11595:11618   */\n      sub\n        /* \"#utility.yul\":11591:11624   */\n      slt\n        /* \"#utility.yul\":11588:11708   */\n      iszero\n      tag_306\n      jumpi\n        /* \"#utility.yul\":11627:11706   */\n      tag_307\n      tag_97\n      jump\t// in\n    tag_307:\n        /* \"#utility.yul\":11588:11708   */\n    tag_306:\n        /* \"#utility.yul\":11775:11776   */\n      0x00\n        /* \"#utility.yul\":11764:11773   */\n      dup7\n        /* \"#utility.yul\":11760:11777   */\n      add\n        /* \"#utility.yul\":11747:11778   */\n      calldataload\n        /* \"#utility.yul\":11805:11823   */\n      0xffffffffffffffff\n        /* \"#utility.yul\":11797:11803   */\n      dup2\n        /* \"#utility.yul\":11794:11824   */\n      gt\n        /* \"#utility.yul\":11791:11908   */\n      iszero\n      tag_308\n      jumpi\n        /* \"#utility.yul\":11827:11906   */\n      tag_309\n      tag_98\n      jump\t// in\n    tag_309:\n        /* \"#utility.yul\":11791:11908   */\n    tag_308:\n        /* \"#utility.yul\":11932:11995   */\n      tag_310\n        /* \"#utility.yul\":11987:11994   */\n      dup9\n        /* \"#utility.yul\":11978:11984   */\n      dup3\n        /* \"#utility.yul\":11967:11976   */\n      dup10\n        /* \"#utility.yul\":11963:11985   */\n      add\n        /* \"#utility.yul\":11932:11995   */\n      tag_138\n      jump\t// in\n    tag_310:\n        /* \"#utility.yul\":11922:11995   */\n      swap6\n      pop\n        /* \"#utility.yul\":11718:12005   */\n      pop\n        /* \"#utility.yul\":12044:12046   */\n      0x20\n        /* \"#utility.yul\":12070:12122   */\n      tag_311\n        /* \"#utility.yul\":12114:12121   */\n      dup9\n        /* \"#utility.yul\":12105:12111   */\n      dup3\n        /* \"#utility.yul\":12094:12103   */\n      dup10\n        /* \"#utility.yul\":12090:12112   */\n      add\n        /* \"#utility.yul\":12070:12122   */\n      tag_140\n      jump\t// in\n    tag_311:\n        /* \"#utility.yul\":12060:12122   */\n      swap5\n      pop\n        /* \"#utility.yul\":12015:12132   */\n      pop\n        /* \"#utility.yul\":12171:12173   */\n      0x40\n        /* \"#utility.yul\":12197:12249   */\n      tag_312\n        /* \"#utility.yul\":12241:12248   */\n      dup9\n        /* \"#utility.yul\":12232:12238   */\n      dup3\n        /* \"#utility.yul\":12221:12230   */\n      dup10\n        /* \"#utility.yul\":12217:12239   */\n      add\n        /* \"#utility.yul\":12197:12249   */\n      tag_140\n      jump\t// in\n    tag_312:\n        /* \"#utility.yul\":12187:12249   */\n      swap4\n      pop\n        /* \"#utility.yul\":12142:12259   */\n      pop\n        /* \"#utility.yul\":12326:12328   */\n      0x60\n        /* \"#utility.yul\":12315:12324   */\n      dup7\n        /* \"#utility.yul\":12311:12329   */\n      add\n        /* \"#utility.yul\":12298:12330   */\n      calldataload\n        /* \"#utility.yul\":12357:12375   */\n      0xffffffffffffffff\n        /* \"#utility.yul\":12349:12355   */\n      dup2\n        /* \"#utility.yul\":12346:12376   */\n      gt\n        /* \"#utility.yul\":12343:12460   */\n      iszero\n      tag_313\n      jumpi\n        /* \"#utility.yul\":12379:12458   */\n      tag_314\n      tag_98\n      jump\t// in\n    tag_314:\n        /* \"#utility.yul\":12343:12460   */\n    tag_313:\n        /* \"#utility.yul\":12484:12547   */\n      tag_315\n        /* \"#utility.yul\":12539:12546   */\n      dup9\n        /* \"#utility.yul\":12530:12536   */\n      dup3\n        /* \"#utility.yul\":12519:12528   */\n      dup10\n        /* \"#utility.yul\":12515:12537   */\n      add\n        /* \"#utility.yul\":12484:12547   */\n      tag_138\n      jump\t// in\n    tag_315:\n        /* \"#utility.yul\":12474:12547   */\n      swap3\n      pop\n        /* \"#utility.yul\":12269:12557   */\n      pop\n        /* \"#utility.yul\":12624:12627   */\n      0x80\n        /* \"#utility.yul\":12613:12622   */\n      dup7\n        /* \"#utility.yul\":12609:12628   */\n      add\n        /* \"#utility.yul\":12596:12629   */\n      calldataload\n        /* \"#utility.yul\":12656:12674   */\n      0xffffffffffffffff\n        /* \"#utility.yul\":12648:12654   */\n      dup2\n        /* \"#utility.yul\":12645:12675   */\n      gt\n        /* \"#utility.yul\":12642:12759   */\n      iszero\n      tag_316\n      jumpi\n        /* \"#utility.yul\":12678:12757   */\n      tag_317\n      tag_98\n      jump\t// in\n    tag_317:\n        /* \"#utility.yul\":12642:12759   */\n    tag_316:\n        /* \"#utility.yul\":12783:12845   */\n      tag_318\n        /* \"#utility.yul\":12837:12844   */\n      dup9\n        /* \"#utility.yul\":12828:12834   */\n      dup3\n        /* \"#utility.yul\":12817:12826   */\n      dup10\n        /* \"#utility.yul\":12813:12835   */\n      add\n        /* \"#utility.yul\":12783:12845   */\n      tag_143\n      jump\t// in\n    tag_318:\n        /* \"#utility.yul\":12773:12845   */\n      swap2\n      pop\n        /* \"#utility.yul\":12567:12855   */\n      pop\n        /* \"#utility.yul\":11417:12862   */\n      swap3\n      swap6\n      pop\n      swap3\n      swap6\n      swap1\n      swap4\n      pop\n      jump\t// out\n        /* \"#utility.yul\":12868:13034   */\n    tag_144:\n        /* \"#utility.yul\":13008:13026   */\n      0x596f75206e6f74206f776e657221212100000000000000000000000000000000\n        /* \"#utility.yul\":13004:13005   */\n      0x00\n        /* \"#utility.yul\":12996:13002   */\n      dup3\n        /* \"#utility.yul\":12992:13006   */\n      add\n        /* \"#utility.yul\":12985:13027   */\n      mstore\n        /* \"#utility.yul\":12868:13034   */\n      pop\n      jump\t// out\n        /* \"#utility.yul\":13040:13406   */\n    tag_145:\n        /* \"#utility.yul\":13182:13185   */\n      0x00\n        /* \"#utility.yul\":13203:13270   */\n      tag_321\n        /* \"#utility.yul\":13267:13269   */\n      0x10\n        /* \"#utility.yul\":13262:13265   */\n      dup4\n        /* \"#utility.yul\":13203:13270   */\n      tag_111\n      jump\t// in\n    tag_321:\n        /* \"#utility.yul\":13196:13270   */\n      swap2\n      pop\n        /* \"#utility.yul\":13279:13372   */\n      tag_322\n        /* \"#utility.yul\":13368:13371   */\n      dup3\n        /* \"#utility.yul\":13279:13372   */\n      tag_144\n      jump\t// in\n    tag_322:\n        /* \"#utility.yul\":13397:13399   */\n      0x20\n        /* \"#utility.yul\":13392:13395   */\n      dup3\n        /* \"#utility.yul\":13388:13400   */\n      add\n        /* \"#utility.yul\":13381:13400   */\n      swap1\n      pop\n        /* \"#utility.yul\":13040:13406   */\n      swap2\n      swap1\n      pop\n      jump\t// out\n        /* \"#utility.yul\":13412:13831   */\n    tag_48:\n        /* \"#utility.yul\":13578:13582   */\n      0x00\n        /* \"#utility.yul\":13616:13618   */\n      0x20\n        /* \"#utility.yul\":13605:13614   */\n      dup3\n        /* \"#utility.yul\":13601:13619   */\n      add\n        /* \"#utility.yul\":13593:13619   */\n      swap1\n      pop\n        /* \"#utility.yul\":13665:13674   */\n      dup2\n        /* \"#utility.yul\":13659:13663   */\n      dup2\n        /* \"#utility.yul\":13655:13675   */\n      sub\n        /* \"#utility.yul\":13651:13652   */\n      0x00\n        /* \"#utility.yul\":13640:13649   */\n      dup4\n        /* \"#utility.yul\":13636:13653   */\n      add\n        /* \"#utility.yul\":13629:13676   */\n      mstore\n        /* \"#utility.yul\":13693:13824   */\n      tag_324\n        /* \"#utility.yul\":13819:13823   */\n      dup2\n        /* \"#utility.yul\":13693:13824   */\n      tag_145\n      jump\t// in\n    tag_324:\n        /* \"#utility.yul\":13685:13824   */\n      swap1\n      pop\n        /* \"#utility.yul\":13412:13831   */\n      swap2\n      swap1\n      pop\n      jump\t// out\n        /* \"#utility.yul\":13837:14003   */\n    tag_146:\n        /* \"#utility.yul\":13977:13995   */\n      0x596f75206e6f742061646d696e21212100000000000000000000000000000000\n        /* \"#utility.yul\":13973:13974   */\n      0x00\n        /* \"#utility.yul\":13965:13971   */\n      dup3\n        /* \"#utility.yul\":13961:13975   */\n      add\n        /* \"#utility.yul\":13954:13996   */\n      mstore\n        /* \"#utility.yul\":13837:14003   */\n      pop\n      jump\t// out\n        /* \"#utility.yul\":14009:14375   */\n    tag_147:\n        /* \"#utility.yul\":14151:14154   */\n      0x00\n        /* \"#utility.yul\":14172:14239   */\n      tag_327\n        /* \"#utility.yul\":14236:14238   */\n      0x10\n        /* \"#utility.yul\":14231:14234   */\n      dup4\n        /* \"#utility.yul\":14172:14239   */\n      tag_111\n      jump\t// in\n    tag_327:\n        /* \"#utility.yul\":14165:14239   */\n      swap2\n      pop\n        /* \"#utility.yul\":14248:14341   */\n      tag_328\n        /* \"#utility.yul\":14337:14340   */\n      dup3\n        /* \"#utility.yul\":14248:14341   */\n      tag_146\n      jump\t// in\n    tag_328:\n        /* \"#utility.yul\":14366:14368   */\n      0x20\n        /* \"#utility.yul\":14361:14364   */\n      dup3\n        /* \"#utility.yul\":14357:14369   */\n      add\n        /* \"#utility.yul\":14350:14369   */\n      swap1\n      pop\n        /* \"#utility.yul\":14009:14375   */\n      swap2\n      swap1\n      pop\n      jump\t// out\n        /* \"#utility.yul\":14381:14800   */\n    tag_52:\n        /* \"#utility.yul\":14547:14551   */\n      0x00\n        /* \"#utility.yul\":14585:14587   */\n      0x20\n        /* \"#utility.yul\":14574:14583   */\n      dup3\n        /* \"#utility.yul\":14570:14588   */\n      add\n        /* \"#utility.yul\":14562:14588   */\n      swap1\n      pop\n        /* \"#utility.yul\":14634:14643   */\n      dup2\n        /* \"#utility.yul\":14628:14632   */\n      dup2\n        /* \"#utility.yul\":14624:14644   */\n      sub\n        /* \"#utility.yul\":14620:14621   */\n      0x00\n        /* \"#utility.yul\":14609:14618   */\n      dup4\n        /* \"#utility.yul\":14605:14622   */\n      add\n        /* \"#utility.yul\":14598:14645   */\n      mstore\n        /* \"#utility.yul\":14662:14793   */\n      tag_330\n        /* \"#utility.yul\":14788:14792   */\n      dup2\n        /* \"#utility.yul\":14662:14793   */\n      tag_147\n      jump\t// in\n    tag_330:\n        /* \"#utility.yul\":14654:14793   */\n      swap1\n      pop\n        /* \"#utility.yul\":14381:14800   */\n      swap2\n      swap1\n      pop\n      jump\t// out\n        /* \"#utility.yul\":14806:14986   */\n    tag_148:\n        /* \"#utility.yul\":14854:14931   */\n      0x4e487b7100000000000000000000000000000000000000000000000000000000\n        /* \"#utility.yul\":14851:14852   */\n      0x00\n        /* \"#utility.yul\":14844:14932   */\n      mstore\n        /* \"#utility.yul\":14951:14955   */\n      0x22\n        /* \"#utility.yul\":14948:14949   */\n      0x04\n        /* \"#utility.yul\":14941:14956   */\n      mstore\n        /* \"#utility.yul\":14975:14979   */\n      0x24\n        /* \"#utility.yul\":14972:14973   */\n      0x00\n        /* \"#utility.yul\":14965:14980   */\n      revert\n        /* \"#utility.yul\":14992:15312   */\n    tag_59:\n        /* \"#utility.yul\":15036:15042   */\n      0x00\n        /* \"#utility.yul\":15073:15074   */\n      0x02\n        /* \"#utility.yul\":15067:15071   */\n      dup3\n        /* \"#utility.yul\":15063:15075   */\n      div\n        /* \"#utility.yul\":15053:15075   */\n      swap1\n      pop\n        /* \"#utility.yul\":15120:15121   */\n      0x01\n        /* \"#utility.yul\":15114:15118   */\n      dup3\n        /* \"#utility.yul\":15110:15122   */\n      and\n        /* \"#utility.yul\":15141:15159   */\n      dup1\n        /* \"#utility.yul\":15131:15212   */\n      tag_333\n      jumpi\n        /* \"#utility.yul\":15197:15201   */\n      0x7f\n        /* \"#utility.yul\":15189:15195   */\n      dup3\n        /* \"#utility.yul\":15185:15202   */\n      and\n        /* \"#utility.yul\":15175:15202   */\n      swap2\n      pop\n        /* \"#utility.yul\":15131:15212   */\n    tag_333:\n        /* \"#utility.yul\":15259:15261   */\n      0x20\n        /* \"#utility.yul\":15251:15257   */\n      dup3\n        /* \"#utility.yul\":15248:15262   */\n      lt\n        /* \"#utility.yul\":15228:15246   */\n      dup2\n        /* \"#utility.yul\":15225:15263   */\n      sub\n        /* \"#utility.yul\":15222:15306   */\n      tag_334\n      jumpi\n        /* \"#utility.yul\":15278:15296   */\n      tag_335\n      tag_148\n      jump\t// in\n    tag_335:\n        /* \"#utility.yul\":15222:15306   */\n    tag_334:\n        /* \"#utility.yul\":15043:15312   */\n      pop\n        /* \"#utility.yul\":14992:15312   */\n      swap2\n      swap1\n      pop\n      jump\t// out\n        /* \"#utility.yul\":15318:15540   */\n    tag_149:\n        /* \"#utility.yul\":15458:15492   */\n      0x446561646c696e652074696d657374616d70206d757374206265206c61746572\n        /* \"#utility.yul\":15454:15455   */\n      0x00\n        /* \"#utility.yul\":15446:15452   */\n      dup3\n        /* \"#utility.yul\":15442:15456   */\n      add\n        /* \"#utility.yul\":15435:15493   */\n      mstore\n        /* \"#utility.yul\":15527:15532   */\n      0x2121210000000000000000000000000000000000000000000000000000000000\n        /* \"#utility.yul\":15522:15524   */\n      0x20\n        /* \"#utility.yul\":15514:15520   */\n      dup3\n        /* \"#utility.yul\":15510:15525   */\n      add\n        /* \"#utility.yul\":15503:15533   */\n      mstore\n        /* \"#utility.yul\":15318:15540   */\n      pop\n      jump\t// out\n        /* \"#utility.yul\":15546:15912   */\n    tag_150:\n        /* \"#utility.yul\":15688:15691   */\n      0x00\n        /* \"#utility.yul\":15709:15776   */\n      tag_338\n        /* \"#utility.yul\":15773:15775   */\n      0x23\n        /* \"#utility.yul\":15768:15771   */\n      dup4\n        /* \"#utility.yul\":15709:15776   */\n      tag_111\n      jump\t// in\n    tag_338:\n        /* \"#utility.yul\":15702:15776   */\n      swap2\n      pop\n        /* \"#utility.yul\":15785:15878   */\n      tag_339\n        /* \"#utility.yul\":15874:15877   */\n      dup3\n        /* \"#utility.yul\":15785:15878   */\n      tag_149\n      jump\t// in\n    tag_339:\n        /* \"#utility.yul\":15903:15905   */\n      0x40\n        /* \"#utility.yul\":15898:15901   */\n      dup3\n        /* \"#utility.yul\":15894:15906   */\n      add\n        /* \"#utility.yul\":15887:15906   */\n      swap1\n      pop\n        /* \"#utility.yul\":15546:15912   */\n      swap2\n      swap1\n      pop\n      jump\t// out\n        /* \"#utility.yul\":15918:16337   */\n    tag_80:\n        /* \"#utility.yul\":16084:16088   */\n      0x00\n        /* \"#utility.yul\":16122:16124   */\n      0x20\n        /* \"#utility.yul\":16111:16120   */\n      dup3\n        /* \"#utility.yul\":16107:16125   */\n      add\n        /* \"#utility.yul\":16099:16125   */\n      swap1\n      pop\n        /* \"#utility.yul\":16171:16180   */\n      dup2\n        /* \"#utility.yul\":16165:16169   */\n      dup2\n        /* \"#utility.yul\":16161:16181   */\n      sub\n        /* \"#utility.yul\":16157:16158   */\n      0x00\n        /* \"#utility.yul\":16146:16155   */\n      dup4\n        /* \"#utility.yul\":16142:16159   */\n      add\n        /* \"#utility.yul\":16135:16182   */\n      mstore\n        /* \"#utility.yul\":16199:16330   */\n      tag_341\n        /* \"#utility.yul\":16325:16329   */\n      dup2\n        /* \"#utility.yul\":16199:16330   */\n      tag_150\n      jump\t// in\n    tag_341:\n        /* \"#utility.yul\":16191:16330   */\n      swap1\n      pop\n        /* \"#utility.yul\":15918:16337   */\n      swap2\n      swap1\n      pop\n      jump\t// out\n        /* \"#utility.yul\":16343:16525   */\n    tag_151:\n        /* \"#utility.yul\":16483:16517   */\n      0x5265736f6c76652074696d652063616e277420657175616c207a65726f212121\n        /* \"#utility.yul\":16479:16480   */\n      0x00\n        /* \"#utility.yul\":16471:16477   */\n      dup3\n        /* \"#utility.yul\":16467:16481   */\n      add\n        /* \"#utility.yul\":16460:16518   */\n      mstore\n        /* \"#utility.yul\":16343:16525   */\n      pop\n      jump\t// out\n        /* \"#utility.yul\":16531:16897   */\n    tag_152:\n        /* \"#utility.yul\":16673:16676   */\n      0x00\n        /* \"#utility.yul\":16694:16761   */\n      tag_344\n        /* \"#utility.yul\":16758:16760   */\n      0x20\n        /* \"#utility.yul\":16753:16756   */\n      dup4\n        /* \"#utility.yul\":16694:16761   */\n      tag_111\n      jump\t// in\n    tag_344:\n        /* \"#utility.yul\":16687:16761   */\n      swap2\n      pop\n        /* \"#utility.yul\":16770:16863   */\n      tag_345\n        /* \"#utility.yul\":16859:16862   */\n      dup3\n        /* \"#utility.yul\":16770:16863   */\n      tag_151\n      jump\t// in\n    tag_345:\n        /* \"#utility.yul\":16888:16890   */\n      0x20\n        /* \"#utility.yul\":16883:16886   */\n      dup3\n        /* \"#utility.yul\":16879:16891   */\n      add\n        /* \"#utility.yul\":16872:16891   */\n      swap1\n      pop\n        /* \"#utility.yul\":16531:16897   */\n      swap2\n      swap1\n      pop\n      jump\t// out\n        /* \"#utility.yul\":16903:17322   */\n    tag_83:\n        /* \"#utility.yul\":17069:17073   */\n      0x00\n        /* \"#utility.yul\":17107:17109   */\n      0x20\n        /* \"#utility.yul\":17096:17105   */\n      dup3\n        /* \"#utility.yul\":17092:17110   */\n      add\n        /* \"#utility.yul\":17084:17110   */\n      swap1\n      pop\n        /* \"#utility.yul\":17156:17165   */\n      dup2\n        /* \"#utility.yul\":17150:17154   */\n      dup2\n        /* \"#utility.yul\":17146:17166   */\n      sub\n        /* \"#utility.yul\":17142:17143   */\n      0x00\n        /* \"#utility.yul\":17131:17140   */\n      dup4\n        /* \"#utility.yul\":17127:17144   */\n      add\n        /* \"#utility.yul\":17120:17167   */\n      mstore\n        /* \"#utility.yul\":17184:17315   */\n      tag_347\n        /* \"#utility.yul\":17310:17314   */\n      dup2\n        /* \"#utility.yul\":17184:17315   */\n      tag_152\n      jump\t// in\n    tag_347:\n        /* \"#utility.yul\":17176:17315   */\n      swap1\n      pop\n        /* \"#utility.yul\":16903:17322   */\n      swap2\n      swap1\n      pop\n      jump\t// out\n        /* \"#utility.yul\":17328:17508   */\n    tag_153:\n        /* \"#utility.yul\":17376:17453   */\n      0x4e487b7100000000000000000000000000000000000000000000000000000000\n        /* \"#utility.yul\":17373:17374   */\n      0x00\n        /* \"#utility.yul\":17366:17454   */\n      mstore\n        /* \"#utility.yul\":17473:17477   */\n      0x11\n        /* \"#utility.yul\":17470:17471   */\n      0x04\n        /* \"#utility.yul\":17463:17478   */\n      mstore\n        /* \"#utility.yul\":17497:17501   */\n      0x24\n        /* \"#utility.yul\":17494:17495   */\n      0x00\n        /* \"#utility.yul\":17487:17502   */\n      revert\n        /* \"#utility.yul\":17514:17747   */\n    tag_85:\n        /* \"#utility.yul\":17553:17556   */\n      0x00\n        /* \"#utility.yul\":17576:17600   */\n      tag_350\n        /* \"#utility.yul\":17594:17599   */\n      dup3\n        /* \"#utility.yul\":17576:17600   */\n      tag_106\n      jump\t// in\n    tag_350:\n        /* \"#utility.yul\":17567:17600   */\n      swap2\n      pop\n        /* \"#utility.yul\":17622:17688   */\n      0xffffffffffffffffffffffffffffffffffffffffffffffffffffffffffffffff\n        /* \"#utility.yul\":17615:17620   */\n      dup3\n        /* \"#utility.yul\":17612:17689   */\n      sub\n        /* \"#utility.yul\":17609:17712   */\n      tag_351\n      jumpi\n        /* \"#utility.yul\":17692:17710   */\n      tag_352\n      tag_153\n      jump\t// in\n    tag_352:\n        /* \"#utility.yul\":17609:17712   */\n    tag_351:\n        /* \"#utility.yul\":17739:17740   */\n      0x01\n        /* \"#utility.yul\":17732:17737   */\n      dup3\n        /* \"#utility.yul\":17728:17741   */\n      add\n        /* \"#utility.yul\":17721:17741   */\n      swap1\n      pop\n        /* \"#utility.yul\":17514:17747   */\n      swap2\n      swap1\n      pop\n      jump\t// out\n        /* \"#utility.yul\":17753:17894   */\n    tag_154:\n        /* \"#utility.yul\":17802:17806   */\n      0x00\n        /* \"#utility.yul\":17825:17828   */\n      dup2\n        /* \"#utility.yul\":17817:17828   */\n      swap1\n      pop\n        /* \"#utility.yul\":17848:17851   */\n      dup2\n        /* \"#utility.yul\":17845:17846   */\n      0x00\n        /* \"#utility.yul\":17838:17852   */\n      mstore\n        /* \"#utility.yul\":17882:17886   */\n      0x20\n        /* \"#utility.yul\":17879:17880   */\n      0x00\n        /* \"#utility.yul\":17869:17887   */\n      keccak256\n        /* \"#utility.yul\":17861:17887   */\n      swap1\n      pop\n        /* \"#utility.yul\":17753:17894   */\n      swap2\n      swap1\n      pop\n      jump\t// out\n        /* \"#utility.yul\":17900:17993   */\n    tag_155:\n        /* \"#utility.yul\":17937:17943   */\n      0x00\n        /* \"#utility.yul\":17984:17986   */\n      0x20\n        /* \"#utility.yul\":17979:17981   */\n      0x1f\n        /* \"#utility.yul\":17972:17977   */\n      dup4\n        /* \"#utility.yul\":17968:17982   */\n      add\n        /* \"#utility.yul\":17964:17987   */\n      div\n        /* \"#utility.yul\":17954:17987   */\n      swap1\n      pop\n        /* \"#utility.yul\":17900:17993   */\n      swap2\n      swap1\n      pop\n      jump\t// out\n        /* \"#utility.yul\":17999:18106   */\n    tag_156:\n        /* \"#utility.yul\":18043:18051   */\n      0x00\n        /* \"#utility.yul\":18093:18098   */\n      dup3\n        /* \"#utility.yul\":18087:18091   */\n      dup3\n        /* \"#utility.yul\":18083:18099   */\n      shl\n        /* \"#utility.yul\":18062:18099   */\n      swap1\n      pop\n        /* \"#utility.yul\":17999:18106   */\n      swap3\n      swap2\n      pop\n      pop\n      jump\t// out\n        /* \"#utility.yul\":18112:18505   */\n    tag_157:\n        /* \"#utility.yul\":18181:18187   */\n      0x00\n        /* \"#utility.yul\":18231:18232   */\n      0x08\n        /* \"#utility.yul\":18219:18229   */\n      dup4\n        /* \"#utility.yul\":18215:18233   */\n      mul\n        /* \"#utility.yul\":18254:18351   */\n      tag_357\n        /* \"#utility.yul\":18284:18350   */\n      0xffffffffffffffffffffffffffffffffffffffffffffffffffffffffffffffff\n        /* \"#utility.yul\":18273:18282   */\n      dup3\n        /* \"#utility.yul\":18254:18351   */\n      tag_156\n      jump\t// in\n    tag_357:\n        /* \"#utility.yul\":18372:18411   */\n      tag_358\n        /* \"#utility.yul\":18402:18410   */\n      dup7\n        /* \"#utility.yul\":18391:18400   */\n      dup4\n        /* \"#utility.yul\":18372:18411   */\n      tag_156\n      jump\t// in\n    tag_358:\n        /* \"#utility.yul\":18360:18411   */\n      swap6\n      pop\n        /* \"#utility.yul\":18444:18448   */\n      dup1\n        /* \"#utility.yul\":18440:18449   */\n      not\n        /* \"#utility.yul\":18433:18438   */\n      dup5\n        /* \"#utility.yul\":18429:18450   */\n      and\n        /* \"#utility.yul\":18420:18450   */\n      swap4\n      pop\n        /* \"#utility.yul\":18493:18497   */\n      dup1\n        /* \"#utility.yul\":18483:18491   */\n      dup7\n        /* \"#utility.yul\":18479:18498   */\n      and\n        /* \"#utility.yul\":18472:18477   */\n      dup5\n        /* \"#utility.yul\":18469:18499   */\n      or\n        /* \"#utility.yul\":18459:18499   */\n      swap3\n      pop\n        /* \"#utility.yul\":18188:18505   */\n      pop\n      pop\n        /* \"#utility.yul\":18112:18505   */\n      swap4\n      swap3\n      pop\n      pop\n      pop\n      jump\t// out\n        /* \"#utility.yul\":18511:18571   */\n    tag_158:\n        /* \"#utility.yul\":18539:18542   */\n      0x00\n        /* \"#utility.yul\":18560:18565   */\n      dup2\n        /* \"#utility.yul\":18553:18565   */\n      swap1\n      pop\n        /* \"#utility.yul\":18511:18571   */\n      swap2\n      swap1\n      pop\n      jump\t// out\n        /* \"#utility.yul\":18577:18719   */\n    tag_159:\n        /* \"#utility.yul\":18627:18636   */\n      0x00\n        /* \"#utility.yul\":18660:18713   */\n      tag_361\n        /* \"#utility.yul\":18678:18712   */\n      tag_362\n        /* \"#utility.yul\":18687:18711   */\n      tag_363\n        /* \"#utility.yul\":18705:18710   */\n      dup5\n        /* \"#utility.yul\":18687:18711   */\n      tag_106\n      jump\t// in\n    tag_363:\n        /* \"#utility.yul\":18678:18712   */\n      tag_158\n      jump\t// in\n    tag_362:\n        /* \"#utility.yul\":18660:18713   */\n      tag_106\n      jump\t// in\n    tag_361:\n        /* \"#utility.yul\":18647:18713   */\n      swap1\n      pop\n        /* \"#utility.yul\":18577:18719   */\n      swap2\n      swap1\n      pop\n      jump\t// out\n        /* \"#utility.yul\":18725:18800   */\n    tag_160:\n        /* \"#utility.yul\":18768:18771   */\n      0x00\n        /* \"#utility.yul\":18789:18794   */\n      dup2\n        /* \"#utility.yul\":18782:18794   */\n      swap1\n      pop\n        /* \"#utility.yul\":18725:18800   */\n      swap2\n      swap1\n      pop\n      jump\t// out\n        /* \"#utility.yul\":18806:19075   */\n    tag_161:\n        /* \"#utility.yul\":18916:18955   */\n      tag_366\n        /* \"#utility.yul\":18947:18954   */\n      dup4\n        /* \"#utility.yul\":18916:18955   */\n      tag_159\n      jump\t// in\n    tag_366:\n        /* \"#utility.yul\":18977:19068   */\n      tag_367\n        /* \"#utility.yul\":19026:19067   */\n      tag_368\n        /* \"#utility.yul\":19050:19066   */\n      dup3\n        /* \"#utility.yul\":19026:19067   */\n      tag_160\n      jump\t// in\n    tag_368:\n        /* \"#utility.yul\":19018:19024   */\n      dup5\n        /* \"#utility.yul\":19011:19015   */\n      dup5\n        /* \"#utility.yul\":19005:19016   */\n      sload\n        /* \"#utility.yul\":18977:19068   */\n      tag_157\n      jump\t// in\n    tag_367:\n        /* \"#utility.yul\":18971:18975   */\n      dup3\n        /* \"#utility.yul\":18964:19069   */\n      sstore\n        /* \"#utility.yul\":18882:19075   */\n      pop\n        /* \"#utility.yul\":18806:19075   */\n      pop\n      pop\n      pop\n      jump\t// out\n        /* \"#utility.yul\":19081:19154   */\n    tag_162:\n        /* \"#utility.yul\":19126:19129   */\n      0x00\n        /* \"#utility.yul\":19147:19148   */\n      0x00\n        /* \"#utility.yul\":19140:19148   */\n      swap1\n      pop\n        /* \"#utility.yul\":19081:19154   */\n      swap1\n      jump\t// out\n        /* \"#utility.yul\":19160:19349   */\n    tag_163:\n        /* \"#utility.yul\":19237:19269   */\n      tag_371\n      tag_162\n      jump\t// in\n    tag_371:\n        /* \"#utility.yul\":19278:19343   */\n      tag_372\n        /* \"#utility.yul\":19336:19342   */\n      dup2\n        /* \"#utility.yul\":19328:19334   */\n      dup5\n        /* \"#utility.yul\":19322:19326   */\n      dup5\n        /* \"#utility.yul\":19278:19343   */\n      tag_161\n      jump\t// in\n    tag_372:\n        /* \"#utility.yul\":19213:19349   */\n      pop\n        /* \"#utility.yul\":19160:19349   */\n      pop\n      pop\n      jump\t// out\n        /* \"#utility.yul\":19355:19569   */\n    tag_164:\n        /* \"#utility.yul\":19440:19441   */\n      0x00\n        /* \"#utility.yul\":19425:19563   */\n    tag_374:\n        /* \"#utility.yul\":19450:19459   */\n      dup3\n        /* \"#utility.yul\":19447:19448   */\n      dup2\n        /* \"#utility.yul\":19444:19460   */\n      lt\n        /* \"#utility.yul\":19425:19563   */\n      iszero\n      tag_376\n      jumpi\n        /* \"#utility.yul\":19502:19553   */\n      tag_377\n        /* \"#utility.yul\":19551:19552   */\n      0x00\n        /* \"#utility.yul\":19547:19548   */\n      dup3\n        /* \"#utility.yul\":19536:19545   */\n      dup5\n        /* \"#utility.yul\":19532:19549   */\n      add\n        /* \"#utility.yul\":19502:19553   */\n      tag_163\n      jump\t// in\n    tag_377:\n        /* \"#utility.yul\":19475:19476   */\n      0x01\n        /* \"#utility.yul\":19472:19473   */\n      dup2\n        /* \"#utility.yul\":19468:19477   */\n      add\n        /* \"#utility.yul\":19463:19477   */\n      swap1\n      pop\n        /* \"#utility.yul\":19425:19563   */\n      jump(tag_374)\n    tag_376:\n        /* \"#utility.yul\":19429:19443   */\n      pop\n        /* \"#utility.yul\":19355:19569   */\n      pop\n      pop\n      jump\t// out\n        /* \"#utility.yul\":19575:20321   */\n    tag_165:\n        /* \"#utility.yul\":19676:19678   */\n      0x1f\n        /* \"#utility.yul\":19671:19674   */\n      dup3\n        /* \"#utility.yul\":19668:19679   */\n      gt\n        /* \"#utility.yul\":19665:20314   */\n      iszero\n      tag_379\n      jumpi\n        /* \"#utility.yul\":19705:19715   */\n      dup3\n        /* \"#utility.yul\":19700:19703   */\n      dup3\n        /* \"#utility.yul\":19697:19716   */\n      gt\n        /* \"#utility.yul\":19694:20304   */\n      iszero\n      tag_380\n      jumpi\n        /* \"#utility.yul\":19751:19789   */\n      tag_381\n        /* \"#utility.yul\":19783:19788   */\n      dup2\n        /* \"#utility.yul\":19751:19789   */\n      tag_154\n      jump\t// in\n    tag_381:\n        /* \"#utility.yul\":19826:19848   */\n      tag_382\n        /* \"#utility.yul\":19844:19847   */\n      dup4\n        /* \"#utility.yul\":19826:19848   */\n      tag_155\n      jump\t// in\n    tag_382:\n        /* \"#utility.yul\":19885:19914   */\n      tag_383\n        /* \"#utility.yul\":19903:19913   */\n      dup6\n        /* \"#utility.yul\":19885:19914   */\n      tag_155\n      jump\t// in\n    tag_383:\n        /* \"#utility.yul\":20075:20077   */\n      0x20\n        /* \"#utility.yul\":20063:20073   */\n      dup7\n        /* \"#utility.yul\":20060:20078   */\n      lt\n        /* \"#utility.yul\":20057:20136   */\n      iszero\n      tag_384\n      jumpi\n        /* \"#utility.yul\":20117:20118   */\n      0x00\n        /* \"#utility.yul\":20101:20118   */\n      swap1\n      pop\n        /* \"#utility.yul\":20057:20136   */\n    tag_384:\n        /* \"#utility.yul\":20186:20198   */\n      dup1\n        /* \"#utility.yul\":20176:20184   */\n      dup4\n        /* \"#utility.yul\":20172:20199   */\n      add\n        /* \"#utility.yul\":20216:20290   */\n      tag_385\n        /* \"#utility.yul\":20276:20288   */\n      dup3\n        /* \"#utility.yul\":20262:20274   */\n      dup5\n        /* \"#utility.yul\":20258:20289   */\n      sub\n        /* \"#utility.yul\":20245:20256   */\n      dup3\n        /* \"#utility.yul\":20216:20290   */\n      tag_164\n      jump\t// in\n    tag_385:\n        /* \"#utility.yul\":19717:20304   */\n      pop\n      pop\n      pop\n      pop\n        /* \"#utility.yul\":19694:20304   */\n    tag_380:\n        /* \"#utility.yul\":19665:20314   */\n    tag_379:\n        /* \"#utility.yul\":19575:20321   */\n      pop\n      pop\n      pop\n      jump\t// out\n        /* \"#utility.yul\":20327:20444   */\n    tag_166:\n        /* \"#utility.yul\":20381:20389   */\n      0x00\n        /* \"#utility.yul\":20431:20436   */\n      dup3\n        /* \"#utility.yul\":20425:20429   */\n      dup3\n        /* \"#utility.yul\":20421:20437   */\n      shr\n        /* \"#utility.yul\":20400:20437   */\n      swap1\n      pop\n        /* \"#utility.yul\":20327:20444   */\n      swap3\n      swap2\n      pop\n      pop\n      jump\t// out\n        /* \"#utility.yul\":20450:20619   */\n    tag_167:\n        /* \"#utility.yul\":20494:20500   */\n      0x00\n        /* \"#utility.yul\":20527:20578   */\n      tag_388\n        /* \"#utility.yul\":20575:20576   */\n      0x00\n        /* \"#utility.yul\":20571:20577   */\n      not\n        /* \"#utility.yul\":20563:20568   */\n      dup5\n        /* \"#utility.yul\":20560:20561   */\n      0x08\n        /* \"#utility.yul\":20556:20569   */\n      mul\n        /* \"#utility.yul\":20527:20578   */\n      tag_166\n      jump\t// in\n    tag_388:\n        /* \"#utility.yul\":20523:20579   */\n      not\n        /* \"#utility.yul\":20608:20612   */\n      dup1\n        /* \"#utility.yul\":20602:20606   */\n      dup4\n        /* \"#utility.yul\":20598:20613   */\n      and\n        /* \"#utility.yul\":20588:20613   */\n      swap2\n      pop\n        /* \"#utility.yul\":20501:20619   */\n      pop\n        /* \"#utility.yul\":20450:20619   */\n      swap3\n      swap2\n      pop\n      pop\n      jump\t// out\n        /* \"#utility.yul\":20624:20919   */\n    tag_168:\n        /* \"#utility.yul\":20700:20704   */\n      0x00\n        /* \"#utility.yul\":20846:20875   */\n      tag_390\n        /* \"#utility.yul\":20871:20874   */\n      dup4\n        /* \"#utility.yul\":20865:20869   */\n      dup4\n        /* \"#utility.yul\":20846:20875   */\n      tag_167\n      jump\t// in\n    tag_390:\n        /* \"#utility.yul\":20838:20875   */\n      swap2\n      pop\n        /* \"#utility.yul\":20908:20911   */\n      dup3\n        /* \"#utility.yul\":20905:20906   */\n      0x02\n        /* \"#utility.yul\":20901:20912   */\n      mul\n        /* \"#utility.yul\":20895:20899   */\n      dup3\n        /* \"#utility.yul\":20892:20913   */\n      or\n        /* \"#utility.yul\":20884:20913   */\n      swap1\n      pop\n        /* \"#utility.yul\":20624:20919   */\n      swap3\n      swap2\n      pop\n      pop\n      jump\t// out\n        /* \"#utility.yul\":20924:22319   */\n    tag_87:\n        /* \"#utility.yul\":21041:21078   */\n      tag_392\n        /* \"#utility.yul\":21074:21077   */\n      dup3\n        /* \"#utility.yul\":21041:21078   */\n      tag_110\n      jump\t// in\n    tag_392:\n        /* \"#utility.yul\":21143:21161   */\n      0xffffffffffffffff\n        /* \"#utility.yul\":21135:21141   */\n      dup2\n        /* \"#utility.yul\":21132:21162   */\n      gt\n        /* \"#utility.yul\":21129:21185   */\n      iszero\n      tag_393\n      jumpi\n        /* \"#utility.yul\":21165:21183   */\n      tag_394\n      tag_132\n      jump\t// in\n    tag_394:\n        /* \"#utility.yul\":21129:21185   */\n    tag_393:\n        /* \"#utility.yul\":21209:21247   */\n      tag_395\n        /* \"#utility.yul\":21241:21245   */\n      dup3\n        /* \"#utility.yul\":21235:21246   */\n      sload\n        /* \"#utility.yul\":21209:21247   */\n      tag_59\n      jump\t// in\n    tag_395:\n        /* \"#utility.yul\":21294:21361   */\n      tag_396\n        /* \"#utility.yul\":21354:21360   */\n      dup3\n        /* \"#utility.yul\":21346:21352   */\n      dup3\n        /* \"#utility.yul\":21340:21344   */\n      dup6\n        /* \"#utility.yul\":21294:21361   */\n      tag_165\n      jump\t// in\n    tag_396:\n        /* \"#utility.yul\":21388:21389   */\n      0x00\n        /* \"#utility.yul\":21412:21416   */\n      0x20\n        /* \"#utility.yul\":21399:21416   */\n      swap1\n      pop\n        /* \"#utility.yul\":21444:21446   */\n      0x1f\n        /* \"#utility.yul\":21436:21442   */\n      dup4\n        /* \"#utility.yul\":21433:21447   */\n      gt\n        /* \"#utility.yul\":21461:21462   */\n      0x01\n        /* \"#utility.yul\":21456:22074   */\n      dup2\n      eq\n      tag_398\n      jumpi\n        /* \"#utility.yul\":22118:22119   */\n      0x00\n        /* \"#utility.yul\":22135:22141   */\n      dup5\n        /* \"#utility.yul\":22132:22209   */\n      iszero\n      tag_399\n      jumpi\n        /* \"#utility.yul\":22184:22193   */\n      dup3\n        /* \"#utility.yul\":22179:22182   */\n      dup8\n        /* \"#utility.yul\":22175:22194   */\n      add\n        /* \"#utility.yul\":22169:22195   */\n      mload\n        /* \"#utility.yul\":22160:22195   */\n      swap1\n      pop\n        /* \"#utility.yul\":22132:22209   */\n    tag_399:\n        /* \"#utility.yul\":22235:22302   */\n      tag_400\n        /* \"#utility.yul\":22295:22301   */\n      dup6\n        /* \"#utility.yul\":22288:22293   */\n      dup3\n        /* \"#utility.yul\":22235:22302   */\n      tag_168\n      jump\t// in\n    tag_400:\n        /* \"#utility.yul\":22229:22233   */\n      dup7\n        /* \"#utility.yul\":22222:22303   */\n      sstore\n        /* \"#utility.yul\":22091:22313   */\n      pop\n        /* \"#utility.yul\":21426:22313   */\n      jump(tag_397)\n        /* \"#utility.yul\":21456:22074   */\n    tag_398:\n        /* \"#utility.yul\":21508:21512   */\n      0x1f\n        /* \"#utility.yul\":21504:21513   */\n      not\n        /* \"#utility.yul\":21496:21502   */\n      dup5\n        /* \"#utility.yul\":21492:21514   */\n      and\n        /* \"#utility.yul\":21542:21579   */\n      tag_401\n        /* \"#utility.yul\":21574:21578   */\n      dup7\n        /* \"#utility.yul\":21542:21579   */\n      tag_154\n      jump\t// in\n    tag_401:\n        /* \"#utility.yul\":21601:21602   */\n      0x00\n        /* \"#utility.yul\":21615:21823   */\n    tag_402:\n        /* \"#utility.yul\":21629:21636   */\n      dup3\n        /* \"#utility.yul\":21626:21627   */\n      dup2\n        /* \"#utility.yul\":21623:21637   */\n      lt\n        /* \"#utility.yul\":21615:21823   */\n      iszero\n      tag_404\n      jumpi\n        /* \"#utility.yul\":21708:21717   */\n      dup5\n        /* \"#utility.yul\":21703:21706   */\n      dup10\n        /* \"#utility.yul\":21699:21718   */\n      add\n        /* \"#utility.yul\":21693:21719   */\n      mload\n        /* \"#utility.yul\":21685:21691   */\n      dup3\n        /* \"#utility.yul\":21678:21720   */\n      sstore\n        /* \"#utility.yul\":21759:21760   */\n      0x01\n        /* \"#utility.yul\":21751:21757   */\n      dup3\n        /* \"#utility.yul\":21747:21761   */\n      add\n        /* \"#utility.yul\":21737:21761   */\n      swap2\n      pop\n        /* \"#utility.yul\":21806:21808   */\n      0x20\n        /* \"#utility.yul\":21795:21804   */\n      dup6\n        /* \"#utility.yul\":21791:21809   */\n      add\n        /* \"#utility.yul\":21778:21809   */\n      swap5\n      pop\n        /* \"#utility.yul\":21652:21656   */\n      0x20\n        /* \"#utility.yul\":21649:21650   */\n      dup2\n        /* \"#utility.yul\":21645:21657   */\n      add\n        /* \"#utility.yul\":21640:21657   */\n      swap1\n      pop\n        /* \"#utility.yul\":21615:21823   */\n      jump(tag_402)\n    tag_404:\n        /* \"#utility.yul\":21851:21857   */\n      dup7\n        /* \"#utility.yul\":21842:21849   */\n      dup4\n        /* \"#utility.yul\":21839:21858   */\n      lt\n        /* \"#utility.yul\":21836:22015   */\n      iszero\n      tag_405\n      jumpi\n        /* \"#utility.yul\":21909:21918   */\n      dup5\n        /* \"#utility.yul\":21904:21907   */\n      dup10\n        /* \"#utility.yul\":21900:21919   */\n      add\n        /* \"#utility.yul\":21894:21920   */\n      mload\n        /* \"#utility.yul\":21952:22000   */\n      tag_406\n        /* \"#utility.yul\":21994:21998   */\n      0x1f\n        /* \"#utility.yul\":21986:21992   */\n      dup10\n        /* \"#utility.yul\":21982:21999   */\n      and\n        /* \"#utility.yul\":21971:21980   */\n      dup3\n        /* \"#utility.yul\":21952:22000   */\n      tag_167\n      jump\t// in\n    tag_406:\n        /* \"#utility.yul\":21944:21950   */\n      dup4\n        /* \"#utility.yul\":21937:22001   */\n      sstore\n        /* \"#utility.yul\":21859:22015   */\n      pop\n        /* \"#utility.yul\":21836:22015   */\n    tag_405:\n        /* \"#utility.yul\":22061:22062   */\n      0x01\n        /* \"#utility.yul\":22057:22058   */\n      0x02\n        /* \"#utility.yul\":22049:22055   */\n      dup9\n        /* \"#utility.yul\":22045:22059   */\n      mul\n        /* \"#utility.yul\":22041:22063   */\n      add\n        /* \"#utility.yul\":22035:22039   */\n      dup9\n        /* \"#utility.yul\":22028:22064   */\n      sstore\n        /* \"#utility.yul\":21463:22074   */\n      pop\n      pop\n      pop\n        /* \"#utility.yul\":21426:22313   */\n    tag_397:\n      pop\n        /* \"#utility.yul\":21016:22319   */\n      pop\n      pop\n      pop\n        /* \"#utility.yul\":20924:22319   */\n      pop\n      pop\n      jump\t// out\n        /* \"#utility.yul\":22325:22526   */\n    tag_92:\n        /* \"#utility.yul\":22364:22367   */\n      0x00\n        /* \"#utility.yul\":22383:22402   */\n      tag_408\n        /* \"#utility.yul\":22400:22401   */\n      dup3\n        /* \"#utility.yul\":22383:22402   */\n      tag_119\n      jump\t// in\n    tag_408:\n        /* \"#utility.yul\":22378:22402   */\n      swap2\n      pop\n        /* \"#utility.yul\":22416:22435   */\n      tag_409\n        /* \"#utility.yul\":22433:22434   */\n      dup4\n        /* \"#utility.yul\":22416:22435   */\n      tag_119\n      jump\t// in\n    tag_409:\n        /* \"#utility.yul\":22411:22435   */\n      swap3\n      pop\n        /* \"#utility.yul\":22458:22459   */\n      dup3\n        /* \"#utility.yul\":22455:22456   */\n      dup3\n        /* \"#utility.yul\":22451:22460   */\n      add\n        /* \"#utility.yul\":22444:22460   */\n      swap1\n      pop\n        /* \"#utility.yul\":22481:22495   */\n      0xffffffffffff\n        /* \"#utility.yul\":22476:22479   */\n      dup2\n        /* \"#utility.yul\":22473:22496   */\n      gt\n        /* \"#utility.yul\":22470:22519   */\n      iszero\n      tag_410\n      jumpi\n        /* \"#utility.yul\":22499:22517   */\n      tag_411\n      tag_153\n      jump\t// in\n    tag_411:\n        /* \"#utility.yul\":22470:22519   */\n    tag_410:\n        /* \"#utility.yul\":22325:22526   */\n      swap3\n      swap2\n      pop\n      pop\n      jump\t// out\n        /* \"#utility.yul\":22532:22672   */\n    tag_169:\n        /* \"#utility.yul\":22580:22584   */\n      0x00\n        /* \"#utility.yul\":22603:22606   */\n      dup2\n        /* \"#utility.yul\":22595:22606   */\n      swap1\n      pop\n        /* \"#utility.yul\":22626:22629   */\n      dup2\n        /* \"#utility.yul\":22623:22624   */\n      0x00\n        /* \"#utility.yul\":22616:22630   */\n      mstore\n        /* \"#utility.yul\":22660:22664   */\n      0x20\n        /* \"#utility.yul\":22657:22658   */\n      0x00\n        /* \"#utility.yul\":22647:22665   */\n      keccak256\n        /* \"#utility.yul\":22639:22665   */\n      swap1\n      pop\n        /* \"#utility.yul\":22532:22672   */\n      swap2\n      swap1\n      pop\n      jump\t// out\n        /* \"#utility.yul\":22678:23422   */\n    tag_170:\n        /* \"#utility.yul\":22778:22780   */\n      0x1f\n        /* \"#utility.yul\":22773:22776   */\n      dup3\n        /* \"#utility.yul\":22770:22781   */\n      gt\n        /* \"#utility.yul\":22767:23415   */\n      iszero\n      tag_414\n      jumpi\n        /* \"#utility.yul\":22807:22817   */\n      dup3\n        /* \"#utility.yul\":22802:22805   */\n      dup3\n        /* \"#utility.yul\":22799:22818   */\n      gt\n        /* \"#utility.yul\":22796:23405   */\n      iszero\n      tag_415\n      jumpi\n        /* \"#utility.yul\":22853:22890   */\n      tag_416\n        /* \"#utility.yul\":22884:22889   */\n      dup2\n        /* \"#utility.yul\":22853:22890   */\n      tag_169\n      jump\t// in\n    tag_416:\n        /* \"#utility.yul\":22927:22949   */\n      tag_417\n        /* \"#utility.yul\":22945:22948   */\n      dup4\n        /* \"#utility.yul\":22927:22949   */\n      tag_155\n      jump\t// in\n    tag_417:\n        /* \"#utility.yul\":22986:23015   */\n      tag_418\n        /* \"#utility.yul\":23004:23014   */\n      dup6\n        /* \"#utility.yul\":22986:23015   */\n      tag_155\n      jump\t// in\n    tag_418:\n        /* \"#utility.yul\":23176:23178   */\n      0x20\n        /* \"#utility.yul\":23164:23174   */\n      dup7\n        /* \"#utility.yul\":23161:23179   */\n      lt\n        /* \"#utility.yul\":23158:23237   */\n      iszero\n      tag_419\n      jumpi\n        /* \"#utility.yul\":23218:23219   */\n      0x00\n        /* \"#utility.yul\":23202:23219   */\n      swap1\n      pop\n        /* \"#utility.yul\":23158:23237   */\n    tag_419:\n        /* \"#utility.yul\":23287:23299   */\n      dup1\n        /* \"#utility.yul\":23277:23285   */\n      dup4\n        /* \"#utility.yul\":23273:23300   */\n      add\n        /* \"#utility.yul\":23317:23391   */\n      tag_420\n        /* \"#utility.yul\":23377:23389   */\n      dup3\n        /* \"#utility.yul\":23363:23375   */\n      dup5\n        /* \"#utility.yul\":23359:23390   */\n      sub\n        /* \"#utility.yul\":23346:23357   */\n      dup3\n        /* \"#utility.yul\":23317:23391   */\n      tag_164\n      jump\t// in\n    tag_420:\n        /* \"#utility.yul\":22819:23405   */\n      pop\n      pop\n      pop\n      pop\n        /* \"#utility.yul\":22796:23405   */\n    tag_415:\n        /* \"#utility.yul\":22767:23415   */\n    tag_414:\n        /* \"#utility.yul\":22678:23422   */\n      pop\n      pop\n      pop\n      jump\t// out\n        /* \"#utility.yul\":23428:24818   */\n    tag_95:\n        /* \"#utility.yul\":23543:23579   */\n      tag_422\n        /* \"#utility.yul\":23575:23578   */\n      dup3\n        /* \"#utility.yul\":23543:23579   */\n      tag_123\n      jump\t// in\n    tag_422:\n        /* \"#utility.yul\":23644:23662   */\n      0xffffffffffffffff\n        /* \"#utility.yul\":23636:23642   */\n      dup2\n        /* \"#utility.yul\":23633:23663   */\n      gt\n        /* \"#utility.yul\":23630:23686   */\n      iszero\n      tag_423\n      jumpi\n        /* \"#utility.yul\":23666:23684   */\n      tag_424\n      tag_132\n      jump\t// in\n    tag_424:\n        /* \"#utility.yul\":23630:23686   */\n    tag_423:\n        /* \"#utility.yul\":23710:23748   */\n      tag_425\n        /* \"#utility.yul\":23742:23746   */\n      dup3\n        /* \"#utility.yul\":23736:23747   */\n      sload\n        /* \"#utility.yul\":23710:23748   */\n      tag_59\n      jump\t// in\n    tag_425:\n        /* \"#utility.yul\":23795:23861   */\n      tag_426\n        /* \"#utility.yul\":23854:23860   */\n      dup3\n        /* \"#utility.yul\":23846:23852   */\n      dup3\n        /* \"#utility.yul\":23840:23844   */\n      dup6\n        /* \"#utility.yul\":23795:23861   */\n      tag_170\n      jump\t// in\n    tag_426:\n        /* \"#utility.yul\":23888:23889   */\n      0x00\n        /* \"#utility.yul\":23912:23916   */\n      0x20\n        /* \"#utility.yul\":23899:23916   */\n      swap1\n      pop\n        /* \"#utility.yul\":23944:23946   */\n      0x1f\n        /* \"#utility.yul\":23936:23942   */\n      dup4\n        /* \"#utility.yul\":23933:23947   */\n      gt\n        /* \"#utility.yul\":23961:23962   */\n      0x01\n        /* \"#utility.yul\":23956:24573   */\n      dup2\n      eq\n      tag_428\n      jumpi\n        /* \"#utility.yul\":24617:24618   */\n      0x00\n        /* \"#utility.yul\":24634:24640   */\n      dup5\n        /* \"#utility.yul\":24631:24708   */\n      iszero\n      tag_429\n      jumpi\n        /* \"#utility.yul\":24683:24692   */\n      dup3\n        /* \"#utility.yul\":24678:24681   */\n      dup8\n        /* \"#utility.yul\":24674:24693   */\n      add\n        /* \"#utility.yul\":24668:24694   */\n      mload\n        /* \"#utility.yul\":24659:24694   */\n      swap1\n      pop\n        /* \"#utility.yul\":24631:24708   */\n    tag_429:\n        /* \"#utility.yul\":24734:24801   */\n      tag_430\n        /* \"#utility.yul\":24794:24800   */\n      dup6\n        /* \"#utility.yul\":24787:24792   */\n      dup3\n        /* \"#utility.yul\":24734:24801   */\n      tag_168\n      jump\t// in\n    tag_430:\n        /* \"#utility.yul\":24728:24732   */\n      dup7\n        /* \"#utility.yul\":24721:24802   */\n      sstore\n        /* \"#utility.yul\":24590:24812   */\n      pop\n        /* \"#utility.yul\":23926:24812   */\n      jump(tag_427)\n        /* \"#utility.yul\":23956:24573   */\n    tag_428:\n        /* \"#utility.yul\":24008:24012   */\n      0x1f\n        /* \"#utility.yul\":24004:24013   */\n      not\n        /* \"#utility.yul\":23996:24002   */\n      dup5\n        /* \"#utility.yul\":23992:24014   */\n      and\n        /* \"#utility.yul\":24042:24078   */\n      tag_431\n        /* \"#utility.yul\":24073:24077   */\n      dup7\n        /* \"#utility.yul\":24042:24078   */\n      tag_169\n      jump\t// in\n    tag_431:\n        /* \"#utility.yul\":24100:24101   */\n      0x00\n        /* \"#utility.yul\":24114:24322   */\n    tag_432:\n        /* \"#utility.yul\":24128:24135   */\n      dup3\n        /* \"#utility.yul\":24125:24126   */\n      dup2\n        /* \"#utility.yul\":24122:24136   */\n      lt\n        /* \"#utility.yul\":24114:24322   */\n      iszero\n      tag_434\n      jumpi\n        /* \"#utility.yul\":24207:24216   */\n      dup5\n        /* \"#utility.yul\":24202:24205   */\n      dup10\n        /* \"#utility.yul\":24198:24217   */\n      add\n        /* \"#utility.yul\":24192:24218   */\n      mload\n        /* \"#utility.yul\":24184:24190   */\n      dup3\n        /* \"#utility.yul\":24177:24219   */\n      sstore\n        /* \"#utility.yul\":24258:24259   */\n      0x01\n        /* \"#utility.yul\":24250:24256   */\n      dup3\n        /* \"#utility.yul\":24246:24260   */\n      add\n        /* \"#utility.yul\":24236:24260   */\n      swap2\n      pop\n        /* \"#utility.yul\":24305:24307   */\n      0x20\n        /* \"#utility.yul\":24294:24303   */\n      dup6\n        /* \"#utility.yul\":24290:24308   */\n      add\n        /* \"#utility.yul\":24277:24308   */\n      swap5\n      pop\n        /* \"#utility.yul\":24151:24155   */\n      0x20\n        /* \"#utility.yul\":24148:24149   */\n      dup2\n        /* \"#utility.yul\":24144:24156   */\n      add\n        /* \"#utility.yul\":24139:24156   */\n      swap1\n      pop\n        /* \"#utility.yul\":24114:24322   */\n      jump(tag_432)\n    tag_434:\n        /* \"#utility.yul\":24350:24356   */\n      dup7\n        /* \"#utility.yul\":24341:24348   */\n      dup4\n        /* \"#utility.yul\":24338:24357   */\n      lt\n        /* \"#utility.yul\":24335:24514   */\n      iszero\n      tag_435\n      jumpi\n        /* \"#utility.yul\":24408:24417   */\n      dup5\n        /* \"#utility.yul\":24403:24406   */\n      dup10\n        /* \"#utility.yul\":24399:24418   */\n      add\n        /* \"#utility.yul\":24393:24419   */\n      mload\n        /* \"#utility.yul\":24451:24499   */\n      tag_436\n        /* \"#utility.yul\":24493:24497   */\n      0x1f\n        /* \"#utility.yul\":24485:24491   */\n      dup10\n        /* \"#utility.yul\":24481:24498   */\n      and\n        /* \"#utility.yul\":24470:24479   */\n      dup3\n        /* \"#utility.yul\":24451:24499   */\n      tag_167\n      jump\t// in\n    tag_436:\n        /* \"#utility.yul\":24443:24449   */\n      dup4\n        /* \"#utility.yul\":24436:24500   */\n      sstore\n        /* \"#utility.yul\":24358:24514   */\n      pop\n        /* \"#utility.yul\":24335:24514   */\n    tag_435:\n        /* \"#utility.yul\":24560:24561   */\n      0x01\n        /* \"#utility.yul\":24556:24557   */\n      0x02\n        /* \"#utility.yul\":24548:24554   */\n      dup9\n        /* \"#utility.yul\":24544:24558   */\n      mul\n        /* \"#utility.yul\":24540:24562   */\n      add\n        /* \"#utility.yul\":24534:24538   */\n      dup9\n        /* \"#utility.yul\":24527:24563   */\n      sstore\n        /* \"#utility.yul\":23963:24573   */\n      pop\n      pop\n      pop\n        /* \"#utility.yul\":23926:24812   */\n    tag_427:\n      pop\n        /* \"#utility.yul\":23518:24818   */\n      pop\n      pop\n      pop\n        /* \"#utility.yul\":23428:24818   */\n      pop\n      pop\n      jump\t// out\n\n    auxdata: 0xa26469706673582212202404c2f5dfb905a2fc521507cf9d9e8f78a7fc35277ced95d46bd4d08e42d16a64736f6c63430008220033\n}\n",
				"bytecode": {
					"linkReferences": {},
					"object": "6080604052348015600e575f5ffd5b503360035f6101000a81548173ffffffffffffffffffffffffffffffffffffffff021916908373ffffffffffffffffffffffffffffffffffffffff16021790555042600360146101000a81548165ffffffffffff021916908365ffffffffffff1602179055506116cc806100815f395ff3fe608060405234801561000f575f5ffd5b5060043610610086575f3560e01c806392b408ba1161005957806392b408ba146100fe578063b1283e771461011c578063d58f05da14610157578063e82685091461017557610086565b806327e1f7df1461008a57806330a3463f146100a6578063704b6c02146100c45780638da5cb5b146100e0575b5f5ffd5b6100a4600480360381019061009f91906109d0565b6101a5565b005b6100ae61031f565b6040516100bb9190610a1d565b60405180910390f35b6100de60048036038101906100d991906109d0565b610339565b005b6100e8610422565b6040516100f59190610a45565b60405180910390f35b610106610447565b6040516101139190610a76565b60405180910390f35b61013660048036038101906101319190610ab9565b61044d565b60405161014e9c9b9a99989796959493929190610c86565b60405180910390f35b61015f6106a7565b60405161016c9190610a45565b60405180910390f35b61018f600480360381019061018a9190610f47565b6106cc565b60405161019c9190610a76565b60405180910390f35b3360035f9054906101000a900473ffffffffffffffffffffffffffffffffffffffff1673ffffffffffffffffffffffffffffffffffffffff168173ffffffffffffffffffffffffffffffffffffffff1614610235576040517f08c379a000000000000000000000000000000000000000000000000000000000815260040161022c9061105c565b60405180910390fd5b816001151560045f8373ffffffffffffffffffffffffffffffffffffffff1673ffffffffffffffffffffffffffffffffffffffff1681526020019081526020015f205f9054906101000a900460ff161515146102c6576040517f08c379a00000000000000000000000000000000000000000000000000000000081526004016102bd906110c4565b60405180910390fd5b5f60045f8573ffffffffffffffffffffffffffffffffffffffff1673ffffffffffffffffffffffffffffffffffffffff1681526020019081526020015f205f6101000a81548160ff021916908315150217905550505050565b600260149054906101000a900467ffffffffffffffff1681565b3360035f9054906101000a900473ffffffffffffffffffffffffffffffffffffffff1673ffffffffffffffffffffffffffffffffffffffff168173ffffffffffffffffffffffffffffffffffffffff16146103c9576040517f08c379a00000000000000000000000000000000000000000000000000000000081526004016103c09061105c565b60405180910390fd5b600160045f8473ffffffffffffffffffffffffffffffffffffffff1673ffffffffffffffffffffffffffffffffffffffff1681526020019081526020015f205f6101000a81548160ff0219169083151502179055505050565b60035f9054906101000a900473ffffffffffffffffffffffffffffffffffffffff1681565b60015481565b5f602052805f5260405f205f91509050805f0154908060010180546104719061110f565b80601f016020809104026020016040519081016040528092919081815260200182805461049d9061110f565b80156104e85780601f106104bf576101008083540402835291602001916104e8565b820191905f5260205f20905b8154815290600101906020018083116104cb57829003601f168201915b505050505090806002015f9054906101000a900460ff16908060020160019054906101000a900465ffffffffffff16908060020160079054906101000a900465ffffffffffff169080600201600d9054906101000a900465ffffffffffff16908060020160139054906101000a900465ffffffffffff16908060050154908060060180546105759061110f565b80601f01602080910402602001604051908101604052809291908181526020018280546105a19061110f565b80156105ec5780601f106105c3576101008083540402835291602001916105ec565b820191905f5260205f20905b8154815290600101906020018083116105cf57829003601f168201915b5050505050908060070180546106019061110f565b80601f016020809104026020016040519081016040528092919081815260200182805461062d9061110f565b80156106785780601f1061064f57610100808354040283529160200191610678565b820191905f5260205f20905b81548152906001019060200180831161065b57829003601f168201915b505050505090806008015f9054906101000a900460ff16908060080160019054906101000a900460ff1690508c565b60025f9054906101000a900473ffffffffffffffffffffffffffffffffffffffff1681565b5f336001151560045f8373ffffffffffffffffffffffffffffffffffffffff1673ffffffffffffffffffffffffffffffffffffffff1681526020019081526020015f205f9054906101000a900460ff1615151461075e576040517f08c379a0000000000000000000000000000000000000000000000000000000008152600401610755906110c4565b60405180910390fd5b8565ffffffffffff1642106107a8576040517f08c379a000000000000000000000000000000000000000000000000000000000815260040161079f906111af565b60405180910390fd5b5f8565ffffffffffff16116107f2576040517f08c379a00000000000000000000000000000000000000000000000000000000081526004016107e990611217565b60405180910390fd5b60015f81548092919061080490611262565b9190505591505f5f5f8481526020019081526020015f20905082815f018190555087816001019081610836919061145a565b506001816002015f6101000a81548160ff0219169083600581111561085e5761085d610b54565b5b0217905550428160020160016101000a81548165ffffffffffff021916908365ffffffffffff160217905550868160020160076101000a81548165ffffffffffff021916908365ffffffffffff1602179055508581600201600d6101000a81548165ffffffffffff021916908365ffffffffffff16021790555080600201600d9054906101000a900465ffffffffffff168160020160079054906101000a900465ffffffffffff166109109190611529565b8160020160136101000a81548165ffffffffffff021916908365ffffffffffff16021790555084816006019081610947919061145a565b508381600701908161095991906115c7565b50505095945050505050565b5f604051905090565b5f5ffd5b5f5ffd5b5f73ffffffffffffffffffffffffffffffffffffffff82169050919050565b5f61099f82610976565b9050919050565b6109af81610995565b81146109b9575f5ffd5b50565b5f813590506109ca816109a6565b92915050565b5f602082840312156109e5576109e461096e565b5b5f6109f2848285016109bc565b91505092915050565b5f67ffffffffffffffff82169050919050565b610a17816109fb565b82525050565b5f602082019050610a305f830184610a0e565b92915050565b610a3f81610995565b82525050565b5f602082019050610a585f830184610a36565b92915050565b5f819050919050565b610a7081610a5e565b82525050565b5f602082019050610a895f830184610a67565b92915050565b610a9881610a5e565b8114610aa2575f5ffd5b50565b5f81359050610ab381610a8f565b92915050565b5f60208284031215610ace57610acd61096e565b5b5f610adb84828501610aa5565b91505092915050565b5f81519050919050565b5f82825260208201905092915050565b8281835e5f83830152505050565b5f601f19601f8301169050919050565b5f610b2682610ae4565b610b308185610aee565b9350610b40818560208601610afe565b610b4981610b0c565b840191505092915050565b7f4e487b71000000000000000000000000000000000000000000000000000000005f52602160045260245ffd5b60068110610b9257610b91610b54565b5b50565b5f819050610ba282610b81565b919050565b5f610bb182610b95565b9050919050565b610bc181610ba7565b82525050565b5f65ffffffffffff82169050919050565b610be181610bc7565b82525050565b5f819050919050565b610bf981610be7565b82525050565b5f81519050919050565b5f82825260208201905092915050565b5f610c2382610bff565b610c2d8185610c09565b9350610c3d818560208601610afe565b610c4681610b0c565b840191505092915050565b5f60ff82169050919050565b610c6681610c51565b82525050565b5f8115159050919050565b610c8081610c6c565b82525050565b5f61018082019050610c9a5f83018f610a67565b8181036020830152610cac818e610b1c565b9050610cbb604083018d610bb8565b610cc8606083018c610bd8565b610cd5608083018b610bd8565b610ce260a083018a610bd8565b610cef60c0830189610bd8565b610cfc60e0830188610bf0565b818103610100830152610d0f8187610b1c565b9050818103610120830152610d248186610c19565b9050610d34610140830185610c5d565b610d42610160830184610c77565b9d9c50505050505050505050505050565b5f5ffd5b5f5ffd5b7f4e487b71000000000000000000000000000000000000000000000000000000005f52604160045260245ffd5b610d9182610b0c565b810181811067ffffffffffffffff82111715610db057610daf610d5b565b5b80604052505050565b5f610dc2610965565b9050610dce8282610d88565b919050565b5f67ffffffffffffffff821115610ded57610dec610d5b565b5b610df682610b0c565b9050602081019050919050565b828183375f83830152505050565b5f610e23610e1e84610dd3565b610db9565b905082815260208101848484011115610e3f57610e3e610d57565b5b610e4a848285610e03565b509392505050565b5f82601f830112610e6657610e65610d53565b5b8135610e76848260208601610e11565b91505092915050565b610e8881610bc7565b8114610e92575f5ffd5b50565b5f81359050610ea381610e7f565b92915050565b5f67ffffffffffffffff821115610ec357610ec2610d5b565b5b610ecc82610b0c565b9050602081019050919050565b5f610eeb610ee684610ea9565b610db9565b905082815260208101848484011115610f0757610f06610d57565b5b610f12848285610e03565b509392505050565b5f82601f830112610f2e57610f2d610d53565b5b8135610f3e848260208601610ed9565b91505092915050565b5f5f5f5f5f60a08688031215610f6057610f5f61096e565b5b5f86013567ffffffffffffffff811115610f7d57610f7c610972565b5b610f8988828901610e52565b9550506020610f9a88828901610e95565b9450506040610fab88828901610e95565b935050606086013567ffffffffffffffff811115610fcc57610fcb610972565b5b610fd888828901610e52565b925050608086013567ffffffffffffffff811115610ff957610ff8610972565b5b61100588828901610f1a565b9150509295509295909350565b7f596f75206e6f74206f776e6572212121000000000000000000000000000000005f82015250565b5f611046601083610aee565b915061105182611012565b602082019050919050565b5f6020820190508181035f8301526110738161103a565b9050919050565b7f596f75206e6f742061646d696e212121000000000000000000000000000000005f82015250565b5f6110ae601083610aee565b91506110b98261107a565b602082019050919050565b5f6020820190508181035f8301526110db816110a2565b9050919050565b7f4e487b71000000000000000000000000000000000000000000000000000000005f52602260045260245ffd5b5f600282049050600182168061112657607f821691505b602082108103611139576111386110e2565b5b50919050565b7f446561646c696e652074696d657374616d70206d757374206265206c617465725f8201527f2121210000000000000000000000000000000000000000000000000000000000602082015250565b5f611199602383610aee565b91506111a48261113f565b604082019050919050565b5f6020820190508181035f8301526111c68161118d565b9050919050565b7f5265736f6c76652074696d652063616e277420657175616c207a65726f2121215f82015250565b5f611201602083610aee565b915061120c826111cd565b602082019050919050565b5f6020820190508181035f83015261122e816111f5565b9050919050565b7f4e487b71000000000000000000000000000000000000000000000000000000005f52601160045260245ffd5b5f61126c82610a5e565b91507fffffffffffffffffffffffffffffffffffffffffffffffffffffffffffffffff820361129e5761129d611235565b5b600182019050919050565b5f819050815f5260205f209050919050565b5f6020601f8301049050919050565b5f82821b905092915050565b5f600883026113057fffffffffffffffffffffffffffffffffffffffffffffffffffffffffffffffff826112ca565b61130f86836112ca565b95508019841693508086168417925050509392505050565b5f819050919050565b5f61134a61134561134084610a5e565b611327565b610a5e565b9050919050565b5f819050919050565b61136383611330565b61137761136f82611351565b8484546112d6565b825550505050565b5f5f905090565b61138e61137f565b61139981848461135a565b505050565b5f5b828110156113bf576113b45f828401611386565b6001810190506113a0565b505050565b601f8211156114125782821115611411576113de816112a9565b6113e7836112bb565b6113f0856112bb565b60208610156113fd575f90505b80830161140c8284038261139e565b505050505b5b505050565b5f82821c905092915050565b5f6114325f1984600802611417565b1980831691505092915050565b5f61144a8383611423565b9150826002028217905092915050565b61146382610ae4565b67ffffffffffffffff81111561147c5761147b610d5b565b5b611486825461110f565b6114918282856113c4565b5f60209050601f8311600181146114c2575f84156114b0578287015190505b6114ba858261143f565b865550611521565b601f1984166114d0866112a9565b5f5b828110156114f7578489015182556001820191506020850194506020810190506114d2565b868310156115145784890151611510601f891682611423565b8355505b6001600288020188555050505b505050505050565b5f61153382610bc7565b915061153e83610bc7565b9250828201905065ffffffffffff81111561155c5761155b611235565b5b92915050565b5f819050815f5260205f209050919050565b601f8211156115c257828211156115c15761158e81611562565b611597836112bb565b6115a0856112bb565b60208610156115ad575f90505b8083016115bc8284038261139e565b505050505b5b505050565b6115d082610bff565b67ffffffffffffffff8111156115e9576115e8610d5b565b5b6115f3825461110f565b6115fe828285611574565b5f60209050601f83116001811461162f575f841561161d578287015190505b611627858261143f565b86555061168e565b601f19841661163d86611562565b5f5b828110156116645784890151825560018201915060208501945060208101905061163f565b86831015611681578489015161167d601f891682611423565b8355505b6001600288020188555050505b50505050505056fea26469706673582212202404c2f5dfb905a2fc521507cf9d9e8f78a7fc35277ced95d46bd4d08e42d16a64736f6c63430008220033",
					"opcodes": "PUSH1 0x80 PUSH1 0x40 MSTORE CALLVALUE DUP1 ISZERO PUSH1 0xE JUMPI PUSH0 PUSH0 REVERT JUMPDEST POP CALLER PUSH1 0x3 PUSH0 PUSH2 0x100 EXP DUP2 SLOAD DUP2 PUSH20 0xFFFFFFFFFFFFFFFFFFFFFFFFFFFFFFFFFFFFFFFF MUL NOT AND SWAP1 DUP4 PUSH20 0xFFFFFFFFFFFFFFFFFFFFFFFFFFFFFFFFFFFFFFFF AND MUL OR SWAP1 SSTORE POP TIMESTAMP PUSH1 0x3 PUSH1 0x14 PUSH2 0x100 EXP DUP2 SLOAD DUP2 PUSH6 0xFFFFFFFFFFFF MUL NOT AND SWAP1 DUP4 PUSH6 0xFFFFFFFFFFFF AND MUL OR SWAP1 SSTORE POP PUSH2 0x16CC DUP1 PUSH2 0x81 PUSH0 CODECOPY PUSH0 RETURN INVALID PUSH1 0x80 PUSH1 0x40 MSTORE CALLVALUE DUP1 ISZERO PUSH2 0xF JUMPI PUSH0 PUSH0 REVERT JUMPDEST POP PUSH1 0x4 CALLDATASIZE LT PUSH2 0x86 JUMPI PUSH0 CALLDATALOAD PUSH1 0xE0 SHR DUP1 PUSH4 0x92B408BA GT PUSH2 0x59 JUMPI DUP1 PUSH4 0x92B408BA EQ PUSH2 0xFE JUMPI DUP1 PUSH4 0xB1283E77 EQ PUSH2 0x11C JUMPI DUP1 PUSH4 0xD58F05DA EQ PUSH2 0x157 JUMPI DUP1 PUSH4 0xE8268509 EQ PUSH2 0x175 JUMPI PUSH2 0x86 JUMP JUMPDEST DUP1 PUSH4 0x27E1F7DF EQ PUSH2 0x8A JUMPI DUP1 PUSH4 0x30A3463F EQ PUSH2 0xA6 JUMPI DUP1 PUSH4 0x704B6C02 EQ PUSH2 0xC4 JUMPI DUP1 PUSH4 0x8DA5CB5B EQ PUSH2 0xE0 JUMPI JUMPDEST PUSH0 PUSH0 REVERT JUMPDEST PUSH2 0xA4 PUSH1 0x4 DUP1 CALLDATASIZE SUB DUP2 ADD SWAP1 PUSH2 0x9F SWAP2 SWAP1 PUSH2 0x9D0 JUMP JUMPDEST PUSH2 0x1A5 JUMP JUMPDEST STOP JUMPDEST PUSH2 0xAE PUSH2 0x31F JUMP JUMPDEST PUSH1 0x40 MLOAD PUSH2 0xBB SWAP2 SWAP1 PUSH2 0xA1D JUMP JUMPDEST PUSH1 0x40 MLOAD DUP1 SWAP2 SUB SWAP1 RETURN JUMPDEST PUSH2 0xDE PUSH1 0x4 DUP1 CALLDATASIZE SUB DUP2 ADD SWAP1 PUSH2 0xD9 SWAP2 SWAP1 PUSH2 0x9D0 JUMP JUMPDEST PUSH2 0x339 JUMP JUMPDEST STOP JUMPDEST PUSH2 0xE8 PUSH2 0x422 JUMP JUMPDEST PUSH1 0x40 MLOAD PUSH2 0xF5 SWAP2 SWAP1 PUSH2 0xA45 JUMP JUMPDEST PUSH1 0x40 MLOAD DUP1 SWAP2 SUB SWAP1 RETURN JUMPDEST PUSH2 0x106 PUSH2 0x447 JUMP JUMPDEST PUSH1 0x40 MLOAD PUSH2 0x113 SWAP2 SWAP1 PUSH2 0xA76 JUMP JUMPDEST PUSH1 0x40 MLOAD DUP1 SWAP2 SUB SWAP1 RETURN JUMPDEST PUSH2 0x136 PUSH1 0x4 DUP1 CALLDATASIZE SUB DUP2 ADD SWAP1 PUSH2 0x131 SWAP2 SWAP1 PUSH2 0xAB9 JUMP JUMPDEST PUSH2 0x44D JUMP JUMPDEST PUSH1 0x40 MLOAD PUSH2 0x14E SWAP13 SWAP12 SWAP11 SWAP10 SWAP9 SWAP8 SWAP7 SWAP6 SWAP5 SWAP4 SWAP3 SWAP2 SWAP1 PUSH2 0xC86 JUMP JUMPDEST PUSH1 0x40 MLOAD DUP1 SWAP2 SUB SWAP1 RETURN JUMPDEST PUSH2 0x15F PUSH2 0x6A7 JUMP JUMPDEST PUSH1 0x40 MLOAD PUSH2 0x16C SWAP2 SWAP1 PUSH2 0xA45 JUMP JUMPDEST PUSH1 0x40 MLOAD DUP1 SWAP2 SUB SWAP1 RETURN JUMPDEST PUSH2 0x18F PUSH1 0x4 DUP1 CALLDATASIZE SUB DUP2 ADD SWAP1 PUSH2 0x18A SWAP2 SWAP1 PUSH2 0xF47 JUMP JUMPDEST PUSH2 0x6CC JUMP JUMPDEST PUSH1 0x40 MLOAD PUSH2 0x19C SWAP2 SWAP1 PUSH2 0xA76 JUMP JUMPDEST PUSH1 0x40 MLOAD DUP1 SWAP2 SUB SWAP1 RETURN JUMPDEST CALLER PUSH1 0x3 PUSH0 SWAP1 SLOAD SWAP1 PUSH2 0x100 EXP SWAP1 DIV PUSH20 0xFFFFFFFFFFFFFFFFFFFFFFFFFFFFFFFFFFFFFFFF AND PUSH20 0xFFFFFFFFFFFFFFFFFFFFFFFFFFFFFFFFFFFFFFFF AND DUP2 PUSH20 0xFFFFFFFFFFFFFFFFFFFFFFFFFFFFFFFFFFFFFFFF AND EQ PUSH2 0x235 JUMPI PUSH1 0x40 MLOAD PUSH32 0x8C379A000000000000000000000000000000000000000000000000000000000 DUP2 MSTORE PUSH1 0x4 ADD PUSH2 0x22C SWAP1 PUSH2 0x105C JUMP JUMPDEST PUSH1 0x40 MLOAD DUP1 SWAP2 SUB SWAP1 REVERT JUMPDEST DUP2 PUSH1 0x1 ISZERO ISZERO PUSH1 0x4 PUSH0 DUP4 PUSH20 0xFFFFFFFFFFFFFFFFFFFFFFFFFFFFFFFFFFFFFFFF AND PUSH20 0xFFFFFFFFFFFFFFFFFFFFFFFFFFFFFFFFFFFFFFFF AND DUP2 MSTORE PUSH1 0x20 ADD SWAP1 DUP2 MSTORE PUSH1 0x20 ADD PUSH0 KECCAK256 PUSH0 SWAP1 SLOAD SWAP1 PUSH2 0x100 EXP SWAP1 DIV PUSH1 0xFF AND ISZERO ISZERO EQ PUSH2 0x2C6 JUMPI PUSH1 0x40 MLOAD PUSH32 0x8C379A000000000000000000000000000000000000000000000000000000000 DUP2 MSTORE PUSH1 0x4 ADD PUSH2 0x2BD SWAP1 PUSH2 0x10C4 JUMP JUMPDEST PUSH1 0x40 MLOAD DUP1 SWAP2 SUB SWAP1 REVERT JUMPDEST PUSH0 PUSH1 0x4 PUSH0 DUP6 PUSH20 0xFFFFFFFFFFFFFFFFFFFFFFFFFFFFFFFFFFFFFFFF AND PUSH20 0xFFFFFFFFFFFFFFFFFFFFFFFFFFFFFFFFFFFFFFFF AND DUP2 MSTORE PUSH1 0x20 ADD SWAP1 DUP2 MSTORE PUSH1 0x20 ADD PUSH0 KECCAK256 PUSH0 PUSH2 0x100 EXP DUP2 SLOAD DUP2 PUSH1 0xFF MUL NOT AND SWAP1 DUP4 ISZERO ISZERO MUL OR SWAP1 SSTORE POP POP POP POP JUMP JUMPDEST PUSH1 0x2 PUSH1 0x14 SWAP1 SLOAD SWAP1 PUSH2 0x100 EXP SWAP1 DIV PUSH8 0xFFFFFFFFFFFFFFFF AND DUP2 JUMP JUMPDEST CALLER PUSH1 0x3 PUSH0 SWAP1 SLOAD SWAP1 PUSH2 0x100 EXP SWAP1 DIV PUSH20 0xFFFFFFFFFFFFFFFFFFFFFFFFFFFFFFFFFFFFFFFF AND PUSH20 0xFFFFFFFFFFFFFFFFFFFFFFFFFFFFFFFFFFFFFFFF AND DUP2 PUSH20 0xFFFFFFFFFFFFFFFFFFFFFFFFFFFFFFFFFFFFFFFF AND EQ PUSH2 0x3C9 JUMPI PUSH1 0x40 MLOAD PUSH32 0x8C379A000000000000000000000000000000000000000000000000000000000 DUP2 MSTORE PUSH1 0x4 ADD PUSH2 0x3C0 SWAP1 PUSH2 0x105C JUMP JUMPDEST PUSH1 0x40 MLOAD DUP1 SWAP2 SUB SWAP1 REVERT JUMPDEST PUSH1 0x1 PUSH1 0x4 PUSH0 DUP5 PUSH20 0xFFFFFFFFFFFFFFFFFFFFFFFFFFFFFFFFFFFFFFFF AND PUSH20 0xFFFFFFFFFFFFFFFFFFFFFFFFFFFFFFFFFFFFFFFF AND DUP2 MSTORE PUSH1 0x20 ADD SWAP1 DUP2 MSTORE PUSH1 0x20 ADD PUSH0 KECCAK256 PUSH0 PUSH2 0x100 EXP DUP2 SLOAD DUP2 PUSH1 0xFF MUL NOT AND SWAP1 DUP4 ISZERO ISZERO MUL OR SWAP1 SSTORE POP POP POP JUMP JUMPDEST PUSH1 0x3 PUSH0 SWAP1 SLOAD SWAP1 PUSH2 0x100 EXP SWAP1 DIV PUSH20 0xFFFFFFFFFFFFFFFFFFFFFFFFFFFFFFFFFFFFFFFF AND DUP2 JUMP JUMPDEST PUSH1 0x1 SLOAD DUP2 JUMP JUMPDEST PUSH0 PUSH1 0x20 MSTORE DUP1 PUSH0 MSTORE PUSH1 0x40 PUSH0 KECCAK256 PUSH0 SWAP2 POP SWAP1 POP DUP1 PUSH0 ADD SLOAD SWAP1 DUP1 PUSH1 0x1 ADD DUP1 SLOAD PUSH2 0x471 SWAP1 PUSH2 0x110F JUMP JUMPDEST DUP1 PUSH1 0x1F ADD PUSH1 0x20 DUP1 SWAP2 DIV MUL PUSH1 0x20 ADD PUSH1 0x40 MLOAD SWAP1 DUP2 ADD PUSH1 0x40 MSTORE DUP1 SWAP3 SWAP2 SWAP1 DUP2 DUP2 MSTORE PUSH1 0x20 ADD DUP3 DUP1 SLOAD PUSH2 0x49D SWAP1 PUSH2 0x110F JUMP JUMPDEST DUP1 ISZERO PUSH2 0x4E8 JUMPI DUP1 PUSH1 0x1F LT PUSH2 0x4BF JUMPI PUSH2 0x100 DUP1 DUP4 SLOAD DIV MUL DUP4 MSTORE SWAP2 PUSH1 0x20 ADD SWAP2 PUSH2 0x4E8 JUMP JUMPDEST DUP3 ADD SWAP2 SWAP1 PUSH0 MSTORE PUSH1 0x20 PUSH0 KECCAK256 SWAP1 JUMPDEST DUP2 SLOAD DUP2 MSTORE SWAP1 PUSH1 0x1 ADD SWAP1 PUSH1 0x20 ADD DUP1 DUP4 GT PUSH2 0x4CB JUMPI DUP3 SWAP1 SUB PUSH1 0x1F AND DUP3 ADD SWAP2 JUMPDEST POP POP POP POP POP SWAP1 DUP1 PUSH1 0x2 ADD PUSH0 SWAP1 SLOAD SWAP1 PUSH2 0x100 EXP SWAP1 DIV PUSH1 0xFF AND SWAP1 DUP1 PUSH1 0x2 ADD PUSH1 0x1 SWAP1 SLOAD SWAP1 PUSH2 0x100 EXP SWAP1 DIV PUSH6 0xFFFFFFFFFFFF AND SWAP1 DUP1 PUSH1 0x2 ADD PUSH1 0x7 SWAP1 SLOAD SWAP1 PUSH2 0x100 EXP SWAP1 DIV PUSH6 0xFFFFFFFFFFFF AND SWAP1 DUP1 PUSH1 0x2 ADD PUSH1 0xD SWAP1 SLOAD SWAP1 PUSH2 0x100 EXP SWAP1 DIV PUSH6 0xFFFFFFFFFFFF AND SWAP1 DUP1 PUSH1 0x2 ADD PUSH1 0x13 SWAP1 SLOAD SWAP1 PUSH2 0x100 EXP SWAP1 DIV PUSH6 0xFFFFFFFFFFFF AND SWAP1 DUP1 PUSH1 0x5 ADD SLOAD SWAP1 DUP1 PUSH1 0x6 ADD DUP1 SLOAD PUSH2 0x575 SWAP1 PUSH2 0x110F JUMP JUMPDEST DUP1 PUSH1 0x1F ADD PUSH1 0x20 DUP1 SWAP2 DIV MUL PUSH1 0x20 ADD PUSH1 0x40 MLOAD SWAP1 DUP2 ADD PUSH1 0x40 MSTORE DUP1 SWAP3 SWAP2 SWAP1 DUP2 DUP2 MSTORE PUSH1 0x20 ADD DUP3 DUP1 SLOAD PUSH2 0x5A1 SWAP1 PUSH2 0x110F JUMP JUMPDEST DUP1 ISZERO PUSH2 0x5EC JUMPI DUP1 PUSH1 0x1F LT PUSH2 0x5C3 JUMPI PUSH2 0x100 DUP1 DUP4 SLOAD DIV MUL DUP4 MSTORE SWAP2 PUSH1 0x20 ADD SWAP2 PUSH2 0x5EC JUMP JUMPDEST DUP3 ADD SWAP2 SWAP1 PUSH0 MSTORE PUSH1 0x20 PUSH0 KECCAK256 SWAP1 JUMPDEST DUP2 SLOAD DUP2 MSTORE SWAP1 PUSH1 0x1 ADD SWAP1 PUSH1 0x20 ADD DUP1 DUP4 GT PUSH2 0x5CF JUMPI DUP3 SWAP1 SUB PUSH1 0x1F AND DUP3 ADD SWAP2 JUMPDEST POP POP POP POP POP SWAP1 DUP1 PUSH1 0x7 ADD DUP1 SLOAD PUSH2 0x601 SWAP1 PUSH2 0x110F JUMP JUMPDEST DUP1 PUSH1 0x1F ADD PUSH1 0x20 DUP1 SWAP2 DIV MUL PUSH1 0x20 ADD PUSH1 0x40 MLOAD SWAP1 DUP2 ADD PUSH1 0x40 MSTORE DUP1 SWAP3 SWAP2 SWAP1 DUP2 DUP2 MSTORE PUSH1 0x20 ADD DUP3 DUP1 SLOAD PUSH2 0x62D SWAP1 PUSH2 0x110F JUMP JUMPDEST DUP1 ISZERO PUSH2 0x678 JUMPI DUP1 PUSH1 0x1F LT PUSH2 0x64F JUMPI PUSH2 0x100 DUP1 DUP4 SLOAD DIV MUL DUP4 MSTORE SWAP2 PUSH1 0x20 ADD SWAP2 PUSH2 0x678 JUMP JUMPDEST DUP3 ADD SWAP2 SWAP1 PUSH0 MSTORE PUSH1 0x20 PUSH0 KECCAK256 SWAP1 JUMPDEST DUP2 SLOAD DUP2 MSTORE SWAP1 PUSH1 0x1 ADD SWAP1 PUSH1 0x20 ADD DUP1 DUP4 GT PUSH2 0x65B JUMPI DUP3 SWAP1 SUB PUSH1 0x1F AND DUP3 ADD SWAP2 JUMPDEST POP POP POP POP POP SWAP1 DUP1 PUSH1 0x8 ADD PUSH0 SWAP1 SLOAD SWAP1 PUSH2 0x100 EXP SWAP1 DIV PUSH1 0xFF AND SWAP1 DUP1 PUSH1 0x8 ADD PUSH1 0x1 SWAP1 SLOAD SWAP1 PUSH2 0x100 EXP SWAP1 DIV PUSH1 0xFF AND SWAP1 POP DUP13 JUMP JUMPDEST PUSH1 0x2 PUSH0 SWAP1 SLOAD SWAP1 PUSH2 0x100 EXP SWAP1 DIV PUSH20 0xFFFFFFFFFFFFFFFFFFFFFFFFFFFFFFFFFFFFFFFF AND DUP2 JUMP JUMPDEST PUSH0 CALLER PUSH1 0x1 ISZERO ISZERO PUSH1 0x4 PUSH0 DUP4 PUSH20 0xFFFFFFFFFFFFFFFFFFFFFFFFFFFFFFFFFFFFFFFF AND PUSH20 0xFFFFFFFFFFFFFFFFFFFFFFFFFFFFFFFFFFFFFFFF AND DUP2 MSTORE PUSH1 0x20 ADD SWAP1 DUP2 MSTORE PUSH1 0x20 ADD PUSH0 KECCAK256 PUSH0 SWAP1 SLOAD SWAP1 PUSH2 0x100 EXP SWAP1 DIV PUSH1 0xFF AND ISZERO ISZERO EQ PUSH2 0x75E JUMPI PUSH1 0x40 MLOAD PUSH32 0x8C379A000000000000000000000000000000000000000000000000000000000 DUP2 MSTORE PUSH1 0x4 ADD PUSH2 0x755 SWAP1 PUSH2 0x10C4 JUMP JUMPDEST PUSH1 0x40 MLOAD DUP1 SWAP2 SUB SWAP1 REVERT JUMPDEST DUP6 PUSH6 0xFFFFFFFFFFFF AND TIMESTAMP LT PUSH2 0x7A8 JUMPI PUSH1 0x40 MLOAD PUSH32 0x8C379A000000000000000000000000000000000000000000000000000000000 DUP2 MSTORE PUSH1 0x4 ADD PUSH2 0x79F SWAP1 PUSH2 0x11AF JUMP JUMPDEST PUSH1 0x40 MLOAD DUP1 SWAP2 SUB SWAP1 REVERT JUMPDEST PUSH0 DUP6 PUSH6 0xFFFFFFFFFFFF AND GT PUSH2 0x7F2 JUMPI PUSH1 0x40 MLOAD PUSH32 0x8C379A000000000000000000000000000000000000000000000000000000000 DUP2 MSTORE PUSH1 0x4 ADD PUSH2 0x7E9 SWAP1 PUSH2 0x1217 JUMP JUMPDEST PUSH1 0x40 MLOAD DUP1 SWAP2 SUB SWAP1 REVERT JUMPDEST PUSH1 0x1 PUSH0 DUP2 SLOAD DUP1 SWAP3 SWAP2 SWAP1 PUSH2 0x804 SWAP1 PUSH2 0x1262 JUMP JUMPDEST SWAP2 SWAP1 POP SSTORE SWAP2 POP PUSH0 PUSH0 PUSH0 DUP5 DUP2 MSTORE PUSH1 0x20 ADD SWAP1 DUP2 MSTORE PUSH1 0x20 ADD PUSH0 KECCAK256 SWAP1 POP DUP3 DUP2 PUSH0 ADD DUP2 SWAP1 SSTORE POP DUP8 DUP2 PUSH1 0x1 ADD SWAP1 DUP2 PUSH2 0x836 SWAP2 SWAP1 PUSH2 0x145A JUMP JUMPDEST POP PUSH1 0x1 DUP2 PUSH1 0x2 ADD PUSH0 PUSH2 0x100 EXP DUP2 SLOAD DUP2 PUSH1 0xFF MUL NOT AND SWAP1 DUP4 PUSH1 0x5 DUP2 GT ISZERO PUSH2 0x85E JUMPI PUSH2 0x85D PUSH2 0xB54 JUMP JUMPDEST JUMPDEST MUL OR SWAP1 SSTORE POP TIMESTAMP DUP2 PUSH1 0x2 ADD PUSH1 0x1 PUSH2 0x100 EXP DUP2 SLOAD DUP2 PUSH6 0xFFFFFFFFFFFF MUL NOT AND SWAP1 DUP4 PUSH6 0xFFFFFFFFFFFF AND MUL OR SWAP1 SSTORE POP DUP7 DUP2 PUSH1 0x2 ADD PUSH1 0x7 PUSH2 0x100 EXP DUP2 SLOAD DUP2 PUSH6 0xFFFFFFFFFFFF MUL NOT AND SWAP1 DUP4 PUSH6 0xFFFFFFFFFFFF AND MUL OR SWAP1 SSTORE POP DUP6 DUP2 PUSH1 0x2 ADD PUSH1 0xD PUSH2 0x100 EXP DUP2 SLOAD DUP2 PUSH6 0xFFFFFFFFFFFF MUL NOT AND SWAP1 DUP4 PUSH6 0xFFFFFFFFFFFF AND MUL OR SWAP1 SSTORE POP DUP1 PUSH1 0x2 ADD PUSH1 0xD SWAP1 SLOAD SWAP1 PUSH2 0x100 EXP SWAP1 DIV PUSH6 0xFFFFFFFFFFFF AND DUP2 PUSH1 0x2 ADD PUSH1 0x7 SWAP1 SLOAD SWAP1 PUSH2 0x100 EXP SWAP1 DIV PUSH6 0xFFFFFFFFFFFF AND PUSH2 0x910 SWAP2 SWAP1 PUSH2 0x1529 JUMP JUMPDEST DUP2 PUSH1 0x2 ADD PUSH1 0x13 PUSH2 0x100 EXP DUP2 SLOAD DUP2 PUSH6 0xFFFFFFFFFFFF MUL NOT AND SWAP1 DUP4 PUSH6 0xFFFFFFFFFFFF AND MUL OR SWAP1 SSTORE POP DUP5 DUP2 PUSH1 0x6 ADD SWAP1 DUP2 PUSH2 0x947 SWAP2 SWAP1 PUSH2 0x145A JUMP JUMPDEST POP DUP4 DUP2 PUSH1 0x7 ADD SWAP1 DUP2 PUSH2 0x959 SWAP2 SWAP1 PUSH2 0x15C7 JUMP JUMPDEST POP POP POP SWAP6 SWAP5 POP POP POP POP POP JUMP JUMPDEST PUSH0 PUSH1 0x40 MLOAD SWAP1 POP SWAP1 JUMP JUMPDEST PUSH0 PUSH0 REVERT JUMPDEST PUSH0 PUSH0 REVERT JUMPDEST PUSH0 PUSH20 0xFFFFFFFFFFFFFFFFFFFFFFFFFFFFFFFFFFFFFFFF DUP3 AND SWAP1 POP SWAP2 SWAP1 POP JUMP JUMPDEST PUSH0 PUSH2 0x99F DUP3 PUSH2 0x976 JUMP JUMPDEST SWAP1 POP SWAP2 SWAP1 POP JUMP JUMPDEST PUSH2 0x9AF DUP2 PUSH2 0x995 JUMP JUMPDEST DUP2 EQ PUSH2 0x9B9 JUMPI PUSH0 PUSH0 REVERT JUMPDEST POP JUMP JUMPDEST PUSH0 DUP2 CALLDATALOAD SWAP1 POP PUSH2 0x9CA DUP2 PUSH2 0x9A6 JUMP JUMPDEST SWAP3 SWAP2 POP POP JUMP JUMPDEST PUSH0 PUSH1 0x20 DUP3 DUP5 SUB SLT ISZERO PUSH2 0x9E5 JUMPI PUSH2 0x9E4 PUSH2 0x96E JUMP JUMPDEST JUMPDEST PUSH0 PUSH2 0x9F2 DUP5 DUP3 DUP6 ADD PUSH2 0x9BC JUMP JUMPDEST SWAP2 POP POP SWAP3 SWAP2 POP POP JUMP JUMPDEST PUSH0 PUSH8 0xFFFFFFFFFFFFFFFF DUP3 AND SWAP1 POP SWAP2 SWAP1 POP JUMP JUMPDEST PUSH2 0xA17 DUP2 PUSH2 0x9FB JUMP JUMPDEST DUP3 MSTORE POP POP JUMP JUMPDEST PUSH0 PUSH1 0x20 DUP3 ADD SWAP1 POP PUSH2 0xA30 PUSH0 DUP4 ADD DUP5 PUSH2 0xA0E JUMP JUMPDEST SWAP3 SWAP2 POP POP JUMP JUMPDEST PUSH2 0xA3F DUP2 PUSH2 0x995 JUMP JUMPDEST DUP3 MSTORE POP POP JUMP JUMPDEST PUSH0 PUSH1 0x20 DUP3 ADD SWAP1 POP PUSH2 0xA58 PUSH0 DUP4 ADD DUP5 PUSH2 0xA36 JUMP JUMPDEST SWAP3 SWAP2 POP POP JUMP JUMPDEST PUSH0 DUP2 SWAP1 POP SWAP2 SWAP1 POP JUMP JUMPDEST PUSH2 0xA70 DUP2 PUSH2 0xA5E JUMP JUMPDEST DUP3 MSTORE POP POP JUMP JUMPDEST PUSH0 PUSH1 0x20 DUP3 ADD SWAP1 POP PUSH2 0xA89 PUSH0 DUP4 ADD DUP5 PUSH2 0xA67 JUMP JUMPDEST SWAP3 SWAP2 POP POP JUMP JUMPDEST PUSH2 0xA98 DUP2 PUSH2 0xA5E JUMP JUMPDEST DUP2 EQ PUSH2 0xAA2 JUMPI PUSH0 PUSH0 REVERT JUMPDEST POP JUMP JUMPDEST PUSH0 DUP2 CALLDATALOAD SWAP1 POP PUSH2 0xAB3 DUP2 PUSH2 0xA8F JUMP JUMPDEST SWAP3 SWAP2 POP POP JUMP JUMPDEST PUSH0 PUSH1 0x20 DUP3 DUP5 SUB SLT ISZERO PUSH2 0xACE JUMPI PUSH2 0xACD PUSH2 0x96E JUMP JUMPDEST JUMPDEST PUSH0 PUSH2 0xADB DUP5 DUP3 DUP6 ADD PUSH2 0xAA5 JUMP JUMPDEST SWAP2 POP POP SWAP3 SWAP2 POP POP JUMP JUMPDEST PUSH0 DUP2 MLOAD SWAP1 POP SWAP2 SWAP1 POP JUMP JUMPDEST PUSH0 DUP3 DUP3 MSTORE PUSH1 0x20 DUP3 ADD SWAP1 POP SWAP3 SWAP2 POP POP JUMP JUMPDEST DUP3 DUP2 DUP4 MCOPY PUSH0 DUP4 DUP4 ADD MSTORE POP POP POP JUMP JUMPDEST PUSH0 PUSH1 0x1F NOT PUSH1 0x1F DUP4 ADD AND SWAP1 POP SWAP2 SWAP1 POP JUMP JUMPDEST PUSH0 PUSH2 0xB26 DUP3 PUSH2 0xAE4 JUMP JUMPDEST PUSH2 0xB30 DUP2 DUP6 PUSH2 0xAEE JUMP JUMPDEST SWAP4 POP PUSH2 0xB40 DUP2 DUP6 PUSH1 0x20 DUP7 ADD PUSH2 0xAFE JUMP JUMPDEST PUSH2 0xB49 DUP2 PUSH2 0xB0C JUMP JUMPDEST DUP5 ADD SWAP2 POP POP SWAP3 SWAP2 POP POP JUMP JUMPDEST PUSH32 0x4E487B7100000000000000000000000000000000000000000000000000000000 PUSH0 MSTORE PUSH1 0x21 PUSH1 0x4 MSTORE PUSH1 0x24 PUSH0 REVERT JUMPDEST PUSH1 0x6 DUP2 LT PUSH2 0xB92 JUMPI PUSH2 0xB91 PUSH2 0xB54 JUMP JUMPDEST JUMPDEST POP JUMP JUMPDEST PUSH0 DUP2 SWAP1 POP PUSH2 0xBA2 DUP3 PUSH2 0xB81 JUMP JUMPDEST SWAP2 SWAP1 POP JUMP JUMPDEST PUSH0 PUSH2 0xBB1 DUP3 PUSH2 0xB95 JUMP JUMPDEST SWAP1 POP SWAP2 SWAP1 POP JUMP JUMPDEST PUSH2 0xBC1 DUP2 PUSH2 0xBA7 JUMP JUMPDEST DUP3 MSTORE POP POP JUMP JUMPDEST PUSH0 PUSH6 0xFFFFFFFFFFFF DUP3 AND SWAP1 POP SWAP2 SWAP1 POP JUMP JUMPDEST PUSH2 0xBE1 DUP2 PUSH2 0xBC7 JUMP JUMPDEST DUP3 MSTORE POP POP JUMP JUMPDEST PUSH0 DUP2 SWAP1 POP SWAP2 SWAP1 POP JUMP JUMPDEST PUSH2 0xBF9 DUP2 PUSH2 0xBE7 JUMP JUMPDEST DUP3 MSTORE POP POP JUMP JUMPDEST PUSH0 DUP2 MLOAD SWAP1 POP SWAP2 SWAP1 POP JUMP JUMPDEST PUSH0 DUP3 DUP3 MSTORE PUSH1 0x20 DUP3 ADD SWAP1 POP SWAP3 SWAP2 POP POP JUMP JUMPDEST PUSH0 PUSH2 0xC23 DUP3 PUSH2 0xBFF JUMP JUMPDEST PUSH2 0xC2D DUP2 DUP6 PUSH2 0xC09 JUMP JUMPDEST SWAP4 POP PUSH2 0xC3D DUP2 DUP6 PUSH1 0x20 DUP7 ADD PUSH2 0xAFE JUMP JUMPDEST PUSH2 0xC46 DUP2 PUSH2 0xB0C JUMP JUMPDEST DUP5 ADD SWAP2 POP POP SWAP3 SWAP2 POP POP JUMP JUMPDEST PUSH0 PUSH1 0xFF DUP3 AND SWAP1 POP SWAP2 SWAP1 POP JUMP JUMPDEST PUSH2 0xC66 DUP2 PUSH2 0xC51 JUMP JUMPDEST DUP3 MSTORE POP POP JUMP JUMPDEST PUSH0 DUP2 ISZERO ISZERO SWAP1 POP SWAP2 SWAP1 POP JUMP JUMPDEST PUSH2 0xC80 DUP2 PUSH2 0xC6C JUMP JUMPDEST DUP3 MSTORE POP POP JUMP JUMPDEST PUSH0 PUSH2 0x180 DUP3 ADD SWAP1 POP PUSH2 0xC9A PUSH0 DUP4 ADD DUP16 PUSH2 0xA67 JUMP JUMPDEST DUP2 DUP2 SUB PUSH1 0x20 DUP4 ADD MSTORE PUSH2 0xCAC DUP2 DUP15 PUSH2 0xB1C JUMP JUMPDEST SWAP1 POP PUSH2 0xCBB PUSH1 0x40 DUP4 ADD DUP14 PUSH2 0xBB8 JUMP JUMPDEST PUSH2 0xCC8 PUSH1 0x60 DUP4 ADD DUP13 PUSH2 0xBD8 JUMP JUMPDEST PUSH2 0xCD5 PUSH1 0x80 DUP4 ADD DUP12 PUSH2 0xBD8 JUMP JUMPDEST PUSH2 0xCE2 PUSH1 0xA0 DUP4 ADD DUP11 PUSH2 0xBD8 JUMP JUMPDEST PUSH2 0xCEF PUSH1 0xC0 DUP4 ADD DUP10 PUSH2 0xBD8 JUMP JUMPDEST PUSH2 0xCFC PUSH1 0xE0 DUP4 ADD DUP9 PUSH2 0xBF0 JUMP JUMPDEST DUP2 DUP2 SUB PUSH2 0x100 DUP4 ADD MSTORE PUSH2 0xD0F DUP2 DUP8 PUSH2 0xB1C JUMP JUMPDEST SWAP1 POP DUP2 DUP2 SUB PUSH2 0x120 DUP4 ADD MSTORE PUSH2 0xD24 DUP2 DUP7 PUSH2 0xC19 JUMP JUMPDEST SWAP1 POP PUSH2 0xD34 PUSH2 0x140 DUP4 ADD DUP6 PUSH2 0xC5D JUMP JUMPDEST PUSH2 0xD42 PUSH2 0x160 DUP4 ADD DUP5 PUSH2 0xC77 JUMP JUMPDEST SWAP14 SWAP13 POP POP POP POP POP POP POP POP POP POP POP POP POP JUMP JUMPDEST PUSH0 PUSH0 REVERT JUMPDEST PUSH0 PUSH0 REVERT JUMPDEST PUSH32 0x4E487B7100000000000000000000000000000000000000000000000000000000 PUSH0 MSTORE PUSH1 0x41 PUSH1 0x4 MSTORE PUSH1 0x24 PUSH0 REVERT JUMPDEST PUSH2 0xD91 DUP3 PUSH2 0xB0C JUMP JUMPDEST DUP2 ADD DUP2 DUP2 LT PUSH8 0xFFFFFFFFFFFFFFFF DUP3 GT OR ISZERO PUSH2 0xDB0 JUMPI PUSH2 0xDAF PUSH2 0xD5B JUMP JUMPDEST JUMPDEST DUP1 PUSH1 0x40 MSTORE POP POP POP JUMP JUMPDEST PUSH0 PUSH2 0xDC2 PUSH2 0x965 JUMP JUMPDEST SWAP1 POP PUSH2 0xDCE DUP3 DUP3 PUSH2 0xD88 JUMP JUMPDEST SWAP2 SWAP1 POP JUMP JUMPDEST PUSH0 PUSH8 0xFFFFFFFFFFFFFFFF DUP3 GT ISZERO PUSH2 0xDED JUMPI PUSH2 0xDEC PUSH2 0xD5B JUMP JUMPDEST JUMPDEST PUSH2 0xDF6 DUP3 PUSH2 0xB0C JUMP JUMPDEST SWAP1 POP PUSH1 0x20 DUP2 ADD SWAP1 POP SWAP2 SWAP1 POP JUMP JUMPDEST DUP3 DUP2 DUP4 CALLDATACOPY PUSH0 DUP4 DUP4 ADD MSTORE POP POP POP JUMP JUMPDEST PUSH0 PUSH2 0xE23 PUSH2 0xE1E DUP5 PUSH2 0xDD3 JUMP JUMPDEST PUSH2 0xDB9 JUMP JUMPDEST SWAP1 POP DUP3 DUP2 MSTORE PUSH1 0x20 DUP2 ADD DUP5 DUP5 DUP5 ADD GT ISZERO PUSH2 0xE3F JUMPI PUSH2 0xE3E PUSH2 0xD57 JUMP JUMPDEST JUMPDEST PUSH2 0xE4A DUP5 DUP3 DUP6 PUSH2 0xE03 JUMP JUMPDEST POP SWAP4 SWAP3 POP POP POP JUMP JUMPDEST PUSH0 DUP3 PUSH1 0x1F DUP4 ADD SLT PUSH2 0xE66 JUMPI PUSH2 0xE65 PUSH2 0xD53 JUMP JUMPDEST JUMPDEST DUP2 CALLDATALOAD PUSH2 0xE76 DUP5 DUP3 PUSH1 0x20 DUP7 ADD PUSH2 0xE11 JUMP JUMPDEST SWAP2 POP POP SWAP3 SWAP2 POP POP JUMP JUMPDEST PUSH2 0xE88 DUP2 PUSH2 0xBC7 JUMP JUMPDEST DUP2 EQ PUSH2 0xE92 JUMPI PUSH0 PUSH0 REVERT JUMPDEST POP JUMP JUMPDEST PUSH0 DUP2 CALLDATALOAD SWAP1 POP PUSH2 0xEA3 DUP2 PUSH2 0xE7F JUMP JUMPDEST SWAP3 SWAP2 POP POP JUMP JUMPDEST PUSH0 PUSH8 0xFFFFFFFFFFFFFFFF DUP3 GT ISZERO PUSH2 0xEC3 JUMPI PUSH2 0xEC2 PUSH2 0xD5B JUMP JUMPDEST JUMPDEST PUSH2 0xECC DUP3 PUSH2 0xB0C JUMP JUMPDEST SWAP1 POP PUSH1 0x20 DUP2 ADD SWAP1 POP SWAP2 SWAP1 POP JUMP JUMPDEST PUSH0 PUSH2 0xEEB PUSH2 0xEE6 DUP5 PUSH2 0xEA9 JUMP JUMPDEST PUSH2 0xDB9 JUMP JUMPDEST SWAP1 POP DUP3 DUP2 MSTORE PUSH1 0x20 DUP2 ADD DUP5 DUP5 DUP5 ADD GT ISZERO PUSH2 0xF07 JUMPI PUSH2 0xF06 PUSH2 0xD57 JUMP JUMPDEST JUMPDEST PUSH2 0xF12 DUP5 DUP3 DUP6 PUSH2 0xE03 JUMP JUMPDEST POP SWAP4 SWAP3 POP POP POP JUMP JUMPDEST PUSH0 DUP3 PUSH1 0x1F DUP4 ADD SLT PUSH2 0xF2E JUMPI PUSH2 0xF2D PUSH2 0xD53 JUMP JUMPDEST JUMPDEST DUP2 CALLDATALOAD PUSH2 0xF3E DUP5 DUP3 PUSH1 0x20 DUP7 ADD PUSH2 0xED9 JUMP JUMPDEST SWAP2 POP POP SWAP3 SWAP2 POP POP JUMP JUMPDEST PUSH0 PUSH0 PUSH0 PUSH0 PUSH0 PUSH1 0xA0 DUP7 DUP9 SUB SLT ISZERO PUSH2 0xF60 JUMPI PUSH2 0xF5F PUSH2 0x96E JUMP JUMPDEST JUMPDEST PUSH0 DUP7 ADD CALLDATALOAD PUSH8 0xFFFFFFFFFFFFFFFF DUP2 GT ISZERO PUSH2 0xF7D JUMPI PUSH2 0xF7C PUSH2 0x972 JUMP JUMPDEST JUMPDEST PUSH2 0xF89 DUP9 DUP3 DUP10 ADD PUSH2 0xE52 JUMP JUMPDEST SWAP6 POP POP PUSH1 0x20 PUSH2 0xF9A DUP9 DUP3 DUP10 ADD PUSH2 0xE95 JUMP JUMPDEST SWAP5 POP POP PUSH1 0x40 PUSH2 0xFAB DUP9 DUP3 DUP10 ADD PUSH2 0xE95 JUMP JUMPDEST SWAP4 POP POP PUSH1 0x60 DUP7 ADD CALLDATALOAD PUSH8 0xFFFFFFFFFFFFFFFF DUP2 GT ISZERO PUSH2 0xFCC JUMPI PUSH2 0xFCB PUSH2 0x972 JUMP JUMPDEST JUMPDEST PUSH2 0xFD8 DUP9 DUP3 DUP10 ADD PUSH2 0xE52 JUMP JUMPDEST SWAP3 POP POP PUSH1 0x80 DUP7 ADD CALLDATALOAD PUSH8 0xFFFFFFFFFFFFFFFF DUP2 GT ISZERO PUSH2 0xFF9 JUMPI PUSH2 0xFF8 PUSH2 0x972 JUMP JUMPDEST JUMPDEST PUSH2 0x1005 DUP9 DUP3 DUP10 ADD PUSH2 0xF1A JUMP JUMPDEST SWAP2 POP POP SWAP3 SWAP6 POP SWAP3 SWAP6 SWAP1 SWAP4 POP JUMP JUMPDEST PUSH32 0x596F75206E6F74206F776E657221212100000000000000000000000000000000 PUSH0 DUP3 ADD MSTORE POP JUMP JUMPDEST PUSH0 PUSH2 0x1046 PUSH1 0x10 DUP4 PUSH2 0xAEE JUMP JUMPDEST SWAP2 POP PUSH2 0x1051 DUP3 PUSH2 0x1012 JUMP JUMPDEST PUSH1 0x20 DUP3 ADD SWAP1 POP SWAP2 SWAP1 POP JUMP JUMPDEST PUSH0 PUSH1 0x20 DUP3 ADD SWAP1 POP DUP2 DUP2 SUB PUSH0 DUP4 ADD MSTORE PUSH2 0x1073 DUP2 PUSH2 0x103A JUMP JUMPDEST SWAP1 POP SWAP2 SWAP1 POP JUMP JUMPDEST PUSH32 0x596F75206E6F742061646D696E21212100000000000000000000000000000000 PUSH0 DUP3 ADD MSTORE POP JUMP JUMPDEST PUSH0 PUSH2 0x10AE PUSH1 0x10 DUP4 PUSH2 0xAEE JUMP JUMPDEST SWAP2 POP PUSH2 0x10B9 DUP3 PUSH2 0x107A JUMP JUMPDEST PUSH1 0x20 DUP3 ADD SWAP1 POP SWAP2 SWAP1 POP JUMP JUMPDEST PUSH0 PUSH1 0x20 DUP3 ADD SWAP1 POP DUP2 DUP2 SUB PUSH0 DUP4 ADD MSTORE PUSH2 0x10DB DUP2 PUSH2 0x10A2 JUMP JUMPDEST SWAP1 POP SWAP2 SWAP1 POP JUMP JUMPDEST PUSH32 0x4E487B7100000000000000000000000000000000000000000000000000000000 PUSH0 MSTORE PUSH1 0x22 PUSH1 0x4 MSTORE PUSH1 0x24 PUSH0 REVERT JUMPDEST PUSH0 PUSH1 0x2 DUP3 DIV SWAP1 POP PUSH1 0x1 DUP3 AND DUP1 PUSH2 0x1126 JUMPI PUSH1 0x7F DUP3 AND SWAP2 POP JUMPDEST PUSH1 0x20 DUP3 LT DUP2 SUB PUSH2 0x1139 JUMPI PUSH2 0x1138 PUSH2 0x10E2 JUMP JUMPDEST JUMPDEST POP SWAP2 SWAP1 POP JUMP JUMPDEST PUSH32 0x446561646C696E652074696D657374616D70206D757374206265206C61746572 PUSH0 DUP3 ADD MSTORE PUSH32 0x2121210000000000000000000000000000000000000000000000000000000000 PUSH1 0x20 DUP3 ADD MSTORE POP JUMP JUMPDEST PUSH0 PUSH2 0x1199 PUSH1 0x23 DUP4 PUSH2 0xAEE JUMP JUMPDEST SWAP2 POP PUSH2 0x11A4 DUP3 PUSH2 0x113F JUMP JUMPDEST PUSH1 0x40 DUP3 ADD SWAP1 POP SWAP2 SWAP1 POP JUMP JUMPDEST PUSH0 PUSH1 0x20 DUP3 ADD SWAP1 POP DUP2 DUP2 SUB PUSH0 DUP4 ADD MSTORE PUSH2 0x11C6 DUP2 PUSH2 0x118D JUMP JUMPDEST SWAP1 POP SWAP2 SWAP1 POP JUMP JUMPDEST PUSH32 0x5265736F6C76652074696D652063616E277420657175616C207A65726F212121 PUSH0 DUP3 ADD MSTORE POP JUMP JUMPDEST PUSH0 PUSH2 0x1201 PUSH1 0x20 DUP4 PUSH2 0xAEE JUMP JUMPDEST SWAP2 POP PUSH2 0x120C DUP3 PUSH2 0x11CD JUMP JUMPDEST PUSH1 0x20 DUP3 ADD SWAP1 POP SWAP2 SWAP1 POP JUMP JUMPDEST PUSH0 PUSH1 0x20 DUP3 ADD SWAP1 POP DUP2 DUP2 SUB PUSH0 DUP4 ADD MSTORE PUSH2 0x122E DUP2 PUSH2 0x11F5 JUMP JUMPDEST SWAP1 POP SWAP2 SWAP1 POP JUMP JUMPDEST PUSH32 0x4E487B7100000000000000000000000000000000000000000000000000000000 PUSH0 MSTORE PUSH1 0x11 PUSH1 0x4 MSTORE PUSH1 0x24 PUSH0 REVERT JUMPDEST PUSH0 PUSH2 0x126C DUP3 PUSH2 0xA5E JUMP JUMPDEST SWAP2 POP PUSH32 0xFFFFFFFFFFFFFFFFFFFFFFFFFFFFFFFFFFFFFFFFFFFFFFFFFFFFFFFFFFFFFFFF DUP3 SUB PUSH2 0x129E JUMPI PUSH2 0x129D PUSH2 0x1235 JUMP JUMPDEST JUMPDEST PUSH1 0x1 DUP3 ADD SWAP1 POP SWAP2 SWAP1 POP JUMP JUMPDEST PUSH0 DUP2 SWAP1 POP DUP2 PUSH0 MSTORE PUSH1 0x20 PUSH0 KECCAK256 SWAP1 POP SWAP2 SWAP1 POP JUMP JUMPDEST PUSH0 PUSH1 0x20 PUSH1 0x1F DUP4 ADD DIV SWAP1 POP SWAP2 SWAP1 POP JUMP JUMPDEST PUSH0 DUP3 DUP3 SHL SWAP1 POP SWAP3 SWAP2 POP POP JUMP JUMPDEST PUSH0 PUSH1 0x8 DUP4 MUL PUSH2 0x1305 PUSH32 0xFFFFFFFFFFFFFFFFFFFFFFFFFFFFFFFFFFFFFFFFFFFFFFFFFFFFFFFFFFFFFFFF DUP3 PUSH2 0x12CA JUMP JUMPDEST PUSH2 0x130F DUP7 DUP4 PUSH2 0x12CA JUMP JUMPDEST SWAP6 POP DUP1 NOT DUP5 AND SWAP4 POP DUP1 DUP7 AND DUP5 OR SWAP3 POP POP POP SWAP4 SWAP3 POP POP POP JUMP JUMPDEST PUSH0 DUP2 SWAP1 POP SWAP2 SWAP1 POP JUMP JUMPDEST PUSH0 PUSH2 0x134A PUSH2 0x1345 PUSH2 0x1340 DUP5 PUSH2 0xA5E JUMP JUMPDEST PUSH2 0x1327 JUMP JUMPDEST PUSH2 0xA5E JUMP JUMPDEST SWAP1 POP SWAP2 SWAP1 POP JUMP JUMPDEST PUSH0 DUP2 SWAP1 POP SWAP2 SWAP1 POP JUMP JUMPDEST PUSH2 0x1363 DUP4 PUSH2 0x1330 JUMP JUMPDEST PUSH2 0x1377 PUSH2 0x136F DUP3 PUSH2 0x1351 JUMP JUMPDEST DUP5 DUP5 SLOAD PUSH2 0x12D6 JUMP JUMPDEST DUP3 SSTORE POP POP POP POP JUMP JUMPDEST PUSH0 PUSH0 SWAP1 POP SWAP1 JUMP JUMPDEST PUSH2 0x138E PUSH2 0x137F JUMP JUMPDEST PUSH2 0x1399 DUP2 DUP5 DUP5 PUSH2 0x135A JUMP JUMPDEST POP POP POP JUMP JUMPDEST PUSH0 JUMPDEST DUP3 DUP2 LT ISZERO PUSH2 0x13BF JUMPI PUSH2 0x13B4 PUSH0 DUP3 DUP5 ADD PUSH2 0x1386 JUMP JUMPDEST PUSH1 0x1 DUP2 ADD SWAP1 POP PUSH2 0x13A0 JUMP JUMPDEST POP POP POP JUMP JUMPDEST PUSH1 0x1F DUP3 GT ISZERO PUSH2 0x1412 JUMPI DUP3 DUP3 GT ISZERO PUSH2 0x1411 JUMPI PUSH2 0x13DE DUP2 PUSH2 0x12A9 JUMP JUMPDEST PUSH2 0x13E7 DUP4 PUSH2 0x12BB JUMP JUMPDEST PUSH2 0x13F0 DUP6 PUSH2 0x12BB JUMP JUMPDEST PUSH1 0x20 DUP7 LT ISZERO PUSH2 0x13FD JUMPI PUSH0 SWAP1 POP JUMPDEST DUP1 DUP4 ADD PUSH2 0x140C DUP3 DUP5 SUB DUP3 PUSH2 0x139E JUMP JUMPDEST POP POP POP POP JUMPDEST JUMPDEST POP POP POP JUMP JUMPDEST PUSH0 DUP3 DUP3 SHR SWAP1 POP SWAP3 SWAP2 POP POP JUMP JUMPDEST PUSH0 PUSH2 0x1432 PUSH0 NOT DUP5 PUSH1 0x8 MUL PUSH2 0x1417 JUMP JUMPDEST NOT DUP1 DUP4 AND SWAP2 POP POP SWAP3 SWAP2 POP POP JUMP JUMPDEST PUSH0 PUSH2 0x144A DUP4 DUP4 PUSH2 0x1423 JUMP JUMPDEST SWAP2 POP DUP3 PUSH1 0x2 MUL DUP3 OR SWAP1 POP SWAP3 SWAP2 POP POP JUMP JUMPDEST PUSH2 0x1463 DUP3 PUSH2 0xAE4 JUMP JUMPDEST PUSH8 0xFFFFFFFFFFFFFFFF DUP2 GT ISZERO PUSH2 0x147C JUMPI PUSH2 0x147B PUSH2 0xD5B JUMP JUMPDEST JUMPDEST PUSH2 0x1486 DUP3 SLOAD PUSH2 0x110F JUMP JUMPDEST PUSH2 0x1491 DUP3 DUP3 DUP6 PUSH2 0x13C4 JUMP JUMPDEST PUSH0 PUSH1 0x20 SWAP1 POP PUSH1 0x1F DUP4 GT PUSH1 0x1 DUP2 EQ PUSH2 0x14C2 JUMPI PUSH0 DUP5 ISZERO PUSH2 0x14B0 JUMPI DUP3 DUP8 ADD MLOAD SWAP1 POP JUMPDEST PUSH2 0x14BA DUP6 DUP3 PUSH2 0x143F JUMP JUMPDEST DUP7 SSTORE POP PUSH2 0x1521 JUMP JUMPDEST PUSH1 0x1F NOT DUP5 AND PUSH2 0x14D0 DUP7 PUSH2 0x12A9 JUMP JUMPDEST PUSH0 JUMPDEST DUP3 DUP2 LT ISZERO PUSH2 0x14F7 JUMPI DUP5 DUP10 ADD MLOAD DUP3 SSTORE PUSH1 0x1 DUP3 ADD SWAP2 POP PUSH1 0x20 DUP6 ADD SWAP5 POP PUSH1 0x20 DUP2 ADD SWAP1 POP PUSH2 0x14D2 JUMP JUMPDEST DUP7 DUP4 LT ISZERO PUSH2 0x1514 JUMPI DUP5 DUP10 ADD MLOAD PUSH2 0x1510 PUSH1 0x1F DUP10 AND DUP3 PUSH2 0x1423 JUMP JUMPDEST DUP4 SSTORE POP JUMPDEST PUSH1 0x1 PUSH1 0x2 DUP9 MUL ADD DUP9 SSTORE POP POP POP JUMPDEST POP POP POP POP POP POP JUMP JUMPDEST PUSH0 PUSH2 0x1533 DUP3 PUSH2 0xBC7 JUMP JUMPDEST SWAP2 POP PUSH2 0x153E DUP4 PUSH2 0xBC7 JUMP JUMPDEST SWAP3 POP DUP3 DUP3 ADD SWAP1 POP PUSH6 0xFFFFFFFFFFFF DUP2 GT ISZERO PUSH2 0x155C JUMPI PUSH2 0x155B PUSH2 0x1235 JUMP JUMPDEST JUMPDEST SWAP3 SWAP2 POP POP JUMP JUMPDEST PUSH0 DUP2 SWAP1 POP DUP2 PUSH0 MSTORE PUSH1 0x20 PUSH0 KECCAK256 SWAP1 POP SWAP2 SWAP1 POP JUMP JUMPDEST PUSH1 0x1F DUP3 GT ISZERO PUSH2 0x15C2 JUMPI DUP3 DUP3 GT ISZERO PUSH2 0x15C1 JUMPI PUSH2 0x158E DUP2 PUSH2 0x1562 JUMP JUMPDEST PUSH2 0x1597 DUP4 PUSH2 0x12BB JUMP JUMPDEST PUSH2 0x15A0 DUP6 PUSH2 0x12BB JUMP JUMPDEST PUSH1 0x20 DUP7 LT ISZERO PUSH2 0x15AD JUMPI PUSH0 SWAP1 POP JUMPDEST DUP1 DUP4 ADD PUSH2 0x15BC DUP3 DUP5 SUB DUP3 PUSH2 0x139E JUMP JUMPDEST POP POP POP POP JUMPDEST JUMPDEST POP POP POP JUMP JUMPDEST PUSH2 0x15D0 DUP3 PUSH2 0xBFF JUMP JUMPDEST PUSH8 0xFFFFFFFFFFFFFFFF DUP2 GT ISZERO PUSH2 0x15E9 JUMPI PUSH2 0x15E8 PUSH2 0xD5B JUMP JUMPDEST JUMPDEST PUSH2 0x15F3 DUP3 SLOAD PUSH2 0x110F JUMP JUMPDEST PUSH2 0x15FE DUP3 DUP3 DUP6 PUSH2 0x1574 JUMP JUMPDEST PUSH0 PUSH1 0x20 SWAP1 POP PUSH1 0x1F DUP4 GT PUSH1 0x1 DUP2 EQ PUSH2 0x162F JUMPI PUSH0 DUP5 ISZERO PUSH2 0x161D JUMPI DUP3 DUP8 ADD MLOAD SWAP1 POP JUMPDEST PUSH2 0x1627 DUP6 DUP3 PUSH2 0x143F JUMP JUMPDEST DUP7 SSTORE POP PUSH2 0x168E JUMP JUMPDEST PUSH1 0x1F NOT DUP5 AND PUSH2 0x163D DUP7 PUSH2 0x1562 JUMP JUMPDEST PUSH0 JUMPDEST DUP3 DUP2 LT ISZERO PUSH2 0x1664 JUMPI DUP5 DUP10 ADD MLOAD DUP3 SSTORE PUSH1 0x1 DUP3 ADD SWAP2 POP PUSH1 0x20 DUP6 ADD SWAP5 POP PUSH1 0x20 DUP2 ADD SWAP1 POP PUSH2 0x163F JUMP JUMPDEST DUP7 DUP4 LT ISZERO PUSH2 0x1681 JUMPI DUP5 DUP10 ADD MLOAD PUSH2 0x167D PUSH1 0x1F DUP10 AND DUP3 PUSH2 0x1423 JUMP JUMPDEST DUP4 SSTORE POP JUMPDEST PUSH1 0x1 PUSH1 0x2 DUP9 MUL ADD DUP9 SSTORE POP POP POP JUMPDEST POP POP POP POP POP POP JUMP INVALID LOG2 PUSH5 0x6970667358 0x22 SLT KECCAK256 0x24 DIV 0xC2 CREATE2 0xDF 0xB9 SDIV LOG2 0xFC MSTORE ISZERO SMOD 0xCF SWAP14 SWAP15 DUP16 PUSH25 0xA7FC35277CED95D46BD4D08E42D16A64736F6C634300082200 CALLER "
				},
				"gasEstimates": {
					"creation": {
						"codeDepositCost": "1167200",
						"executionCost": "49793",
						"totalCost": "1216993"
					},
					"external": {
						"OrderMarketid()": "2425",
						"createEvent(string,uint48,uint48,string,bytes)": "infinite",
						"deleteAdmin(address)": "29240",
						"functionsRouter()": "2552",
						"functionsSubscriptionid()": "2540",
						"markets(uint256)": "infinite",
						"owner()": "2575",
						"setAdmin(address)": "27022"
					}
				},
				"methodIdentifiers": {
					"OrderMarketid()": "92b408ba",
					"createEvent(string,uint48,uint48,string,bytes)": "e8268509",
					"deleteAdmin(address)": "27e1f7df",
					"functionsRouter()": "d58f05da",
					"functionsSubscriptionid()": "30a3463f",
					"markets(uint256)": "b1283e77",
					"owner()": "8da5cb5b",
					"setAdmin(address)": "704b6c02"
				}
			},
			"storageLayout": {
				"storage": [
					{
						"astId": 262,
						"contract": "Prediction-Market/Market.sol:ConfidentialMarket",
						"label": "markets",
						"offset": 0,
						"slot": "0",
						"type": "t_mapping(t_uint256,t_struct(Market)257_storage)"
					},
					{
						"astId": 264,
						"contract": "Prediction-Market/Market.sol:ConfidentialMarket",
						"label": "OrderMarketid",
						"offset": 0,
						"slot": "1",
						"type": "t_uint256"
					},
					{
						"astId": 266,
						"contract": "Prediction-Market/Market.sol:ConfidentialMarket",
						"label": "functionsRouter",
						"offset": 0,
						"slot": "2",
						"type": "t_address"
					},
					{
						"astId": 268,
						"contract": "Prediction-Market/Market.sol:ConfidentialMarket",
						"label": "functionsSubscriptionid",
						"offset": 20,
						"slot": "2",
						"type": "t_uint64"
					},
					{
						"astId": 7,
						"contract": "Prediction-Market/Market.sol:ConfidentialMarket",
						"label": "owner",
						"offset": 0,
						"slot": "3",
						"type": "t_address"
					},
					{
						"astId": 9,
						"contract": "Prediction-Market/Market.sol:ConfidentialMarket",
						"label": "createtimestamp",
						"offset": 20,
						"slot": "3",
						"type": "t_uint48"
					},
					{
						"astId": 30,
						"contract": "Prediction-Market/Market.sol:ConfidentialMarket",
						"label": "admin_list",
						"offset": 0,
						"slot": "4",
						"type": "t_mapping(t_address,t_bool)"
					}
				],
				"types": {
					"t_address": {
						"encoding": "inplace",
						"label": "address",
						"numberOfBytes": "20"
					},
					"t_array(t_struct(Bet)224_storage)dyn_storage": {
						"base": "t_struct(Bet)224_storage",
						"encoding": "dynamic_array",
						"label": "struct MarketData.Bet[]",
						"numberOfBytes": "32"
					},
					"t_array(t_uint256)dyn_storage": {
						"base": "t_uint256",
						"encoding": "dynamic_array",
						"label": "uint256[]",
						"numberOfBytes": "32"
					},
					"t_bool": {
						"encoding": "inplace",
						"label": "bool",
						"numberOfBytes": "1"
					},
					"t_bytes32": {
						"encoding": "inplace",
						"label": "bytes32",
						"numberOfBytes": "32"
					},
					"t_bytes_storage": {
						"encoding": "bytes",
						"label": "bytes",
						"numberOfBytes": "32"
					},
					"t_enum(MarketStatus)213": {
						"encoding": "inplace",
						"label": "enum MarketData.MarketStatus",
						"numberOfBytes": "1"
					},
					"t_mapping(t_address,t_bool)": {
						"encoding": "mapping",
						"key": "t_address",
						"label": "mapping(address => bool)",
						"numberOfBytes": "32",
						"value": "t_bool"
					},
					"t_mapping(t_uint256,t_struct(Market)257_storage)": {
						"encoding": "mapping",
						"key": "t_uint256",
						"label": "mapping(uint256 => struct MarketData.Market)",
						"numberOfBytes": "32",
						"value": "t_struct(Market)257_storage"
					},
					"t_string_storage": {
						"encoding": "bytes",
						"label": "string",
						"numberOfBytes": "32"
					},
					"t_struct(Bet)224_storage": {
						"encoding": "inplace",
						"label": "struct MarketData.Bet",
						"members": [
							{
								"astId": 215,
								"contract": "Prediction-Market/Market.sol:ConfidentialMarket",
								"label": "user",
								"offset": 0,
								"slot": "0",
								"type": "t_address"
							},
							{
								"astId": 217,
								"contract": "Prediction-Market/Market.sol:ConfidentialMarket",
								"label": "encryptedBet",
								"offset": 0,
								"slot": "1",
								"type": "t_bytes_storage"
							},
							{
								"astId": 219,
								"contract": "Prediction-Market/Market.sol:ConfidentialMarket",
								"label": "amount",
								"offset": 0,
								"slot": "2",
								"type": "t_uint256"
							},
							{
								"astId": 221,
								"contract": "Prediction-Market/Market.sol:ConfidentialMarket",
								"label": "option",
								"offset": 0,
								"slot": "3",
								"type": "t_uint8"
							},
							{
								"astId": 223,
								"contract": "Prediction-Market/Market.sol:ConfidentialMarket",
								"label": "claimed",
								"offset": 1,
								"slot": "3",
								"type": "t_bool"
							}
						],
						"numberOfBytes": "128"
					},
					"t_struct(Market)257_storage": {
						"encoding": "inplace",
						"label": "struct MarketData.Market",
						"members": [
							{
								"astId": 226,
								"contract": "Prediction-Market/Market.sol:ConfidentialMarket",
								"label": "id",
								"offset": 0,
								"slot": "0",
								"type": "t_uint256"
							},
							{
								"astId": 228,
								"contract": "Prediction-Market/Market.sol:ConfidentialMarket",
								"label": "description",
								"offset": 0,
								"slot": "1",
								"type": "t_string_storage"
							},
							{
								"astId": 231,
								"contract": "Prediction-Market/Market.sol:ConfidentialMarket",
								"label": "state",
								"offset": 0,
								"slot": "2",
								"type": "t_enum(MarketStatus)213"
							},
							{
								"astId": 233,
								"contract": "Prediction-Market/Market.sol:ConfidentialMarket",
								"label": "createTimeStamp",
								"offset": 1,
								"slot": "2",
								"type": "t_uint48"
							},
							{
								"astId": 235,
								"contract": "Prediction-Market/Market.sol:ConfidentialMarket",
								"label": "closeTime",
								"offset": 7,
								"slot": "2",
								"type": "t_uint48"
							},
							{
								"astId": 237,
								"contract": "Prediction-Market/Market.sol:ConfidentialMarket",
								"label": "resolveWindow",
								"offset": 13,
								"slot": "2",
								"type": "t_uint48"
							},
							{
								"astId": 239,
								"contract": "Prediction-Market/Market.sol:ConfidentialMarket",
								"label": "resolveTimeStamp",
								"offset": 19,
								"slot": "2",
								"type": "t_uint48"
							},
							{
								"astId": 242,
								"contract": "Prediction-Market/Market.sol:ConfidentialMarket",
								"label": "optionTotals",
								"offset": 0,
								"slot": "3",
								"type": "t_array(t_uint256)dyn_storage"
							},
							{
								"astId": 246,
								"contract": "Prediction-Market/Market.sol:ConfidentialMarket",
								"label": "bets",
								"offset": 0,
								"slot": "4",
								"type": "t_array(t_struct(Bet)224_storage)dyn_storage"
							},
							{
								"astId": 248,
								"contract": "Prediction-Market/Market.sol:ConfidentialMarket",
								"label": "functionsRequest_id",
								"offset": 0,
								"slot": "5",
								"type": "t_bytes32"
							},
							{
								"astId": 250,
								"contract": "Prediction-Market/Market.sol:ConfidentialMarket",
								"label": "functionsSource",
								"offset": 0,
								"slot": "6",
								"type": "t_string_storage"
							},
							{
								"astId": 252,
								"contract": "Prediction-Market/Market.sol:ConfidentialMarket",
								"label": "encryptedSecrets",
								"offset": 0,
								"slot": "7",
								"type": "t_bytes_storage"
							},
							{
								"astId": 254,
								"contract": "Prediction-Market/Market.sol:ConfidentialMarket",
								"label": "outcome",
								"offset": 0,
								"slot": "8",
								"type": "t_uint8"
							},
							{
								"astId": 256,
								"contract": "Prediction-Market/Market.sol:ConfidentialMarket",
								"label": "resolved",
								"offset": 1,
								"slot": "8",
								"type": "t_bool"
							}
						],
						"numberOfBytes": "288"
					},
					"t_uint256": {
						"encoding": "inplace",
						"label": "uint256",
						"numberOfBytes": "32"
					},
					"t_uint48": {
						"encoding": "inplace",
						"label": "uint48",
						"numberOfBytes": "6"
					},
					"t_uint64": {
						"encoding": "inplace",
						"label": "uint64",
						"numberOfBytes": "8"
					},
					"t_uint8": {
						"encoding": "inplace",
						"label": "uint8",
						"numberOfBytes": "1"
					}
				}
			},
			"userdoc": {
				"kind": "user",
				"methods": {},
				"version": 1
			}
		}
	}
}