{
	"Prediction-Market/MarketData.sol": {
		"MarketData": {
			"abi": [
				{
					"inputs": [],
					"name": "OrderMarketid",
					"outputs": [
						{
							"internalType": "uint256",
							"name": "",
							"type": "uint256"
						}
					],
					"stateMutability": "view",
					"type": "function"
				},
				{
					"inputs": [],
					"name": "functionsRouter",
					"outputs": [
						{
							"internalType": "address",
							"name": "",
							"type": "address"
						}
					],
					"stateMutability": "view",
					"type": "function"
				},
				{
					"inputs": [],
					"name": "functionsSubscriptionid",
					"outputs": [
						{
							"internalType": "uint64",
							"name": "",
							"type": "uint64"
						}
					],
					"stateMutability": "view",
					"type": "function"
				},
				{
					"inputs": [
						{
							"internalType": "uint256",
							"name": "market_id",
							"type": "uint256"
						}
					],
					"name": "markets",
					"outputs": [
						{
							"internalType": "uint256",
							"name": "id",
							"type": "uint256"
						},
						{
							"internalType": "string",
							"name": "description",
							"type": "string"
						},
						{
							"internalType": "enum MarketData.MarketStatus",
							"name": "state",
							"type": "uint8"
						},
						{
							"internalType": "uint48",
							"name": "createTimeStamp",
							"type": "uint48"
						},
						{
							"internalType": "uint48",
							"name": "closeTime",
							"type": "uint48"
						},
						{
							"internalType": "uint48",
							"name": "resolveWindow",
							"type": "uint48"
						},
						{
							"internalType": "uint48",
							"name": "resolveTimeStamp",
							"type": "uint48"
						},
						{
							"internalType": "bytes32",
							"name": "functionsRequest_id",
							"type": "bytes32"
						},
						{
							"internalType": "string",
							"name": "functionsSource",
							"type": "string"
						},
						{
							"internalType": "bytes",
							"name": "encryptedSecrets",
							"type": "bytes"
						},
						{
							"internalType": "uint8",
							"name": "outcome",
							"type": "uint8"
						},
						{
							"internalType": "bool",
							"name": "resolved",
							"type": "bool"
						}
					],
					"stateMutability": "view",
					"type": "function"
				}
			],
			"devdoc": {
				"kind": "dev",
				"methods": {},
				"version": 1
			},
			"evm": {
				"assembly": "    /* \"Prediction-Market/MarketData.sol\":57:1996  contract MarketData{... */\n  mstore(0x40, 0x80)\n  callvalue\n  dup1\n  iszero\n  tag_1\n  jumpi\n  revert(0x00, 0x00)\ntag_1:\n  pop\n  dataSize(sub_0)\n  dup1\n  dataOffset(sub_0)\n  0x00\n  codecopy\n  0x00\n  return\nstop\n\nsub_0: assembly {\n        /* \"Prediction-Market/MarketData.sol\":57:1996  contract MarketData{... */\n      mstore(0x40, 0x80)\n      callvalue\n      dup1\n      iszero\n      tag_1\n      jumpi\n      revert(0x00, 0x00)\n    tag_1:\n      pop\n      jumpi(tag_2, lt(calldatasize, 0x04))\n      shr(0xe0, calldataload(0x00))\n      dup1\n      0x30a3463f\n      eq\n      tag_3\n      jumpi\n      dup1\n      0x92b408ba\n      eq\n      tag_4\n      jumpi\n      dup1\n      0xb1283e77\n      eq\n      tag_5\n      jumpi\n      dup1\n      0xd58f05da\n      eq\n      tag_6\n      jumpi\n    tag_2:\n      revert(0x00, 0x00)\n        /* \"Prediction-Market/MarketData.sol\":1811:1848  uint64 public functionsSubscriptionid */\n    tag_3:\n      tag_7\n      tag_8\n      jump\t// in\n    tag_7:\n      mload(0x40)\n      tag_9\n      swap2\n      swap1\n      tag_10\n      jump\t// in\n    tag_9:\n      mload(0x40)\n      dup1\n      swap2\n      sub\n      swap1\n      return\n        /* \"Prediction-Market/MarketData.sol\":1524:1552  uint256 public OrderMarketid */\n    tag_4:\n      tag_11\n      tag_12\n      jump\t// in\n    tag_11:\n      mload(0x40)\n      tag_13\n      swap2\n      swap1\n      tag_14\n      jump\t// in\n    tag_13:\n      mload(0x40)\n      dup1\n      swap2\n      sub\n      swap1\n      return\n        /* \"Prediction-Market/MarketData.sol\":1448:1500  mapping (uint256 market_id => Market) public markets */\n    tag_5:\n      tag_15\n      0x04\n      dup1\n      calldatasize\n      sub\n      dup2\n      add\n      swap1\n      tag_16\n      swap2\n      swap1\n      tag_17\n      jump\t// in\n    tag_16:\n      tag_18\n      jump\t// in\n    tag_15:\n      mload(0x40)\n      tag_19\n      swap13\n      swap12\n      swap11\n      swap10\n      swap9\n      swap8\n      swap7\n      swap6\n      swap5\n      swap4\n      swap3\n      swap2\n      swap1\n      tag_20\n      jump\t// in\n    tag_19:\n      mload(0x40)\n      dup1\n      swap2\n      sub\n      swap1\n      return\n        /* \"Prediction-Market/MarketData.sol\":1608:1638  address public functionsRouter */\n    tag_6:\n      tag_21\n      tag_22\n      jump\t// in\n    tag_21:\n      mload(0x40)\n      tag_23\n      swap2\n      swap1\n      tag_24\n      jump\t// in\n    tag_23:\n      mload(0x40)\n      dup1\n      swap2\n      sub\n      swap1\n      return\n        /* \"Prediction-Market/MarketData.sol\":1811:1848  uint64 public functionsSubscriptionid */\n    tag_8:\n      0x02\n      0x14\n      swap1\n      sload\n      swap1\n      0x0100\n      exp\n      swap1\n      div\n      0xffffffffffffffff\n      and\n      dup2\n      jump\t// out\n        /* \"Prediction-Market/MarketData.sol\":1524:1552  uint256 public OrderMarketid */\n    tag_12:\n      sload(0x01)\n      dup2\n      jump\t// out\n        /* \"Prediction-Market/MarketData.sol\":1448:1500  mapping (uint256 market_id => Market) public markets */\n    tag_18:\n      mstore(0x20, 0x00)\n      dup1\n      0x00\n      mstore\n      keccak256(0x00, 0x40)\n      0x00\n      swap2\n      pop\n      swap1\n      pop\n      dup1\n      0x00\n      add\n      sload\n      swap1\n      dup1\n      0x01\n      add\n      dup1\n      sload\n      tag_25\n      swap1\n      tag_26\n      jump\t// in\n    tag_25:\n      dup1\n      0x1f\n      add\n      0x20\n      dup1\n      swap2\n      div\n      mul\n      0x20\n      add\n      mload(0x40)\n      swap1\n      dup2\n      add\n      0x40\n      mstore\n      dup1\n      swap3\n      swap2\n      swap1\n      dup2\n      dup2\n      mstore\n      0x20\n      add\n      dup3\n      dup1\n      sload\n      tag_27\n      swap1\n      tag_26\n      jump\t// in\n    tag_27:\n      dup1\n      iszero\n      tag_28\n      jumpi\n      dup1\n      0x1f\n      lt\n      tag_29\n      jumpi\n      0x0100\n      dup1\n      dup4\n      sload\n      div\n      mul\n      dup4\n      mstore\n      swap2\n      0x20\n      add\n      swap2\n      jump(tag_28)\n    tag_29:\n      dup3\n      add\n      swap2\n      swap1\n      0x00\n      mstore\n      keccak256(0x00, 0x20)\n      swap1\n    tag_30:\n      dup2\n      sload\n      dup2\n      mstore\n      swap1\n      0x01\n      add\n      swap1\n      0x20\n      add\n      dup1\n      dup4\n      gt\n      tag_30\n      jumpi\n      dup3\n      swap1\n      sub\n      0x1f\n      and\n      dup3\n      add\n      swap2\n    tag_28:\n      pop\n      pop\n      pop\n      pop\n      pop\n      swap1\n      dup1\n      0x02\n      add\n      0x00\n      swap1\n      sload\n      swap1\n      0x0100\n      exp\n      swap1\n      div\n      0xff\n      and\n      swap1\n      dup1\n      0x02\n      add\n      0x01\n      swap1\n      sload\n      swap1\n      0x0100\n      exp\n      swap1\n      div\n      0xffffffffffff\n      and\n      swap1\n      dup1\n      0x02\n      add\n      0x07\n      swap1\n      sload\n      swap1\n      0x0100\n      exp\n      swap1\n      div\n      0xffffffffffff\n      and\n      swap1\n      dup1\n      0x02\n      add\n      0x0d\n      swap1\n      sload\n      swap1\n      0x0100\n      exp\n      swap1\n      div\n      0xffffffffffff\n      and\n      swap1\n      dup1\n      0x02\n      add\n      0x13\n      swap1\n      sload\n      swap1\n      0x0100\n      exp\n      swap1\n      div\n      0xffffffffffff\n      and\n      swap1\n      dup1\n      0x05\n      add\n      sload\n      swap1\n      dup1\n      0x06\n      add\n      dup1\n      sload\n      tag_31\n      swap1\n      tag_26\n      jump\t// in\n    tag_31:\n      dup1\n      0x1f\n      add\n      0x20\n      dup1\n      swap2\n      div\n      mul\n      0x20\n      add\n      mload(0x40)\n      swap1\n      dup2\n      add\n      0x40\n      mstore\n      dup1\n      swap3\n      swap2\n      swap1\n      dup2\n      dup2\n      mstore\n      0x20\n      add\n      dup3\n      dup1\n      sload\n      tag_32\n      swap1\n      tag_26\n      jump\t// in\n    tag_32:\n      dup1\n      iszero\n      tag_33\n      jumpi\n      dup1\n      0x1f\n      lt\n      tag_34\n      jumpi\n      0x0100\n      dup1\n      dup4\n      sload\n      div\n      mul\n      dup4\n      mstore\n      swap2\n      0x20\n      add\n      swap2\n      jump(tag_33)\n    tag_34:\n      dup3\n      add\n      swap2\n      swap1\n      0x00\n      mstore\n      keccak256(0x00, 0x20)\n      swap1\n    tag_35:\n      dup2\n      sload\n      dup2\n      mstore\n      swap1\n      0x01\n      add\n      swap1\n      0x20\n      add\n      dup1\n      dup4\n      gt\n      tag_35\n      jumpi\n      dup3\n      swap1\n      sub\n      0x1f\n      and\n      dup3\n      add\n      swap2\n    tag_33:\n      pop\n      pop\n      pop\n      pop\n      pop\n      swap1\n      dup1\n      0x07\n      add\n      dup1\n      sload\n      tag_36\n      swap1\n      tag_26\n      jump\t// in\n    tag_36:\n      dup1\n      0x1f\n      add\n      0x20\n      dup1\n      swap2\n      div\n      mul\n      0x20\n      add\n      mload(0x40)\n      swap1\n      dup2\n      add\n      0x40\n      mstore\n      dup1\n      swap3\n      swap2\n      swap1\n      dup2\n      dup2\n      mstore\n      0x20\n      add\n      dup3\n      dup1\n      sload\n      tag_37\n      swap1\n      tag_26\n      jump\t// in\n    tag_37:\n      dup1\n      iszero\n      tag_38\n      jumpi\n      dup1\n      0x1f\n      lt\n      tag_39\n      jumpi\n      0x0100\n      dup1\n      dup4\n      sload\n      div\n      mul\n      dup4\n      mstore\n      swap2\n      0x20\n      add\n      swap2\n      jump(tag_38)\n    tag_39:\n      dup3\n      add\n      swap2\n      swap1\n      0x00\n      mstore\n      keccak256(0x00, 0x20)\n      swap1\n    tag_40:\n      dup2\n      sload\n      dup2\n      mstore\n      swap1\n      0x01\n      add\n      swap1\n      0x20\n      add\n      dup1\n      dup4\n      gt\n      tag_40\n      jumpi\n      dup3\n      swap1\n      sub\n      0x1f\n      and\n      dup3\n      add\n      swap2\n    tag_38:\n      pop\n      pop\n      pop\n      pop\n      pop\n      swap1\n      dup1\n      0x08\n      add\n      0x00\n      swap1\n      sload\n      swap1\n      0x0100\n      exp\n      swap1\n      div\n      0xff\n      and\n      swap1\n      dup1\n      0x08\n      add\n      0x01\n      swap1\n      sload\n      swap1\n      0x0100\n      exp\n      swap1\n      div\n      0xff\n      and\n      swap1\n      pop\n      dup13\n      jump\t// out\n        /* \"Prediction-Market/MarketData.sol\":1608:1638  address public functionsRouter */\n    tag_22:\n      0x02\n      0x00\n      swap1\n      sload\n      swap1\n      0x0100\n      exp\n      swap1\n      div\n      0xffffffffffffffffffffffffffffffffffffffff\n      and\n      dup2\n      jump\t// out\n        /* \"#utility.yul\":7:108   */\n    tag_41:\n        /* \"#utility.yul\":43:50   */\n      0x00\n        /* \"#utility.yul\":83:101   */\n      0xffffffffffffffff\n        /* \"#utility.yul\":76:81   */\n      dup3\n        /* \"#utility.yul\":72:102   */\n      and\n        /* \"#utility.yul\":61:102   */\n      swap1\n      pop\n        /* \"#utility.yul\":7:108   */\n      swap2\n      swap1\n      pop\n      jump\t// out\n        /* \"#utility.yul\":114:229   */\n    tag_42:\n        /* \"#utility.yul\":199:222   */\n      tag_78\n        /* \"#utility.yul\":216:221   */\n      dup2\n        /* \"#utility.yul\":199:222   */\n      tag_41\n      jump\t// in\n    tag_78:\n        /* \"#utility.yul\":194:197   */\n      dup3\n        /* \"#utility.yul\":187:223   */\n      mstore\n        /* \"#utility.yul\":114:229   */\n      pop\n      pop\n      jump\t// out\n        /* \"#utility.yul\":235:453   */\n    tag_10:\n        /* \"#utility.yul\":326:330   */\n      0x00\n        /* \"#utility.yul\":364:366   */\n      0x20\n        /* \"#utility.yul\":353:362   */\n      dup3\n        /* \"#utility.yul\":349:367   */\n      add\n        /* \"#utility.yul\":341:367   */\n      swap1\n      pop\n        /* \"#utility.yul\":377:446   */\n      tag_80\n        /* \"#utility.yul\":443:444   */\n      0x00\n        /* \"#utility.yul\":432:441   */\n      dup4\n        /* \"#utility.yul\":428:445   */\n      add\n        /* \"#utility.yul\":419:425   */\n      dup5\n        /* \"#utility.yul\":377:446   */\n      tag_42\n      jump\t// in\n    tag_80:\n        /* \"#utility.yul\":235:453   */\n      swap3\n      swap2\n      pop\n      pop\n      jump\t// out\n        /* \"#utility.yul\":459:536   */\n    tag_43:\n        /* \"#utility.yul\":496:503   */\n      0x00\n        /* \"#utility.yul\":525:530   */\n      dup2\n        /* \"#utility.yul\":514:530   */\n      swap1\n      pop\n        /* \"#utility.yul\":459:536   */\n      swap2\n      swap1\n      pop\n      jump\t// out\n        /* \"#utility.yul\":542:660   */\n    tag_44:\n        /* \"#utility.yul\":629:653   */\n      tag_83\n        /* \"#utility.yul\":647:652   */\n      dup2\n        /* \"#utility.yul\":629:653   */\n      tag_43\n      jump\t// in\n    tag_83:\n        /* \"#utility.yul\":624:627   */\n      dup3\n        /* \"#utility.yul\":617:654   */\n      mstore\n        /* \"#utility.yul\":542:660   */\n      pop\n      pop\n      jump\t// out\n        /* \"#utility.yul\":666:888   */\n    tag_14:\n        /* \"#utility.yul\":759:763   */\n      0x00\n        /* \"#utility.yul\":797:799   */\n      0x20\n        /* \"#utility.yul\":786:795   */\n      dup3\n        /* \"#utility.yul\":782:800   */\n      add\n        /* \"#utility.yul\":774:800   */\n      swap1\n      pop\n        /* \"#utility.yul\":810:881   */\n      tag_85\n        /* \"#utility.yul\":878:879   */\n      0x00\n        /* \"#utility.yul\":867:876   */\n      dup4\n        /* \"#utility.yul\":863:880   */\n      add\n        /* \"#utility.yul\":854:860   */\n      dup5\n        /* \"#utility.yul\":810:881   */\n      tag_44\n      jump\t// in\n    tag_85:\n        /* \"#utility.yul\":666:888   */\n      swap3\n      swap2\n      pop\n      pop\n      jump\t// out\n        /* \"#utility.yul\":975:1092   */\n    tag_46:\n        /* \"#utility.yul\":1084:1085   */\n      0x00\n        /* \"#utility.yul\":1081:1082   */\n      0x00\n        /* \"#utility.yul\":1074:1086   */\n      revert\n        /* \"#utility.yul\":1221:1343   */\n    tag_48:\n        /* \"#utility.yul\":1294:1318   */\n      tag_90\n        /* \"#utility.yul\":1312:1317   */\n      dup2\n        /* \"#utility.yul\":1294:1318   */\n      tag_43\n      jump\t// in\n    tag_90:\n        /* \"#utility.yul\":1287:1292   */\n      dup2\n        /* \"#utility.yul\":1284:1319   */\n      eq\n        /* \"#utility.yul\":1274:1337   */\n      tag_91\n      jumpi\n        /* \"#utility.yul\":1333:1334   */\n      0x00\n        /* \"#utility.yul\":1330:1331   */\n      0x00\n        /* \"#utility.yul\":1323:1335   */\n      revert\n        /* \"#utility.yul\":1274:1337   */\n    tag_91:\n        /* \"#utility.yul\":1221:1343   */\n      pop\n      jump\t// out\n        /* \"#utility.yul\":1349:1488   */\n    tag_49:\n        /* \"#utility.yul\":1395:1400   */\n      0x00\n        /* \"#utility.yul\":1433:1439   */\n      dup2\n        /* \"#utility.yul\":1420:1440   */\n      calldataload\n        /* \"#utility.yul\":1411:1440   */\n      swap1\n      pop\n        /* \"#utility.yul\":1449:1482   */\n      tag_93\n        /* \"#utility.yul\":1476:1481   */\n      dup2\n        /* \"#utility.yul\":1449:1482   */\n      tag_48\n      jump\t// in\n    tag_93:\n        /* \"#utility.yul\":1349:1488   */\n      swap3\n      swap2\n      pop\n      pop\n      jump\t// out\n        /* \"#utility.yul\":1494:1823   */\n    tag_17:\n        /* \"#utility.yul\":1553:1559   */\n      0x00\n        /* \"#utility.yul\":1602:1604   */\n      0x20\n        /* \"#utility.yul\":1590:1599   */\n      dup3\n        /* \"#utility.yul\":1581:1588   */\n      dup5\n        /* \"#utility.yul\":1577:1600   */\n      sub\n        /* \"#utility.yul\":1573:1605   */\n      slt\n        /* \"#utility.yul\":1570:1689   */\n      iszero\n      tag_95\n      jumpi\n        /* \"#utility.yul\":1608:1687   */\n      tag_96\n      tag_46\n      jump\t// in\n    tag_96:\n        /* \"#utility.yul\":1570:1689   */\n    tag_95:\n        /* \"#utility.yul\":1728:1729   */\n      0x00\n        /* \"#utility.yul\":1753:1806   */\n      tag_97\n        /* \"#utility.yul\":1798:1805   */\n      dup5\n        /* \"#utility.yul\":1789:1795   */\n      dup3\n        /* \"#utility.yul\":1778:1787   */\n      dup6\n        /* \"#utility.yul\":1774:1796   */\n      add\n        /* \"#utility.yul\":1753:1806   */\n      tag_49\n      jump\t// in\n    tag_97:\n        /* \"#utility.yul\":1743:1806   */\n      swap2\n      pop\n        /* \"#utility.yul\":1699:1816   */\n      pop\n        /* \"#utility.yul\":1494:1823   */\n      swap3\n      swap2\n      pop\n      pop\n      jump\t// out\n        /* \"#utility.yul\":1829:1928   */\n    tag_50:\n        /* \"#utility.yul\":1881:1887   */\n      0x00\n        /* \"#utility.yul\":1915:1920   */\n      dup2\n        /* \"#utility.yul\":1909:1921   */\n      mload\n        /* \"#utility.yul\":1899:1921   */\n      swap1\n      pop\n        /* \"#utility.yul\":1829:1928   */\n      swap2\n      swap1\n      pop\n      jump\t// out\n        /* \"#utility.yul\":1934:2103   */\n    tag_51:\n        /* \"#utility.yul\":2018:2029   */\n      0x00\n        /* \"#utility.yul\":2052:2058   */\n      dup3\n        /* \"#utility.yul\":2047:2050   */\n      dup3\n        /* \"#utility.yul\":2040:2059   */\n      mstore\n        /* \"#utility.yul\":2092:2096   */\n      0x20\n        /* \"#utility.yul\":2087:2090   */\n      dup3\n        /* \"#utility.yul\":2083:2097   */\n      add\n        /* \"#utility.yul\":2068:2097   */\n      swap1\n      pop\n        /* \"#utility.yul\":1934:2103   */\n      swap3\n      swap2\n      pop\n      pop\n      jump\t// out\n        /* \"#utility.yul\":2109:2248   */\n    tag_52:\n        /* \"#utility.yul\":2198:2204   */\n      dup3\n        /* \"#utility.yul\":2193:2196   */\n      dup2\n        /* \"#utility.yul\":2188:2191   */\n      dup4\n        /* \"#utility.yul\":2182:2205   */\n      mcopy\n        /* \"#utility.yul\":2239:2240   */\n      0x00\n        /* \"#utility.yul\":2230:2236   */\n      dup4\n        /* \"#utility.yul\":2225:2228   */\n      dup4\n        /* \"#utility.yul\":2221:2237   */\n      add\n        /* \"#utility.yul\":2214:2241   */\n      mstore\n        /* \"#utility.yul\":2109:2248   */\n      pop\n      pop\n      pop\n      jump\t// out\n        /* \"#utility.yul\":2254:2356   */\n    tag_53:\n        /* \"#utility.yul\":2295:2301   */\n      0x00\n        /* \"#utility.yul\":2346:2348   */\n      0x1f\n        /* \"#utility.yul\":2342:2349   */\n      not\n        /* \"#utility.yul\":2337:2339   */\n      0x1f\n        /* \"#utility.yul\":2330:2335   */\n      dup4\n        /* \"#utility.yul\":2326:2340   */\n      add\n        /* \"#utility.yul\":2322:2350   */\n      and\n        /* \"#utility.yul\":2312:2350   */\n      swap1\n      pop\n        /* \"#utility.yul\":2254:2356   */\n      swap2\n      swap1\n      pop\n      jump\t// out\n        /* \"#utility.yul\":2362:2739   */\n    tag_54:\n        /* \"#utility.yul\":2450:2453   */\n      0x00\n        /* \"#utility.yul\":2478:2517   */\n      tag_103\n        /* \"#utility.yul\":2511:2516   */\n      dup3\n        /* \"#utility.yul\":2478:2517   */\n      tag_50\n      jump\t// in\n    tag_103:\n        /* \"#utility.yul\":2533:2604   */\n      tag_104\n        /* \"#utility.yul\":2597:2603   */\n      dup2\n        /* \"#utility.yul\":2592:2595   */\n      dup6\n        /* \"#utility.yul\":2533:2604   */\n      tag_51\n      jump\t// in\n    tag_104:\n        /* \"#utility.yul\":2526:2604   */\n      swap4\n      pop\n        /* \"#utility.yul\":2613:2678   */\n      tag_105\n        /* \"#utility.yul\":2671:2677   */\n      dup2\n        /* \"#utility.yul\":2666:2669   */\n      dup6\n        /* \"#utility.yul\":2659:2663   */\n      0x20\n        /* \"#utility.yul\":2652:2657   */\n      dup7\n        /* \"#utility.yul\":2648:2664   */\n      add\n        /* \"#utility.yul\":2613:2678   */\n      tag_52\n      jump\t// in\n    tag_105:\n        /* \"#utility.yul\":2703:2732   */\n      tag_106\n        /* \"#utility.yul\":2725:2731   */\n      dup2\n        /* \"#utility.yul\":2703:2732   */\n      tag_53\n      jump\t// in\n    tag_106:\n        /* \"#utility.yul\":2698:2701   */\n      dup5\n        /* \"#utility.yul\":2694:2733   */\n      add\n        /* \"#utility.yul\":2687:2733   */\n      swap2\n      pop\n        /* \"#utility.yul\":2454:2739   */\n      pop\n        /* \"#utility.yul\":2362:2739   */\n      swap3\n      swap2\n      pop\n      pop\n      jump\t// out\n        /* \"#utility.yul\":2745:2925   */\n    tag_55:\n        /* \"#utility.yul\":2793:2870   */\n      0x4e487b7100000000000000000000000000000000000000000000000000000000\n        /* \"#utility.yul\":2790:2791   */\n      0x00\n        /* \"#utility.yul\":2783:2871   */\n      mstore\n        /* \"#utility.yul\":2890:2894   */\n      0x21\n        /* \"#utility.yul\":2887:2888   */\n      0x04\n        /* \"#utility.yul\":2880:2895   */\n      mstore\n        /* \"#utility.yul\":2914:2918   */\n      0x24\n        /* \"#utility.yul\":2911:2912   */\n      0x00\n        /* \"#utility.yul\":2904:2919   */\n      revert\n        /* \"#utility.yul\":2931:3050   */\n    tag_56:\n        /* \"#utility.yul\":3018:3019   */\n      0x06\n        /* \"#utility.yul\":3011:3016   */\n      dup2\n        /* \"#utility.yul\":3008:3020   */\n      lt\n        /* \"#utility.yul\":2998:3044   */\n      tag_109\n      jumpi\n        /* \"#utility.yul\":3024:3042   */\n      tag_110\n      tag_55\n      jump\t// in\n    tag_110:\n        /* \"#utility.yul\":2998:3044   */\n    tag_109:\n        /* \"#utility.yul\":2931:3050   */\n      pop\n      jump\t// out\n        /* \"#utility.yul\":3056:3195   */\n    tag_57:\n        /* \"#utility.yul\":3107:3114   */\n      0x00\n        /* \"#utility.yul\":3136:3141   */\n      dup2\n        /* \"#utility.yul\":3125:3141   */\n      swap1\n      pop\n        /* \"#utility.yul\":3142:3189   */\n      tag_112\n        /* \"#utility.yul\":3183:3188   */\n      dup3\n        /* \"#utility.yul\":3142:3189   */\n      tag_56\n      jump\t// in\n    tag_112:\n        /* \"#utility.yul\":3056:3195   */\n      swap2\n      swap1\n      pop\n      jump\t// out\n        /* \"#utility.yul\":3201:3340   */\n    tag_58:\n        /* \"#utility.yul\":3263:3272   */\n      0x00\n        /* \"#utility.yul\":3296:3334   */\n      tag_114\n        /* \"#utility.yul\":3328:3333   */\n      dup3\n        /* \"#utility.yul\":3296:3334   */\n      tag_57\n      jump\t// in\n    tag_114:\n        /* \"#utility.yul\":3283:3334   */\n      swap1\n      pop\n        /* \"#utility.yul\":3201:3340   */\n      swap2\n      swap1\n      pop\n      jump\t// out\n        /* \"#utility.yul\":3346:3501   */\n    tag_59:\n        /* \"#utility.yul\":3445:3494   */\n      tag_116\n        /* \"#utility.yul\":3488:3493   */\n      dup2\n        /* \"#utility.yul\":3445:3494   */\n      tag_58\n      jump\t// in\n    tag_116:\n        /* \"#utility.yul\":3440:3443   */\n      dup3\n        /* \"#utility.yul\":3433:3495   */\n      mstore\n        /* \"#utility.yul\":3346:3501   */\n      pop\n      pop\n      jump\t// out\n        /* \"#utility.yul\":3507:3604   */\n    tag_60:\n        /* \"#utility.yul\":3543:3550   */\n      0x00\n        /* \"#utility.yul\":3583:3597   */\n      0xffffffffffff\n        /* \"#utility.yul\":3576:3581   */\n      dup3\n        /* \"#utility.yul\":3572:3598   */\n      and\n        /* \"#utility.yul\":3561:3598   */\n      swap1\n      pop\n        /* \"#utility.yul\":3507:3604   */\n      swap2\n      swap1\n      pop\n      jump\t// out\n        /* \"#utility.yul\":3610:3725   */\n    tag_61:\n        /* \"#utility.yul\":3695:3718   */\n      tag_119\n        /* \"#utility.yul\":3712:3717   */\n      dup2\n        /* \"#utility.yul\":3695:3718   */\n      tag_60\n      jump\t// in\n    tag_119:\n        /* \"#utility.yul\":3690:3693   */\n      dup3\n        /* \"#utility.yul\":3683:3719   */\n      mstore\n        /* \"#utility.yul\":3610:3725   */\n      pop\n      pop\n      jump\t// out\n        /* \"#utility.yul\":3731:3808   */\n    tag_62:\n        /* \"#utility.yul\":3768:3775   */\n      0x00\n        /* \"#utility.yul\":3797:3802   */\n      dup2\n        /* \"#utility.yul\":3786:3802   */\n      swap1\n      pop\n        /* \"#utility.yul\":3731:3808   */\n      swap2\n      swap1\n      pop\n      jump\t// out\n        /* \"#utility.yul\":3814:3932   */\n    tag_63:\n        /* \"#utility.yul\":3901:3925   */\n      tag_122\n        /* \"#utility.yul\":3919:3924   */\n      dup2\n        /* \"#utility.yul\":3901:3925   */\n      tag_62\n      jump\t// in\n    tag_122:\n        /* \"#utility.yul\":3896:3899   */\n      dup3\n        /* \"#utility.yul\":3889:3926   */\n      mstore\n        /* \"#utility.yul\":3814:3932   */\n      pop\n      pop\n      jump\t// out\n        /* \"#utility.yul\":3938:4036   */\n    tag_64:\n        /* \"#utility.yul\":3989:3995   */\n      0x00\n        /* \"#utility.yul\":4023:4028   */\n      dup2\n        /* \"#utility.yul\":4017:4029   */\n      mload\n        /* \"#utility.yul\":4007:4029   */\n      swap1\n      pop\n        /* \"#utility.yul\":3938:4036   */\n      swap2\n      swap1\n      pop\n      jump\t// out\n        /* \"#utility.yul\":4042:4210   */\n    tag_65:\n        /* \"#utility.yul\":4125:4136   */\n      0x00\n        /* \"#utility.yul\":4159:4165   */\n      dup3\n        /* \"#utility.yul\":4154:4157   */\n      dup3\n        /* \"#utility.yul\":4147:4166   */\n      mstore\n        /* \"#utility.yul\":4199:4203   */\n      0x20\n        /* \"#utility.yul\":4194:4197   */\n      dup3\n        /* \"#utility.yul\":4190:4204   */\n      add\n        /* \"#utility.yul\":4175:4204   */\n      swap1\n      pop\n        /* \"#utility.yul\":4042:4210   */\n      swap3\n      swap2\n      pop\n      pop\n      jump\t// out\n        /* \"#utility.yul\":4216:4589   */\n    tag_66:\n        /* \"#utility.yul\":4302:4305   */\n      0x00\n        /* \"#utility.yul\":4330:4368   */\n      tag_126\n        /* \"#utility.yul\":4362:4367   */\n      dup3\n        /* \"#utility.yul\":4330:4368   */\n      tag_64\n      jump\t// in\n    tag_126:\n        /* \"#utility.yul\":4384:4454   */\n      tag_127\n        /* \"#utility.yul\":4447:4453   */\n      dup2\n        /* \"#utility.yul\":4442:4445   */\n      dup6\n        /* \"#utility.yul\":4384:4454   */\n      tag_65\n      jump\t// in\n    tag_127:\n        /* \"#utility.yul\":4377:4454   */\n      swap4\n      pop\n        /* \"#utility.yul\":4463:4528   */\n      tag_128\n        /* \"#utility.yul\":4521:4527   */\n      dup2\n        /* \"#utility.yul\":4516:4519   */\n      dup6\n        /* \"#utility.yul\":4509:4513   */\n      0x20\n        /* \"#utility.yul\":4502:4507   */\n      dup7\n        /* \"#utility.yul\":4498:4514   */\n      add\n        /* \"#utility.yul\":4463:4528   */\n      tag_52\n      jump\t// in\n    tag_128:\n        /* \"#utility.yul\":4553:4582   */\n      tag_129\n        /* \"#utility.yul\":4575:4581   */\n      dup2\n        /* \"#utility.yul\":4553:4582   */\n      tag_53\n      jump\t// in\n    tag_129:\n        /* \"#utility.yul\":4548:4551   */\n      dup5\n        /* \"#utility.yul\":4544:4583   */\n      add\n        /* \"#utility.yul\":4537:4583   */\n      swap2\n      pop\n        /* \"#utility.yul\":4306:4589   */\n      pop\n        /* \"#utility.yul\":4216:4589   */\n      swap3\n      swap2\n      pop\n      pop\n      jump\t// out\n        /* \"#utility.yul\":4595:4681   */\n    tag_67:\n        /* \"#utility.yul\":4630:4637   */\n      0x00\n        /* \"#utility.yul\":4670:4674   */\n      0xff\n        /* \"#utility.yul\":4663:4668   */\n      dup3\n        /* \"#utility.yul\":4659:4675   */\n      and\n        /* \"#utility.yul\":4648:4675   */\n      swap1\n      pop\n        /* \"#utility.yul\":4595:4681   */\n      swap2\n      swap1\n      pop\n      jump\t// out\n        /* \"#utility.yul\":4687:4799   */\n    tag_68:\n        /* \"#utility.yul\":4770:4792   */\n      tag_132\n        /* \"#utility.yul\":4786:4791   */\n      dup2\n        /* \"#utility.yul\":4770:4792   */\n      tag_67\n      jump\t// in\n    tag_132:\n        /* \"#utility.yul\":4765:4768   */\n      dup3\n        /* \"#utility.yul\":4758:4793   */\n      mstore\n        /* \"#utility.yul\":4687:4799   */\n      pop\n      pop\n      jump\t// out\n        /* \"#utility.yul\":4805:4895   */\n    tag_69:\n        /* \"#utility.yul\":4839:4846   */\n      0x00\n        /* \"#utility.yul\":4882:4887   */\n      dup2\n        /* \"#utility.yul\":4875:4888   */\n      iszero\n        /* \"#utility.yul\":4868:4889   */\n      iszero\n        /* \"#utility.yul\":4857:4889   */\n      swap1\n      pop\n        /* \"#utility.yul\":4805:4895   */\n      swap2\n      swap1\n      pop\n      jump\t// out\n        /* \"#utility.yul\":4901:5010   */\n    tag_70:\n        /* \"#utility.yul\":4982:5003   */\n      tag_135\n        /* \"#utility.yul\":4997:5002   */\n      dup2\n        /* \"#utility.yul\":4982:5003   */\n      tag_69\n      jump\t// in\n    tag_135:\n        /* \"#utility.yul\":4977:4980   */\n      dup3\n        /* \"#utility.yul\":4970:5004   */\n      mstore\n        /* \"#utility.yul\":4901:5010   */\n      pop\n      pop\n      jump\t// out\n        /* \"#utility.yul\":5016:6718   */\n    tag_20:\n        /* \"#utility.yul\":5471:5475   */\n      0x00\n        /* \"#utility.yul\":5509:5512   */\n      0x0180\n        /* \"#utility.yul\":5498:5507   */\n      dup3\n        /* \"#utility.yul\":5494:5513   */\n      add\n        /* \"#utility.yul\":5486:5513   */\n      swap1\n      pop\n        /* \"#utility.yul\":5523:5594   */\n      tag_137\n        /* \"#utility.yul\":5591:5592   */\n      0x00\n        /* \"#utility.yul\":5580:5589   */\n      dup4\n        /* \"#utility.yul\":5576:5593   */\n      add\n        /* \"#utility.yul\":5567:5573   */\n      dup16\n        /* \"#utility.yul\":5523:5594   */\n      tag_44\n      jump\t// in\n    tag_137:\n        /* \"#utility.yul\":5641:5650   */\n      dup2\n        /* \"#utility.yul\":5635:5639   */\n      dup2\n        /* \"#utility.yul\":5631:5651   */\n      sub\n        /* \"#utility.yul\":5626:5628   */\n      0x20\n        /* \"#utility.yul\":5615:5624   */\n      dup4\n        /* \"#utility.yul\":5611:5629   */\n      add\n        /* \"#utility.yul\":5604:5652   */\n      mstore\n        /* \"#utility.yul\":5669:5747   */\n      tag_138\n        /* \"#utility.yul\":5742:5746   */\n      dup2\n        /* \"#utility.yul\":5733:5739   */\n      dup15\n        /* \"#utility.yul\":5669:5747   */\n      tag_54\n      jump\t// in\n    tag_138:\n        /* \"#utility.yul\":5661:5747   */\n      swap1\n      pop\n        /* \"#utility.yul\":5757:5841   */\n      tag_139\n        /* \"#utility.yul\":5837:5839   */\n      0x40\n        /* \"#utility.yul\":5826:5835   */\n      dup4\n        /* \"#utility.yul\":5822:5840   */\n      add\n        /* \"#utility.yul\":5813:5819   */\n      dup14\n        /* \"#utility.yul\":5757:5841   */\n      tag_59\n      jump\t// in\n    tag_139:\n        /* \"#utility.yul\":5851:5921   */\n      tag_140\n        /* \"#utility.yul\":5917:5919   */\n      0x60\n        /* \"#utility.yul\":5906:5915   */\n      dup4\n        /* \"#utility.yul\":5902:5920   */\n      add\n        /* \"#utility.yul\":5893:5899   */\n      dup13\n        /* \"#utility.yul\":5851:5921   */\n      tag_61\n      jump\t// in\n    tag_140:\n        /* \"#utility.yul\":5931:6002   */\n      tag_141\n        /* \"#utility.yul\":5997:6000   */\n      0x80\n        /* \"#utility.yul\":5986:5995   */\n      dup4\n        /* \"#utility.yul\":5982:6001   */\n      add\n        /* \"#utility.yul\":5973:5979   */\n      dup12\n        /* \"#utility.yul\":5931:6002   */\n      tag_61\n      jump\t// in\n    tag_141:\n        /* \"#utility.yul\":6012:6083   */\n      tag_142\n        /* \"#utility.yul\":6078:6081   */\n      0xa0\n        /* \"#utility.yul\":6067:6076   */\n      dup4\n        /* \"#utility.yul\":6063:6082   */\n      add\n        /* \"#utility.yul\":6054:6060   */\n      dup11\n        /* \"#utility.yul\":6012:6083   */\n      tag_61\n      jump\t// in\n    tag_142:\n        /* \"#utility.yul\":6093:6164   */\n      tag_143\n        /* \"#utility.yul\":6159:6162   */\n      0xc0\n        /* \"#utility.yul\":6148:6157   */\n      dup4\n        /* \"#utility.yul\":6144:6163   */\n      add\n        /* \"#utility.yul\":6135:6141   */\n      dup10\n        /* \"#utility.yul\":6093:6164   */\n      tag_61\n      jump\t// in\n    tag_143:\n        /* \"#utility.yul\":6174:6247   */\n      tag_144\n        /* \"#utility.yul\":6242:6245   */\n      0xe0\n        /* \"#utility.yul\":6231:6240   */\n      dup4\n        /* \"#utility.yul\":6227:6246   */\n      add\n        /* \"#utility.yul\":6218:6224   */\n      dup9\n        /* \"#utility.yul\":6174:6247   */\n      tag_63\n      jump\t// in\n    tag_144:\n        /* \"#utility.yul\":6295:6304   */\n      dup2\n        /* \"#utility.yul\":6289:6293   */\n      dup2\n        /* \"#utility.yul\":6285:6305   */\n      sub\n        /* \"#utility.yul\":6279:6282   */\n      0x0100\n        /* \"#utility.yul\":6268:6277   */\n      dup4\n        /* \"#utility.yul\":6264:6283   */\n      add\n        /* \"#utility.yul\":6257:6306   */\n      mstore\n        /* \"#utility.yul\":6323:6401   */\n      tag_145\n        /* \"#utility.yul\":6396:6400   */\n      dup2\n        /* \"#utility.yul\":6387:6393   */\n      dup8\n        /* \"#utility.yul\":6323:6401   */\n      tag_54\n      jump\t// in\n    tag_145:\n        /* \"#utility.yul\":6315:6401   */\n      swap1\n      pop\n        /* \"#utility.yul\":6449:6458   */\n      dup2\n        /* \"#utility.yul\":6443:6447   */\n      dup2\n        /* \"#utility.yul\":6439:6459   */\n      sub\n        /* \"#utility.yul\":6433:6436   */\n      0x0120\n        /* \"#utility.yul\":6422:6431   */\n      dup4\n        /* \"#utility.yul\":6418:6437   */\n      add\n        /* \"#utility.yul\":6411:6460   */\n      mstore\n        /* \"#utility.yul\":6477:6553   */\n      tag_146\n        /* \"#utility.yul\":6548:6552   */\n      dup2\n        /* \"#utility.yul\":6539:6545   */\n      dup7\n        /* \"#utility.yul\":6477:6553   */\n      tag_66\n      jump\t// in\n    tag_146:\n        /* \"#utility.yul\":6469:6553   */\n      swap1\n      pop\n        /* \"#utility.yul\":6563:6633   */\n      tag_147\n        /* \"#utility.yul\":6628:6631   */\n      0x0140\n        /* \"#utility.yul\":6617:6626   */\n      dup4\n        /* \"#utility.yul\":6613:6632   */\n      add\n        /* \"#utility.yul\":6603:6610   */\n      dup6\n        /* \"#utility.yul\":6563:6633   */\n      tag_68\n      jump\t// in\n    tag_147:\n        /* \"#utility.yul\":6643:6711   */\n      tag_148\n        /* \"#utility.yul\":6706:6709   */\n      0x0160\n        /* \"#utility.yul\":6695:6704   */\n      dup4\n        /* \"#utility.yul\":6691:6710   */\n      add\n        /* \"#utility.yul\":6681:6688   */\n      dup5\n        /* \"#utility.yul\":6643:6711   */\n      tag_70\n      jump\t// in\n    tag_148:\n        /* \"#utility.yul\":5016:6718   */\n      swap14\n      swap13\n      pop\n      pop\n      pop\n      pop\n      pop\n      pop\n      pop\n      pop\n      pop\n      pop\n      pop\n      pop\n      pop\n      jump\t// out\n        /* \"#utility.yul\":6724:6850   */\n    tag_71:\n        /* \"#utility.yul\":6761:6768   */\n      0x00\n        /* \"#utility.yul\":6801:6843   */\n      0xffffffffffffffffffffffffffffffffffffffff\n        /* \"#utility.yul\":6794:6799   */\n      dup3\n        /* \"#utility.yul\":6790:6844   */\n      and\n        /* \"#utility.yul\":6779:6844   */\n      swap1\n      pop\n        /* \"#utility.yul\":6724:6850   */\n      swap2\n      swap1\n      pop\n      jump\t// out\n        /* \"#utility.yul\":6856:6952   */\n    tag_72:\n        /* \"#utility.yul\":6893:6900   */\n      0x00\n        /* \"#utility.yul\":6922:6946   */\n      tag_151\n        /* \"#utility.yul\":6940:6945   */\n      dup3\n        /* \"#utility.yul\":6922:6946   */\n      tag_71\n      jump\t// in\n    tag_151:\n        /* \"#utility.yul\":6911:6946   */\n      swap1\n      pop\n        /* \"#utility.yul\":6856:6952   */\n      swap2\n      swap1\n      pop\n      jump\t// out\n        /* \"#utility.yul\":6958:7076   */\n    tag_73:\n        /* \"#utility.yul\":7045:7069   */\n      tag_153\n        /* \"#utility.yul\":7063:7068   */\n      dup2\n        /* \"#utility.yul\":7045:7069   */\n      tag_72\n      jump\t// in\n    tag_153:\n        /* \"#utility.yul\":7040:7043   */\n      dup3\n        /* \"#utility.yul\":7033:7070   */\n      mstore\n        /* \"#utility.yul\":6958:7076   */\n      pop\n      pop\n      jump\t// out\n        /* \"#utility.yul\":7082:7304   */\n    tag_24:\n        /* \"#utility.yul\":7175:7179   */\n      0x00\n        /* \"#utility.yul\":7213:7215   */\n      0x20\n        /* \"#utility.yul\":7202:7211   */\n      dup3\n        /* \"#utility.yul\":7198:7216   */\n      add\n        /* \"#utility.yul\":7190:7216   */\n      swap1\n      pop\n        /* \"#utility.yul\":7226:7297   */\n      tag_155\n        /* \"#utility.yul\":7294:7295   */\n      0x00\n        /* \"#utility.yul\":7283:7292   */\n      dup4\n        /* \"#utility.yul\":7279:7296   */\n      add\n        /* \"#utility.yul\":7270:7276   */\n      dup5\n        /* \"#utility.yul\":7226:7297   */\n      tag_73\n      jump\t// in\n    tag_155:\n        /* \"#utility.yul\":7082:7304   */\n      swap3\n      swap2\n      pop\n      pop\n      jump\t// out\n        /* \"#utility.yul\":7310:7490   */\n    tag_74:\n        /* \"#utility.yul\":7358:7435   */\n      0x4e487b7100000000000000000000000000000000000000000000000000000000\n        /* \"#utility.yul\":7355:7356   */\n      0x00\n        /* \"#utility.yul\":7348:7436   */\n      mstore\n        /* \"#utility.yul\":7455:7459   */\n      0x22\n        /* \"#utility.yul\":7452:7453   */\n      0x04\n        /* \"#utility.yul\":7445:7460   */\n      mstore\n        /* \"#utility.yul\":7479:7483   */\n      0x24\n        /* \"#utility.yul\":7476:7477   */\n      0x00\n        /* \"#utility.yul\":7469:7484   */\n      revert\n        /* \"#utility.yul\":7496:7816   */\n    tag_26:\n        /* \"#utility.yul\":7540:7546   */\n      0x00\n        /* \"#utility.yul\":7577:7578   */\n      0x02\n        /* \"#utility.yul\":7571:7575   */\n      dup3\n        /* \"#utility.yul\":7567:7579   */\n      div\n        /* \"#utility.yul\":7557:7579   */\n      swap1\n      pop\n        /* \"#utility.yul\":7624:7625   */\n      0x01\n        /* \"#utility.yul\":7618:7622   */\n      dup3\n        /* \"#utility.yul\":7614:7626   */\n      and\n        /* \"#utility.yul\":7645:7663   */\n      dup1\n        /* \"#utility.yul\":7635:7716   */\n      tag_158\n      jumpi\n        /* \"#utility.yul\":7701:7705   */\n      0x7f\n        /* \"#utility.yul\":7693:7699   */\n      dup3\n        /* \"#utility.yul\":7689:7706   */\n      and\n        /* \"#utility.yul\":7679:7706   */\n      swap2\n      pop\n        /* \"#utility.yul\":7635:7716   */\n    tag_158:\n        /* \"#utility.yul\":7763:7765   */\n      0x20\n        /* \"#utility.yul\":7755:7761   */\n      dup3\n        /* \"#utility.yul\":7752:7766   */\n      lt\n        /* \"#utility.yul\":7732:7750   */\n      dup2\n        /* \"#utility.yul\":7729:7767   */\n      sub\n        /* \"#utility.yul\":7726:7810   */\n      tag_159\n      jumpi\n        /* \"#utility.yul\":7782:7800   */\n      tag_160\n      tag_74\n      jump\t// in\n    tag_160:\n        /* \"#utility.yul\":7726:7810   */\n    tag_159:\n        /* \"#utility.yul\":7547:7816   */\n      pop\n        /* \"#utility.yul\":7496:7816   */\n      swap2\n      swap1\n      pop\n      jump\t// out\n\n    auxdata: 0xa26469706673582212206f3537fdde96ff20506abc8eba068df10d2078dafb1b679c4aca6ba742de032964736f6c63430008220033\n}\n",
				"bytecode": {
					"linkReferences": {},
					"object": "6080604052348015600e575f5ffd5b506107a18061001c5f395ff3fe608060405234801561000f575f5ffd5b506004361061004a575f3560e01c806330a3463f1461004e57806392b408ba1461006c578063b1283e771461008a578063d58f05da146100c5575b5f5ffd5b6100566100e3565b60405161006391906103a4565b60405180910390f35b6100746100fd565b60405161008191906103d5565b60405180910390f35b6100a4600480360381019061009f919061041c565b610103565b6040516100bc9c9b9a999897969594939291906105e9565b60405180910390f35b6100cd61035d565b6040516100da91906106f5565b60405180910390f35b600260149054906101000a900467ffffffffffffffff1681565b60015481565b5f602052805f5260405f205f91509050805f0154908060010180546101279061073b565b80601f01602080910402602001604051908101604052809291908181526020018280546101539061073b565b801561019e5780601f106101755761010080835404028352916020019161019e565b820191905f5260205f20905b81548152906001019060200180831161018157829003601f168201915b505050505090806002015f9054906101000a900460ff16908060020160019054906101000a900465ffffffffffff16908060020160079054906101000a900465ffffffffffff169080600201600d9054906101000a900465ffffffffffff16908060020160139054906101000a900465ffffffffffff169080600501549080600601805461022b9061073b565b80601f01602080910402602001604051908101604052809291908181526020018280546102579061073b565b80156102a25780601f10610279576101008083540402835291602001916102a2565b820191905f5260205f20905b81548152906001019060200180831161028557829003601f168201915b5050505050908060070180546102b79061073b565b80601f01602080910402602001604051908101604052809291908181526020018280546102e39061073b565b801561032e5780601f106103055761010080835404028352916020019161032e565b820191905f5260205f20905b81548152906001019060200180831161031157829003601f168201915b505050505090806008015f9054906101000a900460ff16908060080160019054906101000a900460ff1690508c565b60025f9054906101000a900473ffffffffffffffffffffffffffffffffffffffff1681565b5f67ffffffffffffffff82169050919050565b61039e81610382565b82525050565b5f6020820190506103b75f830184610395565b92915050565b5f819050919050565b6103cf816103bd565b82525050565b5f6020820190506103e85f8301846103c6565b92915050565b5f5ffd5b6103fb816103bd565b8114610405575f5ffd5b50565b5f81359050610416816103f2565b92915050565b5f60208284031215610431576104306103ee565b5b5f61043e84828501610408565b91505092915050565b5f81519050919050565b5f82825260208201905092915050565b8281835e5f83830152505050565b5f601f19601f8301169050919050565b5f61048982610447565b6104938185610451565b93506104a3818560208601610461565b6104ac8161046f565b840191505092915050565b7f4e487b71000000000000000000000000000000000000000000000000000000005f52602160045260245ffd5b600681106104f5576104f46104b7565b5b50565b5f819050610505826104e4565b919050565b5f610514826104f8565b9050919050565b6105248161050a565b82525050565b5f65ffffffffffff82169050919050565b6105448161052a565b82525050565b5f819050919050565b61055c8161054a565b82525050565b5f81519050919050565b5f82825260208201905092915050565b5f61058682610562565b610590818561056c565b93506105a0818560208601610461565b6105a98161046f565b840191505092915050565b5f60ff82169050919050565b6105c9816105b4565b82525050565b5f8115159050919050565b6105e3816105cf565b82525050565b5f610180820190506105fd5f83018f6103c6565b818103602083015261060f818e61047f565b905061061e604083018d61051b565b61062b606083018c61053b565b610638608083018b61053b565b61064560a083018a61053b565b61065260c083018961053b565b61065f60e0830188610553565b818103610100830152610672818761047f565b9050818103610120830152610687818661057c565b90506106976101408301856105c0565b6106a56101608301846105da565b9d9c50505050505050505050505050565b5f73ffffffffffffffffffffffffffffffffffffffff82169050919050565b5f6106df826106b6565b9050919050565b6106ef816106d5565b82525050565b5f6020820190506107085f8301846106e6565b92915050565b7f4e487b71000000000000000000000000000000000000000000000000000000005f52602260045260245ffd5b5f600282049050600182168061075257607f821691505b6020821081036107655761076461070e565b5b5091905056fea26469706673582212206f3537fdde96ff20506abc8eba068df10d2078dafb1b679c4aca6ba742de032964736f6c63430008220033",
					"opcodes": "PUSH1 0x80 PUSH1 0x40 MSTORE CALLVALUE DUP1 ISZERO PUSH1 0xE JUMPI PUSH0 PUSH0 REVERT JUMPDEST POP PUSH2 0x7A1 DUP1 PUSH2 0x1C PUSH0 CODECOPY PUSH0 RETURN INVALID PUSH1 0x80 PUSH1 0x40 MSTORE CALLVALUE DUP1 ISZERO PUSH2 0xF JUMPI PUSH0 PUSH0 REVERT JUMPDEST POP PUSH1 0x4 CALLDATASIZE LT PUSH2 0x4A JUMPI PUSH0 CALLDATALOAD PUSH1 0xE0 SHR DUP1 PUSH4 0x30A3463F EQ PUSH2 0x4E JUMPI DUP1 PUSH4 0x92B408BA EQ PUSH2 0x6C JUMPI DUP1 PUSH4 0xB1283E77 EQ PUSH2 0x8A JUMPI DUP1 PUSH4 0xD58F05DA EQ PUSH2 0xC5 JUMPI JUMPDEST PUSH0 PUSH0 REVERT JUMPDEST PUSH2 0x56 PUSH2 0xE3 JUMP JUMPDEST PUSH1 0x40 MLOAD PUSH2 0x63 SWAP2 SWAP1 PUSH2 0x3A4 JUMP JUMPDEST PUSH1 0x40 MLOAD DUP1 SWAP2 SUB SWAP1 RETURN JUMPDEST PUSH2 0x74 PUSH2 0xFD JUMP JUMPDEST PUSH1 0x40 MLOAD PUSH2 0x81 SWAP2 SWAP1 PUSH2 0x3D5 JUMP JUMPDEST PUSH1 0x40 MLOAD DUP1 SWAP2 SUB SWAP1 RETURN JUMPDEST PUSH2 0xA4 PUSH1 0x4 DUP1 CALLDATASIZE SUB DUP2 ADD SWAP1 PUSH2 0x9F SWAP2 SWAP1 PUSH2 0x41C JUMP JUMPDEST PUSH2 0x103 JUMP JUMPDEST PUSH1 0x40 MLOAD PUSH2 0xBC SWAP13 SWAP12 SWAP11 SWAP10 SWAP9 SWAP8 SWAP7 SWAP6 SWAP5 SWAP4 SWAP3 SWAP2 SWAP1 PUSH2 0x5E9 JUMP JUMPDEST PUSH1 0x40 MLOAD DUP1 SWAP2 SUB SWAP1 RETURN JUMPDEST PUSH2 0xCD PUSH2 0x35D JUMP JUMPDEST PUSH1 0x40 MLOAD PUSH2 0xDA SWAP2 SWAP1 PUSH2 0x6F5 JUMP JUMPDEST PUSH1 0x40 MLOAD DUP1 SWAP2 SUB SWAP1 RETURN JUMPDEST PUSH1 0x2 PUSH1 0x14 SWAP1 SLOAD SWAP1 PUSH2 0x100 EXP SWAP1 DIV PUSH8 0xFFFFFFFFFFFFFFFF AND DUP2 JUMP JUMPDEST PUSH1 0x1 SLOAD DUP2 JUMP JUMPDEST PUSH0 PUSH1 0x20 MSTORE DUP1 PUSH0 MSTORE PUSH1 0x40 PUSH0 KECCAK256 PUSH0 SWAP2 POP SWAP1 POP DUP1 PUSH0 ADD SLOAD SWAP1 DUP1 PUSH1 0x1 ADD DUP1 SLOAD PUSH2 0x127 SWAP1 PUSH2 0x73B JUMP JUMPDEST DUP1 PUSH1 0x1F ADD PUSH1 0x20 DUP1 SWAP2 DIV MUL PUSH1 0x20 ADD PUSH1 0x40 MLOAD SWAP1 DUP2 ADD PUSH1 0x40 MSTORE DUP1 SWAP3 SWAP2 SWAP1 DUP2 DUP2 MSTORE PUSH1 0x20 ADD DUP3 DUP1 SLOAD PUSH2 0x153 SWAP1 PUSH2 0x73B JUMP JUMPDEST DUP1 ISZERO PUSH2 0x19E JUMPI DUP1 PUSH1 0x1F LT PUSH2 0x175 JUMPI PUSH2 0x100 DUP1 DUP4 SLOAD DIV MUL DUP4 MSTORE SWAP2 PUSH1 0x20 ADD SWAP2 PUSH2 0x19E JUMP JUMPDEST DUP3 ADD SWAP2 SWAP1 PUSH0 MSTORE PUSH1 0x20 PUSH0 KECCAK256 SWAP1 JUMPDEST DUP2 SLOAD DUP2 MSTORE SWAP1 PUSH1 0x1 ADD SWAP1 PUSH1 0x20 ADD DUP1 DUP4 GT PUSH2 0x181 JUMPI DUP3 SWAP1 SUB PUSH1 0x1F AND DUP3 ADD SWAP2 JUMPDEST POP POP POP POP POP SWAP1 DUP1 PUSH1 0x2 ADD PUSH0 SWAP1 SLOAD SWAP1 PUSH2 0x100 EXP SWAP1 DIV PUSH1 0xFF AND SWAP1 DUP1 PUSH1 0x2 ADD PUSH1 0x1 SWAP1 SLOAD SWAP1 PUSH2 0x100 EXP SWAP1 DIV PUSH6 0xFFFFFFFFFFFF AND SWAP1 DUP1 PUSH1 0x2 ADD PUSH1 0x7 SWAP1 SLOAD SWAP1 PUSH2 0x100 EXP SWAP1 DIV PUSH6 0xFFFFFFFFFFFF AND SWAP1 DUP1 PUSH1 0x2 ADD PUSH1 0xD SWAP1 SLOAD SWAP1 PUSH2 0x100 EXP SWAP1 DIV PUSH6 0xFFFFFFFFFFFF AND SWAP1 DUP1 PUSH1 0x2 ADD PUSH1 0x13 SWAP1 SLOAD SWAP1 PUSH2 0x100 EXP SWAP1 DIV PUSH6 0xFFFFFFFFFFFF AND SWAP1 DUP1 PUSH1 0x5 ADD SLOAD SWAP1 DUP1 PUSH1 0x6 ADD DUP1 SLOAD PUSH2 0x22B SWAP1 PUSH2 0x73B JUMP JUMPDEST DUP1 PUSH1 0x1F ADD PUSH1 0x20 DUP1 SWAP2 DIV MUL PUSH1 0x20 ADD PUSH1 0x40 MLOAD SWAP1 DUP2 ADD PUSH1 0x40 MSTORE DUP1 SWAP3 SWAP2 SWAP1 DUP2 DUP2 MSTORE PUSH1 0x20 ADD DUP3 DUP1 SLOAD PUSH2 0x257 SWAP1 PUSH2 0x73B JUMP JUMPDEST DUP1 ISZERO PUSH2 0x2A2 JUMPI DUP1 PUSH1 0x1F LT PUSH2 0x279 JUMPI PUSH2 0x100 DUP1 DUP4 SLOAD DIV MUL DUP4 MSTORE SWAP2 PUSH1 0x20 ADD SWAP2 PUSH2 0x2A2 JUMP JUMPDEST DUP3 ADD SWAP2 SWAP1 PUSH0 MSTORE PUSH1 0x20 PUSH0 KECCAK256 SWAP1 JUMPDEST DUP2 SLOAD DUP2 MSTORE SWAP1 PUSH1 0x1 ADD SWAP1 PUSH1 0x20 ADD DUP1 DUP4 GT PUSH2 0x285 JUMPI DUP3 SWAP1 SUB PUSH1 0x1F AND DUP3 ADD SWAP2 JUMPDEST POP POP POP POP POP SWAP1 DUP1 PUSH1 0x7 ADD DUP1 SLOAD PUSH2 0x2B7 SWAP1 PUSH2 0x73B JUMP JUMPDEST DUP1 PUSH1 0x1F ADD PUSH1 0x20 DUP1 SWAP2 DIV MUL PUSH1 0x20 ADD PUSH1 0x40 MLOAD SWAP1 DUP2 ADD PUSH1 0x40 MSTORE DUP1 SWAP3 SWAP2 SWAP1 DUP2 DUP2 MSTORE PUSH1 0x20 ADD DUP3 DUP1 SLOAD PUSH2 0x2E3 SWAP1 PUSH2 0x73B JUMP JUMPDEST DUP1 ISZERO PUSH2 0x32E JUMPI DUP1 PUSH1 0x1F LT PUSH2 0x305 JUMPI PUSH2 0x100 DUP1 DUP4 SLOAD DIV MUL DUP4 MSTORE SWAP2 PUSH1 0x20 ADD SWAP2 PUSH2 0x32E JUMP JUMPDEST DUP3 ADD SWAP2 SWAP1 PUSH0 MSTORE PUSH1 0x20 PUSH0 KECCAK256 SWAP1 JUMPDEST DUP2 SLOAD DUP2 MSTORE SWAP1 PUSH1 0x1 ADD SWAP1 PUSH1 0x20 ADD DUP1 DUP4 GT PUSH2 0x311 JUMPI DUP3 SWAP1 SUB PUSH1 0x1F AND DUP3 ADD SWAP2 JUMPDEST POP POP POP POP POP SWAP1 DUP1 PUSH1 0x8 ADD PUSH0 SWAP1 SLOAD SWAP1 PUSH2 0x100 EXP SWAP1 DIV PUSH1 0xFF AND SWAP1 DUP1 PUSH1 0x8 ADD PUSH1 0x1 SWAP1 SLOAD SWAP1 PUSH2 0x100 EXP SWAP1 DIV PUSH1 0xFF AND SWAP1 POP DUP13 JUMP JUMPDEST PUSH1 0x2 PUSH0 SWAP1 SLOAD SWAP1 PUSH2 0x100 EXP SWAP1 DIV PUSH20 0xFFFFFFFFFFFFFFFFFFFFFFFFFFFFFFFFFFFFFFFF AND DUP2 JUMP JUMPDEST PUSH0 PUSH8 0xFFFFFFFFFFFFFFFF DUP3 AND SWAP1 POP SWAP2 SWAP1 POP JUMP JUMPDEST PUSH2 0x39E DUP2 PUSH2 0x382 JUMP JUMPDEST DUP3 MSTORE POP POP JUMP JUMPDEST PUSH0 PUSH1 0x20 DUP3 ADD SWAP1 POP PUSH2 0x3B7 PUSH0 DUP4 ADD DUP5 PUSH2 0x395 JUMP JUMPDEST SWAP3 SWAP2 POP POP JUMP JUMPDEST PUSH0 DUP2 SWAP1 POP SWAP2 SWAP1 POP JUMP JUMPDEST PUSH2 0x3CF DUP2 PUSH2 0x3BD JUMP JUMPDEST DUP3 MSTORE POP POP JUMP JUMPDEST PUSH0 PUSH1 0x20 DUP3 ADD SWAP1 POP PUSH2 0x3E8 PUSH0 DUP4 ADD DUP5 PUSH2 0x3C6 JUMP JUMPDEST SWAP3 SWAP2 POP POP JUMP JUMPDEST PUSH0 PUSH0 REVERT JUMPDEST PUSH2 0x3FB DUP2 PUSH2 0x3BD JUMP JUMPDEST DUP2 EQ PUSH2 0x405 JUMPI PUSH0 PUSH0 REVERT JUMPDEST POP JUMP JUMPDEST PUSH0 DUP2 CALLDATALOAD SWAP1 POP PUSH2 0x416 DUP2 PUSH2 0x3F2 JUMP JUMPDEST SWAP3 SWAP2 POP POP JUMP JUMPDEST PUSH0 PUSH1 0x20 DUP3 DUP5 SUB SLT ISZERO PUSH2 0x431 JUMPI PUSH2 0x430 PUSH2 0x3EE JUMP JUMPDEST JUMPDEST PUSH0 PUSH2 0x43E DUP5 DUP3 DUP6 ADD PUSH2 0x408 JUMP JUMPDEST SWAP2 POP POP SWAP3 SWAP2 POP POP JUMP JUMPDEST PUSH0 DUP2 MLOAD SWAP1 POP SWAP2 SWAP1 POP JUMP JUMPDEST PUSH0 DUP3 DUP3 MSTORE PUSH1 0x20 DUP3 ADD SWAP1 POP SWAP3 SWAP2 POP POP JUMP JUMPDEST DUP3 DUP2 DUP4 MCOPY PUSH0 DUP4 DUP4 ADD MSTORE POP POP POP JUMP JUMPDEST PUSH0 PUSH1 0x1F NOT PUSH1 0x1F DUP4 ADD AND SWAP1 POP SWAP2 SWAP1 POP JUMP JUMPDEST PUSH0 PUSH2 0x489 DUP3 PUSH2 0x447 JUMP JUMPDEST PUSH2 0x493 DUP2 DUP6 PUSH2 0x451 JUMP JUMPDEST SWAP4 POP PUSH2 0x4A3 DUP2 DUP6 PUSH1 0x20 DUP7 ADD PUSH2 0x461 JUMP JUMPDEST PUSH2 0x4AC DUP2 PUSH2 0x46F JUMP JUMPDEST DUP5 ADD SWAP2 POP POP SWAP3 SWAP2 POP POP JUMP JUMPDEST PUSH32 0x4E487B7100000000000000000000000000000000000000000000000000000000 PUSH0 MSTORE PUSH1 0x21 PUSH1 0x4 MSTORE PUSH1 0x24 PUSH0 REVERT JUMPDEST PUSH1 0x6 DUP2 LT PUSH2 0x4F5 JUMPI PUSH2 0x4F4 PUSH2 0x4B7 JUMP JUMPDEST JUMPDEST POP JUMP JUMPDEST PUSH0 DUP2 SWAP1 POP PUSH2 0x505 DUP3 PUSH2 0x4E4 JUMP JUMPDEST SWAP2 SWAP1 POP JUMP JUMPDEST PUSH0 PUSH2 0x514 DUP3 PUSH2 0x4F8 JUMP JUMPDEST SWAP1 POP SWAP2 SWAP1 POP JUMP JUMPDEST PUSH2 0x524 DUP2 PUSH2 0x50A JUMP JUMPDEST DUP3 MSTORE POP POP JUMP JUMPDEST PUSH0 PUSH6 0xFFFFFFFFFFFF DUP3 AND SWAP1 POP SWAP2 SWAP1 POP JUMP JUMPDEST PUSH2 0x544 DUP2 PUSH2 0x52A JUMP JUMPDEST DUP3 MSTORE POP POP JUMP JUMPDEST PUSH0 DUP2 SWAP1 POP SWAP2 SWAP1 POP JUMP JUMPDEST PUSH2 0x55C DUP2 PUSH2 0x54A JUMP JUMPDEST DUP3 MSTORE POP POP JUMP JUMPDEST PUSH0 DUP2 MLOAD SWAP1 POP SWAP2 SWAP1 POP JUMP JUMPDEST PUSH0 DUP3 DUP3 MSTORE PUSH1 0x20 DUP3 ADD SWAP1 POP SWAP3 SWAP2 POP POP JUMP JUMPDEST PUSH0 PUSH2 0x586 DUP3 PUSH2 0x562 JUMP JUMPDEST PUSH2 0x590 DUP2 DUP6 PUSH2 0x56C JUMP JUMPDEST SWAP4 POP PUSH2 0x5A0 DUP2 DUP6 PUSH1 0x20 DUP7 ADD PUSH2 0x461 JUMP JUMPDEST PUSH2 0x5A9 DUP2 PUSH2 0x46F JUMP JUMPDEST DUP5 ADD SWAP2 POP POP SWAP3 SWAP2 POP POP JUMP JUMPDEST PUSH0 PUSH1 0xFF DUP3 AND SWAP1 POP SWAP2 SWAP1 POP JUMP JUMPDEST PUSH2 0x5C9 DUP2 PUSH2 0x5B4 JUMP JUMPDEST DUP3 MSTORE POP POP JUMP JUMPDEST PUSH0 DUP2 ISZERO ISZERO SWAP1 POP SWAP2 SWAP1 POP JUMP JUMPDEST PUSH2 0x5E3 DUP2 PUSH2 0x5CF JUMP JUMPDEST DUP3 MSTORE POP POP JUMP JUMPDEST PUSH0 PUSH2 0x180 DUP3 ADD SWAP1 POP PUSH2 0x5FD PUSH0 DUP4 ADD DUP16 PUSH2 0x3C6 JUMP JUMPDEST DUP2 DUP2 SUB PUSH1 0x20 DUP4 ADD MSTORE PUSH2 0x60F DUP2 DUP15 PUSH2 0x47F JUMP JUMPDEST SWAP1 POP PUSH2 0x61E PUSH1 0x40 DUP4 ADD DUP14 PUSH2 0x51B JUMP JUMPDEST PUSH2 0x62B PUSH1 0x60 DUP4 ADD DUP13 PUSH2 0x53B JUMP JUMPDEST PUSH2 0x638 PUSH1 0x80 DUP4 ADD DUP12 PUSH2 0x53B JUMP JUMPDEST PUSH2 0x645 PUSH1 0xA0 DUP4 ADD DUP11 PUSH2 0x53B JUMP JUMPDEST PUSH2 0x652 PUSH1 0xC0 DUP4 ADD DUP10 PUSH2 0x53B JUMP JUMPDEST PUSH2 0x65F PUSH1 0xE0 DUP4 ADD DUP9 PUSH2 0x553 JUMP JUMPDEST DUP2 DUP2 SUB PUSH2 0x100 DUP4 ADD MSTORE PUSH2 0x672 DUP2 DUP8 PUSH2 0x47F JUMP JUMPDEST SWAP1 POP DUP2 DUP2 SUB PUSH2 0x120 DUP4 ADD MSTORE PUSH2 0x687 DUP2 DUP7 PUSH2 0x57C JUMP JUMPDEST SWAP1 POP PUSH2 0x697 PUSH2 0x140 DUP4 ADD DUP6 PUSH2 0x5C0 JUMP JUMPDEST PUSH2 0x6A5 PUSH2 0x160 DUP4 ADD DUP5 PUSH2 0x5DA JUMP JUMPDEST SWAP14 SWAP13 POP POP POP POP POP POP POP POP POP POP POP POP POP JUMP JUMPDEST PUSH0 PUSH20 0xFFFFFFFFFFFFFFFFFFFFFFFFFFFFFFFFFFFFFFFF DUP3 AND SWAP1 POP SWAP2 SWAP1 POP JUMP JUMPDEST PUSH0 PUSH2 0x6DF DUP3 PUSH2 0x6B6 JUMP JUMPDEST SWAP1 POP SWAP2 SWAP1 POP JUMP JUMPDEST PUSH2 0x6EF DUP2 PUSH2 0x6D5 JUMP JUMPDEST DUP3 MSTORE POP POP JUMP JUMPDEST PUSH0 PUSH1 0x20 DUP3 ADD SWAP1 POP PUSH2 0x708 PUSH0 DUP4 ADD DUP5 PUSH2 0x6E6 JUMP JUMPDEST SWAP3 SWAP2 POP POP JUMP JUMPDEST PUSH32 0x4E487B7100000000000000000000000000000000000000000000000000000000 PUSH0 MSTORE PUSH1 0x22 PUSH1 0x4 MSTORE PUSH1 0x24 PUSH0 REVERT JUMPDEST PUSH0 PUSH1 0x2 DUP3 DIV SWAP1 POP PUSH1 0x1 DUP3 AND DUP1 PUSH2 0x752 JUMPI PUSH1 0x7F DUP3 AND SWAP2 POP JUMPDEST PUSH1 0x20 DUP3 LT DUP2 SUB PUSH2 0x765 JUMPI PUSH2 0x764 PUSH2 0x70E JUMP JUMPDEST JUMPDEST POP SWAP2 SWAP1 POP JUMP INVALID LOG2 PUSH5 0x6970667358 0x22 SLT KECCAK256 PUSH16 0x3537FDDE96FF20506ABC8EBA068DF10D KECCAK256 PUSH25 0xDAFB1B679C4ACA6BA742DE032964736F6C6343000822003300 "
				},
				"gasEstimates": {
					"creation": {
						"codeDepositCost": "390600",
						"executionCost": "428",
						"totalCost": "391028"
					},
					"external": {
						"OrderMarketid()": "2425",
						"functionsRouter()": "2552",
						"functionsSubscriptionid()": "2495",
						"markets(uint256)": "infinite"
					}
				},
				"methodIdentifiers": {
					"OrderMarketid()": "92b408ba",
					"functionsRouter()": "d58f05da",
					"functionsSubscriptionid()": "30a3463f",
					"markets(uint256)": "b1283e77"
				}
			},
			"storageLayout": {
				"storage": [
					{
						"astId": 57,
						"contract": "Prediction-Market/MarketData.sol:MarketData",
						"label": "markets",
						"offset": 0,
						"slot": "0",
						"type": "t_mapping(t_uint256,t_struct(Market)52_storage)"
					},
					{
						"astId": 59,
						"contract": "Prediction-Market/MarketData.sol:MarketData",
						"label": "OrderMarketid",
						"offset": 0,
						"slot": "1",
						"type": "t_uint256"
					},
					{
						"astId": 61,
						"contract": "Prediction-Market/MarketData.sol:MarketData",
						"label": "functionsRouter",
						"offset": 0,
						"slot": "2",
						"type": "t_address"
					},
					{
						"astId": 63,
						"contract": "Prediction-Market/MarketData.sol:MarketData",
						"label": "functionsSubscriptionid",
						"offset": 20,
						"slot": "2",
						"type": "t_uint64"
					}
				],
				"types": {
					"t_address": {
						"encoding": "inplace",
						"label": "address",
						"numberOfBytes": "20"
					},
					"t_array(t_struct(Bet)19_storage)dyn_storage": {
						"base": "t_struct(Bet)19_storage",
						"encoding": "dynamic_array",
						"label": "struct MarketData.Bet[]",
						"numberOfBytes": "32"
					},
					"t_array(t_uint256)dyn_storage": {
						"base": "t_uint256",
						"encoding": "dynamic_array",
						"label": "uint256[]",
						"numberOfBytes": "32"
					},
					"t_bool": {
						"encoding": "inplace",
						"label": "bool",
						"numberOfBytes": "1"
					},
					"t_bytes32": {
						"encoding": "inplace",
						"label": "bytes32",
						"numberOfBytes": "32"
					},
					"t_bytes_storage": {
						"encoding": "bytes",
						"label": "bytes",
						"numberOfBytes": "32"
					},
					"t_enum(MarketStatus)8": {
						"encoding": "inplace",
						"label": "enum MarketData.MarketStatus",
						"numberOfBytes": "1"
					},
					"t_mapping(t_uint256,t_struct(Market)52_storage)": {
						"encoding": "mapping",
						"key": "t_uint256",
						"label": "mapping(uint256 => struct MarketData.Market)",
						"numberOfBytes": "32",
						"value": "t_struct(Market)52_storage"
					},
					"t_string_storage": {
						"encoding": "bytes",
						"label": "string",
						"numberOfBytes": "32"
					},
					"t_struct(Bet)19_storage": {
						"encoding": "inplace",
						"label": "struct MarketData.Bet",
						"members": [
							{
								"astId": 10,
								"contract": "Prediction-Market/MarketData.sol:MarketData",
								"label": "user",
								"offset": 0,
								"slot": "0",
								"type": "t_address"
							},
							{
								"astId": 12,
								"contract": "Prediction-Market/MarketData.sol:MarketData",
								"label": "encryptedBet",
								"offset": 0,
								"slot": "1",
								"type": "t_bytes_storage"
							},
							{
								"astId": 14,
								"contract": "Prediction-Market/MarketData.sol:MarketData",
								"label": "amount",
								"offset": 0,
								"slot": "2",
								"type": "t_uint256"
							},
							{
								"astId": 16,
								"contract": "Prediction-Market/MarketData.sol:MarketData",
								"label": "option",
								"offset": 0,
								"slot": "3",
								"type": "t_uint8"
							},
							{
								"astId": 18,
								"contract": "Prediction-Market/MarketData.sol:MarketData",
								"label": "claimed",
								"offset": 1,
								"slot": "3",
								"type": "t_bool"
							}
						],
						"numberOfBytes": "128"
					},
					"t_struct(Market)52_storage": {
						"encoding": "inplace",
						"label": "struct MarketData.Market",
						"members": [
							{
								"astId": 21,
								"contract": "Prediction-Market/MarketData.sol:MarketData",
								"label": "id",
								"offset": 0,
								"slot": "0",
								"type": "t_uint256"
							},
							{
								"astId": 23,
								"contract": "Prediction-Market/MarketData.sol:MarketData",
								"label": "description",
								"offset": 0,
								"slot": "1",
								"type": "t_string_storage"
							},
							{
								"astId": 26,
								"contract": "Prediction-Market/MarketData.sol:MarketData",
								"label": "state",
								"offset": 0,
								"slot": "2",
								"type": "t_enum(MarketStatus)8"
							},
							{
								"astId": 28,
								"contract": "Prediction-Market/MarketData.sol:MarketData",
								"label": "createTimeStamp",
								"offset": 1,
								"slot": "2",
								"type": "t_uint48"
							},
							{
								"astId": 30,
								"contract": "Prediction-Market/MarketData.sol:MarketData",
								"label": "closeTime",
								"offset": 7,
								"slot": "2",
								"type": "t_uint48"
							},
							{
								"astId": 32,
								"contract": "Prediction-Market/MarketData.sol:MarketData",
								"label": "resolveWindow",
								"offset": 13,
								"slot": "2",
								"type": "t_uint48"
							},
							{
								"astId": 34,
								"contract": "Prediction-Market/MarketData.sol:MarketData",
								"label": "resolveTimeStamp",
								"offset": 19,
								"slot": "2",
								"type": "t_uint48"
							},
							{
								"astId": 37,
								"contract": "Prediction-Market/MarketData.sol:MarketData",
								"label": "optionTotals",
								"offset": 0,
								"slot": "3",
								"type": "t_array(t_uint256)dyn_storage"
							},
							{
								"astId": 41,
								"contract": "Prediction-Market/MarketData.sol:MarketData",
								"label": "bets",
								"offset": 0,
								"slot": "4",
								"type": "t_array(t_struct(Bet)19_storage)dyn_storage"
							},
							{
								"astId": 43,
								"contract": "Prediction-Market/MarketData.sol:MarketData",
								"label": "functionsRequest_id",
								"offset": 0,
								"slot": "5",
								"type": "t_bytes32"
							},
							{
								"astId": 45,
								"contract": "Prediction-Market/MarketData.sol:MarketData",
								"label": "functionsSource",
								"offset": 0,
								"slot": "6",
								"type": "t_string_storage"
							},
							{
								"astId": 47,
								"contract": "Prediction-Market/MarketData.sol:MarketData",
								"label": "encryptedSecrets",
								"offset": 0,
								"slot": "7",
								"type": "t_bytes_storage"
							},
							{
								"astId": 49,
								"contract": "Prediction-Market/MarketData.sol:MarketData",
								"label": "outcome",
								"offset": 0,
								"slot": "8",
								"type": "t_uint8"
							},
							{
								"astId": 51,
								"contract": "Prediction-Market/MarketData.sol:MarketData",
								"label": "resolved",
								"offset": 1,
								"slot": "8",
								"type": "t_bool"
							}
						],
						"numberOfBytes": "288"
					},
					"t_uint256": {
						"encoding": "inplace",
						"label": "uint256",
						"numberOfBytes": "32"
					},
					"t_uint48": {
						"encoding": "inplace",
						"label": "uint48",
						"numberOfBytes": "6"
					},
					"t_uint64": {
						"encoding": "inplace",
						"label": "uint64",
						"numberOfBytes": "8"
					},
					"t_uint8": {
						"encoding": "inplace",
						"label": "uint8",
						"numberOfBytes": "1"
					}
				}
			},
			"userdoc": {
				"kind": "user",
				"methods": {},
				"version": 1
			}
		}
	}
}