{
	"data": {
		"bytecode": {
			"linkReferences": {},
			"object": "60a060405234801561000f575f5ffd5b506040516146a83803806146a8833981810160405281019061003191906101de565b818073ffffffffffffffffffffffffffffffffffffffff1660808173ffffffffffffffffffffffffffffffffffffffff16815250505060015f819055503360055f6101000a81548173ffffffffffffffffffffffffffffffffffffffff021916908373ffffffffffffffffffffffffffffffffffffffff16021790555042600560146101000a81548165ffffffffffff021916908365ffffffffffff1602179055508160045f6101000a81548173ffffffffffffffffffffffffffffffffffffffff021916908373ffffffffffffffffffffffffffffffffffffffff16021790555080600460146101000a81548167ffffffffffffffff021916908367ffffffffffffffff160217905550505061021c565b5f5ffd5b5f73ffffffffffffffffffffffffffffffffffffffff82169050919050565b5f61017082610147565b9050919050565b61018081610166565b811461018a575f5ffd5b50565b5f8151905061019b81610177565b92915050565b5f67ffffffffffffffff82169050919050565b6101bd816101a1565b81146101c7575f5ffd5b50565b5f815190506101d8816101b4565b92915050565b5f5f604083850312156101f4576101f3610143565b5b5f6102018582860161018d565b9250506020610212858286016101ca565b9150509250929050565b60805161446d61023b5f395f81816102df0152611f6d015261446d5ff3fe6080604052600436106100a6575f3560e01c80638da5cb5b116100635780638da5cb5b146101a257806392b408ba146101cc57806396fcd761146101f6578063b1283e7714610232578063e826850914610279578063ff51b884146102b5576100a6565b80630ca76175146100aa57806327e1f7df146100d2578063286db5c2146100fa57806335d2a269146101225780636399d03d1461013e578063704b6c021461017a575b5f5ffd5b3480156100b5575f5ffd5b506100d060048036038101906100cb9190612ac6565b6102dd565b005b3480156100dd575f5ffd5b506100f860048036038101906100f39190612ba8565b61039f565b005b348015610105575f5ffd5b50610120600480360381019061011b9190612c06565b610519565b005b61013c60048036038101906101379190612c44565b61087e565b005b348015610149575f5ffd5b50610164600480360381019061015f9190612c9e565b610ac2565b6040516101719190612cd8565b60405180910390f35b348015610185575f5ffd5b506101a0600480360381019061019b9190612ba8565b610f38565b005b3480156101ad575f5ffd5b506101b6611021565b6040516101c39190612d00565b60405180910390f35b3480156101d7575f5ffd5b506101e0611046565b6040516101ed9190612d28565b60405180910390f35b348015610201575f5ffd5b5061021c60048036038101906102179190612c9e565b61104c565b6040516102299190612d28565b60405180910390f35b34801561023d575f5ffd5b5061025860048036038101906102539190612c9e565b611061565b6040516102709c9b9a99989796959493929190612ebb565b60405180910390f35b348015610284575f5ffd5b5061029f600480360381019061029a9190613050565b6112bc565b6040516102ac9190612d28565b60405180910390f35b3480156102c0575f5ffd5b506102db60048036038101906102d691906131cd565b611556565b005b7f000000000000000000000000000000000000000000000000000000000000000073ffffffffffffffffffffffffffffffffffffffff163373ffffffffffffffffffffffffffffffffffffffff1614610362576040517fc6829f8300000000000000000000000000000000000000000000000000000000815260040160405180910390fd5b61036d838383611872565b827f85e1543bf2f84fe80c6badbce3648c8539ad1df4d2b3d822938ca0538be727e660405160405180910390a2505050565b3360055f9054906101000a900473ffffffffffffffffffffffffffffffffffffffff1673ffffffffffffffffffffffffffffffffffffffff168173ffffffffffffffffffffffffffffffffffffffff161461042f576040517f08c379a0000000000000000000000000000000000000000000000000000000008152600401610426906132db565b60405180910390fd5b816001151560065f8373ffffffffffffffffffffffffffffffffffffffff1673ffffffffffffffffffffffffffffffffffffffff1681526020019081526020015f205f9054906101000a900460ff161515146104c0576040517f08c379a00000000000000000000000000000000000000000000000000000000081526004016104b790613343565b60405180910390fd5b5f60065f8573ffffffffffffffffffffffffffffffffffffffff1673ffffffffffffffffffffffffffffffffffffffff1681526020019081526020015f205f6101000a81548160ff021916908315150217905550505050565b61052161196f565b5f60025f8481526020019081526020015f2090505f81600401838154811061054c5761054b613361565b5b905f5260205f20906004020190506004600581111561056e5761056d612da1565b5b826002015f9054906101000a900460ff16600581111561059157610590612da1565b5b146105d1576040517f08c379a00000000000000000000000000000000000000000000000000000000081526004016105c8906133d8565b60405180910390fd5b3373ffffffffffffffffffffffffffffffffffffffff16815f015f9054906101000a900473ffffffffffffffffffffffffffffffffffffffff1673ffffffffffffffffffffffffffffffffffffffff1614610661576040517f08c379a000000000000000000000000000000000000000000000000000000000815260040161065890613440565b60405180910390fd5b8060030160019054906101000a900460ff16156106b3576040517f08c379a00000000000000000000000000000000000000000000000000000000081526004016106aa906134a8565b60405180910390fd5b816008015f9054906101000a900460ff1660ff16816003015f9054906101000a900460ff1660ff161461071b576040517f08c379a000000000000000000000000000000000000000000000000000000000815260040161071290613510565b60405180910390fd5b5f60015f8681526020019081526020015f205490505f83600301846008015f9054906101000a900460ff1660ff168154811061075a57610759613361565b5b905f5260205f20015490505f828285600201546107779190613588565b61078191906135b8565b90505f845f015f9054906101000a900473ffffffffffffffffffffffffffffffffffffffff1673ffffffffffffffffffffffffffffffffffffffff16826040516107ca90613626565b5f6040518083038185875af1925050503d805f8114610804576040519150601f19603f3d011682016040523d82523d5f602084013e610809565b606091505b5050809150508061084f576040517f08c379a000000000000000000000000000000000000000000000000000000000815260040161084690613684565b60405180910390fd5b60018560030160016101000a81548160ff02191690831515021790555050505050505061087a6119bc565b5050565b5f60025f8481526020019081526020015f209050600160058111156108a6576108a5612da1565b5b816002015f9054906101000a900460ff1660058111156108c9576108c8612da1565b5b14610909576040517f08c379a0000000000000000000000000000000000000000000000000000000008152600401610900906136ec565b60405180910390fd5b8060020160079054906101000a900465ffffffffffff1665ffffffffffff164210610969576040517f08c379a000000000000000000000000000000000000000000000000000000000815260040161096090613754565b60405180910390fd5b5f34116109ab576040517f08c379a00000000000000000000000000000000000000000000000000000000081526004016109a2906137bc565b60405180910390fd5b806004016040518060a001604052803373ffffffffffffffffffffffffffffffffffffffff1681526020018481526020013481526020015f60ff1681526020015f1515815250908060018154018082558091505060019003905f5260205f2090600402015f909190919091505f820151815f015f6101000a81548173ffffffffffffffffffffffffffffffffffffffff021916908373ffffffffffffffffffffffffffffffffffffffff1602179055506020820151816001019081610a7091906139e8565b50604082015181600201556060820151816003015f6101000a81548160ff021916908360ff16021790555060808201518160030160016101000a81548160ff0219169083151502179055505050505050565b5f5f60025f8481526020019081526020015f20905060016005811115610aeb57610aea612da1565b5b816002015f9054906101000a900460ff166005811115610b0e57610b0d612da1565b5b1480610b4e575060026005811115610b2957610b28612da1565b5b816002015f9054906101000a900460ff166005811115610b4c57610b4b612da1565b5b145b610b8d576040517f08c379a0000000000000000000000000000000000000000000000000000000008152600401610b8490613b01565b60405180910390fd5b8060020160079054906101000a900465ffffffffffff1665ffffffffffff16421015610bee576040517f08c379a0000000000000000000000000000000000000000000000000000000008152600401610be590613b69565b60405180910390fd5b8060020160139054906101000a900465ffffffffffff1665ffffffffffff16421115610c4f576040517f08c379a0000000000000000000000000000000000000000000000000000000008152600401610c4690613bd1565b60405180910390fd5b6003816002015f6101000a81548160ff02191690836005811115610c7657610c75612da1565b5b02179055505f600267ffffffffffffffff811115610c9757610c966129a2565b5b604051908082528060200260200182016040528015610cca57816020015b6060815260200190600190039081610cb55790505b509050610cd6846119c5565b815f81518110610ce957610ce8613361565b5b6020026020010181905250816001018054610d0390613807565b80601f0160208091040260200160405190810160405280929190818152602001828054610d2f90613807565b8015610d7a5780601f10610d5157610100808354040283529160200191610d7a565b820191905f5260205f20905b815481529060010190602001808311610d5d57829003601f168201915b505050505081600181518110610d9357610d92613361565b5b6020026020010181905250610da661289f565b610e43836006018054610db890613807565b80601f0160208091040260200160405190810160405280929190818152602001828054610de490613807565b8015610e2f5780601f10610e0657610100808354040283529160200191610e2f565b820191905f5260205f20905b815481529060010190602001808311610e1257829003601f168201915b505050505082611a8f90919063ffffffff16565b610e568282611a9f90919063ffffffff16565b610ef3836007018054610e6890613807565b80601f0160208091040260200160405190810160405280929190818152602001828054610e9490613807565b8015610edf5780601f10610eb657610100808354040283529160200191610edf565b820191905f5260205f20905b815481529060010190602001808311610ec257829003601f168201915b505050505082611ae690919063ffffffff16565b5f610f21610f0083611b5e565b600460149054906101000a900467ffffffffffffffff16620493e05f611f69565b905080846005018190555080945050505050919050565b3360055f9054906101000a900473ffffffffffffffffffffffffffffffffffffffff1673ffffffffffffffffffffffffffffffffffffffff168173ffffffffffffffffffffffffffffffffffffffff1614610fc8576040517f08c379a0000000000000000000000000000000000000000000000000000000008152600401610fbf906132db565b60405180910390fd5b600160065f8473ffffffffffffffffffffffffffffffffffffffff1673ffffffffffffffffffffffffffffffffffffffff1681526020019081526020015f205f6101000a81548160ff0219169083151502179055505050565b60055f9054906101000a900473ffffffffffffffffffffffffffffffffffffffff1681565b60035481565b6001602052805f5260405f205f915090505481565b6002602052805f5260405f205f91509050805f01549080600101805461108690613807565b80601f01602080910402602001604051908101604052809291908181526020018280546110b290613807565b80156110fd5780601f106110d4576101008083540402835291602001916110fd565b820191905f5260205f20905b8154815290600101906020018083116110e057829003601f168201915b505050505090806002015f9054906101000a900460ff16908060020160019054906101000a900465ffffffffffff16908060020160079054906101000a900465ffffffffffff169080600201600d9054906101000a900465ffffffffffff16908060020160139054906101000a900465ffffffffffff169080600501549080600601805461118a90613807565b80601f01602080910402602001604051908101604052809291908181526020018280546111b690613807565b80156112015780601f106111d857610100808354040283529160200191611201565b820191905f5260205f20905b8154815290600101906020018083116111e457829003601f168201915b50505050509080600701805461121690613807565b80601f016020809104026020016040519081016040528092919081815260200182805461124290613807565b801561128d5780601f106112645761010080835404028352916020019161128d565b820191905f5260205f20905b81548152906001019060200180831161127057829003601f168201915b505050505090806008015f9054906101000a900460ff16908060080160019054906101000a900460ff1690508c565b5f336001151560065f8373ffffffffffffffffffffffffffffffffffffffff1673ffffffffffffffffffffffffffffffffffffffff1681526020019081526020015f205f9054906101000a900460ff1615151461134e576040517f08c379a000000000000000000000000000000000000000000000000000000000815260040161134590613343565b60405180910390fd5b8565ffffffffffff164210611398576040517f08c379a000000000000000000000000000000000000000000000000000000000815260040161138f90613c5f565b60405180910390fd5b5f8565ffffffffffff16116113e2576040517f08c379a00000000000000000000000000000000000000000000000000000000081526004016113d990613cc7565b60405180910390fd5b60035f8154809291906113f490613ce5565b9190505591505f60025f8481526020019081526020015f20905082815f0181905550878160010190816114279190613d91565b506001816002015f6101000a81548160ff0219169083600581111561144f5761144e612da1565b5b0217905550428160020160016101000a81548165ffffffffffff021916908365ffffffffffff160217905550868160020160076101000a81548165ffffffffffff021916908365ffffffffffff1602179055508581600201600d6101000a81548165ffffffffffff021916908365ffffffffffff16021790555080600201600d9054906101000a900465ffffffffffff168160020160079054906101000a900465ffffffffffff166115019190613e60565b8160020160136101000a81548165ffffffffffff021916908365ffffffffffff160217905550848160060190816115389190613d91565b508381600701908161154a91906139e8565b50505095945050505050565b336001151560065f8373ffffffffffffffffffffffffffffffffffffffff1673ffffffffffffffffffffffffffffffffffffffff1681526020019081526020015f205f9054906101000a900460ff161515146115e7576040517f08c379a00000000000000000000000000000000000000000000000000000000081526004016115de90613343565b60405180910390fd5b5f60025f8a81526020019081526020015f2090506004600581111561160f5761160e612da1565b5b816002015f9054906101000a900460ff16600581111561163257611631612da1565b5b14611672576040517f08c379a000000000000000000000000000000000000000000000000000000000815260040161166990613ee3565b60405180910390fd5b5f5f90505b888890508110156117ff575f826004018a8a8481811061169a57611699613361565b5b90506020020135815481106116b2576116b1613361565b5b905f5260205f20906004020190505f816003015f9054906101000a900460ff1660ff1614611715576040517f08c379a000000000000000000000000000000000000000000000000000000000815260040161170c90613f4b565b60405180910390fd5b87878381811061172857611727613361565b5b905060200201602081019061173d9190613f93565b816003015f6101000a81548160ff021916908360ff16021790555085858381811061176b5761176a613361565b5b90506020020135816002018190555085858381811061178d5761178c613361565b5b90506020020135836003018989858181106117ab576117aa613361565b5b90506020020160208101906117c09190613f93565b60ff16815481106117d4576117d3613361565b5b905f5260205f20015f8282546117ea9190613fbe565b92505081905550508080600101915050611677565b505f5f90505b81600301805490508110156118665781600301818154811061182a57611829613361565b5b905f5260205f20015460015f8c81526020019081526020015f205f8282546118529190613fbe565b925050819055508080600101915050611805565b50505050505050505050565b5f61187c84612048565b90505f60025f8381526020019081526020015f209050600360058111156118a6576118a5612da1565b5b816002015f9054906101000a900460ff1660058111156118c9576118c8612da1565b5b14611909576040517f08c379a00000000000000000000000000000000000000000000000000000000081526004016119009061403b565b60405180910390fd5b5f83511115611945576002816002015f6101000a81548160ff0219169083600581111561193957611938612da1565b5b0217905550505061196a565b5f8480602001905181019061195a919061406d565b905061196683826120d0565b5050505b505050565b60025f54036119b3576040517f08c379a00000000000000000000000000000000000000000000000000000000081526004016119aa906140e2565b60405180910390fd5b60025f81905550565b60015f81905550565b60605f60016119d38461214e565b0190505f8167ffffffffffffffff8111156119f1576119f06129a2565b5b6040519080825280601f01601f191660200182016040528015611a235781602001600182028036833780820191505090505b5090505f82602083010190505b600115611a84578080600190039150507f3031323334353637383961626364656600000000000000000000000000000000600a86061a8153600a8581611a7957611a7861352e565b5b0494505f8503611a30575b819350505050919050565b611a9b825f5f8461229f565b5050565b5f815103611ad9576040517ffe936cb700000000000000000000000000000000000000000000000000000000815260040160405180910390fd5b808260a001819052505050565b5f815103611b20576040517fe889636f00000000000000000000000000000000000000000000000000000000815260040160405180910390fd5b600182602001906002811115611b3957611b38612da1565b5b90816002811115611b4d57611b4c612da1565b5b815250508082608001819052505050565b60605f611b6c610100612345565b9050611bb66040518060400160405280600c81526020017f636f64654c6f636174696f6e00000000000000000000000000000000000000008152508261236a90919063ffffffff16565b611bde835f01516002811115611bcf57611bce612da1565b5b8261239290919063ffffffff16565b611c266040518060400160405280600881526020017f6c616e67756167650000000000000000000000000000000000000000000000008152508261236a90919063ffffffff16565b611c4e83604001515f811115611c3f57611c3e612da1565b5b8261239290919063ffffffff16565b611c966040518060400160405280600681526020017f736f7572636500000000000000000000000000000000000000000000000000008152508261236a90919063ffffffff16565b611cad83606001518261236a90919063ffffffff16565b5f8360a00151511115611d6457611d026040518060400160405280600481526020017f61726773000000000000000000000000000000000000000000000000000000008152508261236a90919063ffffffff16565b611d0b816123e1565b5f5f90505b8360a0015151811015611d5957611d4e8460a001518281518110611d3757611d36613361565b5b60200260200101518361236a90919063ffffffff16565b806001019050611d10565b50611d6381612409565b5b5f8360800151511115611ea3575f6002811115611d8457611d83612da1565b5b83602001516002811115611d9b57611d9a612da1565b5b03611dd2576040517fa80d31f700000000000000000000000000000000000000000000000000000000815260040160405180910390fd5b611e1a6040518060400160405280600f81526020017f736563726574734c6f636174696f6e00000000000000000000000000000000008152508261236a90919063ffffffff16565b611e4383602001516002811115611e3457611e33612da1565b5b8261239290919063ffffffff16565b611e8b6040518060400160405280600781526020017f73656372657473000000000000000000000000000000000000000000000000008152508261236a90919063ffffffff16565b611ea283608001518261243190919063ffffffff16565b5b5f8360c00151511115611f5a57611ef86040518060400160405280600981526020017f62797465734172677300000000000000000000000000000000000000000000008152508261236a90919063ffffffff16565b611f01816123e1565b5f5f90505b8360c0015151811015611f4f57611f448460c001518281518110611f2d57611f2c613361565b5b60200260200101518361243190919063ffffffff16565b806001019050611f06565b50611f5981612409565b5b805f01515f0151915050919050565b5f5f7f000000000000000000000000000000000000000000000000000000000000000073ffffffffffffffffffffffffffffffffffffffff1663461d27628688600188886040518663ffffffff1660e01b8152600401611fcd95949392919061415c565b6020604051808303815f875af1158015611fe9573d5f5f3e3d5ffd5b505050506040513d601f19601f8201168201806040525081019061200d91906141c8565b9050807f1131472297a800fee664d1d89cfa8f7676ff07189ecc53f80bbb5f4969099db860405160405180910390a280915050949350505050565b5f5f600190505b600354811161208f578260025f8381526020019081526020015f20600501540361207c57809150506120cb565b808061208790613ce5565b91505061204f565b506040517f08c379a00000000000000000000000000000000000000000000000000000000081526004016120c29061423d565b60405180910390fd5b919050565b5f60025f8481526020019081526020015f20905081816008015f6101000a81548160ff021916908360ff16021790555060018160080160016101000a81548160ff0219169083151502179055506004816002015f6101000a81548160ff0219169083600581111561214457612143612da1565b5b0217905550505050565b5f5f5f90507a184f03e93ff9f4daa797ed6e38ed64bf6a1f01000000000000000083106121aa577a184f03e93ff9f4daa797ed6e38ed64bf6a1f01000000000000000083816121a05761219f61352e565b5b0492506040810190505b6d04ee2d6d415b85acef810000000083106121e7576d04ee2d6d415b85acef810000000083816121dd576121dc61352e565b5b0492506020810190505b662386f26fc10000831061221657662386f26fc10000838161220c5761220b61352e565b5b0492506010810190505b6305f5e100831061223f576305f5e10083816122355761223461352e565b5b0492506008810190505b612710831061226457612710838161225a5761225961352e565b5b0492506004810190505b60648310612287576064838161227d5761227c61352e565b5b0492506002810190505b600a8310612296576001810190505b80915050919050565b5f8151036122d9576040517f22ce3edd00000000000000000000000000000000000000000000000000000000815260040160405180910390fd5b82845f019060028111156122f0576122ef612da1565b5b9081600281111561230457612303612da1565b5b815250508184604001905f81111561231f5761231e612da1565b5b90815f81111561233257612331612da1565b5b8152505080846060018190525050505050565b61234d61290e565b61235a815f015183612459565b505f816020018181525050919050565b61237782600383516124cf565b61238d81835f015161266f90919063ffffffff16565b505050565b6123b360026005600660ff16901b17835f015161268b90919063ffffffff16565b506123dd82826040516020016123c99190612d28565b604051602081830303815290604052612431565b5050565b6123ec8160046126f2565b6001816020018181516123ff9190613fbe565b9150818152505050565b6124148160076126f2565b600181602001818151612427919061425b565b9150818152505050565b61243e82600283516124cf565b61245481835f015161266f90919063ffffffff16565b505050565b61246161292d565b5f60208361246f919061428e565b1461249b57602082612481919061428e565b602061248d919061425b565b826124989190613fbe565b91505b818360200181815250506040518084525f8152828101602001818110156124c0575f5ffd5b80604052505082905092915050565b60178167ffffffffffffffff1611612509576125038160058460ff16901b60ff1617845f015161268b90919063ffffffff16565b5061266a565b60ff8167ffffffffffffffff16116125655761253b601860058460ff16901b17845f015161268b90919063ffffffff16565b5061255f8167ffffffffffffffff166001855f01516127179092919063ffffffff16565b50612669565b61ffff8167ffffffffffffffff16116125c257612598601960058460ff16901b17845f015161268b90919063ffffffff16565b506125bc8167ffffffffffffffff166002855f01516127179092919063ffffffff16565b50612668565b63ffffffff8167ffffffffffffffff1611612621576125f7601a60058460ff16901b17845f015161268b90919063ffffffff16565b5061261b8167ffffffffffffffff166004855f01516127179092919063ffffffff16565b50612667565b612641601b60058460ff16901b17845f015161268b90919063ffffffff16565b506126658167ffffffffffffffff166008855f01516127179092919063ffffffff16565b505b5b5b5b505050565b61267761292d565b612683838384516127a0565b905092915050565b61269361292d565b5f835f01515190505f6001826126a99190613fbe565b9050846020015182106126cd576126cc856002836126c791906135b8565b61287d565b5b845160208382010185815381518311156126e5578282525b5050849250505092915050565b612712601f60058360ff16901b17835f015161268b90919063ffffffff16565b505050565b61271f61292d565b5f845f01515190505f81846127349190613fbe565b90508560200151811115612759576127588660028361275391906135b8565b61287d565b5b5f60018561010061276a91906143ed565b612774919061425b565b905086518281018783198251161781528151841115612791578382525b50508693505050509392505050565b6127a861292d565b82518211156127b5575f5ffd5b5f845f01515190505f83826127ca9190613fbe565b905085602001518111156127ef576127ee866002836127e991906135b8565b61287d565b5b5f5f87518051856020830101935080851115612809578482525b60208901925050505b60208610612850578051825260208261282b9190613fbe565b915060208161283a9190613fbe565b9050602086612849919061425b565b9550612812565b5f6001876020036101000a0390508019825116818451168181178552505050879450505050509392505050565b5f825f0151905061288e8383612459565b50612899838261266f565b50505050565b6040518060e001604052805f60028111156128bd576128bc612da1565b5b81526020015f60028111156128d5576128d4612da1565b5b81526020015f5f8111156128ec576128eb612da1565b5b8152602001606081526020016060815260200160608152602001606081525090565b604051806040016040528061292161292d565b81526020015f81525090565b6040518060400160405280606081526020015f81525090565b5f604051905090565b5f5ffd5b5f5ffd5b5f819050919050565b61296981612957565b8114612973575f5ffd5b50565b5f8135905061298481612960565b92915050565b5f5ffd5b5f5ffd5b5f601f19601f8301169050919050565b7f4e487b71000000000000000000000000000000000000000000000000000000005f52604160045260245ffd5b6129d882612992565b810181811067ffffffffffffffff821117156129f7576129f66129a2565b5b80604052505050565b5f612a09612946565b9050612a1582826129cf565b919050565b5f67ffffffffffffffff821115612a3457612a336129a2565b5b612a3d82612992565b9050602081019050919050565b828183375f83830152505050565b5f612a6a612a6584612a1a565b612a00565b905082815260208101848484011115612a8657612a8561298e565b5b612a91848285612a4a565b509392505050565b5f82601f830112612aad57612aac61298a565b5b8135612abd848260208601612a58565b91505092915050565b5f5f5f60608486031215612add57612adc61294f565b5b5f612aea86828701612976565b935050602084013567ffffffffffffffff811115612b0b57612b0a612953565b5b612b1786828701612a99565b925050604084013567ffffffffffffffff811115612b3857612b37612953565b5b612b4486828701612a99565b9150509250925092565b5f73ffffffffffffffffffffffffffffffffffffffff82169050919050565b5f612b7782612b4e565b9050919050565b612b8781612b6d565b8114612b91575f5ffd5b50565b5f81359050612ba281612b7e565b92915050565b5f60208284031215612bbd57612bbc61294f565b5b5f612bca84828501612b94565b91505092915050565b5f819050919050565b612be581612bd3565b8114612bef575f5ffd5b50565b5f81359050612c0081612bdc565b92915050565b5f5f60408385031215612c1c57612c1b61294f565b5b5f612c2985828601612bf2565b9250506020612c3a85828601612bf2565b9150509250929050565b5f5f60408385031215612c5a57612c5961294f565b5b5f612c6785828601612bf2565b925050602083013567ffffffffffffffff811115612c8857612c87612953565b5b612c9485828601612a99565b9150509250929050565b5f60208284031215612cb357612cb261294f565b5b5f612cc084828501612bf2565b91505092915050565b612cd281612957565b82525050565b5f602082019050612ceb5f830184612cc9565b92915050565b612cfa81612b6d565b82525050565b5f602082019050612d135f830184612cf1565b92915050565b612d2281612bd3565b82525050565b5f602082019050612d3b5f830184612d19565b92915050565b5f81519050919050565b5f82825260208201905092915050565b8281835e5f83830152505050565b5f612d7382612d41565b612d7d8185612d4b565b9350612d8d818560208601612d5b565b612d9681612992565b840191505092915050565b7f4e487b71000000000000000000000000000000000000000000000000000000005f52602160045260245ffd5b60068110612ddf57612dde612da1565b5b50565b5f819050612def82612dce565b919050565b5f612dfe82612de2565b9050919050565b612e0e81612df4565b82525050565b5f65ffffffffffff82169050919050565b612e2e81612e14565b82525050565b5f81519050919050565b5f82825260208201905092915050565b5f612e5882612e34565b612e628185612e3e565b9350612e72818560208601612d5b565b612e7b81612992565b840191505092915050565b5f60ff82169050919050565b612e9b81612e86565b82525050565b5f8115159050919050565b612eb581612ea1565b82525050565b5f61018082019050612ecf5f83018f612d19565b8181036020830152612ee1818e612d69565b9050612ef0604083018d612e05565b612efd606083018c612e25565b612f0a608083018b612e25565b612f1760a083018a612e25565b612f2460c0830189612e25565b612f3160e0830188612cc9565b818103610100830152612f448187612d69565b9050818103610120830152612f598186612e4e565b9050612f69610140830185612e92565b612f77610160830184612eac565b9d9c50505050505050505050505050565b5f67ffffffffffffffff821115612fa257612fa16129a2565b5b612fab82612992565b9050602081019050919050565b5f612fca612fc584612f88565b612a00565b905082815260208101848484011115612fe657612fe561298e565b5b612ff1848285612a4a565b509392505050565b5f82601f83011261300d5761300c61298a565b5b813561301d848260208601612fb8565b91505092915050565b61302f81612e14565b8114613039575f5ffd5b50565b5f8135905061304a81613026565b92915050565b5f5f5f5f5f60a086880312156130695761306861294f565b5b5f86013567ffffffffffffffff81111561308657613085612953565b5b61309288828901612ff9565b95505060206130a38882890161303c565b94505060406130b48882890161303c565b935050606086013567ffffffffffffffff8111156130d5576130d4612953565b5b6130e188828901612ff9565b925050608086013567ffffffffffffffff81111561310257613101612953565b5b61310e88828901612a99565b9150509295509295909350565b5f5ffd5b5f5ffd5b5f5f83601f8401126131385761313761298a565b5b8235905067ffffffffffffffff8111156131555761315461311b565b5b6020830191508360208202830111156131715761317061311f565b5b9250929050565b5f5f83601f84011261318d5761318c61298a565b5b8235905067ffffffffffffffff8111156131aa576131a961311b565b5b6020830191508360208202830111156131c6576131c561311f565b5b9250929050565b5f5f5f5f5f5f5f6080888a0312156131e8576131e761294f565b5b5f6131f58a828b01612bf2565b975050602088013567ffffffffffffffff81111561321657613215612953565b5b6132228a828b01613123565b9650965050604088013567ffffffffffffffff81111561324557613244612953565b5b6132518a828b01613178565b9450945050606088013567ffffffffffffffff81111561327457613273612953565b5b6132808a828b01613123565b925092505092959891949750929550565b7f596f75206e6f74206f776e6572212121000000000000000000000000000000005f82015250565b5f6132c5601083612d4b565b91506132d082613291565b602082019050919050565b5f6020820190508181035f8301526132f2816132b9565b9050919050565b7f596f75206e6f742061646d696e212121000000000000000000000000000000005f82015250565b5f61332d601083612d4b565b9150613338826132f9565b602082019050919050565b5f6020820190508181035f83015261335a81613321565b9050919050565b7f4e487b71000000000000000000000000000000000000000000000000000000005f52603260045260245ffd5b7f4d757374206265207265736f6c766564210000000000000000000000000000005f82015250565b5f6133c2601183612d4b565b91506133cd8261338e565b602082019050919050565b5f6020820190508181035f8301526133ef816133b6565b9050919050565b7f4e6f7420796f75722062657400000000000000000000000000000000000000005f82015250565b5f61342a600c83612d4b565b9150613435826133f6565b602082019050919050565b5f6020820190508181035f8301526134578161341e565b9050919050565b7f416c726561647920636c61696d656421000000000000000000000000000000005f82015250565b5f613492601083612d4b565b915061349d8261345e565b602082019050919050565b5f6020820190508181035f8301526134bf81613486565b9050919050565b7f4e6f742077696e6e696e67206f7074696f6e21000000000000000000000000005f82015250565b5f6134fa601383612d4b565b9150613505826134c6565b602082019050919050565b5f6020820190508181035f830152613527816134ee565b9050919050565b7f4e487b71000000000000000000000000000000000000000000000000000000005f52601260045260245ffd5b7f4e487b71000000000000000000000000000000000000000000000000000000005f52601160045260245ffd5b5f61359282612bd3565b915061359d83612bd3565b9250826135ad576135ac61352e565b5b828204905092915050565b5f6135c282612bd3565b91506135cd83612bd3565b92508282026135db81612bd3565b915082820484148315176135f2576135f161355b565b5b5092915050565b5f81905092915050565b50565b5f6136115f836135f9565b915061361c82613603565b5f82019050919050565b5f61363082613606565b9150819050919050565b7f5472616e73666572206661696c656421000000000000000000000000000000005f82015250565b5f61366e601083612d4b565b91506136798261363a565b602082019050919050565b5f6020820190508181035f83015261369b81613662565b9050919050565b7f4d61726b6574206e6f74206f70656e21212100000000000000000000000000005f82015250565b5f6136d6601283612d4b565b91506136e1826136a2565b602082019050919050565b5f6020820190508181035f830152613703816136ca565b9050919050565b7f42657474696e6720636c6f7365642121210000000000000000000000000000005f82015250565b5f61373e601183612d4b565b91506137498261370a565b602082019050919050565b5f6020820190508181035f83015261376b81613732565b9050919050565b7f4d75737420626967676572207468616e203000000000000000000000000000005f82015250565b5f6137a6601283612d4b565b91506137b182613772565b602082019050919050565b5f6020820190508181035f8301526137d38161379a565b9050919050565b7f4e487b71000000000000000000000000000000000000000000000000000000005f52602260045260245ffd5b5f600282049050600182168061381e57607f821691505b602082108103613831576138306137da565b5b50919050565b5f819050815f5260205f209050919050565b5f6020601f8301049050919050565b5f82821b905092915050565b5f600883026138937fffffffffffffffffffffffffffffffffffffffffffffffffffffffffffffffff82613858565b61389d8683613858565b95508019841693508086168417925050509392505050565b5f819050919050565b5f6138d86138d36138ce84612bd3565b6138b5565b612bd3565b9050919050565b5f819050919050565b6138f1836138be565b6139056138fd826138df565b848454613864565b825550505050565b5f5f905090565b61391c61390d565b6139278184846138e8565b505050565b5f5b8281101561394d576139425f828401613914565b60018101905061392e565b505050565b601f8211156139a0578282111561399f5761396c81613837565b61397583613849565b61397e85613849565b602086101561398b575f90505b80830161399a8284038261392c565b505050505b5b505050565b5f82821c905092915050565b5f6139c05f19846008026139a5565b1980831691505092915050565b5f6139d883836139b1565b9150826002028217905092915050565b6139f182612e34565b67ffffffffffffffff811115613a0a57613a096129a2565b5b613a148254613807565b613a1f828285613952565b5f60209050601f831160018114613a50575f8415613a3e578287015190505b613a4885826139cd565b865550613aaf565b601f198416613a5e86613837565b5f5b82811015613a8557848901518255600182019150602085019450602081019050613a60565b86831015613aa25784890151613a9e601f8916826139b1565b8355505b6001600288020188555050505b505050505050565b7f43616e2774206265207265736f6c76696e6700000000000000000000000000005f82015250565b5f613aeb601283612d4b565b9150613af682613ab7565b602082019050919050565b5f6020820190508181035f830152613b1881613adf565b9050919050565b7f42657474696e67206e6f7420636c6f73656400000000000000000000000000005f82015250565b5f613b53601283612d4b565b9150613b5e82613b1f565b602082019050919050565b5f6020820190508181035f830152613b8081613b47565b9050919050565b7f54696d656f757420666f72207265736f6c76696e6700000000000000000000005f82015250565b5f613bbb601583612d4b565b9150613bc682613b87565b602082019050919050565b5f6020820190508181035f830152613be881613baf565b9050919050565b7f446561646c696e652074696d657374616d70206d757374206265206c617465725f8201527f2121210000000000000000000000000000000000000000000000000000000000602082015250565b5f613c49602383612d4b565b9150613c5482613bef565b604082019050919050565b5f6020820190508181035f830152613c7681613c3d565b9050919050565b7f5265736f6c76652074696d652063616e277420657175616c207a65726f2121215f82015250565b5f613cb1602083612d4b565b9150613cbc82613c7d565b602082019050919050565b5f6020820190508181035f830152613cde81613ca5565b9050919050565b5f613cef82612bd3565b91507fffffffffffffffffffffffffffffffffffffffffffffffffffffffffffffffff8203613d2157613d2061355b565b5b600182019050919050565b5f819050815f5260205f209050919050565b601f821115613d8c5782821115613d8b57613d5881613d2c565b613d6183613849565b613d6a85613849565b6020861015613d77575f90505b808301613d868284038261392c565b505050505b5b505050565b613d9a82612d41565b67ffffffffffffffff811115613db357613db26129a2565b5b613dbd8254613807565b613dc8828285613d3e565b5f60209050601f831160018114613df9575f8415613de7578287015190505b613df185826139cd565b865550613e58565b601f198416613e0786613d2c565b5f5b82811015613e2e57848901518255600182019150602085019450602081019050613e09565b86831015613e4b5784890151613e47601f8916826139b1565b8355505b6001600288020188555050505b505050505050565b5f613e6a82612e14565b9150613e7583612e14565b9250828201905065ffffffffffff811115613e9357613e9261355b565b5b92915050565b7f4f6e6c79207265736f6c766564206d61726b65742100000000000000000000005f82015250565b5f613ecd601583612d4b565b9150613ed882613e99565b602082019050919050565b5f6020820190508181035f830152613efa81613ec1565b9050919050565b7f416c72656164792072657665616c6564212121000000000000000000000000005f82015250565b5f613f35601383612d4b565b9150613f4082613f01565b602082019050919050565b5f6020820190508181035f830152613f6281613f29565b9050919050565b613f7281612e86565b8114613f7c575f5ffd5b50565b5f81359050613f8d81613f69565b92915050565b5f60208284031215613fa857613fa761294f565b5b5f613fb584828501613f7f565b91505092915050565b5f613fc882612bd3565b9150613fd383612bd3565b9250828201905080821115613feb57613fea61355b565b5b92915050565b7f4f6e6c79207265736f6c76696e67206d61726b657421212100000000000000005f82015250565b5f614025601883612d4b565b915061403082613ff1565b602082019050919050565b5f6020820190508181035f83015261405281614019565b9050919050565b5f8151905061406781613f69565b92915050565b5f602082840312156140825761408161294f565b5b5f61408f84828501614059565b91505092915050565b7f5265656e7472616e637947756172643a207265656e7472616e742063616c6c005f82015250565b5f6140cc601f83612d4b565b91506140d782614098565b602082019050919050565b5f6020820190508181035f8301526140f9816140c0565b9050919050565b5f67ffffffffffffffff82169050919050565b61411c81614100565b82525050565b5f61ffff82169050919050565b61413881614122565b82525050565b5f63ffffffff82169050919050565b6141568161413e565b82525050565b5f60a08201905061416f5f830188614113565b81810360208301526141818187612e4e565b9050614190604083018661412f565b61419d606083018561414d565b6141aa6080830184612cc9565b9695505050505050565b5f815190506141c281612960565b92915050565b5f602082840312156141dd576141dc61294f565b5b5f6141ea848285016141b4565b91505092915050565b7f4d61726b6574206e6f7420666f756e64000000000000000000000000000000005f82015250565b5f614227601083612d4b565b9150614232826141f3565b602082019050919050565b5f6020820190508181035f8301526142548161421b565b9050919050565b5f61426582612bd3565b915061427083612bd3565b92508282039050818111156142885761428761355b565b5b92915050565b5f61429882612bd3565b91506142a383612bd3565b9250826142b3576142b261352e565b5b828206905092915050565b5f8160011c9050919050565b5f5f8291508390505b6001851115614313578086048111156142ef576142ee61355b565b5b60018516156142fe5780820291505b808102905061430c856142be565b94506142d3565b94509492505050565b5f8261432b57600190506143e6565b81614338575f90506143e6565b816001811461434e576002811461435857614387565b60019150506143e6565b60ff84111561436a5761436961355b565b5b8360020a9150848211156143815761438061355b565b5b506143e6565b5060208310610133831016604e8410600b84101617156143bc5782820a9050838111156143b7576143b661355b565b5b6143e6565b6143c984848460016142ca565b925090508184048111156143e0576143df61355b565b5b81810290505b9392505050565b5f6143f782612bd3565b915061440283612bd3565b925061442f7fffffffffffffffffffffffffffffffffffffffffffffffffffffffffffffffff848461431c565b90509291505056fea26469706673582212201d5a836610a98822dbd4f66ee5b70b8fbb12024567bd9bb017382ee3f46c35b064736f6c63430008220033",
			"opcodes": "PUSH1 0xA0 PUSH1 0x40 MSTORE CALLVALUE DUP1 ISZERO PUSH2 0xF JUMPI PUSH0 PUSH0 REVERT JUMPDEST POP PUSH1 0x40 MLOAD PUSH2 0x46A8 CODESIZE SUB DUP1 PUSH2 0x46A8 DUP4 CODECOPY DUP2 DUP2 ADD PUSH1 0x40 MSTORE DUP2 ADD SWAP1 PUSH2 0x31 SWAP2 SWAP1 PUSH2 0x1DE JUMP JUMPDEST DUP2 DUP1 PUSH20 0xFFFFFFFFFFFFFFFFFFFFFFFFFFFFFFFFFFFFFFFF AND PUSH1 0x80 DUP2 PUSH20 0xFFFFFFFFFFFFFFFFFFFFFFFFFFFFFFFFFFFFFFFF AND DUP2 MSTORE POP POP POP PUSH1 0x1 PUSH0 DUP2 SWAP1 SSTORE POP CALLER PUSH1 0x5 PUSH0 PUSH2 0x100 EXP DUP2 SLOAD DUP2 PUSH20 0xFFFFFFFFFFFFFFFFFFFFFFFFFFFFFFFFFFFFFFFF MUL NOT AND SWAP1 DUP4 PUSH20 0xFFFFFFFFFFFFFFFFFFFFFFFFFFFFFFFFFFFFFFFF AND MUL OR SWAP1 SSTORE POP TIMESTAMP PUSH1 0x5 PUSH1 0x14 PUSH2 0x100 EXP DUP2 SLOAD DUP2 PUSH6 0xFFFFFFFFFFFF MUL NOT AND SWAP1 DUP4 PUSH6 0xFFFFFFFFFFFF AND MUL OR SWAP1 SSTORE POP DUP2 PUSH1 0x4 PUSH0 PUSH2 0x100 EXP DUP2 SLOAD DUP2 PUSH20 0xFFFFFFFFFFFFFFFFFFFFFFFFFFFFFFFFFFFFFFFF MUL NOT AND SWAP1 DUP4 PUSH20 0xFFFFFFFFFFFFFFFFFFFFFFFFFFFFFFFFFFFFFFFF AND MUL OR SWAP1 SSTORE POP DUP1 PUSH1 0x4 PUSH1 0x14 PUSH2 0x100 EXP DUP2 SLOAD DUP2 PUSH8 0xFFFFFFFFFFFFFFFF MUL NOT AND SWAP1 DUP4 PUSH8 0xFFFFFFFFFFFFFFFF AND MUL OR SWAP1 SSTORE POP POP POP PUSH2 0x21C JUMP JUMPDEST PUSH0 PUSH0 REVERT JUMPDEST PUSH0 PUSH20 0xFFFFFFFFFFFFFFFFFFFFFFFFFFFFFFFFFFFFFFFF DUP3 AND SWAP1 POP SWAP2 SWAP1 POP JUMP JUMPDEST PUSH0 PUSH2 0x170 DUP3 PUSH2 0x147 JUMP JUMPDEST SWAP1 POP SWAP2 SWAP1 POP JUMP JUMPDEST PUSH2 0x180 DUP2 PUSH2 0x166 JUMP JUMPDEST DUP2 EQ PUSH2 0x18A JUMPI PUSH0 PUSH0 REVERT JUMPDEST POP JUMP JUMPDEST PUSH0 DUP2 MLOAD SWAP1 POP PUSH2 0x19B DUP2 PUSH2 0x177 JUMP JUMPDEST SWAP3 SWAP2 POP POP JUMP JUMPDEST PUSH0 PUSH8 0xFFFFFFFFFFFFFFFF DUP3 AND SWAP1 POP SWAP2 SWAP1 POP JUMP JUMPDEST PUSH2 0x1BD DUP2 PUSH2 0x1A1 JUMP JUMPDEST DUP2 EQ PUSH2 0x1C7 JUMPI PUSH0 PUSH0 REVERT JUMPDEST POP JUMP JUMPDEST PUSH0 DUP2 MLOAD SWAP1 POP PUSH2 0x1D8 DUP2 PUSH2 0x1B4 JUMP JUMPDEST SWAP3 SWAP2 POP POP JUMP JUMPDEST PUSH0 PUSH0 PUSH1 0x40 DUP4 DUP6 SUB SLT ISZERO PUSH2 0x1F4 JUMPI PUSH2 0x1F3 PUSH2 0x143 JUMP JUMPDEST JUMPDEST PUSH0 PUSH2 0x201 DUP6 DUP3 DUP7 ADD PUSH2 0x18D JUMP JUMPDEST SWAP3 POP POP PUSH1 0x20 PUSH2 0x212 DUP6 DUP3 DUP7 ADD PUSH2 0x1CA JUMP JUMPDEST SWAP2 POP POP SWAP3 POP SWAP3 SWAP1 POP JUMP JUMPDEST PUSH1 0x80 MLOAD PUSH2 0x446D PUSH2 0x23B PUSH0 CODECOPY PUSH0 DUP2 DUP2 PUSH2 0x2DF ADD MSTORE PUSH2 0x1F6D ADD MSTORE PUSH2 0x446D PUSH0 RETURN INVALID PUSH1 0x80 PUSH1 0x40 MSTORE PUSH1 0x4 CALLDATASIZE LT PUSH2 0xA6 JUMPI PUSH0 CALLDATALOAD PUSH1 0xE0 SHR DUP1 PUSH4 0x8DA5CB5B GT PUSH2 0x63 JUMPI DUP1 PUSH4 0x8DA5CB5B EQ PUSH2 0x1A2 JUMPI DUP1 PUSH4 0x92B408BA EQ PUSH2 0x1CC JUMPI DUP1 PUSH4 0x96FCD761 EQ PUSH2 0x1F6 JUMPI DUP1 PUSH4 0xB1283E77 EQ PUSH2 0x232 JUMPI DUP1 PUSH4 0xE8268509 EQ PUSH2 0x279 JUMPI DUP1 PUSH4 0xFF51B884 EQ PUSH2 0x2B5 JUMPI PUSH2 0xA6 JUMP JUMPDEST DUP1 PUSH4 0xCA76175 EQ PUSH2 0xAA JUMPI DUP1 PUSH4 0x27E1F7DF EQ PUSH2 0xD2 JUMPI DUP1 PUSH4 0x286DB5C2 EQ PUSH2 0xFA JUMPI DUP1 PUSH4 0x35D2A269 EQ PUSH2 0x122 JUMPI DUP1 PUSH4 0x6399D03D EQ PUSH2 0x13E JUMPI DUP1 PUSH4 0x704B6C02 EQ PUSH2 0x17A JUMPI JUMPDEST PUSH0 PUSH0 REVERT JUMPDEST CALLVALUE DUP1 ISZERO PUSH2 0xB5 JUMPI PUSH0 PUSH0 REVERT JUMPDEST POP PUSH2 0xD0 PUSH1 0x4 DUP1 CALLDATASIZE SUB DUP2 ADD SWAP1 PUSH2 0xCB SWAP2 SWAP1 PUSH2 0x2AC6 JUMP JUMPDEST PUSH2 0x2DD JUMP JUMPDEST STOP JUMPDEST CALLVALUE DUP1 ISZERO PUSH2 0xDD JUMPI PUSH0 PUSH0 REVERT JUMPDEST POP PUSH2 0xF8 PUSH1 0x4 DUP1 CALLDATASIZE SUB DUP2 ADD SWAP1 PUSH2 0xF3 SWAP2 SWAP1 PUSH2 0x2BA8 JUMP JUMPDEST PUSH2 0x39F JUMP JUMPDEST STOP JUMPDEST CALLVALUE DUP1 ISZERO PUSH2 0x105 JUMPI PUSH0 PUSH0 REVERT JUMPDEST POP PUSH2 0x120 PUSH1 0x4 DUP1 CALLDATASIZE SUB DUP2 ADD SWAP1 PUSH2 0x11B SWAP2 SWAP1 PUSH2 0x2C06 JUMP JUMPDEST PUSH2 0x519 JUMP JUMPDEST STOP JUMPDEST PUSH2 0x13C PUSH1 0x4 DUP1 CALLDATASIZE SUB DUP2 ADD SWAP1 PUSH2 0x137 SWAP2 SWAP1 PUSH2 0x2C44 JUMP JUMPDEST PUSH2 0x87E JUMP JUMPDEST STOP JUMPDEST CALLVALUE DUP1 ISZERO PUSH2 0x149 JUMPI PUSH0 PUSH0 REVERT JUMPDEST POP PUSH2 0x164 PUSH1 0x4 DUP1 CALLDATASIZE SUB DUP2 ADD SWAP1 PUSH2 0x15F SWAP2 SWAP1 PUSH2 0x2C9E JUMP JUMPDEST PUSH2 0xAC2 JUMP JUMPDEST PUSH1 0x40 MLOAD PUSH2 0x171 SWAP2 SWAP1 PUSH2 0x2CD8 JUMP JUMPDEST PUSH1 0x40 MLOAD DUP1 SWAP2 SUB SWAP1 RETURN JUMPDEST CALLVALUE DUP1 ISZERO PUSH2 0x185 JUMPI PUSH0 PUSH0 REVERT JUMPDEST POP PUSH2 0x1A0 PUSH1 0x4 DUP1 CALLDATASIZE SUB DUP2 ADD SWAP1 PUSH2 0x19B SWAP2 SWAP1 PUSH2 0x2BA8 JUMP JUMPDEST PUSH2 0xF38 JUMP JUMPDEST STOP JUMPDEST CALLVALUE DUP1 ISZERO PUSH2 0x1AD JUMPI PUSH0 PUSH0 REVERT JUMPDEST POP PUSH2 0x1B6 PUSH2 0x1021 JUMP JUMPDEST PUSH1 0x40 MLOAD PUSH2 0x1C3 SWAP2 SWAP1 PUSH2 0x2D00 JUMP JUMPDEST PUSH1 0x40 MLOAD DUP1 SWAP2 SUB SWAP1 RETURN JUMPDEST CALLVALUE DUP1 ISZERO PUSH2 0x1D7 JUMPI PUSH0 PUSH0 REVERT JUMPDEST POP PUSH2 0x1E0 PUSH2 0x1046 JUMP JUMPDEST PUSH1 0x40 MLOAD PUSH2 0x1ED SWAP2 SWAP1 PUSH2 0x2D28 JUMP JUMPDEST PUSH1 0x40 MLOAD DUP1 SWAP2 SUB SWAP1 RETURN JUMPDEST CALLVALUE DUP1 ISZERO PUSH2 0x201 JUMPI PUSH0 PUSH0 REVERT JUMPDEST POP PUSH2 0x21C PUSH1 0x4 DUP1 CALLDATASIZE SUB DUP2 ADD SWAP1 PUSH2 0x217 SWAP2 SWAP1 PUSH2 0x2C9E JUMP JUMPDEST PUSH2 0x104C JUMP JUMPDEST PUSH1 0x40 MLOAD PUSH2 0x229 SWAP2 SWAP1 PUSH2 0x2D28 JUMP JUMPDEST PUSH1 0x40 MLOAD DUP1 SWAP2 SUB SWAP1 RETURN JUMPDEST CALLVALUE DUP1 ISZERO PUSH2 0x23D JUMPI PUSH0 PUSH0 REVERT JUMPDEST POP PUSH2 0x258 PUSH1 0x4 DUP1 CALLDATASIZE SUB DUP2 ADD SWAP1 PUSH2 0x253 SWAP2 SWAP1 PUSH2 0x2C9E JUMP JUMPDEST PUSH2 0x1061 JUMP JUMPDEST PUSH1 0x40 MLOAD PUSH2 0x270 SWAP13 SWAP12 SWAP11 SWAP10 SWAP9 SWAP8 SWAP7 SWAP6 SWAP5 SWAP4 SWAP3 SWAP2 SWAP1 PUSH2 0x2EBB JUMP JUMPDEST PUSH1 0x40 MLOAD DUP1 SWAP2 SUB SWAP1 RETURN JUMPDEST CALLVALUE DUP1 ISZERO PUSH2 0x284 JUMPI PUSH0 PUSH0 REVERT JUMPDEST POP PUSH2 0x29F PUSH1 0x4 DUP1 CALLDATASIZE SUB DUP2 ADD SWAP1 PUSH2 0x29A SWAP2 SWAP1 PUSH2 0x3050 JUMP JUMPDEST PUSH2 0x12BC JUMP JUMPDEST PUSH1 0x40 MLOAD PUSH2 0x2AC SWAP2 SWAP1 PUSH2 0x2D28 JUMP JUMPDEST PUSH1 0x40 MLOAD DUP1 SWAP2 SUB SWAP1 RETURN JUMPDEST CALLVALUE DUP1 ISZERO PUSH2 0x2C0 JUMPI PUSH0 PUSH0 REVERT JUMPDEST POP PUSH2 0x2DB PUSH1 0x4 DUP1 CALLDATASIZE SUB DUP2 ADD SWAP1 PUSH2 0x2D6 SWAP2 SWAP1 PUSH2 0x31CD JUMP JUMPDEST PUSH2 0x1556 JUMP JUMPDEST STOP JUMPDEST PUSH32 0x0 PUSH20 0xFFFFFFFFFFFFFFFFFFFFFFFFFFFFFFFFFFFFFFFF AND CALLER PUSH20 0xFFFFFFFFFFFFFFFFFFFFFFFFFFFFFFFFFFFFFFFF AND EQ PUSH2 0x362 JUMPI PUSH1 0x40 MLOAD PUSH32 0xC6829F8300000000000000000000000000000000000000000000000000000000 DUP2 MSTORE PUSH1 0x4 ADD PUSH1 0x40 MLOAD DUP1 SWAP2 SUB SWAP1 REVERT JUMPDEST PUSH2 0x36D DUP4 DUP4 DUP4 PUSH2 0x1872 JUMP JUMPDEST DUP3 PUSH32 0x85E1543BF2F84FE80C6BADBCE3648C8539AD1DF4D2B3D822938CA0538BE727E6 PUSH1 0x40 MLOAD PUSH1 0x40 MLOAD DUP1 SWAP2 SUB SWAP1 LOG2 POP POP POP JUMP JUMPDEST CALLER PUSH1 0x5 PUSH0 SWAP1 SLOAD SWAP1 PUSH2 0x100 EXP SWAP1 DIV PUSH20 0xFFFFFFFFFFFFFFFFFFFFFFFFFFFFFFFFFFFFFFFF AND PUSH20 0xFFFFFFFFFFFFFFFFFFFFFFFFFFFFFFFFFFFFFFFF AND DUP2 PUSH20 0xFFFFFFFFFFFFFFFFFFFFFFFFFFFFFFFFFFFFFFFF AND EQ PUSH2 0x42F JUMPI PUSH1 0x40 MLOAD PUSH32 0x8C379A000000000000000000000000000000000000000000000000000000000 DUP2 MSTORE PUSH1 0x4 ADD PUSH2 0x426 SWAP1 PUSH2 0x32DB JUMP JUMPDEST PUSH1 0x40 MLOAD DUP1 SWAP2 SUB SWAP1 REVERT JUMPDEST DUP2 PUSH1 0x1 ISZERO ISZERO PUSH1 0x6 PUSH0 DUP4 PUSH20 0xFFFFFFFFFFFFFFFFFFFFFFFFFFFFFFFFFFFFFFFF AND PUSH20 0xFFFFFFFFFFFFFFFFFFFFFFFFFFFFFFFFFFFFFFFF AND DUP2 MSTORE PUSH1 0x20 ADD SWAP1 DUP2 MSTORE PUSH1 0x20 ADD PUSH0 KECCAK256 PUSH0 SWAP1 SLOAD SWAP1 PUSH2 0x100 EXP SWAP1 DIV PUSH1 0xFF AND ISZERO ISZERO EQ PUSH2 0x4C0 JUMPI PUSH1 0x40 MLOAD PUSH32 0x8C379A000000000000000000000000000000000000000000000000000000000 DUP2 MSTORE PUSH1 0x4 ADD PUSH2 0x4B7 SWAP1 PUSH2 0x3343 JUMP JUMPDEST PUSH1 0x40 MLOAD DUP1 SWAP2 SUB SWAP1 REVERT JUMPDEST PUSH0 PUSH1 0x6 PUSH0 DUP6 PUSH20 0xFFFFFFFFFFFFFFFFFFFFFFFFFFFFFFFFFFFFFFFF AND PUSH20 0xFFFFFFFFFFFFFFFFFFFFFFFFFFFFFFFFFFFFFFFF AND DUP2 MSTORE PUSH1 0x20 ADD SWAP1 DUP2 MSTORE PUSH1 0x20 ADD PUSH0 KECCAK256 PUSH0 PUSH2 0x100 EXP DUP2 SLOAD DUP2 PUSH1 0xFF MUL NOT AND SWAP1 DUP4 ISZERO ISZERO MUL OR SWAP1 SSTORE POP POP POP POP JUMP JUMPDEST PUSH2 0x521 PUSH2 0x196F JUMP JUMPDEST PUSH0 PUSH1 0x2 PUSH0 DUP5 DUP2 MSTORE PUSH1 0x20 ADD SWAP1 DUP2 MSTORE PUSH1 0x20 ADD PUSH0 KECCAK256 SWAP1 POP PUSH0 DUP2 PUSH1 0x4 ADD DUP4 DUP2 SLOAD DUP2 LT PUSH2 0x54C JUMPI PUSH2 0x54B PUSH2 0x3361 JUMP JUMPDEST JUMPDEST SWAP1 PUSH0 MSTORE PUSH1 0x20 PUSH0 KECCAK256 SWAP1 PUSH1 0x4 MUL ADD SWAP1 POP PUSH1 0x4 PUSH1 0x5 DUP2 GT ISZERO PUSH2 0x56E JUMPI PUSH2 0x56D PUSH2 0x2DA1 JUMP JUMPDEST JUMPDEST DUP3 PUSH1 0x2 ADD PUSH0 SWAP1 SLOAD SWAP1 PUSH2 0x100 EXP SWAP1 DIV PUSH1 0xFF AND PUSH1 0x5 DUP2 GT ISZERO PUSH2 0x591 JUMPI PUSH2 0x590 PUSH2 0x2DA1 JUMP JUMPDEST JUMPDEST EQ PUSH2 0x5D1 JUMPI PUSH1 0x40 MLOAD PUSH32 0x8C379A000000000000000000000000000000000000000000000000000000000 DUP2 MSTORE PUSH1 0x4 ADD PUSH2 0x5C8 SWAP1 PUSH2 0x33D8 JUMP JUMPDEST PUSH1 0x40 MLOAD DUP1 SWAP2 SUB SWAP1 REVERT JUMPDEST CALLER PUSH20 0xFFFFFFFFFFFFFFFFFFFFFFFFFFFFFFFFFFFFFFFF AND DUP2 PUSH0 ADD PUSH0 SWAP1 SLOAD SWAP1 PUSH2 0x100 EXP SWAP1 DIV PUSH20 0xFFFFFFFFFFFFFFFFFFFFFFFFFFFFFFFFFFFFFFFF AND PUSH20 0xFFFFFFFFFFFFFFFFFFFFFFFFFFFFFFFFFFFFFFFF AND EQ PUSH2 0x661 JUMPI PUSH1 0x40 MLOAD PUSH32 0x8C379A000000000000000000000000000000000000000000000000000000000 DUP2 MSTORE PUSH1 0x4 ADD PUSH2 0x658 SWAP1 PUSH2 0x3440 JUMP JUMPDEST PUSH1 0x40 MLOAD DUP1 SWAP2 SUB SWAP1 REVERT JUMPDEST DUP1 PUSH1 0x3 ADD PUSH1 0x1 SWAP1 SLOAD SWAP1 PUSH2 0x100 EXP SWAP1 DIV PUSH1 0xFF AND ISZERO PUSH2 0x6B3 JUMPI PUSH1 0x40 MLOAD PUSH32 0x8C379A000000000000000000000000000000000000000000000000000000000 DUP2 MSTORE PUSH1 0x4 ADD PUSH2 0x6AA SWAP1 PUSH2 0x34A8 JUMP JUMPDEST PUSH1 0x40 MLOAD DUP1 SWAP2 SUB SWAP1 REVERT JUMPDEST DUP2 PUSH1 0x8 ADD PUSH0 SWAP1 SLOAD SWAP1 PUSH2 0x100 EXP SWAP1 DIV PUSH1 0xFF AND PUSH1 0xFF AND DUP2 PUSH1 0x3 ADD PUSH0 SWAP1 SLOAD SWAP1 PUSH2 0x100 EXP SWAP1 DIV PUSH1 0xFF AND PUSH1 0xFF AND EQ PUSH2 0x71B JUMPI PUSH1 0x40 MLOAD PUSH32 0x8C379A000000000000000000000000000000000000000000000000000000000 DUP2 MSTORE PUSH1 0x4 ADD PUSH2 0x712 SWAP1 PUSH2 0x3510 JUMP JUMPDEST PUSH1 0x40 MLOAD DUP1 SWAP2 SUB SWAP1 REVERT JUMPDEST PUSH0 PUSH1 0x1 PUSH0 DUP7 DUP2 MSTORE PUSH1 0x20 ADD SWAP1 DUP2 MSTORE PUSH1 0x20 ADD PUSH0 KECCAK256 SLOAD SWAP1 POP PUSH0 DUP4 PUSH1 0x3 ADD DUP5 PUSH1 0x8 ADD PUSH0 SWAP1 SLOAD SWAP1 PUSH2 0x100 EXP SWAP1 DIV PUSH1 0xFF AND PUSH1 0xFF AND DUP2 SLOAD DUP2 LT PUSH2 0x75A JUMPI PUSH2 0x759 PUSH2 0x3361 JUMP JUMPDEST JUMPDEST SWAP1 PUSH0 MSTORE PUSH1 0x20 PUSH0 KECCAK256 ADD SLOAD SWAP1 POP PUSH0 DUP3 DUP3 DUP6 PUSH1 0x2 ADD SLOAD PUSH2 0x777 SWAP2 SWAP1 PUSH2 0x3588 JUMP JUMPDEST PUSH2 0x781 SWAP2 SWAP1 PUSH2 0x35B8 JUMP JUMPDEST SWAP1 POP PUSH0 DUP5 PUSH0 ADD PUSH0 SWAP1 SLOAD SWAP1 PUSH2 0x100 EXP SWAP1 DIV PUSH20 0xFFFFFFFFFFFFFFFFFFFFFFFFFFFFFFFFFFFFFFFF AND PUSH20 0xFFFFFFFFFFFFFFFFFFFFFFFFFFFFFFFFFFFFFFFF AND DUP3 PUSH1 0x40 MLOAD PUSH2 0x7CA SWAP1 PUSH2 0x3626 JUMP JUMPDEST PUSH0 PUSH1 0x40 MLOAD DUP1 DUP4 SUB DUP2 DUP6 DUP8 GAS CALL SWAP3 POP POP POP RETURNDATASIZE DUP1 PUSH0 DUP2 EQ PUSH2 0x804 JUMPI PUSH1 0x40 MLOAD SWAP2 POP PUSH1 0x1F NOT PUSH1 0x3F RETURNDATASIZE ADD AND DUP3 ADD PUSH1 0x40 MSTORE RETURNDATASIZE DUP3 MSTORE RETURNDATASIZE PUSH0 PUSH1 0x20 DUP5 ADD RETURNDATACOPY PUSH2 0x809 JUMP JUMPDEST PUSH1 0x60 SWAP2 POP JUMPDEST POP POP DUP1 SWAP2 POP POP DUP1 PUSH2 0x84F JUMPI PUSH1 0x40 MLOAD PUSH32 0x8C379A000000000000000000000000000000000000000000000000000000000 DUP2 MSTORE PUSH1 0x4 ADD PUSH2 0x846 SWAP1 PUSH2 0x3684 JUMP JUMPDEST PUSH1 0x40 MLOAD DUP1 SWAP2 SUB SWAP1 REVERT JUMPDEST PUSH1 0x1 DUP6 PUSH1 0x3 ADD PUSH1 0x1 PUSH2 0x100 EXP DUP2 SLOAD DUP2 PUSH1 0xFF MUL NOT AND SWAP1 DUP4 ISZERO ISZERO MUL OR SWAP1 SSTORE POP POP POP POP POP POP POP PUSH2 0x87A PUSH2 0x19BC JUMP JUMPDEST POP POP JUMP JUMPDEST PUSH0 PUSH1 0x2 PUSH0 DUP5 DUP2 MSTORE PUSH1 0x20 ADD SWAP1 DUP2 MSTORE PUSH1 0x20 ADD PUSH0 KECCAK256 SWAP1 POP PUSH1 0x1 PUSH1 0x5 DUP2 GT ISZERO PUSH2 0x8A6 JUMPI PUSH2 0x8A5 PUSH2 0x2DA1 JUMP JUMPDEST JUMPDEST DUP2 PUSH1 0x2 ADD PUSH0 SWAP1 SLOAD SWAP1 PUSH2 0x100 EXP SWAP1 DIV PUSH1 0xFF AND PUSH1 0x5 DUP2 GT ISZERO PUSH2 0x8C9 JUMPI PUSH2 0x8C8 PUSH2 0x2DA1 JUMP JUMPDEST JUMPDEST EQ PUSH2 0x909 JUMPI PUSH1 0x40 MLOAD PUSH32 0x8C379A000000000000000000000000000000000000000000000000000000000 DUP2 MSTORE PUSH1 0x4 ADD PUSH2 0x900 SWAP1 PUSH2 0x36EC JUMP JUMPDEST PUSH1 0x40 MLOAD DUP1 SWAP2 SUB SWAP1 REVERT JUMPDEST DUP1 PUSH1 0x2 ADD PUSH1 0x7 SWAP1 SLOAD SWAP1 PUSH2 0x100 EXP SWAP1 DIV PUSH6 0xFFFFFFFFFFFF AND PUSH6 0xFFFFFFFFFFFF AND TIMESTAMP LT PUSH2 0x969 JUMPI PUSH1 0x40 MLOAD PUSH32 0x8C379A000000000000000000000000000000000000000000000000000000000 DUP2 MSTORE PUSH1 0x4 ADD PUSH2 0x960 SWAP1 PUSH2 0x3754 JUMP JUMPDEST PUSH1 0x40 MLOAD DUP1 SWAP2 SUB SWAP1 REVERT JUMPDEST PUSH0 CALLVALUE GT PUSH2 0x9AB JUMPI PUSH1 0x40 MLOAD PUSH32 0x8C379A000000000000000000000000000000000000000000000000000000000 DUP2 MSTORE PUSH1 0x4 ADD PUSH2 0x9A2 SWAP1 PUSH2 0x37BC JUMP JUMPDEST PUSH1 0x40 MLOAD DUP1 SWAP2 SUB SWAP1 REVERT JUMPDEST DUP1 PUSH1 0x4 ADD PUSH1 0x40 MLOAD DUP1 PUSH1 0xA0 ADD PUSH1 0x40 MSTORE DUP1 CALLER PUSH20 0xFFFFFFFFFFFFFFFFFFFFFFFFFFFFFFFFFFFFFFFF AND DUP2 MSTORE PUSH1 0x20 ADD DUP5 DUP2 MSTORE PUSH1 0x20 ADD CALLVALUE DUP2 MSTORE PUSH1 0x20 ADD PUSH0 PUSH1 0xFF AND DUP2 MSTORE PUSH1 0x20 ADD PUSH0 ISZERO ISZERO DUP2 MSTORE POP SWAP1 DUP1 PUSH1 0x1 DUP2 SLOAD ADD DUP1 DUP3 SSTORE DUP1 SWAP2 POP POP PUSH1 0x1 SWAP1 SUB SWAP1 PUSH0 MSTORE PUSH1 0x20 PUSH0 KECCAK256 SWAP1 PUSH1 0x4 MUL ADD PUSH0 SWAP1 SWAP2 SWAP1 SWAP2 SWAP1 SWAP2 POP PUSH0 DUP3 ADD MLOAD DUP2 PUSH0 ADD PUSH0 PUSH2 0x100 EXP DUP2 SLOAD DUP2 PUSH20 0xFFFFFFFFFFFFFFFFFFFFFFFFFFFFFFFFFFFFFFFF MUL NOT AND SWAP1 DUP4 PUSH20 0xFFFFFFFFFFFFFFFFFFFFFFFFFFFFFFFFFFFFFFFF AND MUL OR SWAP1 SSTORE POP PUSH1 0x20 DUP3 ADD MLOAD DUP2 PUSH1 0x1 ADD SWAP1 DUP2 PUSH2 0xA70 SWAP2 SWAP1 PUSH2 0x39E8 JUMP JUMPDEST POP PUSH1 0x40 DUP3 ADD MLOAD DUP2 PUSH1 0x2 ADD SSTORE PUSH1 0x60 DUP3 ADD MLOAD DUP2 PUSH1 0x3 ADD PUSH0 PUSH2 0x100 EXP DUP2 SLOAD DUP2 PUSH1 0xFF MUL NOT AND SWAP1 DUP4 PUSH1 0xFF AND MUL OR SWAP1 SSTORE POP PUSH1 0x80 DUP3 ADD MLOAD DUP2 PUSH1 0x3 ADD PUSH1 0x1 PUSH2 0x100 EXP DUP2 SLOAD DUP2 PUSH1 0xFF MUL NOT AND SWAP1 DUP4 ISZERO ISZERO MUL OR SWAP1 SSTORE POP POP POP POP POP POP JUMP JUMPDEST PUSH0 PUSH0 PUSH1 0x2 PUSH0 DUP5 DUP2 MSTORE PUSH1 0x20 ADD SWAP1 DUP2 MSTORE PUSH1 0x20 ADD PUSH0 KECCAK256 SWAP1 POP PUSH1 0x1 PUSH1 0x5 DUP2 GT ISZERO PUSH2 0xAEB JUMPI PUSH2 0xAEA PUSH2 0x2DA1 JUMP JUMPDEST JUMPDEST DUP2 PUSH1 0x2 ADD PUSH0 SWAP1 SLOAD SWAP1 PUSH2 0x100 EXP SWAP1 DIV PUSH1 0xFF AND PUSH1 0x5 DUP2 GT ISZERO PUSH2 0xB0E JUMPI PUSH2 0xB0D PUSH2 0x2DA1 JUMP JUMPDEST JUMPDEST EQ DUP1 PUSH2 0xB4E JUMPI POP PUSH1 0x2 PUSH1 0x5 DUP2 GT ISZERO PUSH2 0xB29 JUMPI PUSH2 0xB28 PUSH2 0x2DA1 JUMP JUMPDEST JUMPDEST DUP2 PUSH1 0x2 ADD PUSH0 SWAP1 SLOAD SWAP1 PUSH2 0x100 EXP SWAP1 DIV PUSH1 0xFF AND PUSH1 0x5 DUP2 GT ISZERO PUSH2 0xB4C JUMPI PUSH2 0xB4B PUSH2 0x2DA1 JUMP JUMPDEST JUMPDEST EQ JUMPDEST PUSH2 0xB8D JUMPI PUSH1 0x40 MLOAD PUSH32 0x8C379A000000000000000000000000000000000000000000000000000000000 DUP2 MSTORE PUSH1 0x4 ADD PUSH2 0xB84 SWAP1 PUSH2 0x3B01 JUMP JUMPDEST PUSH1 0x40 MLOAD DUP1 SWAP2 SUB SWAP1 REVERT JUMPDEST DUP1 PUSH1 0x2 ADD PUSH1 0x7 SWAP1 SLOAD SWAP1 PUSH2 0x100 EXP SWAP1 DIV PUSH6 0xFFFFFFFFFFFF AND PUSH6 0xFFFFFFFFFFFF AND TIMESTAMP LT ISZERO PUSH2 0xBEE JUMPI PUSH1 0x40 MLOAD PUSH32 0x8C379A000000000000000000000000000000000000000000000000000000000 DUP2 MSTORE PUSH1 0x4 ADD PUSH2 0xBE5 SWAP1 PUSH2 0x3B69 JUMP JUMPDEST PUSH1 0x40 MLOAD DUP1 SWAP2 SUB SWAP1 REVERT JUMPDEST DUP1 PUSH1 0x2 ADD PUSH1 0x13 SWAP1 SLOAD SWAP1 PUSH2 0x100 EXP SWAP1 DIV PUSH6 0xFFFFFFFFFFFF AND PUSH6 0xFFFFFFFFFFFF AND TIMESTAMP GT ISZERO PUSH2 0xC4F JUMPI PUSH1 0x40 MLOAD PUSH32 0x8C379A000000000000000000000000000000000000000000000000000000000 DUP2 MSTORE PUSH1 0x4 ADD PUSH2 0xC46 SWAP1 PUSH2 0x3BD1 JUMP JUMPDEST PUSH1 0x40 MLOAD DUP1 SWAP2 SUB SWAP1 REVERT JUMPDEST PUSH1 0x3 DUP2 PUSH1 0x2 ADD PUSH0 PUSH2 0x100 EXP DUP2 SLOAD DUP2 PUSH1 0xFF MUL NOT AND SWAP1 DUP4 PUSH1 0x5 DUP2 GT ISZERO PUSH2 0xC76 JUMPI PUSH2 0xC75 PUSH2 0x2DA1 JUMP JUMPDEST JUMPDEST MUL OR SWAP1 SSTORE POP PUSH0 PUSH1 0x2 PUSH8 0xFFFFFFFFFFFFFFFF DUP2 GT ISZERO PUSH2 0xC97 JUMPI PUSH2 0xC96 PUSH2 0x29A2 JUMP JUMPDEST JUMPDEST PUSH1 0x40 MLOAD SWAP1 DUP1 DUP3 MSTORE DUP1 PUSH1 0x20 MUL PUSH1 0x20 ADD DUP3 ADD PUSH1 0x40 MSTORE DUP1 ISZERO PUSH2 0xCCA JUMPI DUP2 PUSH1 0x20 ADD JUMPDEST PUSH1 0x60 DUP2 MSTORE PUSH1 0x20 ADD SWAP1 PUSH1 0x1 SWAP1 SUB SWAP1 DUP2 PUSH2 0xCB5 JUMPI SWAP1 POP JUMPDEST POP SWAP1 POP PUSH2 0xCD6 DUP5 PUSH2 0x19C5 JUMP JUMPDEST DUP2 PUSH0 DUP2 MLOAD DUP2 LT PUSH2 0xCE9 JUMPI PUSH2 0xCE8 PUSH2 0x3361 JUMP JUMPDEST JUMPDEST PUSH1 0x20 MUL PUSH1 0x20 ADD ADD DUP2 SWAP1 MSTORE POP DUP2 PUSH1 0x1 ADD DUP1 SLOAD PUSH2 0xD03 SWAP1 PUSH2 0x3807 JUMP JUMPDEST DUP1 PUSH1 0x1F ADD PUSH1 0x20 DUP1 SWAP2 DIV MUL PUSH1 0x20 ADD PUSH1 0x40 MLOAD SWAP1 DUP2 ADD PUSH1 0x40 MSTORE DUP1 SWAP3 SWAP2 SWAP1 DUP2 DUP2 MSTORE PUSH1 0x20 ADD DUP3 DUP1 SLOAD PUSH2 0xD2F SWAP1 PUSH2 0x3807 JUMP JUMPDEST DUP1 ISZERO PUSH2 0xD7A JUMPI DUP1 PUSH1 0x1F LT PUSH2 0xD51 JUMPI PUSH2 0x100 DUP1 DUP4 SLOAD DIV MUL DUP4 MSTORE SWAP2 PUSH1 0x20 ADD SWAP2 PUSH2 0xD7A JUMP JUMPDEST DUP3 ADD SWAP2 SWAP1 PUSH0 MSTORE PUSH1 0x20 PUSH0 KECCAK256 SWAP1 JUMPDEST DUP2 SLOAD DUP2 MSTORE SWAP1 PUSH1 0x1 ADD SWAP1 PUSH1 0x20 ADD DUP1 DUP4 GT PUSH2 0xD5D JUMPI DUP3 SWAP1 SUB PUSH1 0x1F AND DUP3 ADD SWAP2 JUMPDEST POP POP POP POP POP DUP2 PUSH1 0x1 DUP2 MLOAD DUP2 LT PUSH2 0xD93 JUMPI PUSH2 0xD92 PUSH2 0x3361 JUMP JUMPDEST JUMPDEST PUSH1 0x20 MUL PUSH1 0x20 ADD ADD DUP2 SWAP1 MSTORE POP PUSH2 0xDA6 PUSH2 0x289F JUMP JUMPDEST PUSH2 0xE43 DUP4 PUSH1 0x6 ADD DUP1 SLOAD PUSH2 0xDB8 SWAP1 PUSH2 0x3807 JUMP JUMPDEST DUP1 PUSH1 0x1F ADD PUSH1 0x20 DUP1 SWAP2 DIV MUL PUSH1 0x20 ADD PUSH1 0x40 MLOAD SWAP1 DUP2 ADD PUSH1 0x40 MSTORE DUP1 SWAP3 SWAP2 SWAP1 DUP2 DUP2 MSTORE PUSH1 0x20 ADD DUP3 DUP1 SLOAD PUSH2 0xDE4 SWAP1 PUSH2 0x3807 JUMP JUMPDEST DUP1 ISZERO PUSH2 0xE2F JUMPI DUP1 PUSH1 0x1F LT PUSH2 0xE06 JUMPI PUSH2 0x100 DUP1 DUP4 SLOAD DIV MUL DUP4 MSTORE SWAP2 PUSH1 0x20 ADD SWAP2 PUSH2 0xE2F JUMP JUMPDEST DUP3 ADD SWAP2 SWAP1 PUSH0 MSTORE PUSH1 0x20 PUSH0 KECCAK256 SWAP1 JUMPDEST DUP2 SLOAD DUP2 MSTORE SWAP1 PUSH1 0x1 ADD SWAP1 PUSH1 0x20 ADD DUP1 DUP4 GT PUSH2 0xE12 JUMPI DUP3 SWAP1 SUB PUSH1 0x1F AND DUP3 ADD SWAP2 JUMPDEST POP POP POP POP POP DUP3 PUSH2 0x1A8F SWAP1 SWAP2 SWAP1 PUSH4 0xFFFFFFFF AND JUMP JUMPDEST PUSH2 0xE56 DUP3 DUP3 PUSH2 0x1A9F SWAP1 SWAP2 SWAP1 PUSH4 0xFFFFFFFF AND JUMP JUMPDEST PUSH2 0xEF3 DUP4 PUSH1 0x7 ADD DUP1 SLOAD PUSH2 0xE68 SWAP1 PUSH2 0x3807 JUMP JUMPDEST DUP1 PUSH1 0x1F ADD PUSH1 0x20 DUP1 SWAP2 DIV MUL PUSH1 0x20 ADD PUSH1 0x40 MLOAD SWAP1 DUP2 ADD PUSH1 0x40 MSTORE DUP1 SWAP3 SWAP2 SWAP1 DUP2 DUP2 MSTORE PUSH1 0x20 ADD DUP3 DUP1 SLOAD PUSH2 0xE94 SWAP1 PUSH2 0x3807 JUMP JUMPDEST DUP1 ISZERO PUSH2 0xEDF JUMPI DUP1 PUSH1 0x1F LT PUSH2 0xEB6 JUMPI PUSH2 0x100 DUP1 DUP4 SLOAD DIV MUL DUP4 MSTORE SWAP2 PUSH1 0x20 ADD SWAP2 PUSH2 0xEDF JUMP JUMPDEST DUP3 ADD SWAP2 SWAP1 PUSH0 MSTORE PUSH1 0x20 PUSH0 KECCAK256 SWAP1 JUMPDEST DUP2 SLOAD DUP2 MSTORE SWAP1 PUSH1 0x1 ADD SWAP1 PUSH1 0x20 ADD DUP1 DUP4 GT PUSH2 0xEC2 JUMPI DUP3 SWAP1 SUB PUSH1 0x1F AND DUP3 ADD SWAP2 JUMPDEST POP POP POP POP POP DUP3 PUSH2 0x1AE6 SWAP1 SWAP2 SWAP1 PUSH4 0xFFFFFFFF AND JUMP JUMPDEST PUSH0 PUSH2 0xF21 PUSH2 0xF00 DUP4 PUSH2 0x1B5E JUMP JUMPDEST PUSH1 0x4 PUSH1 0x14 SWAP1 SLOAD SWAP1 PUSH2 0x100 EXP SWAP1 DIV PUSH8 0xFFFFFFFFFFFFFFFF AND PUSH3 0x493E0 PUSH0 PUSH2 0x1F69 JUMP JUMPDEST SWAP1 POP DUP1 DUP5 PUSH1 0x5 ADD DUP2 SWAP1 SSTORE POP DUP1 SWAP5 POP POP POP POP POP SWAP2 SWAP1 POP JUMP JUMPDEST CALLER PUSH1 0x5 PUSH0 SWAP1 SLOAD SWAP1 PUSH2 0x100 EXP SWAP1 DIV PUSH20 0xFFFFFFFFFFFFFFFFFFFFFFFFFFFFFFFFFFFFFFFF AND PUSH20 0xFFFFFFFFFFFFFFFFFFFFFFFFFFFFFFFFFFFFFFFF AND DUP2 PUSH20 0xFFFFFFFFFFFFFFFFFFFFFFFFFFFFFFFFFFFFFFFF AND EQ PUSH2 0xFC8 JUMPI PUSH1 0x40 MLOAD PUSH32 0x8C379A000000000000000000000000000000000000000000000000000000000 DUP2 MSTORE PUSH1 0x4 ADD PUSH2 0xFBF SWAP1 PUSH2 0x32DB JUMP JUMPDEST PUSH1 0x40 MLOAD DUP1 SWAP2 SUB SWAP1 REVERT JUMPDEST PUSH1 0x1 PUSH1 0x6 PUSH0 DUP5 PUSH20 0xFFFFFFFFFFFFFFFFFFFFFFFFFFFFFFFFFFFFFFFF AND PUSH20 0xFFFFFFFFFFFFFFFFFFFFFFFFFFFFFFFFFFFFFFFF AND DUP2 MSTORE PUSH1 0x20 ADD SWAP1 DUP2 MSTORE PUSH1 0x20 ADD PUSH0 KECCAK256 PUSH0 PUSH2 0x100 EXP DUP2 SLOAD DUP2 PUSH1 0xFF MUL NOT AND SWAP1 DUP4 ISZERO ISZERO MUL OR SWAP1 SSTORE POP POP POP JUMP JUMPDEST PUSH1 0x5 PUSH0 SWAP1 SLOAD SWAP1 PUSH2 0x100 EXP SWAP1 DIV PUSH20 0xFFFFFFFFFFFFFFFFFFFFFFFFFFFFFFFFFFFFFFFF AND DUP2 JUMP JUMPDEST PUSH1 0x3 SLOAD DUP2 JUMP JUMPDEST PUSH1 0x1 PUSH1 0x20 MSTORE DUP1 PUSH0 MSTORE PUSH1 0x40 PUSH0 KECCAK256 PUSH0 SWAP2 POP SWAP1 POP SLOAD DUP2 JUMP JUMPDEST PUSH1 0x2 PUSH1 0x20 MSTORE DUP1 PUSH0 MSTORE PUSH1 0x40 PUSH0 KECCAK256 PUSH0 SWAP2 POP SWAP1 POP DUP1 PUSH0 ADD SLOAD SWAP1 DUP1 PUSH1 0x1 ADD DUP1 SLOAD PUSH2 0x1086 SWAP1 PUSH2 0x3807 JUMP JUMPDEST DUP1 PUSH1 0x1F ADD PUSH1 0x20 DUP1 SWAP2 DIV MUL PUSH1 0x20 ADD PUSH1 0x40 MLOAD SWAP1 DUP2 ADD PUSH1 0x40 MSTORE DUP1 SWAP3 SWAP2 SWAP1 DUP2 DUP2 MSTORE PUSH1 0x20 ADD DUP3 DUP1 SLOAD PUSH2 0x10B2 SWAP1 PUSH2 0x3807 JUMP JUMPDEST DUP1 ISZERO PUSH2 0x10FD JUMPI DUP1 PUSH1 0x1F LT PUSH2 0x10D4 JUMPI PUSH2 0x100 DUP1 DUP4 SLOAD DIV MUL DUP4 MSTORE SWAP2 PUSH1 0x20 ADD SWAP2 PUSH2 0x10FD JUMP JUMPDEST DUP3 ADD SWAP2 SWAP1 PUSH0 MSTORE PUSH1 0x20 PUSH0 KECCAK256 SWAP1 JUMPDEST DUP2 SLOAD DUP2 MSTORE SWAP1 PUSH1 0x1 ADD SWAP1 PUSH1 0x20 ADD DUP1 DUP4 GT PUSH2 0x10E0 JUMPI DUP3 SWAP1 SUB PUSH1 0x1F AND DUP3 ADD SWAP2 JUMPDEST POP POP POP POP POP SWAP1 DUP1 PUSH1 0x2 ADD PUSH0 SWAP1 SLOAD SWAP1 PUSH2 0x100 EXP SWAP1 DIV PUSH1 0xFF AND SWAP1 DUP1 PUSH1 0x2 ADD PUSH1 0x1 SWAP1 SLOAD SWAP1 PUSH2 0x100 EXP SWAP1 DIV PUSH6 0xFFFFFFFFFFFF AND SWAP1 DUP1 PUSH1 0x2 ADD PUSH1 0x7 SWAP1 SLOAD SWAP1 PUSH2 0x100 EXP SWAP1 DIV PUSH6 0xFFFFFFFFFFFF AND SWAP1 DUP1 PUSH1 0x2 ADD PUSH1 0xD SWAP1 SLOAD SWAP1 PUSH2 0x100 EXP SWAP1 DIV PUSH6 0xFFFFFFFFFFFF AND SWAP1 DUP1 PUSH1 0x2 ADD PUSH1 0x13 SWAP1 SLOAD SWAP1 PUSH2 0x100 EXP SWAP1 DIV PUSH6 0xFFFFFFFFFFFF AND SWAP1 DUP1 PUSH1 0x5 ADD SLOAD SWAP1 DUP1 PUSH1 0x6 ADD DUP1 SLOAD PUSH2 0x118A SWAP1 PUSH2 0x3807 JUMP JUMPDEST DUP1 PUSH1 0x1F ADD PUSH1 0x20 DUP1 SWAP2 DIV MUL PUSH1 0x20 ADD PUSH1 0x40 MLOAD SWAP1 DUP2 ADD PUSH1 0x40 MSTORE DUP1 SWAP3 SWAP2 SWAP1 DUP2 DUP2 MSTORE PUSH1 0x20 ADD DUP3 DUP1 SLOAD PUSH2 0x11B6 SWAP1 PUSH2 0x3807 JUMP JUMPDEST DUP1 ISZERO PUSH2 0x1201 JUMPI DUP1 PUSH1 0x1F LT PUSH2 0x11D8 JUMPI PUSH2 0x100 DUP1 DUP4 SLOAD DIV MUL DUP4 MSTORE SWAP2 PUSH1 0x20 ADD SWAP2 PUSH2 0x1201 JUMP JUMPDEST DUP3 ADD SWAP2 SWAP1 PUSH0 MSTORE PUSH1 0x20 PUSH0 KECCAK256 SWAP1 JUMPDEST DUP2 SLOAD DUP2 MSTORE SWAP1 PUSH1 0x1 ADD SWAP1 PUSH1 0x20 ADD DUP1 DUP4 GT PUSH2 0x11E4 JUMPI DUP3 SWAP1 SUB PUSH1 0x1F AND DUP3 ADD SWAP2 JUMPDEST POP POP POP POP POP SWAP1 DUP1 PUSH1 0x7 ADD DUP1 SLOAD PUSH2 0x1216 SWAP1 PUSH2 0x3807 JUMP JUMPDEST DUP1 PUSH1 0x1F ADD PUSH1 0x20 DUP1 SWAP2 DIV MUL PUSH1 0x20 ADD PUSH1 0x40 MLOAD SWAP1 DUP2 ADD PUSH1 0x40 MSTORE DUP1 SWAP3 SWAP2 SWAP1 DUP2 DUP2 MSTORE PUSH1 0x20 ADD DUP3 DUP1 SLOAD PUSH2 0x1242 SWAP1 PUSH2 0x3807 JUMP JUMPDEST DUP1 ISZERO PUSH2 0x128D JUMPI DUP1 PUSH1 0x1F LT PUSH2 0x1264 JUMPI PUSH2 0x100 DUP1 DUP4 SLOAD DIV MUL DUP4 MSTORE SWAP2 PUSH1 0x20 ADD SWAP2 PUSH2 0x128D JUMP JUMPDEST DUP3 ADD SWAP2 SWAP1 PUSH0 MSTORE PUSH1 0x20 PUSH0 KECCAK256 SWAP1 JUMPDEST DUP2 SLOAD DUP2 MSTORE SWAP1 PUSH1 0x1 ADD SWAP1 PUSH1 0x20 ADD DUP1 DUP4 GT PUSH2 0x1270 JUMPI DUP3 SWAP1 SUB PUSH1 0x1F AND DUP3 ADD SWAP2 JUMPDEST POP POP POP POP POP SWAP1 DUP1 PUSH1 0x8 ADD PUSH0 SWAP1 SLOAD SWAP1 PUSH2 0x100 EXP SWAP1 DIV PUSH1 0xFF AND SWAP1 DUP1 PUSH1 0x8 ADD PUSH1 0x1 SWAP1 SLOAD SWAP1 PUSH2 0x100 EXP SWAP1 DIV PUSH1 0xFF AND SWAP1 POP DUP13 JUMP JUMPDEST PUSH0 CALLER PUSH1 0x1 ISZERO ISZERO PUSH1 0x6 PUSH0 DUP4 PUSH20 0xFFFFFFFFFFFFFFFFFFFFFFFFFFFFFFFFFFFFFFFF AND PUSH20 0xFFFFFFFFFFFFFFFFFFFFFFFFFFFFFFFFFFFFFFFF AND DUP2 MSTORE PUSH1 0x20 ADD SWAP1 DUP2 MSTORE PUSH1 0x20 ADD PUSH0 KECCAK256 PUSH0 SWAP1 SLOAD SWAP1 PUSH2 0x100 EXP SWAP1 DIV PUSH1 0xFF AND ISZERO ISZERO EQ PUSH2 0x134E JUMPI PUSH1 0x40 MLOAD PUSH32 0x8C379A000000000000000000000000000000000000000000000000000000000 DUP2 MSTORE PUSH1 0x4 ADD PUSH2 0x1345 SWAP1 PUSH2 0x3343 JUMP JUMPDEST PUSH1 0x40 MLOAD DUP1 SWAP2 SUB SWAP1 REVERT JUMPDEST DUP6 PUSH6 0xFFFFFFFFFFFF AND TIMESTAMP LT PUSH2 0x1398 JUMPI PUSH1 0x40 MLOAD PUSH32 0x8C379A000000000000000000000000000000000000000000000000000000000 DUP2 MSTORE PUSH1 0x4 ADD PUSH2 0x138F SWAP1 PUSH2 0x3C5F JUMP JUMPDEST PUSH1 0x40 MLOAD DUP1 SWAP2 SUB SWAP1 REVERT JUMPDEST PUSH0 DUP6 PUSH6 0xFFFFFFFFFFFF AND GT PUSH2 0x13E2 JUMPI PUSH1 0x40 MLOAD PUSH32 0x8C379A000000000000000000000000000000000000000000000000000000000 DUP2 MSTORE PUSH1 0x4 ADD PUSH2 0x13D9 SWAP1 PUSH2 0x3CC7 JUMP JUMPDEST PUSH1 0x40 MLOAD DUP1 SWAP2 SUB SWAP1 REVERT JUMPDEST PUSH1 0x3 PUSH0 DUP2 SLOAD DUP1 SWAP3 SWAP2 SWAP1 PUSH2 0x13F4 SWAP1 PUSH2 0x3CE5 JUMP JUMPDEST SWAP2 SWAP1 POP SSTORE SWAP2 POP PUSH0 PUSH1 0x2 PUSH0 DUP5 DUP2 MSTORE PUSH1 0x20 ADD SWAP1 DUP2 MSTORE PUSH1 0x20 ADD PUSH0 KECCAK256 SWAP1 POP DUP3 DUP2 PUSH0 ADD DUP2 SWAP1 SSTORE POP DUP8 DUP2 PUSH1 0x1 ADD SWAP1 DUP2 PUSH2 0x1427 SWAP2 SWAP1 PUSH2 0x3D91 JUMP JUMPDEST POP PUSH1 0x1 DUP2 PUSH1 0x2 ADD PUSH0 PUSH2 0x100 EXP DUP2 SLOAD DUP2 PUSH1 0xFF MUL NOT AND SWAP1 DUP4 PUSH1 0x5 DUP2 GT ISZERO PUSH2 0x144F JUMPI PUSH2 0x144E PUSH2 0x2DA1 JUMP JUMPDEST JUMPDEST MUL OR SWAP1 SSTORE POP TIMESTAMP DUP2 PUSH1 0x2 ADD PUSH1 0x1 PUSH2 0x100 EXP DUP2 SLOAD DUP2 PUSH6 0xFFFFFFFFFFFF MUL NOT AND SWAP1 DUP4 PUSH6 0xFFFFFFFFFFFF AND MUL OR SWAP1 SSTORE POP DUP7 DUP2 PUSH1 0x2 ADD PUSH1 0x7 PUSH2 0x100 EXP DUP2 SLOAD DUP2 PUSH6 0xFFFFFFFFFFFF MUL NOT AND SWAP1 DUP4 PUSH6 0xFFFFFFFFFFFF AND MUL OR SWAP1 SSTORE POP DUP6 DUP2 PUSH1 0x2 ADD PUSH1 0xD PUSH2 0x100 EXP DUP2 SLOAD DUP2 PUSH6 0xFFFFFFFFFFFF MUL NOT AND SWAP1 DUP4 PUSH6 0xFFFFFFFFFFFF AND MUL OR SWAP1 SSTORE POP DUP1 PUSH1 0x2 ADD PUSH1 0xD SWAP1 SLOAD SWAP1 PUSH2 0x100 EXP SWAP1 DIV PUSH6 0xFFFFFFFFFFFF AND DUP2 PUSH1 0x2 ADD PUSH1 0x7 SWAP1 SLOAD SWAP1 PUSH2 0x100 EXP SWAP1 DIV PUSH6 0xFFFFFFFFFFFF AND PUSH2 0x1501 SWAP2 SWAP1 PUSH2 0x3E60 JUMP JUMPDEST DUP2 PUSH1 0x2 ADD PUSH1 0x13 PUSH2 0x100 EXP DUP2 SLOAD DUP2 PUSH6 0xFFFFFFFFFFFF MUL NOT AND SWAP1 DUP4 PUSH6 0xFFFFFFFFFFFF AND MUL OR SWAP1 SSTORE POP DUP5 DUP2 PUSH1 0x6 ADD SWAP1 DUP2 PUSH2 0x1538 SWAP2 SWAP1 PUSH2 0x3D91 JUMP JUMPDEST POP DUP4 DUP2 PUSH1 0x7 ADD SWAP1 DUP2 PUSH2 0x154A SWAP2 SWAP1 PUSH2 0x39E8 JUMP JUMPDEST POP POP POP SWAP6 SWAP5 POP POP POP POP POP JUMP JUMPDEST CALLER PUSH1 0x1 ISZERO ISZERO PUSH1 0x6 PUSH0 DUP4 PUSH20 0xFFFFFFFFFFFFFFFFFFFFFFFFFFFFFFFFFFFFFFFF AND PUSH20 0xFFFFFFFFFFFFFFFFFFFFFFFFFFFFFFFFFFFFFFFF AND DUP2 MSTORE PUSH1 0x20 ADD SWAP1 DUP2 MSTORE PUSH1 0x20 ADD PUSH0 KECCAK256 PUSH0 SWAP1 SLOAD SWAP1 PUSH2 0x100 EXP SWAP1 DIV PUSH1 0xFF AND ISZERO ISZERO EQ PUSH2 0x15E7 JUMPI PUSH1 0x40 MLOAD PUSH32 0x8C379A000000000000000000000000000000000000000000000000000000000 DUP2 MSTORE PUSH1 0x4 ADD PUSH2 0x15DE SWAP1 PUSH2 0x3343 JUMP JUMPDEST PUSH1 0x40 MLOAD DUP1 SWAP2 SUB SWAP1 REVERT JUMPDEST PUSH0 PUSH1 0x2 PUSH0 DUP11 DUP2 MSTORE PUSH1 0x20 ADD SWAP1 DUP2 MSTORE PUSH1 0x20 ADD PUSH0 KECCAK256 SWAP1 POP PUSH1 0x4 PUSH1 0x5 DUP2 GT ISZERO PUSH2 0x160F JUMPI PUSH2 0x160E PUSH2 0x2DA1 JUMP JUMPDEST JUMPDEST DUP2 PUSH1 0x2 ADD PUSH0 SWAP1 SLOAD SWAP1 PUSH2 0x100 EXP SWAP1 DIV PUSH1 0xFF AND PUSH1 0x5 DUP2 GT ISZERO PUSH2 0x1632 JUMPI PUSH2 0x1631 PUSH2 0x2DA1 JUMP JUMPDEST JUMPDEST EQ PUSH2 0x1672 JUMPI PUSH1 0x40 MLOAD PUSH32 0x8C379A000000000000000000000000000000000000000000000000000000000 DUP2 MSTORE PUSH1 0x4 ADD PUSH2 0x1669 SWAP1 PUSH2 0x3EE3 JUMP JUMPDEST PUSH1 0x40 MLOAD DUP1 SWAP2 SUB SWAP1 REVERT JUMPDEST PUSH0 PUSH0 SWAP1 POP JUMPDEST DUP9 DUP9 SWAP1 POP DUP2 LT ISZERO PUSH2 0x17FF JUMPI PUSH0 DUP3 PUSH1 0x4 ADD DUP11 DUP11 DUP5 DUP2 DUP2 LT PUSH2 0x169A JUMPI PUSH2 0x1699 PUSH2 0x3361 JUMP JUMPDEST JUMPDEST SWAP1 POP PUSH1 0x20 MUL ADD CALLDATALOAD DUP2 SLOAD DUP2 LT PUSH2 0x16B2 JUMPI PUSH2 0x16B1 PUSH2 0x3361 JUMP JUMPDEST JUMPDEST SWAP1 PUSH0 MSTORE PUSH1 0x20 PUSH0 KECCAK256 SWAP1 PUSH1 0x4 MUL ADD SWAP1 POP PUSH0 DUP2 PUSH1 0x3 ADD PUSH0 SWAP1 SLOAD SWAP1 PUSH2 0x100 EXP SWAP1 DIV PUSH1 0xFF AND PUSH1 0xFF AND EQ PUSH2 0x1715 JUMPI PUSH1 0x40 MLOAD PUSH32 0x8C379A000000000000000000000000000000000000000000000000000000000 DUP2 MSTORE PUSH1 0x4 ADD PUSH2 0x170C SWAP1 PUSH2 0x3F4B JUMP JUMPDEST PUSH1 0x40 MLOAD DUP1 SWAP2 SUB SWAP1 REVERT JUMPDEST DUP8 DUP8 DUP4 DUP2 DUP2 LT PUSH2 0x1728 JUMPI PUSH2 0x1727 PUSH2 0x3361 JUMP JUMPDEST JUMPDEST SWAP1 POP PUSH1 0x20 MUL ADD PUSH1 0x20 DUP2 ADD SWAP1 PUSH2 0x173D SWAP2 SWAP1 PUSH2 0x3F93 JUMP JUMPDEST DUP2 PUSH1 0x3 ADD PUSH0 PUSH2 0x100 EXP DUP2 SLOAD DUP2 PUSH1 0xFF MUL NOT AND SWAP1 DUP4 PUSH1 0xFF AND MUL OR SWAP1 SSTORE POP DUP6 DUP6 DUP4 DUP2 DUP2 LT PUSH2 0x176B JUMPI PUSH2 0x176A PUSH2 0x3361 JUMP JUMPDEST JUMPDEST SWAP1 POP PUSH1 0x20 MUL ADD CALLDATALOAD DUP2 PUSH1 0x2 ADD DUP2 SWAP1 SSTORE POP DUP6 DUP6 DUP4 DUP2 DUP2 LT PUSH2 0x178D JUMPI PUSH2 0x178C PUSH2 0x3361 JUMP JUMPDEST JUMPDEST SWAP1 POP PUSH1 0x20 MUL ADD CALLDATALOAD DUP4 PUSH1 0x3 ADD DUP10 DUP10 DUP6 DUP2 DUP2 LT PUSH2 0x17AB JUMPI PUSH2 0x17AA PUSH2 0x3361 JUMP JUMPDEST JUMPDEST SWAP1 POP PUSH1 0x20 MUL ADD PUSH1 0x20 DUP2 ADD SWAP1 PUSH2 0x17C0 SWAP2 SWAP1 PUSH2 0x3F93 JUMP JUMPDEST PUSH1 0xFF AND DUP2 SLOAD DUP2 LT PUSH2 0x17D4 JUMPI PUSH2 0x17D3 PUSH2 0x3361 JUMP JUMPDEST JUMPDEST SWAP1 PUSH0 MSTORE PUSH1 0x20 PUSH0 KECCAK256 ADD PUSH0 DUP3 DUP3 SLOAD PUSH2 0x17EA SWAP2 SWAP1 PUSH2 0x3FBE JUMP JUMPDEST SWAP3 POP POP DUP2 SWAP1 SSTORE POP POP DUP1 DUP1 PUSH1 0x1 ADD SWAP2 POP POP PUSH2 0x1677 JUMP JUMPDEST POP PUSH0 PUSH0 SWAP1 POP JUMPDEST DUP2 PUSH1 0x3 ADD DUP1 SLOAD SWAP1 POP DUP2 LT ISZERO PUSH2 0x1866 JUMPI DUP2 PUSH1 0x3 ADD DUP2 DUP2 SLOAD DUP2 LT PUSH2 0x182A JUMPI PUSH2 0x1829 PUSH2 0x3361 JUMP JUMPDEST JUMPDEST SWAP1 PUSH0 MSTORE PUSH1 0x20 PUSH0 KECCAK256 ADD SLOAD PUSH1 0x1 PUSH0 DUP13 DUP2 MSTORE PUSH1 0x20 ADD SWAP1 DUP2 MSTORE PUSH1 0x20 ADD PUSH0 KECCAK256 PUSH0 DUP3 DUP3 SLOAD PUSH2 0x1852 SWAP2 SWAP1 PUSH2 0x3FBE JUMP JUMPDEST SWAP3 POP POP DUP2 SWAP1 SSTORE POP DUP1 DUP1 PUSH1 0x1 ADD SWAP2 POP POP PUSH2 0x1805 JUMP JUMPDEST POP POP POP POP POP POP POP POP POP POP JUMP JUMPDEST PUSH0 PUSH2 0x187C DUP5 PUSH2 0x2048 JUMP JUMPDEST SWAP1 POP PUSH0 PUSH1 0x2 PUSH0 DUP4 DUP2 MSTORE PUSH1 0x20 ADD SWAP1 DUP2 MSTORE PUSH1 0x20 ADD PUSH0 KECCAK256 SWAP1 POP PUSH1 0x3 PUSH1 0x5 DUP2 GT ISZERO PUSH2 0x18A6 JUMPI PUSH2 0x18A5 PUSH2 0x2DA1 JUMP JUMPDEST JUMPDEST DUP2 PUSH1 0x2 ADD PUSH0 SWAP1 SLOAD SWAP1 PUSH2 0x100 EXP SWAP1 DIV PUSH1 0xFF AND PUSH1 0x5 DUP2 GT ISZERO PUSH2 0x18C9 JUMPI PUSH2 0x18C8 PUSH2 0x2DA1 JUMP JUMPDEST JUMPDEST EQ PUSH2 0x1909 JUMPI PUSH1 0x40 MLOAD PUSH32 0x8C379A000000000000000000000000000000000000000000000000000000000 DUP2 MSTORE PUSH1 0x4 ADD PUSH2 0x1900 SWAP1 PUSH2 0x403B JUMP JUMPDEST PUSH1 0x40 MLOAD DUP1 SWAP2 SUB SWAP1 REVERT JUMPDEST PUSH0 DUP4 MLOAD GT ISZERO PUSH2 0x1945 JUMPI PUSH1 0x2 DUP2 PUSH1 0x2 ADD PUSH0 PUSH2 0x100 EXP DUP2 SLOAD DUP2 PUSH1 0xFF MUL NOT AND SWAP1 DUP4 PUSH1 0x5 DUP2 GT ISZERO PUSH2 0x1939 JUMPI PUSH2 0x1938 PUSH2 0x2DA1 JUMP JUMPDEST JUMPDEST MUL OR SWAP1 SSTORE POP POP POP PUSH2 0x196A JUMP JUMPDEST PUSH0 DUP5 DUP1 PUSH1 0x20 ADD SWAP1 MLOAD DUP2 ADD SWAP1 PUSH2 0x195A SWAP2 SWAP1 PUSH2 0x406D JUMP JUMPDEST SWAP1 POP PUSH2 0x1966 DUP4 DUP3 PUSH2 0x20D0 JUMP JUMPDEST POP POP POP JUMPDEST POP POP POP JUMP JUMPDEST PUSH1 0x2 PUSH0 SLOAD SUB PUSH2 0x19B3 JUMPI PUSH1 0x40 MLOAD PUSH32 0x8C379A000000000000000000000000000000000000000000000000000000000 DUP2 MSTORE PUSH1 0x4 ADD PUSH2 0x19AA SWAP1 PUSH2 0x40E2 JUMP JUMPDEST PUSH1 0x40 MLOAD DUP1 SWAP2 SUB SWAP1 REVERT JUMPDEST PUSH1 0x2 PUSH0 DUP2 SWAP1 SSTORE POP JUMP JUMPDEST PUSH1 0x1 PUSH0 DUP2 SWAP1 SSTORE POP JUMP JUMPDEST PUSH1 0x60 PUSH0 PUSH1 0x1 PUSH2 0x19D3 DUP5 PUSH2 0x214E JUMP JUMPDEST ADD SWAP1 POP PUSH0 DUP2 PUSH8 0xFFFFFFFFFFFFFFFF DUP2 GT ISZERO PUSH2 0x19F1 JUMPI PUSH2 0x19F0 PUSH2 0x29A2 JUMP JUMPDEST JUMPDEST PUSH1 0x40 MLOAD SWAP1 DUP1 DUP3 MSTORE DUP1 PUSH1 0x1F ADD PUSH1 0x1F NOT AND PUSH1 0x20 ADD DUP3 ADD PUSH1 0x40 MSTORE DUP1 ISZERO PUSH2 0x1A23 JUMPI DUP2 PUSH1 0x20 ADD PUSH1 0x1 DUP3 MUL DUP1 CALLDATASIZE DUP4 CALLDATACOPY DUP1 DUP3 ADD SWAP2 POP POP SWAP1 POP JUMPDEST POP SWAP1 POP PUSH0 DUP3 PUSH1 0x20 DUP4 ADD ADD SWAP1 POP JUMPDEST PUSH1 0x1 ISZERO PUSH2 0x1A84 JUMPI DUP1 DUP1 PUSH1 0x1 SWAP1 SUB SWAP2 POP POP PUSH32 0x3031323334353637383961626364656600000000000000000000000000000000 PUSH1 0xA DUP7 MOD BYTE DUP2 MSTORE8 PUSH1 0xA DUP6 DUP2 PUSH2 0x1A79 JUMPI PUSH2 0x1A78 PUSH2 0x352E JUMP JUMPDEST JUMPDEST DIV SWAP5 POP PUSH0 DUP6 SUB PUSH2 0x1A30 JUMPI JUMPDEST DUP2 SWAP4 POP POP POP POP SWAP2 SWAP1 POP JUMP JUMPDEST PUSH2 0x1A9B DUP3 PUSH0 PUSH0 DUP5 PUSH2 0x229F JUMP JUMPDEST POP POP JUMP JUMPDEST PUSH0 DUP2 MLOAD SUB PUSH2 0x1AD9 JUMPI PUSH1 0x40 MLOAD PUSH32 0xFE936CB700000000000000000000000000000000000000000000000000000000 DUP2 MSTORE PUSH1 0x4 ADD PUSH1 0x40 MLOAD DUP1 SWAP2 SUB SWAP1 REVERT JUMPDEST DUP1 DUP3 PUSH1 0xA0 ADD DUP2 SWAP1 MSTORE POP POP POP JUMP JUMPDEST PUSH0 DUP2 MLOAD SUB PUSH2 0x1B20 JUMPI PUSH1 0x40 MLOAD PUSH32 0xE889636F00000000000000000000000000000000000000000000000000000000 DUP2 MSTORE PUSH1 0x4 ADD PUSH1 0x40 MLOAD DUP1 SWAP2 SUB SWAP1 REVERT JUMPDEST PUSH1 0x1 DUP3 PUSH1 0x20 ADD SWAP1 PUSH1 0x2 DUP2 GT ISZERO PUSH2 0x1B39 JUMPI PUSH2 0x1B38 PUSH2 0x2DA1 JUMP JUMPDEST JUMPDEST SWAP1 DUP2 PUSH1 0x2 DUP2 GT ISZERO PUSH2 0x1B4D JUMPI PUSH2 0x1B4C PUSH2 0x2DA1 JUMP JUMPDEST JUMPDEST DUP2 MSTORE POP POP DUP1 DUP3 PUSH1 0x80 ADD DUP2 SWAP1 MSTORE POP POP POP JUMP JUMPDEST PUSH1 0x60 PUSH0 PUSH2 0x1B6C PUSH2 0x100 PUSH2 0x2345 JUMP JUMPDEST SWAP1 POP PUSH2 0x1BB6 PUSH1 0x40 MLOAD DUP1 PUSH1 0x40 ADD PUSH1 0x40 MSTORE DUP1 PUSH1 0xC DUP2 MSTORE PUSH1 0x20 ADD PUSH32 0x636F64654C6F636174696F6E0000000000000000000000000000000000000000 DUP2 MSTORE POP DUP3 PUSH2 0x236A SWAP1 SWAP2 SWAP1 PUSH4 0xFFFFFFFF AND JUMP JUMPDEST PUSH2 0x1BDE DUP4 PUSH0 ADD MLOAD PUSH1 0x2 DUP2 GT ISZERO PUSH2 0x1BCF JUMPI PUSH2 0x1BCE PUSH2 0x2DA1 JUMP JUMPDEST JUMPDEST DUP3 PUSH2 0x2392 SWAP1 SWAP2 SWAP1 PUSH4 0xFFFFFFFF AND JUMP JUMPDEST PUSH2 0x1C26 PUSH1 0x40 MLOAD DUP1 PUSH1 0x40 ADD PUSH1 0x40 MSTORE DUP1 PUSH1 0x8 DUP2 MSTORE PUSH1 0x20 ADD PUSH32 0x6C616E6775616765000000000000000000000000000000000000000000000000 DUP2 MSTORE POP DUP3 PUSH2 0x236A SWAP1 SWAP2 SWAP1 PUSH4 0xFFFFFFFF AND JUMP JUMPDEST PUSH2 0x1C4E DUP4 PUSH1 0x40 ADD MLOAD PUSH0 DUP2 GT ISZERO PUSH2 0x1C3F JUMPI PUSH2 0x1C3E PUSH2 0x2DA1 JUMP JUMPDEST JUMPDEST DUP3 PUSH2 0x2392 SWAP1 SWAP2 SWAP1 PUSH4 0xFFFFFFFF AND JUMP JUMPDEST PUSH2 0x1C96 PUSH1 0x40 MLOAD DUP1 PUSH1 0x40 ADD PUSH1 0x40 MSTORE DUP1 PUSH1 0x6 DUP2 MSTORE PUSH1 0x20 ADD PUSH32 0x736F757263650000000000000000000000000000000000000000000000000000 DUP2 MSTORE POP DUP3 PUSH2 0x236A SWAP1 SWAP2 SWAP1 PUSH4 0xFFFFFFFF AND JUMP JUMPDEST PUSH2 0x1CAD DUP4 PUSH1 0x60 ADD MLOAD DUP3 PUSH2 0x236A SWAP1 SWAP2 SWAP1 PUSH4 0xFFFFFFFF AND JUMP JUMPDEST PUSH0 DUP4 PUSH1 0xA0 ADD MLOAD MLOAD GT ISZERO PUSH2 0x1D64 JUMPI PUSH2 0x1D02 PUSH1 0x40 MLOAD DUP1 PUSH1 0x40 ADD PUSH1 0x40 MSTORE DUP1 PUSH1 0x4 DUP2 MSTORE PUSH1 0x20 ADD PUSH32 0x6172677300000000000000000000000000000000000000000000000000000000 DUP2 MSTORE POP DUP3 PUSH2 0x236A SWAP1 SWAP2 SWAP1 PUSH4 0xFFFFFFFF AND JUMP JUMPDEST PUSH2 0x1D0B DUP2 PUSH2 0x23E1 JUMP JUMPDEST PUSH0 PUSH0 SWAP1 POP JUMPDEST DUP4 PUSH1 0xA0 ADD MLOAD MLOAD DUP2 LT ISZERO PUSH2 0x1D59 JUMPI PUSH2 0x1D4E DUP5 PUSH1 0xA0 ADD MLOAD DUP3 DUP2 MLOAD DUP2 LT PUSH2 0x1D37 JUMPI PUSH2 0x1D36 PUSH2 0x3361 JUMP JUMPDEST JUMPDEST PUSH1 0x20 MUL PUSH1 0x20 ADD ADD MLOAD DUP4 PUSH2 0x236A SWAP1 SWAP2 SWAP1 PUSH4 0xFFFFFFFF AND JUMP JUMPDEST DUP1 PUSH1 0x1 ADD SWAP1 POP PUSH2 0x1D10 JUMP JUMPDEST POP PUSH2 0x1D63 DUP2 PUSH2 0x2409 JUMP JUMPDEST JUMPDEST PUSH0 DUP4 PUSH1 0x80 ADD MLOAD MLOAD GT ISZERO PUSH2 0x1EA3 JUMPI PUSH0 PUSH1 0x2 DUP2 GT ISZERO PUSH2 0x1D84 JUMPI PUSH2 0x1D83 PUSH2 0x2DA1 JUMP JUMPDEST JUMPDEST DUP4 PUSH1 0x20 ADD MLOAD PUSH1 0x2 DUP2 GT ISZERO PUSH2 0x1D9B JUMPI PUSH2 0x1D9A PUSH2 0x2DA1 JUMP JUMPDEST JUMPDEST SUB PUSH2 0x1DD2 JUMPI PUSH1 0x40 MLOAD PUSH32 0xA80D31F700000000000000000000000000000000000000000000000000000000 DUP2 MSTORE PUSH1 0x4 ADD PUSH1 0x40 MLOAD DUP1 SWAP2 SUB SWAP1 REVERT JUMPDEST PUSH2 0x1E1A PUSH1 0x40 MLOAD DUP1 PUSH1 0x40 ADD PUSH1 0x40 MSTORE DUP1 PUSH1 0xF DUP2 MSTORE PUSH1 0x20 ADD PUSH32 0x736563726574734C6F636174696F6E0000000000000000000000000000000000 DUP2 MSTORE POP DUP3 PUSH2 0x236A SWAP1 SWAP2 SWAP1 PUSH4 0xFFFFFFFF AND JUMP JUMPDEST PUSH2 0x1E43 DUP4 PUSH1 0x20 ADD MLOAD PUSH1 0x2 DUP2 GT ISZERO PUSH2 0x1E34 JUMPI PUSH2 0x1E33 PUSH2 0x2DA1 JUMP JUMPDEST JUMPDEST DUP3 PUSH2 0x2392 SWAP1 SWAP2 SWAP1 PUSH4 0xFFFFFFFF AND JUMP JUMPDEST PUSH2 0x1E8B PUSH1 0x40 MLOAD DUP1 PUSH1 0x40 ADD PUSH1 0x40 MSTORE DUP1 PUSH1 0x7 DUP2 MSTORE PUSH1 0x20 ADD PUSH32 0x7365637265747300000000000000000000000000000000000000000000000000 DUP2 MSTORE POP DUP3 PUSH2 0x236A SWAP1 SWAP2 SWAP1 PUSH4 0xFFFFFFFF AND JUMP JUMPDEST PUSH2 0x1EA2 DUP4 PUSH1 0x80 ADD MLOAD DUP3 PUSH2 0x2431 SWAP1 SWAP2 SWAP1 PUSH4 0xFFFFFFFF AND JUMP JUMPDEST JUMPDEST PUSH0 DUP4 PUSH1 0xC0 ADD MLOAD MLOAD GT ISZERO PUSH2 0x1F5A JUMPI PUSH2 0x1EF8 PUSH1 0x40 MLOAD DUP1 PUSH1 0x40 ADD PUSH1 0x40 MSTORE DUP1 PUSH1 0x9 DUP2 MSTORE PUSH1 0x20 ADD PUSH32 0x6279746573417267730000000000000000000000000000000000000000000000 DUP2 MSTORE POP DUP3 PUSH2 0x236A SWAP1 SWAP2 SWAP1 PUSH4 0xFFFFFFFF AND JUMP JUMPDEST PUSH2 0x1F01 DUP2 PUSH2 0x23E1 JUMP JUMPDEST PUSH0 PUSH0 SWAP1 POP JUMPDEST DUP4 PUSH1 0xC0 ADD MLOAD MLOAD DUP2 LT ISZERO PUSH2 0x1F4F JUMPI PUSH2 0x1F44 DUP5 PUSH1 0xC0 ADD MLOAD DUP3 DUP2 MLOAD DUP2 LT PUSH2 0x1F2D JUMPI PUSH2 0x1F2C PUSH2 0x3361 JUMP JUMPDEST JUMPDEST PUSH1 0x20 MUL PUSH1 0x20 ADD ADD MLOAD DUP4 PUSH2 0x2431 SWAP1 SWAP2 SWAP1 PUSH4 0xFFFFFFFF AND JUMP JUMPDEST DUP1 PUSH1 0x1 ADD SWAP1 POP PUSH2 0x1F06 JUMP JUMPDEST POP PUSH2 0x1F59 DUP2 PUSH2 0x2409 JUMP JUMPDEST JUMPDEST DUP1 PUSH0 ADD MLOAD PUSH0 ADD MLOAD SWAP2 POP POP SWAP2 SWAP1 POP JUMP JUMPDEST PUSH0 PUSH0 PUSH32 0x0 PUSH20 0xFFFFFFFFFFFFFFFFFFFFFFFFFFFFFFFFFFFFFFFF AND PUSH4 0x461D2762 DUP7 DUP9 PUSH1 0x1 DUP9 DUP9 PUSH1 0x40 MLOAD DUP7 PUSH4 0xFFFFFFFF AND PUSH1 0xE0 SHL DUP2 MSTORE PUSH1 0x4 ADD PUSH2 0x1FCD SWAP6 SWAP5 SWAP4 SWAP3 SWAP2 SWAP1 PUSH2 0x415C JUMP JUMPDEST PUSH1 0x20 PUSH1 0x40 MLOAD DUP1 DUP4 SUB DUP2 PUSH0 DUP8 GAS CALL ISZERO DUP1 ISZERO PUSH2 0x1FE9 JUMPI RETURNDATASIZE PUSH0 PUSH0 RETURNDATACOPY RETURNDATASIZE PUSH0 REVERT JUMPDEST POP POP POP POP PUSH1 0x40 MLOAD RETURNDATASIZE PUSH1 0x1F NOT PUSH1 0x1F DUP3 ADD AND DUP3 ADD DUP1 PUSH1 0x40 MSTORE POP DUP2 ADD SWAP1 PUSH2 0x200D SWAP2 SWAP1 PUSH2 0x41C8 JUMP JUMPDEST SWAP1 POP DUP1 PUSH32 0x1131472297A800FEE664D1D89CFA8F7676FF07189ECC53F80BBB5F4969099DB8 PUSH1 0x40 MLOAD PUSH1 0x40 MLOAD DUP1 SWAP2 SUB SWAP1 LOG2 DUP1 SWAP2 POP POP SWAP5 SWAP4 POP POP POP POP JUMP JUMPDEST PUSH0 PUSH0 PUSH1 0x1 SWAP1 POP JUMPDEST PUSH1 0x3 SLOAD DUP2 GT PUSH2 0x208F JUMPI DUP3 PUSH1 0x2 PUSH0 DUP4 DUP2 MSTORE PUSH1 0x20 ADD SWAP1 DUP2 MSTORE PUSH1 0x20 ADD PUSH0 KECCAK256 PUSH1 0x5 ADD SLOAD SUB PUSH2 0x207C JUMPI DUP1 SWAP2 POP POP PUSH2 0x20CB JUMP JUMPDEST DUP1 DUP1 PUSH2 0x2087 SWAP1 PUSH2 0x3CE5 JUMP JUMPDEST SWAP2 POP POP PUSH2 0x204F JUMP JUMPDEST POP PUSH1 0x40 MLOAD PUSH32 0x8C379A000000000000000000000000000000000000000000000000000000000 DUP2 MSTORE PUSH1 0x4 ADD PUSH2 0x20C2 SWAP1 PUSH2 0x423D JUMP JUMPDEST PUSH1 0x40 MLOAD DUP1 SWAP2 SUB SWAP1 REVERT JUMPDEST SWAP2 SWAP1 POP JUMP JUMPDEST PUSH0 PUSH1 0x2 PUSH0 DUP5 DUP2 MSTORE PUSH1 0x20 ADD SWAP1 DUP2 MSTORE PUSH1 0x20 ADD PUSH0 KECCAK256 SWAP1 POP DUP2 DUP2 PUSH1 0x8 ADD PUSH0 PUSH2 0x100 EXP DUP2 SLOAD DUP2 PUSH1 0xFF MUL NOT AND SWAP1 DUP4 PUSH1 0xFF AND MUL OR SWAP1 SSTORE POP PUSH1 0x1 DUP2 PUSH1 0x8 ADD PUSH1 0x1 PUSH2 0x100 EXP DUP2 SLOAD DUP2 PUSH1 0xFF MUL NOT AND SWAP1 DUP4 ISZERO ISZERO MUL OR SWAP1 SSTORE POP PUSH1 0x4 DUP2 PUSH1 0x2 ADD PUSH0 PUSH2 0x100 EXP DUP2 SLOAD DUP2 PUSH1 0xFF MUL NOT AND SWAP1 DUP4 PUSH1 0x5 DUP2 GT ISZERO PUSH2 0x2144 JUMPI PUSH2 0x2143 PUSH2 0x2DA1 JUMP JUMPDEST JUMPDEST MUL OR SWAP1 SSTORE POP POP POP POP JUMP JUMPDEST PUSH0 PUSH0 PUSH0 SWAP1 POP PUSH27 0x184F03E93FF9F4DAA797ED6E38ED64BF6A1F010000000000000000 DUP4 LT PUSH2 0x21AA JUMPI PUSH27 0x184F03E93FF9F4DAA797ED6E38ED64BF6A1F010000000000000000 DUP4 DUP2 PUSH2 0x21A0 JUMPI PUSH2 0x219F PUSH2 0x352E JUMP JUMPDEST JUMPDEST DIV SWAP3 POP PUSH1 0x40 DUP2 ADD SWAP1 POP JUMPDEST PUSH14 0x4EE2D6D415B85ACEF8100000000 DUP4 LT PUSH2 0x21E7 JUMPI PUSH14 0x4EE2D6D415B85ACEF8100000000 DUP4 DUP2 PUSH2 0x21DD JUMPI PUSH2 0x21DC PUSH2 0x352E JUMP JUMPDEST JUMPDEST DIV SWAP3 POP PUSH1 0x20 DUP2 ADD SWAP1 POP JUMPDEST PUSH7 0x2386F26FC10000 DUP4 LT PUSH2 0x2216 JUMPI PUSH7 0x2386F26FC10000 DUP4 DUP2 PUSH2 0x220C JUMPI PUSH2 0x220B PUSH2 0x352E JUMP JUMPDEST JUMPDEST DIV SWAP3 POP PUSH1 0x10 DUP2 ADD SWAP1 POP JUMPDEST PUSH4 0x5F5E100 DUP4 LT PUSH2 0x223F JUMPI PUSH4 0x5F5E100 DUP4 DUP2 PUSH2 0x2235 JUMPI PUSH2 0x2234 PUSH2 0x352E JUMP JUMPDEST JUMPDEST DIV SWAP3 POP PUSH1 0x8 DUP2 ADD SWAP1 POP JUMPDEST PUSH2 0x2710 DUP4 LT PUSH2 0x2264 JUMPI PUSH2 0x2710 DUP4 DUP2 PUSH2 0x225A JUMPI PUSH2 0x2259 PUSH2 0x352E JUMP JUMPDEST JUMPDEST DIV SWAP3 POP PUSH1 0x4 DUP2 ADD SWAP1 POP JUMPDEST PUSH1 0x64 DUP4 LT PUSH2 0x2287 JUMPI PUSH1 0x64 DUP4 DUP2 PUSH2 0x227D JUMPI PUSH2 0x227C PUSH2 0x352E JUMP JUMPDEST JUMPDEST DIV SWAP3 POP PUSH1 0x2 DUP2 ADD SWAP1 POP JUMPDEST PUSH1 0xA DUP4 LT PUSH2 0x2296 JUMPI PUSH1 0x1 DUP2 ADD SWAP1 POP JUMPDEST DUP1 SWAP2 POP POP SWAP2 SWAP1 POP JUMP JUMPDEST PUSH0 DUP2 MLOAD SUB PUSH2 0x22D9 JUMPI PUSH1 0x40 MLOAD PUSH32 0x22CE3EDD00000000000000000000000000000000000000000000000000000000 DUP2 MSTORE PUSH1 0x4 ADD PUSH1 0x40 MLOAD DUP1 SWAP2 SUB SWAP1 REVERT JUMPDEST DUP3 DUP5 PUSH0 ADD SWAP1 PUSH1 0x2 DUP2 GT ISZERO PUSH2 0x22F0 JUMPI PUSH2 0x22EF PUSH2 0x2DA1 JUMP JUMPDEST JUMPDEST SWAP1 DUP2 PUSH1 0x2 DUP2 GT ISZERO PUSH2 0x2304 JUMPI PUSH2 0x2303 PUSH2 0x2DA1 JUMP JUMPDEST JUMPDEST DUP2 MSTORE POP POP DUP2 DUP5 PUSH1 0x40 ADD SWAP1 PUSH0 DUP2 GT ISZERO PUSH2 0x231F JUMPI PUSH2 0x231E PUSH2 0x2DA1 JUMP JUMPDEST JUMPDEST SWAP1 DUP2 PUSH0 DUP2 GT ISZERO PUSH2 0x2332 JUMPI PUSH2 0x2331 PUSH2 0x2DA1 JUMP JUMPDEST JUMPDEST DUP2 MSTORE POP POP DUP1 DUP5 PUSH1 0x60 ADD DUP2 SWAP1 MSTORE POP POP POP POP POP JUMP JUMPDEST PUSH2 0x234D PUSH2 0x290E JUMP JUMPDEST PUSH2 0x235A DUP2 PUSH0 ADD MLOAD DUP4 PUSH2 0x2459 JUMP JUMPDEST POP PUSH0 DUP2 PUSH1 0x20 ADD DUP2 DUP2 MSTORE POP POP SWAP2 SWAP1 POP JUMP JUMPDEST PUSH2 0x2377 DUP3 PUSH1 0x3 DUP4 MLOAD PUSH2 0x24CF JUMP JUMPDEST PUSH2 0x238D DUP2 DUP4 PUSH0 ADD MLOAD PUSH2 0x266F SWAP1 SWAP2 SWAP1 PUSH4 0xFFFFFFFF AND JUMP JUMPDEST POP POP POP JUMP JUMPDEST PUSH2 0x23B3 PUSH1 0x2 PUSH1 0x5 PUSH1 0x6 PUSH1 0xFF AND SWAP1 SHL OR DUP4 PUSH0 ADD MLOAD PUSH2 0x268B SWAP1 SWAP2 SWAP1 PUSH4 0xFFFFFFFF AND JUMP JUMPDEST POP PUSH2 0x23DD DUP3 DUP3 PUSH1 0x40 MLOAD PUSH1 0x20 ADD PUSH2 0x23C9 SWAP2 SWAP1 PUSH2 0x2D28 JUMP JUMPDEST PUSH1 0x40 MLOAD PUSH1 0x20 DUP2 DUP4 SUB SUB DUP2 MSTORE SWAP1 PUSH1 0x40 MSTORE PUSH2 0x2431 JUMP JUMPDEST POP POP JUMP JUMPDEST PUSH2 0x23EC DUP2 PUSH1 0x4 PUSH2 0x26F2 JUMP JUMPDEST PUSH1 0x1 DUP2 PUSH1 0x20 ADD DUP2 DUP2 MLOAD PUSH2 0x23FF SWAP2 SWAP1 PUSH2 0x3FBE JUMP JUMPDEST SWAP2 POP DUP2 DUP2 MSTORE POP POP POP JUMP JUMPDEST PUSH2 0x2414 DUP2 PUSH1 0x7 PUSH2 0x26F2 JUMP JUMPDEST PUSH1 0x1 DUP2 PUSH1 0x20 ADD DUP2 DUP2 MLOAD PUSH2 0x2427 SWAP2 SWAP1 PUSH2 0x425B JUMP JUMPDEST SWAP2 POP DUP2 DUP2 MSTORE POP POP POP JUMP JUMPDEST PUSH2 0x243E DUP3 PUSH1 0x2 DUP4 MLOAD PUSH2 0x24CF JUMP JUMPDEST PUSH2 0x2454 DUP2 DUP4 PUSH0 ADD MLOAD PUSH2 0x266F SWAP1 SWAP2 SWAP1 PUSH4 0xFFFFFFFF AND JUMP JUMPDEST POP POP POP JUMP JUMPDEST PUSH2 0x2461 PUSH2 0x292D JUMP JUMPDEST PUSH0 PUSH1 0x20 DUP4 PUSH2 0x246F SWAP2 SWAP1 PUSH2 0x428E JUMP JUMPDEST EQ PUSH2 0x249B JUMPI PUSH1 0x20 DUP3 PUSH2 0x2481 SWAP2 SWAP1 PUSH2 0x428E JUMP JUMPDEST PUSH1 0x20 PUSH2 0x248D SWAP2 SWAP1 PUSH2 0x425B JUMP JUMPDEST DUP3 PUSH2 0x2498 SWAP2 SWAP1 PUSH2 0x3FBE JUMP JUMPDEST SWAP2 POP JUMPDEST DUP2 DUP4 PUSH1 0x20 ADD DUP2 DUP2 MSTORE POP POP PUSH1 0x40 MLOAD DUP1 DUP5 MSTORE PUSH0 DUP2 MSTORE DUP3 DUP2 ADD PUSH1 0x20 ADD DUP2 DUP2 LT ISZERO PUSH2 0x24C0 JUMPI PUSH0 PUSH0 REVERT JUMPDEST DUP1 PUSH1 0x40 MSTORE POP POP DUP3 SWAP1 POP SWAP3 SWAP2 POP POP JUMP JUMPDEST PUSH1 0x17 DUP2 PUSH8 0xFFFFFFFFFFFFFFFF AND GT PUSH2 0x2509 JUMPI PUSH2 0x2503 DUP2 PUSH1 0x5 DUP5 PUSH1 0xFF AND SWAP1 SHL PUSH1 0xFF AND OR DUP5 PUSH0 ADD MLOAD PUSH2 0x268B SWAP1 SWAP2 SWAP1 PUSH4 0xFFFFFFFF AND JUMP JUMPDEST POP PUSH2 0x266A JUMP JUMPDEST PUSH1 0xFF DUP2 PUSH8 0xFFFFFFFFFFFFFFFF AND GT PUSH2 0x2565 JUMPI PUSH2 0x253B PUSH1 0x18 PUSH1 0x5 DUP5 PUSH1 0xFF AND SWAP1 SHL OR DUP5 PUSH0 ADD MLOAD PUSH2 0x268B SWAP1 SWAP2 SWAP1 PUSH4 0xFFFFFFFF AND JUMP JUMPDEST POP PUSH2 0x255F DUP2 PUSH8 0xFFFFFFFFFFFFFFFF AND PUSH1 0x1 DUP6 PUSH0 ADD MLOAD PUSH2 0x2717 SWAP1 SWAP3 SWAP2 SWAP1 PUSH4 0xFFFFFFFF AND JUMP JUMPDEST POP PUSH2 0x2669 JUMP JUMPDEST PUSH2 0xFFFF DUP2 PUSH8 0xFFFFFFFFFFFFFFFF AND GT PUSH2 0x25C2 JUMPI PUSH2 0x2598 PUSH1 0x19 PUSH1 0x5 DUP5 PUSH1 0xFF AND SWAP1 SHL OR DUP5 PUSH0 ADD MLOAD PUSH2 0x268B SWAP1 SWAP2 SWAP1 PUSH4 0xFFFFFFFF AND JUMP JUMPDEST POP PUSH2 0x25BC DUP2 PUSH8 0xFFFFFFFFFFFFFFFF AND PUSH1 0x2 DUP6 PUSH0 ADD MLOAD PUSH2 0x2717 SWAP1 SWAP3 SWAP2 SWAP1 PUSH4 0xFFFFFFFF AND JUMP JUMPDEST POP PUSH2 0x2668 JUMP JUMPDEST PUSH4 0xFFFFFFFF DUP2 PUSH8 0xFFFFFFFFFFFFFFFF AND GT PUSH2 0x2621 JUMPI PUSH2 0x25F7 PUSH1 0x1A PUSH1 0x5 DUP5 PUSH1 0xFF AND SWAP1 SHL OR DUP5 PUSH0 ADD MLOAD PUSH2 0x268B SWAP1 SWAP2 SWAP1 PUSH4 0xFFFFFFFF AND JUMP JUMPDEST POP PUSH2 0x261B DUP2 PUSH8 0xFFFFFFFFFFFFFFFF AND PUSH1 0x4 DUP6 PUSH0 ADD MLOAD PUSH2 0x2717 SWAP1 SWAP3 SWAP2 SWAP1 PUSH4 0xFFFFFFFF AND JUMP JUMPDEST POP PUSH2 0x2667 JUMP JUMPDEST PUSH2 0x2641 PUSH1 0x1B PUSH1 0x5 DUP5 PUSH1 0xFF AND SWAP1 SHL OR DUP5 PUSH0 ADD MLOAD PUSH2 0x268B SWAP1 SWAP2 SWAP1 PUSH4 0xFFFFFFFF AND JUMP JUMPDEST POP PUSH2 0x2665 DUP2 PUSH8 0xFFFFFFFFFFFFFFFF AND PUSH1 0x8 DUP6 PUSH0 ADD MLOAD PUSH2 0x2717 SWAP1 SWAP3 SWAP2 SWAP1 PUSH4 0xFFFFFFFF AND JUMP JUMPDEST POP JUMPDEST JUMPDEST JUMPDEST JUMPDEST POP POP POP JUMP JUMPDEST PUSH2 0x2677 PUSH2 0x292D JUMP JUMPDEST PUSH2 0x2683 DUP4 DUP4 DUP5 MLOAD PUSH2 0x27A0 JUMP JUMPDEST SWAP1 POP SWAP3 SWAP2 POP POP JUMP JUMPDEST PUSH2 0x2693 PUSH2 0x292D JUMP JUMPDEST PUSH0 DUP4 PUSH0 ADD MLOAD MLOAD SWAP1 POP PUSH0 PUSH1 0x1 DUP3 PUSH2 0x26A9 SWAP2 SWAP1 PUSH2 0x3FBE JUMP JUMPDEST SWAP1 POP DUP5 PUSH1 0x20 ADD MLOAD DUP3 LT PUSH2 0x26CD JUMPI PUSH2 0x26CC DUP6 PUSH1 0x2 DUP4 PUSH2 0x26C7 SWAP2 SWAP1 PUSH2 0x35B8 JUMP JUMPDEST PUSH2 0x287D JUMP JUMPDEST JUMPDEST DUP5 MLOAD PUSH1 0x20 DUP4 DUP3 ADD ADD DUP6 DUP2 MSTORE8 DUP2 MLOAD DUP4 GT ISZERO PUSH2 0x26E5 JUMPI DUP3 DUP3 MSTORE JUMPDEST POP POP DUP5 SWAP3 POP POP POP SWAP3 SWAP2 POP POP JUMP JUMPDEST PUSH2 0x2712 PUSH1 0x1F PUSH1 0x5 DUP4 PUSH1 0xFF AND SWAP1 SHL OR DUP4 PUSH0 ADD MLOAD PUSH2 0x268B SWAP1 SWAP2 SWAP1 PUSH4 0xFFFFFFFF AND JUMP JUMPDEST POP POP POP JUMP JUMPDEST PUSH2 0x271F PUSH2 0x292D JUMP JUMPDEST PUSH0 DUP5 PUSH0 ADD MLOAD MLOAD SWAP1 POP PUSH0 DUP2 DUP5 PUSH2 0x2734 SWAP2 SWAP1 PUSH2 0x3FBE JUMP JUMPDEST SWAP1 POP DUP6 PUSH1 0x20 ADD MLOAD DUP2 GT ISZERO PUSH2 0x2759 JUMPI PUSH2 0x2758 DUP7 PUSH1 0x2 DUP4 PUSH2 0x2753 SWAP2 SWAP1 PUSH2 0x35B8 JUMP JUMPDEST PUSH2 0x287D JUMP JUMPDEST JUMPDEST PUSH0 PUSH1 0x1 DUP6 PUSH2 0x100 PUSH2 0x276A SWAP2 SWAP1 PUSH2 0x43ED JUMP JUMPDEST PUSH2 0x2774 SWAP2 SWAP1 PUSH2 0x425B JUMP JUMPDEST SWAP1 POP DUP7 MLOAD DUP3 DUP2 ADD DUP8 DUP4 NOT DUP3 MLOAD AND OR DUP2 MSTORE DUP2 MLOAD DUP5 GT ISZERO PUSH2 0x2791 JUMPI DUP4 DUP3 MSTORE JUMPDEST POP POP DUP7 SWAP4 POP POP POP POP SWAP4 SWAP3 POP POP POP JUMP JUMPDEST PUSH2 0x27A8 PUSH2 0x292D JUMP JUMPDEST DUP3 MLOAD DUP3 GT ISZERO PUSH2 0x27B5 JUMPI PUSH0 PUSH0 REVERT JUMPDEST PUSH0 DUP5 PUSH0 ADD MLOAD MLOAD SWAP1 POP PUSH0 DUP4 DUP3 PUSH2 0x27CA SWAP2 SWAP1 PUSH2 0x3FBE JUMP JUMPDEST SWAP1 POP DUP6 PUSH1 0x20 ADD MLOAD DUP2 GT ISZERO PUSH2 0x27EF JUMPI PUSH2 0x27EE DUP7 PUSH1 0x2 DUP4 PUSH2 0x27E9 SWAP2 SWAP1 PUSH2 0x35B8 JUMP JUMPDEST PUSH2 0x287D JUMP JUMPDEST JUMPDEST PUSH0 PUSH0 DUP8 MLOAD DUP1 MLOAD DUP6 PUSH1 0x20 DUP4 ADD ADD SWAP4 POP DUP1 DUP6 GT ISZERO PUSH2 0x2809 JUMPI DUP5 DUP3 MSTORE JUMPDEST PUSH1 0x20 DUP10 ADD SWAP3 POP POP POP JUMPDEST PUSH1 0x20 DUP7 LT PUSH2 0x2850 JUMPI DUP1 MLOAD DUP3 MSTORE PUSH1 0x20 DUP3 PUSH2 0x282B SWAP2 SWAP1 PUSH2 0x3FBE JUMP JUMPDEST SWAP2 POP PUSH1 0x20 DUP2 PUSH2 0x283A SWAP2 SWAP1 PUSH2 0x3FBE JUMP JUMPDEST SWAP1 POP PUSH1 0x20 DUP7 PUSH2 0x2849 SWAP2 SWAP1 PUSH2 0x425B JUMP JUMPDEST SWAP6 POP PUSH2 0x2812 JUMP JUMPDEST PUSH0 PUSH1 0x1 DUP8 PUSH1 0x20 SUB PUSH2 0x100 EXP SUB SWAP1 POP DUP1 NOT DUP3 MLOAD AND DUP2 DUP5 MLOAD AND DUP2 DUP2 OR DUP6 MSTORE POP POP POP DUP8 SWAP5 POP POP POP POP POP SWAP4 SWAP3 POP POP POP JUMP JUMPDEST PUSH0 DUP3 PUSH0 ADD MLOAD SWAP1 POP PUSH2 0x288E DUP4 DUP4 PUSH2 0x2459 JUMP JUMPDEST POP PUSH2 0x2899 DUP4 DUP3 PUSH2 0x266F JUMP JUMPDEST POP POP POP POP JUMP JUMPDEST PUSH1 0x40 MLOAD DUP1 PUSH1 0xE0 ADD PUSH1 0x40 MSTORE DUP1 PUSH0 PUSH1 0x2 DUP2 GT ISZERO PUSH2 0x28BD JUMPI PUSH2 0x28BC PUSH2 0x2DA1 JUMP JUMPDEST JUMPDEST DUP2 MSTORE PUSH1 0x20 ADD PUSH0 PUSH1 0x2 DUP2 GT ISZERO PUSH2 0x28D5 JUMPI PUSH2 0x28D4 PUSH2 0x2DA1 JUMP JUMPDEST JUMPDEST DUP2 MSTORE PUSH1 0x20 ADD PUSH0 PUSH0 DUP2 GT ISZERO PUSH2 0x28EC JUMPI PUSH2 0x28EB PUSH2 0x2DA1 JUMP JUMPDEST JUMPDEST DUP2 MSTORE PUSH1 0x20 ADD PUSH1 0x60 DUP2 MSTORE PUSH1 0x20 ADD PUSH1 0x60 DUP2 MSTORE PUSH1 0x20 ADD PUSH1 0x60 DUP2 MSTORE PUSH1 0x20 ADD PUSH1 0x60 DUP2 MSTORE POP SWAP1 JUMP JUMPDEST PUSH1 0x40 MLOAD DUP1 PUSH1 0x40 ADD PUSH1 0x40 MSTORE DUP1 PUSH2 0x2921 PUSH2 0x292D JUMP JUMPDEST DUP2 MSTORE PUSH1 0x20 ADD PUSH0 DUP2 MSTORE POP SWAP1 JUMP JUMPDEST PUSH1 0x40 MLOAD DUP1 PUSH1 0x40 ADD PUSH1 0x40 MSTORE DUP1 PUSH1 0x60 DUP2 MSTORE PUSH1 0x20 ADD PUSH0 DUP2 MSTORE POP SWAP1 JUMP JUMPDEST PUSH0 PUSH1 0x40 MLOAD SWAP1 POP SWAP1 JUMP JUMPDEST PUSH0 PUSH0 REVERT JUMPDEST PUSH0 PUSH0 REVERT JUMPDEST PUSH0 DUP2 SWAP1 POP SWAP2 SWAP1 POP JUMP JUMPDEST PUSH2 0x2969 DUP2 PUSH2 0x2957 JUMP JUMPDEST DUP2 EQ PUSH2 0x2973 JUMPI PUSH0 PUSH0 REVERT JUMPDEST POP JUMP JUMPDEST PUSH0 DUP2 CALLDATALOAD SWAP1 POP PUSH2 0x2984 DUP2 PUSH2 0x2960 JUMP JUMPDEST SWAP3 SWAP2 POP POP JUMP JUMPDEST PUSH0 PUSH0 REVERT JUMPDEST PUSH0 PUSH0 REVERT JUMPDEST PUSH0 PUSH1 0x1F NOT PUSH1 0x1F DUP4 ADD AND SWAP1 POP SWAP2 SWAP1 POP JUMP JUMPDEST PUSH32 0x4E487B7100000000000000000000000000000000000000000000000000000000 PUSH0 MSTORE PUSH1 0x41 PUSH1 0x4 MSTORE PUSH1 0x24 PUSH0 REVERT JUMPDEST PUSH2 0x29D8 DUP3 PUSH2 0x2992 JUMP JUMPDEST DUP2 ADD DUP2 DUP2 LT PUSH8 0xFFFFFFFFFFFFFFFF DUP3 GT OR ISZERO PUSH2 0x29F7 JUMPI PUSH2 0x29F6 PUSH2 0x29A2 JUMP JUMPDEST JUMPDEST DUP1 PUSH1 0x40 MSTORE POP POP POP JUMP JUMPDEST PUSH0 PUSH2 0x2A09 PUSH2 0x2946 JUMP JUMPDEST SWAP1 POP PUSH2 0x2A15 DUP3 DUP3 PUSH2 0x29CF JUMP JUMPDEST SWAP2 SWAP1 POP JUMP JUMPDEST PUSH0 PUSH8 0xFFFFFFFFFFFFFFFF DUP3 GT ISZERO PUSH2 0x2A34 JUMPI PUSH2 0x2A33 PUSH2 0x29A2 JUMP JUMPDEST JUMPDEST PUSH2 0x2A3D DUP3 PUSH2 0x2992 JUMP JUMPDEST SWAP1 POP PUSH1 0x20 DUP2 ADD SWAP1 POP SWAP2 SWAP1 POP JUMP JUMPDEST DUP3 DUP2 DUP4 CALLDATACOPY PUSH0 DUP4 DUP4 ADD MSTORE POP POP POP JUMP JUMPDEST PUSH0 PUSH2 0x2A6A PUSH2 0x2A65 DUP5 PUSH2 0x2A1A JUMP JUMPDEST PUSH2 0x2A00 JUMP JUMPDEST SWAP1 POP DUP3 DUP2 MSTORE PUSH1 0x20 DUP2 ADD DUP5 DUP5 DUP5 ADD GT ISZERO PUSH2 0x2A86 JUMPI PUSH2 0x2A85 PUSH2 0x298E JUMP JUMPDEST JUMPDEST PUSH2 0x2A91 DUP5 DUP3 DUP6 PUSH2 0x2A4A JUMP JUMPDEST POP SWAP4 SWAP3 POP POP POP JUMP JUMPDEST PUSH0 DUP3 PUSH1 0x1F DUP4 ADD SLT PUSH2 0x2AAD JUMPI PUSH2 0x2AAC PUSH2 0x298A JUMP JUMPDEST JUMPDEST DUP2 CALLDATALOAD PUSH2 0x2ABD DUP5 DUP3 PUSH1 0x20 DUP7 ADD PUSH2 0x2A58 JUMP JUMPDEST SWAP2 POP POP SWAP3 SWAP2 POP POP JUMP JUMPDEST PUSH0 PUSH0 PUSH0 PUSH1 0x60 DUP5 DUP7 SUB SLT ISZERO PUSH2 0x2ADD JUMPI PUSH2 0x2ADC PUSH2 0x294F JUMP JUMPDEST JUMPDEST PUSH0 PUSH2 0x2AEA DUP7 DUP3 DUP8 ADD PUSH2 0x2976 JUMP JUMPDEST SWAP4 POP POP PUSH1 0x20 DUP5 ADD CALLDATALOAD PUSH8 0xFFFFFFFFFFFFFFFF DUP2 GT ISZERO PUSH2 0x2B0B JUMPI PUSH2 0x2B0A PUSH2 0x2953 JUMP JUMPDEST JUMPDEST PUSH2 0x2B17 DUP7 DUP3 DUP8 ADD PUSH2 0x2A99 JUMP JUMPDEST SWAP3 POP POP PUSH1 0x40 DUP5 ADD CALLDATALOAD PUSH8 0xFFFFFFFFFFFFFFFF DUP2 GT ISZERO PUSH2 0x2B38 JUMPI PUSH2 0x2B37 PUSH2 0x2953 JUMP JUMPDEST JUMPDEST PUSH2 0x2B44 DUP7 DUP3 DUP8 ADD PUSH2 0x2A99 JUMP JUMPDEST SWAP2 POP POP SWAP3 POP SWAP3 POP SWAP3 JUMP JUMPDEST PUSH0 PUSH20 0xFFFFFFFFFFFFFFFFFFFFFFFFFFFFFFFFFFFFFFFF DUP3 AND SWAP1 POP SWAP2 SWAP1 POP JUMP JUMPDEST PUSH0 PUSH2 0x2B77 DUP3 PUSH2 0x2B4E JUMP JUMPDEST SWAP1 POP SWAP2 SWAP1 POP JUMP JUMPDEST PUSH2 0x2B87 DUP2 PUSH2 0x2B6D JUMP JUMPDEST DUP2 EQ PUSH2 0x2B91 JUMPI PUSH0 PUSH0 REVERT JUMPDEST POP JUMP JUMPDEST PUSH0 DUP2 CALLDATALOAD SWAP1 POP PUSH2 0x2BA2 DUP2 PUSH2 0x2B7E JUMP JUMPDEST SWAP3 SWAP2 POP POP JUMP JUMPDEST PUSH0 PUSH1 0x20 DUP3 DUP5 SUB SLT ISZERO PUSH2 0x2BBD JUMPI PUSH2 0x2BBC PUSH2 0x294F JUMP JUMPDEST JUMPDEST PUSH0 PUSH2 0x2BCA DUP5 DUP3 DUP6 ADD PUSH2 0x2B94 JUMP JUMPDEST SWAP2 POP POP SWAP3 SWAP2 POP POP JUMP JUMPDEST PUSH0 DUP2 SWAP1 POP SWAP2 SWAP1 POP JUMP JUMPDEST PUSH2 0x2BE5 DUP2 PUSH2 0x2BD3 JUMP JUMPDEST DUP2 EQ PUSH2 0x2BEF JUMPI PUSH0 PUSH0 REVERT JUMPDEST POP JUMP JUMPDEST PUSH0 DUP2 CALLDATALOAD SWAP1 POP PUSH2 0x2C00 DUP2 PUSH2 0x2BDC JUMP JUMPDEST SWAP3 SWAP2 POP POP JUMP JUMPDEST PUSH0 PUSH0 PUSH1 0x40 DUP4 DUP6 SUB SLT ISZERO PUSH2 0x2C1C JUMPI PUSH2 0x2C1B PUSH2 0x294F JUMP JUMPDEST JUMPDEST PUSH0 PUSH2 0x2C29 DUP6 DUP3 DUP7 ADD PUSH2 0x2BF2 JUMP JUMPDEST SWAP3 POP POP PUSH1 0x20 PUSH2 0x2C3A DUP6 DUP3 DUP7 ADD PUSH2 0x2BF2 JUMP JUMPDEST SWAP2 POP POP SWAP3 POP SWAP3 SWAP1 POP JUMP JUMPDEST PUSH0 PUSH0 PUSH1 0x40 DUP4 DUP6 SUB SLT ISZERO PUSH2 0x2C5A JUMPI PUSH2 0x2C59 PUSH2 0x294F JUMP JUMPDEST JUMPDEST PUSH0 PUSH2 0x2C67 DUP6 DUP3 DUP7 ADD PUSH2 0x2BF2 JUMP JUMPDEST SWAP3 POP POP PUSH1 0x20 DUP4 ADD CALLDATALOAD PUSH8 0xFFFFFFFFFFFFFFFF DUP2 GT ISZERO PUSH2 0x2C88 JUMPI PUSH2 0x2C87 PUSH2 0x2953 JUMP JUMPDEST JUMPDEST PUSH2 0x2C94 DUP6 DUP3 DUP7 ADD PUSH2 0x2A99 JUMP JUMPDEST SWAP2 POP POP SWAP3 POP SWAP3 SWAP1 POP JUMP JUMPDEST PUSH0 PUSH1 0x20 DUP3 DUP5 SUB SLT ISZERO PUSH2 0x2CB3 JUMPI PUSH2 0x2CB2 PUSH2 0x294F JUMP JUMPDEST JUMPDEST PUSH0 PUSH2 0x2CC0 DUP5 DUP3 DUP6 ADD PUSH2 0x2BF2 JUMP JUMPDEST SWAP2 POP POP SWAP3 SWAP2 POP POP JUMP JUMPDEST PUSH2 0x2CD2 DUP2 PUSH2 0x2957 JUMP JUMPDEST DUP3 MSTORE POP POP JUMP JUMPDEST PUSH0 PUSH1 0x20 DUP3 ADD SWAP1 POP PUSH2 0x2CEB PUSH0 DUP4 ADD DUP5 PUSH2 0x2CC9 JUMP JUMPDEST SWAP3 SWAP2 POP POP JUMP JUMPDEST PUSH2 0x2CFA DUP2 PUSH2 0x2B6D JUMP JUMPDEST DUP3 MSTORE POP POP JUMP JUMPDEST PUSH0 PUSH1 0x20 DUP3 ADD SWAP1 POP PUSH2 0x2D13 PUSH0 DUP4 ADD DUP5 PUSH2 0x2CF1 JUMP JUMPDEST SWAP3 SWAP2 POP POP JUMP JUMPDEST PUSH2 0x2D22 DUP2 PUSH2 0x2BD3 JUMP JUMPDEST DUP3 MSTORE POP POP JUMP JUMPDEST PUSH0 PUSH1 0x20 DUP3 ADD SWAP1 POP PUSH2 0x2D3B PUSH0 DUP4 ADD DUP5 PUSH2 0x2D19 JUMP JUMPDEST SWAP3 SWAP2 POP POP JUMP JUMPDEST PUSH0 DUP2 MLOAD SWAP1 POP SWAP2 SWAP1 POP JUMP JUMPDEST PUSH0 DUP3 DUP3 MSTORE PUSH1 0x20 DUP3 ADD SWAP1 POP SWAP3 SWAP2 POP POP JUMP JUMPDEST DUP3 DUP2 DUP4 MCOPY PUSH0 DUP4 DUP4 ADD MSTORE POP POP POP JUMP JUMPDEST PUSH0 PUSH2 0x2D73 DUP3 PUSH2 0x2D41 JUMP JUMPDEST PUSH2 0x2D7D DUP2 DUP6 PUSH2 0x2D4B JUMP JUMPDEST SWAP4 POP PUSH2 0x2D8D DUP2 DUP6 PUSH1 0x20 DUP7 ADD PUSH2 0x2D5B JUMP JUMPDEST PUSH2 0x2D96 DUP2 PUSH2 0x2992 JUMP JUMPDEST DUP5 ADD SWAP2 POP POP SWAP3 SWAP2 POP POP JUMP JUMPDEST PUSH32 0x4E487B7100000000000000000000000000000000000000000000000000000000 PUSH0 MSTORE PUSH1 0x21 PUSH1 0x4 MSTORE PUSH1 0x24 PUSH0 REVERT JUMPDEST PUSH1 0x6 DUP2 LT PUSH2 0x2DDF JUMPI PUSH2 0x2DDE PUSH2 0x2DA1 JUMP JUMPDEST JUMPDEST POP JUMP JUMPDEST PUSH0 DUP2 SWAP1 POP PUSH2 0x2DEF DUP3 PUSH2 0x2DCE JUMP JUMPDEST SWAP2 SWAP1 POP JUMP JUMPDEST PUSH0 PUSH2 0x2DFE DUP3 PUSH2 0x2DE2 JUMP JUMPDEST SWAP1 POP SWAP2 SWAP1 POP JUMP JUMPDEST PUSH2 0x2E0E DUP2 PUSH2 0x2DF4 JUMP JUMPDEST DUP3 MSTORE POP POP JUMP JUMPDEST PUSH0 PUSH6 0xFFFFFFFFFFFF DUP3 AND SWAP1 POP SWAP2 SWAP1 POP JUMP JUMPDEST PUSH2 0x2E2E DUP2 PUSH2 0x2E14 JUMP JUMPDEST DUP3 MSTORE POP POP JUMP JUMPDEST PUSH0 DUP2 MLOAD SWAP1 POP SWAP2 SWAP1 POP JUMP JUMPDEST PUSH0 DUP3 DUP3 MSTORE PUSH1 0x20 DUP3 ADD SWAP1 POP SWAP3 SWAP2 POP POP JUMP JUMPDEST PUSH0 PUSH2 0x2E58 DUP3 PUSH2 0x2E34 JUMP JUMPDEST PUSH2 0x2E62 DUP2 DUP6 PUSH2 0x2E3E JUMP JUMPDEST SWAP4 POP PUSH2 0x2E72 DUP2 DUP6 PUSH1 0x20 DUP7 ADD PUSH2 0x2D5B JUMP JUMPDEST PUSH2 0x2E7B DUP2 PUSH2 0x2992 JUMP JUMPDEST DUP5 ADD SWAP2 POP POP SWAP3 SWAP2 POP POP JUMP JUMPDEST PUSH0 PUSH1 0xFF DUP3 AND SWAP1 POP SWAP2 SWAP1 POP JUMP JUMPDEST PUSH2 0x2E9B DUP2 PUSH2 0x2E86 JUMP JUMPDEST DUP3 MSTORE POP POP JUMP JUMPDEST PUSH0 DUP2 ISZERO ISZERO SWAP1 POP SWAP2 SWAP1 POP JUMP JUMPDEST PUSH2 0x2EB5 DUP2 PUSH2 0x2EA1 JUMP JUMPDEST DUP3 MSTORE POP POP JUMP JUMPDEST PUSH0 PUSH2 0x180 DUP3 ADD SWAP1 POP PUSH2 0x2ECF PUSH0 DUP4 ADD DUP16 PUSH2 0x2D19 JUMP JUMPDEST DUP2 DUP2 SUB PUSH1 0x20 DUP4 ADD MSTORE PUSH2 0x2EE1 DUP2 DUP15 PUSH2 0x2D69 JUMP JUMPDEST SWAP1 POP PUSH2 0x2EF0 PUSH1 0x40 DUP4 ADD DUP14 PUSH2 0x2E05 JUMP JUMPDEST PUSH2 0x2EFD PUSH1 0x60 DUP4 ADD DUP13 PUSH2 0x2E25 JUMP JUMPDEST PUSH2 0x2F0A PUSH1 0x80 DUP4 ADD DUP12 PUSH2 0x2E25 JUMP JUMPDEST PUSH2 0x2F17 PUSH1 0xA0 DUP4 ADD DUP11 PUSH2 0x2E25 JUMP JUMPDEST PUSH2 0x2F24 PUSH1 0xC0 DUP4 ADD DUP10 PUSH2 0x2E25 JUMP JUMPDEST PUSH2 0x2F31 PUSH1 0xE0 DUP4 ADD DUP9 PUSH2 0x2CC9 JUMP JUMPDEST DUP2 DUP2 SUB PUSH2 0x100 DUP4 ADD MSTORE PUSH2 0x2F44 DUP2 DUP8 PUSH2 0x2D69 JUMP JUMPDEST SWAP1 POP DUP2 DUP2 SUB PUSH2 0x120 DUP4 ADD MSTORE PUSH2 0x2F59 DUP2 DUP7 PUSH2 0x2E4E JUMP JUMPDEST SWAP1 POP PUSH2 0x2F69 PUSH2 0x140 DUP4 ADD DUP6 PUSH2 0x2E92 JUMP JUMPDEST PUSH2 0x2F77 PUSH2 0x160 DUP4 ADD DUP5 PUSH2 0x2EAC JUMP JUMPDEST SWAP14 SWAP13 POP POP POP POP POP POP POP POP POP POP POP POP POP JUMP JUMPDEST PUSH0 PUSH8 0xFFFFFFFFFFFFFFFF DUP3 GT ISZERO PUSH2 0x2FA2 JUMPI PUSH2 0x2FA1 PUSH2 0x29A2 JUMP JUMPDEST JUMPDEST PUSH2 0x2FAB DUP3 PUSH2 0x2992 JUMP JUMPDEST SWAP1 POP PUSH1 0x20 DUP2 ADD SWAP1 POP SWAP2 SWAP1 POP JUMP JUMPDEST PUSH0 PUSH2 0x2FCA PUSH2 0x2FC5 DUP5 PUSH2 0x2F88 JUMP JUMPDEST PUSH2 0x2A00 JUMP JUMPDEST SWAP1 POP DUP3 DUP2 MSTORE PUSH1 0x20 DUP2 ADD DUP5 DUP5 DUP5 ADD GT ISZERO PUSH2 0x2FE6 JUMPI PUSH2 0x2FE5 PUSH2 0x298E JUMP JUMPDEST JUMPDEST PUSH2 0x2FF1 DUP5 DUP3 DUP6 PUSH2 0x2A4A JUMP JUMPDEST POP SWAP4 SWAP3 POP POP POP JUMP JUMPDEST PUSH0 DUP3 PUSH1 0x1F DUP4 ADD SLT PUSH2 0x300D JUMPI PUSH2 0x300C PUSH2 0x298A JUMP JUMPDEST JUMPDEST DUP2 CALLDATALOAD PUSH2 0x301D DUP5 DUP3 PUSH1 0x20 DUP7 ADD PUSH2 0x2FB8 JUMP JUMPDEST SWAP2 POP POP SWAP3 SWAP2 POP POP JUMP JUMPDEST PUSH2 0x302F DUP2 PUSH2 0x2E14 JUMP JUMPDEST DUP2 EQ PUSH2 0x3039 JUMPI PUSH0 PUSH0 REVERT JUMPDEST POP JUMP JUMPDEST PUSH0 DUP2 CALLDATALOAD SWAP1 POP PUSH2 0x304A DUP2 PUSH2 0x3026 JUMP JUMPDEST SWAP3 SWAP2 POP POP JUMP JUMPDEST PUSH0 PUSH0 PUSH0 PUSH0 PUSH0 PUSH1 0xA0 DUP7 DUP9 SUB SLT ISZERO PUSH2 0x3069 JUMPI PUSH2 0x3068 PUSH2 0x294F JUMP JUMPDEST JUMPDEST PUSH0 DUP7 ADD CALLDATALOAD PUSH8 0xFFFFFFFFFFFFFFFF DUP2 GT ISZERO PUSH2 0x3086 JUMPI PUSH2 0x3085 PUSH2 0x2953 JUMP JUMPDEST JUMPDEST PUSH2 0x3092 DUP9 DUP3 DUP10 ADD PUSH2 0x2FF9 JUMP JUMPDEST SWAP6 POP POP PUSH1 0x20 PUSH2 0x30A3 DUP9 DUP3 DUP10 ADD PUSH2 0x303C JUMP JUMPDEST SWAP5 POP POP PUSH1 0x40 PUSH2 0x30B4 DUP9 DUP3 DUP10 ADD PUSH2 0x303C JUMP JUMPDEST SWAP4 POP POP PUSH1 0x60 DUP7 ADD CALLDATALOAD PUSH8 0xFFFFFFFFFFFFFFFF DUP2 GT ISZERO PUSH2 0x30D5 JUMPI PUSH2 0x30D4 PUSH2 0x2953 JUMP JUMPDEST JUMPDEST PUSH2 0x30E1 DUP9 DUP3 DUP10 ADD PUSH2 0x2FF9 JUMP JUMPDEST SWAP3 POP POP PUSH1 0x80 DUP7 ADD CALLDATALOAD PUSH8 0xFFFFFFFFFFFFFFFF DUP2 GT ISZERO PUSH2 0x3102 JUMPI PUSH2 0x3101 PUSH2 0x2953 JUMP JUMPDEST JUMPDEST PUSH2 0x310E DUP9 DUP3 DUP10 ADD PUSH2 0x2A99 JUMP JUMPDEST SWAP2 POP POP SWAP3 SWAP6 POP SWAP3 SWAP6 SWAP1 SWAP4 POP JUMP JUMPDEST PUSH0 PUSH0 REVERT JUMPDEST PUSH0 PUSH0 REVERT JUMPDEST PUSH0 PUSH0 DUP4 PUSH1 0x1F DUP5 ADD SLT PUSH2 0x3138 JUMPI PUSH2 0x3137 PUSH2 0x298A JUMP JUMPDEST JUMPDEST DUP3 CALLDATALOAD SWAP1 POP PUSH8 0xFFFFFFFFFFFFFFFF DUP2 GT ISZERO PUSH2 0x3155 JUMPI PUSH2 0x3154 PUSH2 0x311B JUMP JUMPDEST JUMPDEST PUSH1 0x20 DUP4 ADD SWAP2 POP DUP4 PUSH1 0x20 DUP3 MUL DUP4 ADD GT ISZERO PUSH2 0x3171 JUMPI PUSH2 0x3170 PUSH2 0x311F JUMP JUMPDEST JUMPDEST SWAP3 POP SWAP3 SWAP1 POP JUMP JUMPDEST PUSH0 PUSH0 DUP4 PUSH1 0x1F DUP5 ADD SLT PUSH2 0x318D JUMPI PUSH2 0x318C PUSH2 0x298A JUMP JUMPDEST JUMPDEST DUP3 CALLDATALOAD SWAP1 POP PUSH8 0xFFFFFFFFFFFFFFFF DUP2 GT ISZERO PUSH2 0x31AA JUMPI PUSH2 0x31A9 PUSH2 0x311B JUMP JUMPDEST JUMPDEST PUSH1 0x20 DUP4 ADD SWAP2 POP DUP4 PUSH1 0x20 DUP3 MUL DUP4 ADD GT ISZERO PUSH2 0x31C6 JUMPI PUSH2 0x31C5 PUSH2 0x311F JUMP JUMPDEST JUMPDEST SWAP3 POP SWAP3 SWAP1 POP JUMP JUMPDEST PUSH0 PUSH0 PUSH0 PUSH0 PUSH0 PUSH0 PUSH0 PUSH1 0x80 DUP9 DUP11 SUB SLT ISZERO PUSH2 0x31E8 JUMPI PUSH2 0x31E7 PUSH2 0x294F JUMP JUMPDEST JUMPDEST PUSH0 PUSH2 0x31F5 DUP11 DUP3 DUP12 ADD PUSH2 0x2BF2 JUMP JUMPDEST SWAP8 POP POP PUSH1 0x20 DUP9 ADD CALLDATALOAD PUSH8 0xFFFFFFFFFFFFFFFF DUP2 GT ISZERO PUSH2 0x3216 JUMPI PUSH2 0x3215 PUSH2 0x2953 JUMP JUMPDEST JUMPDEST PUSH2 0x3222 DUP11 DUP3 DUP12 ADD PUSH2 0x3123 JUMP JUMPDEST SWAP7 POP SWAP7 POP POP PUSH1 0x40 DUP9 ADD CALLDATALOAD PUSH8 0xFFFFFFFFFFFFFFFF DUP2 GT ISZERO PUSH2 0x3245 JUMPI PUSH2 0x3244 PUSH2 0x2953 JUMP JUMPDEST JUMPDEST PUSH2 0x3251 DUP11 DUP3 DUP12 ADD PUSH2 0x3178 JUMP JUMPDEST SWAP5 POP SWAP5 POP POP PUSH1 0x60 DUP9 ADD CALLDATALOAD PUSH8 0xFFFFFFFFFFFFFFFF DUP2 GT ISZERO PUSH2 0x3274 JUMPI PUSH2 0x3273 PUSH2 0x2953 JUMP JUMPDEST JUMPDEST PUSH2 0x3280 DUP11 DUP3 DUP12 ADD PUSH2 0x3123 JUMP JUMPDEST SWAP3 POP SWAP3 POP POP SWAP3 SWAP6 SWAP9 SWAP2 SWAP5 SWAP8 POP SWAP3 SWAP6 POP JUMP JUMPDEST PUSH32 0x596F75206E6F74206F776E657221212100000000000000000000000000000000 PUSH0 DUP3 ADD MSTORE POP JUMP JUMPDEST PUSH0 PUSH2 0x32C5 PUSH1 0x10 DUP4 PUSH2 0x2D4B JUMP JUMPDEST SWAP2 POP PUSH2 0x32D0 DUP3 PUSH2 0x3291 JUMP JUMPDEST PUSH1 0x20 DUP3 ADD SWAP1 POP SWAP2 SWAP1 POP JUMP JUMPDEST PUSH0 PUSH1 0x20 DUP3 ADD SWAP1 POP DUP2 DUP2 SUB PUSH0 DUP4 ADD MSTORE PUSH2 0x32F2 DUP2 PUSH2 0x32B9 JUMP JUMPDEST SWAP1 POP SWAP2 SWAP1 POP JUMP JUMPDEST PUSH32 0x596F75206E6F742061646D696E21212100000000000000000000000000000000 PUSH0 DUP3 ADD MSTORE POP JUMP JUMPDEST PUSH0 PUSH2 0x332D PUSH1 0x10 DUP4 PUSH2 0x2D4B JUMP JUMPDEST SWAP2 POP PUSH2 0x3338 DUP3 PUSH2 0x32F9 JUMP JUMPDEST PUSH1 0x20 DUP3 ADD SWAP1 POP SWAP2 SWAP1 POP JUMP JUMPDEST PUSH0 PUSH1 0x20 DUP3 ADD SWAP1 POP DUP2 DUP2 SUB PUSH0 DUP4 ADD MSTORE PUSH2 0x335A DUP2 PUSH2 0x3321 JUMP JUMPDEST SWAP1 POP SWAP2 SWAP1 POP JUMP JUMPDEST PUSH32 0x4E487B7100000000000000000000000000000000000000000000000000000000 PUSH0 MSTORE PUSH1 0x32 PUSH1 0x4 MSTORE PUSH1 0x24 PUSH0 REVERT JUMPDEST PUSH32 0x4D757374206265207265736F6C76656421000000000000000000000000000000 PUSH0 DUP3 ADD MSTORE POP JUMP JUMPDEST PUSH0 PUSH2 0x33C2 PUSH1 0x11 DUP4 PUSH2 0x2D4B JUMP JUMPDEST SWAP2 POP PUSH2 0x33CD DUP3 PUSH2 0x338E JUMP JUMPDEST PUSH1 0x20 DUP3 ADD SWAP1 POP SWAP2 SWAP1 POP JUMP JUMPDEST PUSH0 PUSH1 0x20 DUP3 ADD SWAP1 POP DUP2 DUP2 SUB PUSH0 DUP4 ADD MSTORE PUSH2 0x33EF DUP2 PUSH2 0x33B6 JUMP JUMPDEST SWAP1 POP SWAP2 SWAP1 POP JUMP JUMPDEST PUSH32 0x4E6F7420796F7572206265740000000000000000000000000000000000000000 PUSH0 DUP3 ADD MSTORE POP JUMP JUMPDEST PUSH0 PUSH2 0x342A PUSH1 0xC DUP4 PUSH2 0x2D4B JUMP JUMPDEST SWAP2 POP PUSH2 0x3435 DUP3 PUSH2 0x33F6 JUMP JUMPDEST PUSH1 0x20 DUP3 ADD SWAP1 POP SWAP2 SWAP1 POP JUMP JUMPDEST PUSH0 PUSH1 0x20 DUP3 ADD SWAP1 POP DUP2 DUP2 SUB PUSH0 DUP4 ADD MSTORE PUSH2 0x3457 DUP2 PUSH2 0x341E JUMP JUMPDEST SWAP1 POP SWAP2 SWAP1 POP JUMP JUMPDEST PUSH32 0x416C726561647920636C61696D65642100000000000000000000000000000000 PUSH0 DUP3 ADD MSTORE POP JUMP JUMPDEST PUSH0 PUSH2 0x3492 PUSH1 0x10 DUP4 PUSH2 0x2D4B JUMP JUMPDEST SWAP2 POP PUSH2 0x349D DUP3 PUSH2 0x345E JUMP JUMPDEST PUSH1 0x20 DUP3 ADD SWAP1 POP SWAP2 SWAP1 POP JUMP JUMPDEST PUSH0 PUSH1 0x20 DUP3 ADD SWAP1 POP DUP2 DUP2 SUB PUSH0 DUP4 ADD MSTORE PUSH2 0x34BF DUP2 PUSH2 0x3486 JUMP JUMPDEST SWAP1 POP SWAP2 SWAP1 POP JUMP JUMPDEST PUSH32 0x4E6F742077696E6E696E67206F7074696F6E2100000000000000000000000000 PUSH0 DUP3 ADD MSTORE POP JUMP JUMPDEST PUSH0 PUSH2 0x34FA PUSH1 0x13 DUP4 PUSH2 0x2D4B JUMP JUMPDEST SWAP2 POP PUSH2 0x3505 DUP3 PUSH2 0x34C6 JUMP JUMPDEST PUSH1 0x20 DUP3 ADD SWAP1 POP SWAP2 SWAP1 POP JUMP JUMPDEST PUSH0 PUSH1 0x20 DUP3 ADD SWAP1 POP DUP2 DUP2 SUB PUSH0 DUP4 ADD MSTORE PUSH2 0x3527 DUP2 PUSH2 0x34EE JUMP JUMPDEST SWAP1 POP SWAP2 SWAP1 POP JUMP JUMPDEST PUSH32 0x4E487B7100000000000000000000000000000000000000000000000000000000 PUSH0 MSTORE PUSH1 0x12 PUSH1 0x4 MSTORE PUSH1 0x24 PUSH0 REVERT JUMPDEST PUSH32 0x4E487B7100000000000000000000000000000000000000000000000000000000 PUSH0 MSTORE PUSH1 0x11 PUSH1 0x4 MSTORE PUSH1 0x24 PUSH0 REVERT JUMPDEST PUSH0 PUSH2 0x3592 DUP3 PUSH2 0x2BD3 JUMP JUMPDEST SWAP2 POP PUSH2 0x359D DUP4 PUSH2 0x2BD3 JUMP JUMPDEST SWAP3 POP DUP3 PUSH2 0x35AD JUMPI PUSH2 0x35AC PUSH2 0x352E JUMP JUMPDEST JUMPDEST DUP3 DUP3 DIV SWAP1 POP SWAP3 SWAP2 POP POP JUMP JUMPDEST PUSH0 PUSH2 0x35C2 DUP3 PUSH2 0x2BD3 JUMP JUMPDEST SWAP2 POP PUSH2 0x35CD DUP4 PUSH2 0x2BD3 JUMP JUMPDEST SWAP3 POP DUP3 DUP3 MUL PUSH2 0x35DB DUP2 PUSH2 0x2BD3 JUMP JUMPDEST SWAP2 POP DUP3 DUP3 DIV DUP5 EQ DUP4 ISZERO OR PUSH2 0x35F2 JUMPI PUSH2 0x35F1 PUSH2 0x355B JUMP JUMPDEST JUMPDEST POP SWAP3 SWAP2 POP POP JUMP JUMPDEST PUSH0 DUP2 SWAP1 POP SWAP3 SWAP2 POP POP JUMP JUMPDEST POP JUMP JUMPDEST PUSH0 PUSH2 0x3611 PUSH0 DUP4 PUSH2 0x35F9 JUMP JUMPDEST SWAP2 POP PUSH2 0x361C DUP3 PUSH2 0x3603 JUMP JUMPDEST PUSH0 DUP3 ADD SWAP1 POP SWAP2 SWAP1 POP JUMP JUMPDEST PUSH0 PUSH2 0x3630 DUP3 PUSH2 0x3606 JUMP JUMPDEST SWAP2 POP DUP2 SWAP1 POP SWAP2 SWAP1 POP JUMP JUMPDEST PUSH32 0x5472616E73666572206661696C65642100000000000000000000000000000000 PUSH0 DUP3 ADD MSTORE POP JUMP JUMPDEST PUSH0 PUSH2 0x366E PUSH1 0x10 DUP4 PUSH2 0x2D4B JUMP JUMPDEST SWAP2 POP PUSH2 0x3679 DUP3 PUSH2 0x363A JUMP JUMPDEST PUSH1 0x20 DUP3 ADD SWAP1 POP SWAP2 SWAP1 POP JUMP JUMPDEST PUSH0 PUSH1 0x20 DUP3 ADD SWAP1 POP DUP2 DUP2 SUB PUSH0 DUP4 ADD MSTORE PUSH2 0x369B DUP2 PUSH2 0x3662 JUMP JUMPDEST SWAP1 POP SWAP2 SWAP1 POP JUMP JUMPDEST PUSH32 0x4D61726B6574206E6F74206F70656E2121210000000000000000000000000000 PUSH0 DUP3 ADD MSTORE POP JUMP JUMPDEST PUSH0 PUSH2 0x36D6 PUSH1 0x12 DUP4 PUSH2 0x2D4B JUMP JUMPDEST SWAP2 POP PUSH2 0x36E1 DUP3 PUSH2 0x36A2 JUMP JUMPDEST PUSH1 0x20 DUP3 ADD SWAP1 POP SWAP2 SWAP1 POP JUMP JUMPDEST PUSH0 PUSH1 0x20 DUP3 ADD SWAP1 POP DUP2 DUP2 SUB PUSH0 DUP4 ADD MSTORE PUSH2 0x3703 DUP2 PUSH2 0x36CA JUMP JUMPDEST SWAP1 POP SWAP2 SWAP1 POP JUMP JUMPDEST PUSH32 0x42657474696E6720636C6F736564212121000000000000000000000000000000 PUSH0 DUP3 ADD MSTORE POP JUMP JUMPDEST PUSH0 PUSH2 0x373E PUSH1 0x11 DUP4 PUSH2 0x2D4B JUMP JUMPDEST SWAP2 POP PUSH2 0x3749 DUP3 PUSH2 0x370A JUMP JUMPDEST PUSH1 0x20 DUP3 ADD SWAP1 POP SWAP2 SWAP1 POP JUMP JUMPDEST PUSH0 PUSH1 0x20 DUP3 ADD SWAP1 POP DUP2 DUP2 SUB PUSH0 DUP4 ADD MSTORE PUSH2 0x376B DUP2 PUSH2 0x3732 JUMP JUMPDEST SWAP1 POP SWAP2 SWAP1 POP JUMP JUMPDEST PUSH32 0x4D75737420626967676572207468616E20300000000000000000000000000000 PUSH0 DUP3 ADD MSTORE POP JUMP JUMPDEST PUSH0 PUSH2 0x37A6 PUSH1 0x12 DUP4 PUSH2 0x2D4B JUMP JUMPDEST SWAP2 POP PUSH2 0x37B1 DUP3 PUSH2 0x3772 JUMP JUMPDEST PUSH1 0x20 DUP3 ADD SWAP1 POP SWAP2 SWAP1 POP JUMP JUMPDEST PUSH0 PUSH1 0x20 DUP3 ADD SWAP1 POP DUP2 DUP2 SUB PUSH0 DUP4 ADD MSTORE PUSH2 0x37D3 DUP2 PUSH2 0x379A JUMP JUMPDEST SWAP1 POP SWAP2 SWAP1 POP JUMP JUMPDEST PUSH32 0x4E487B7100000000000000000000000000000000000000000000000000000000 PUSH0 MSTORE PUSH1 0x22 PUSH1 0x4 MSTORE PUSH1 0x24 PUSH0 REVERT JUMPDEST PUSH0 PUSH1 0x2 DUP3 DIV SWAP1 POP PUSH1 0x1 DUP3 AND DUP1 PUSH2 0x381E JUMPI PUSH1 0x7F DUP3 AND SWAP2 POP JUMPDEST PUSH1 0x20 DUP3 LT DUP2 SUB PUSH2 0x3831 JUMPI PUSH2 0x3830 PUSH2 0x37DA JUMP JUMPDEST JUMPDEST POP SWAP2 SWAP1 POP JUMP JUMPDEST PUSH0 DUP2 SWAP1 POP DUP2 PUSH0 MSTORE PUSH1 0x20 PUSH0 KECCAK256 SWAP1 POP SWAP2 SWAP1 POP JUMP JUMPDEST PUSH0 PUSH1 0x20 PUSH1 0x1F DUP4 ADD DIV SWAP1 POP SWAP2 SWAP1 POP JUMP JUMPDEST PUSH0 DUP3 DUP3 SHL SWAP1 POP SWAP3 SWAP2 POP POP JUMP JUMPDEST PUSH0 PUSH1 0x8 DUP4 MUL PUSH2 0x3893 PUSH32 0xFFFFFFFFFFFFFFFFFFFFFFFFFFFFFFFFFFFFFFFFFFFFFFFFFFFFFFFFFFFFFFFF DUP3 PUSH2 0x3858 JUMP JUMPDEST PUSH2 0x389D DUP7 DUP4 PUSH2 0x3858 JUMP JUMPDEST SWAP6 POP DUP1 NOT DUP5 AND SWAP4 POP DUP1 DUP7 AND DUP5 OR SWAP3 POP POP POP SWAP4 SWAP3 POP POP POP JUMP JUMPDEST PUSH0 DUP2 SWAP1 POP SWAP2 SWAP1 POP JUMP JUMPDEST PUSH0 PUSH2 0x38D8 PUSH2 0x38D3 PUSH2 0x38CE DUP5 PUSH2 0x2BD3 JUMP JUMPDEST PUSH2 0x38B5 JUMP JUMPDEST PUSH2 0x2BD3 JUMP JUMPDEST SWAP1 POP SWAP2 SWAP1 POP JUMP JUMPDEST PUSH0 DUP2 SWAP1 POP SWAP2 SWAP1 POP JUMP JUMPDEST PUSH2 0x38F1 DUP4 PUSH2 0x38BE JUMP JUMPDEST PUSH2 0x3905 PUSH2 0x38FD DUP3 PUSH2 0x38DF JUMP JUMPDEST DUP5 DUP5 SLOAD PUSH2 0x3864 JUMP JUMPDEST DUP3 SSTORE POP POP POP POP JUMP JUMPDEST PUSH0 PUSH0 SWAP1 POP SWAP1 JUMP JUMPDEST PUSH2 0x391C PUSH2 0x390D JUMP JUMPDEST PUSH2 0x3927 DUP2 DUP5 DUP5 PUSH2 0x38E8 JUMP JUMPDEST POP POP POP JUMP JUMPDEST PUSH0 JUMPDEST DUP3 DUP2 LT ISZERO PUSH2 0x394D JUMPI PUSH2 0x3942 PUSH0 DUP3 DUP5 ADD PUSH2 0x3914 JUMP JUMPDEST PUSH1 0x1 DUP2 ADD SWAP1 POP PUSH2 0x392E JUMP JUMPDEST POP POP POP JUMP JUMPDEST PUSH1 0x1F DUP3 GT ISZERO PUSH2 0x39A0 JUMPI DUP3 DUP3 GT ISZERO PUSH2 0x399F JUMPI PUSH2 0x396C DUP2 PUSH2 0x3837 JUMP JUMPDEST PUSH2 0x3975 DUP4 PUSH2 0x3849 JUMP JUMPDEST PUSH2 0x397E DUP6 PUSH2 0x3849 JUMP JUMPDEST PUSH1 0x20 DUP7 LT ISZERO PUSH2 0x398B JUMPI PUSH0 SWAP1 POP JUMPDEST DUP1 DUP4 ADD PUSH2 0x399A DUP3 DUP5 SUB DUP3 PUSH2 0x392C JUMP JUMPDEST POP POP POP POP JUMPDEST JUMPDEST POP POP POP JUMP JUMPDEST PUSH0 DUP3 DUP3 SHR SWAP1 POP SWAP3 SWAP2 POP POP JUMP JUMPDEST PUSH0 PUSH2 0x39C0 PUSH0 NOT DUP5 PUSH1 0x8 MUL PUSH2 0x39A5 JUMP JUMPDEST NOT DUP1 DUP4 AND SWAP2 POP POP SWAP3 SWAP2 POP POP JUMP JUMPDEST PUSH0 PUSH2 0x39D8 DUP4 DUP4 PUSH2 0x39B1 JUMP JUMPDEST SWAP2 POP DUP3 PUSH1 0x2 MUL DUP3 OR SWAP1 POP SWAP3 SWAP2 POP POP JUMP JUMPDEST PUSH2 0x39F1 DUP3 PUSH2 0x2E34 JUMP JUMPDEST PUSH8 0xFFFFFFFFFFFFFFFF DUP2 GT ISZERO PUSH2 0x3A0A JUMPI PUSH2 0x3A09 PUSH2 0x29A2 JUMP JUMPDEST JUMPDEST PUSH2 0x3A14 DUP3 SLOAD PUSH2 0x3807 JUMP JUMPDEST PUSH2 0x3A1F DUP3 DUP3 DUP6 PUSH2 0x3952 JUMP JUMPDEST PUSH0 PUSH1 0x20 SWAP1 POP PUSH1 0x1F DUP4 GT PUSH1 0x1 DUP2 EQ PUSH2 0x3A50 JUMPI PUSH0 DUP5 ISZERO PUSH2 0x3A3E JUMPI DUP3 DUP8 ADD MLOAD SWAP1 POP JUMPDEST PUSH2 0x3A48 DUP6 DUP3 PUSH2 0x39CD JUMP JUMPDEST DUP7 SSTORE POP PUSH2 0x3AAF JUMP JUMPDEST PUSH1 0x1F NOT DUP5 AND PUSH2 0x3A5E DUP7 PUSH2 0x3837 JUMP JUMPDEST PUSH0 JUMPDEST DUP3 DUP2 LT ISZERO PUSH2 0x3A85 JUMPI DUP5 DUP10 ADD MLOAD DUP3 SSTORE PUSH1 0x1 DUP3 ADD SWAP2 POP PUSH1 0x20 DUP6 ADD SWAP5 POP PUSH1 0x20 DUP2 ADD SWAP1 POP PUSH2 0x3A60 JUMP JUMPDEST DUP7 DUP4 LT ISZERO PUSH2 0x3AA2 JUMPI DUP5 DUP10 ADD MLOAD PUSH2 0x3A9E PUSH1 0x1F DUP10 AND DUP3 PUSH2 0x39B1 JUMP JUMPDEST DUP4 SSTORE POP JUMPDEST PUSH1 0x1 PUSH1 0x2 DUP9 MUL ADD DUP9 SSTORE POP POP POP JUMPDEST POP POP POP POP POP POP JUMP JUMPDEST PUSH32 0x43616E2774206265207265736F6C76696E670000000000000000000000000000 PUSH0 DUP3 ADD MSTORE POP JUMP JUMPDEST PUSH0 PUSH2 0x3AEB PUSH1 0x12 DUP4 PUSH2 0x2D4B JUMP JUMPDEST SWAP2 POP PUSH2 0x3AF6 DUP3 PUSH2 0x3AB7 JUMP JUMPDEST PUSH1 0x20 DUP3 ADD SWAP1 POP SWAP2 SWAP1 POP JUMP JUMPDEST PUSH0 PUSH1 0x20 DUP3 ADD SWAP1 POP DUP2 DUP2 SUB PUSH0 DUP4 ADD MSTORE PUSH2 0x3B18 DUP2 PUSH2 0x3ADF JUMP JUMPDEST SWAP1 POP SWAP2 SWAP1 POP JUMP JUMPDEST PUSH32 0x42657474696E67206E6F7420636C6F7365640000000000000000000000000000 PUSH0 DUP3 ADD MSTORE POP JUMP JUMPDEST PUSH0 PUSH2 0x3B53 PUSH1 0x12 DUP4 PUSH2 0x2D4B JUMP JUMPDEST SWAP2 POP PUSH2 0x3B5E DUP3 PUSH2 0x3B1F JUMP JUMPDEST PUSH1 0x20 DUP3 ADD SWAP1 POP SWAP2 SWAP1 POP JUMP JUMPDEST PUSH0 PUSH1 0x20 DUP3 ADD SWAP1 POP DUP2 DUP2 SUB PUSH0 DUP4 ADD MSTORE PUSH2 0x3B80 DUP2 PUSH2 0x3B47 JUMP JUMPDEST SWAP1 POP SWAP2 SWAP1 POP JUMP JUMPDEST PUSH32 0x54696D656F757420666F72207265736F6C76696E670000000000000000000000 PUSH0 DUP3 ADD MSTORE POP JUMP JUMPDEST PUSH0 PUSH2 0x3BBB PUSH1 0x15 DUP4 PUSH2 0x2D4B JUMP JUMPDEST SWAP2 POP PUSH2 0x3BC6 DUP3 PUSH2 0x3B87 JUMP JUMPDEST PUSH1 0x20 DUP3 ADD SWAP1 POP SWAP2 SWAP1 POP JUMP JUMPDEST PUSH0 PUSH1 0x20 DUP3 ADD SWAP1 POP DUP2 DUP2 SUB PUSH0 DUP4 ADD MSTORE PUSH2 0x3BE8 DUP2 PUSH2 0x3BAF JUMP JUMPDEST SWAP1 POP SWAP2 SWAP1 POP JUMP JUMPDEST PUSH32 0x446561646C696E652074696D657374616D70206D757374206265206C61746572 PUSH0 DUP3 ADD MSTORE PUSH32 0x2121210000000000000000000000000000000000000000000000000000000000 PUSH1 0x20 DUP3 ADD MSTORE POP JUMP JUMPDEST PUSH0 PUSH2 0x3C49 PUSH1 0x23 DUP4 PUSH2 0x2D4B JUMP JUMPDEST SWAP2 POP PUSH2 0x3C54 DUP3 PUSH2 0x3BEF JUMP JUMPDEST PUSH1 0x40 DUP3 ADD SWAP1 POP SWAP2 SWAP1 POP JUMP JUMPDEST PUSH0 PUSH1 0x20 DUP3 ADD SWAP1 POP DUP2 DUP2 SUB PUSH0 DUP4 ADD MSTORE PUSH2 0x3C76 DUP2 PUSH2 0x3C3D JUMP JUMPDEST SWAP1 POP SWAP2 SWAP1 POP JUMP JUMPDEST PUSH32 0x5265736F6C76652074696D652063616E277420657175616C207A65726F212121 PUSH0 DUP3 ADD MSTORE POP JUMP JUMPDEST PUSH0 PUSH2 0x3CB1 PUSH1 0x20 DUP4 PUSH2 0x2D4B JUMP JUMPDEST SWAP2 POP PUSH2 0x3CBC DUP3 PUSH2 0x3C7D JUMP JUMPDEST PUSH1 0x20 DUP3 ADD SWAP1 POP SWAP2 SWAP1 POP JUMP JUMPDEST PUSH0 PUSH1 0x20 DUP3 ADD SWAP1 POP DUP2 DUP2 SUB PUSH0 DUP4 ADD MSTORE PUSH2 0x3CDE DUP2 PUSH2 0x3CA5 JUMP JUMPDEST SWAP1 POP SWAP2 SWAP1 POP JUMP JUMPDEST PUSH0 PUSH2 0x3CEF DUP3 PUSH2 0x2BD3 JUMP JUMPDEST SWAP2 POP PUSH32 0xFFFFFFFFFFFFFFFFFFFFFFFFFFFFFFFFFFFFFFFFFFFFFFFFFFFFFFFFFFFFFFFF DUP3 SUB PUSH2 0x3D21 JUMPI PUSH2 0x3D20 PUSH2 0x355B JUMP JUMPDEST JUMPDEST PUSH1 0x1 DUP3 ADD SWAP1 POP SWAP2 SWAP1 POP JUMP JUMPDEST PUSH0 DUP2 SWAP1 POP DUP2 PUSH0 MSTORE PUSH1 0x20 PUSH0 KECCAK256 SWAP1 POP SWAP2 SWAP1 POP JUMP JUMPDEST PUSH1 0x1F DUP3 GT ISZERO PUSH2 0x3D8C JUMPI DUP3 DUP3 GT ISZERO PUSH2 0x3D8B JUMPI PUSH2 0x3D58 DUP2 PUSH2 0x3D2C JUMP JUMPDEST PUSH2 0x3D61 DUP4 PUSH2 0x3849 JUMP JUMPDEST PUSH2 0x3D6A DUP6 PUSH2 0x3849 JUMP JUMPDEST PUSH1 0x20 DUP7 LT ISZERO PUSH2 0x3D77 JUMPI PUSH0 SWAP1 POP JUMPDEST DUP1 DUP4 ADD PUSH2 0x3D86 DUP3 DUP5 SUB DUP3 PUSH2 0x392C JUMP JUMPDEST POP POP POP POP JUMPDEST JUMPDEST POP POP POP JUMP JUMPDEST PUSH2 0x3D9A DUP3 PUSH2 0x2D41 JUMP JUMPDEST PUSH8 0xFFFFFFFFFFFFFFFF DUP2 GT ISZERO PUSH2 0x3DB3 JUMPI PUSH2 0x3DB2 PUSH2 0x29A2 JUMP JUMPDEST JUMPDEST PUSH2 0x3DBD DUP3 SLOAD PUSH2 0x3807 JUMP JUMPDEST PUSH2 0x3DC8 DUP3 DUP3 DUP6 PUSH2 0x3D3E JUMP JUMPDEST PUSH0 PUSH1 0x20 SWAP1 POP PUSH1 0x1F DUP4 GT PUSH1 0x1 DUP2 EQ PUSH2 0x3DF9 JUMPI PUSH0 DUP5 ISZERO PUSH2 0x3DE7 JUMPI DUP3 DUP8 ADD MLOAD SWAP1 POP JUMPDEST PUSH2 0x3DF1 DUP6 DUP3 PUSH2 0x39CD JUMP JUMPDEST DUP7 SSTORE POP PUSH2 0x3E58 JUMP JUMPDEST PUSH1 0x1F NOT DUP5 AND PUSH2 0x3E07 DUP7 PUSH2 0x3D2C JUMP JUMPDEST PUSH0 JUMPDEST DUP3 DUP2 LT ISZERO PUSH2 0x3E2E JUMPI DUP5 DUP10 ADD MLOAD DUP3 SSTORE PUSH1 0x1 DUP3 ADD SWAP2 POP PUSH1 0x20 DUP6 ADD SWAP5 POP PUSH1 0x20 DUP2 ADD SWAP1 POP PUSH2 0x3E09 JUMP JUMPDEST DUP7 DUP4 LT ISZERO PUSH2 0x3E4B JUMPI DUP5 DUP10 ADD MLOAD PUSH2 0x3E47 PUSH1 0x1F DUP10 AND DUP3 PUSH2 0x39B1 JUMP JUMPDEST DUP4 SSTORE POP JUMPDEST PUSH1 0x1 PUSH1 0x2 DUP9 MUL ADD DUP9 SSTORE POP POP POP JUMPDEST POP POP POP POP POP POP JUMP JUMPDEST PUSH0 PUSH2 0x3E6A DUP3 PUSH2 0x2E14 JUMP JUMPDEST SWAP2 POP PUSH2 0x3E75 DUP4 PUSH2 0x2E14 JUMP JUMPDEST SWAP3 POP DUP3 DUP3 ADD SWAP1 POP PUSH6 0xFFFFFFFFFFFF DUP2 GT ISZERO PUSH2 0x3E93 JUMPI PUSH2 0x3E92 PUSH2 0x355B JUMP JUMPDEST JUMPDEST SWAP3 SWAP2 POP POP JUMP JUMPDEST PUSH32 0x4F6E6C79207265736F6C766564206D61726B6574210000000000000000000000 PUSH0 DUP3 ADD MSTORE POP JUMP JUMPDEST PUSH0 PUSH2 0x3ECD PUSH1 0x15 DUP4 PUSH2 0x2D4B JUMP JUMPDEST SWAP2 POP PUSH2 0x3ED8 DUP3 PUSH2 0x3E99 JUMP JUMPDEST PUSH1 0x20 DUP3 ADD SWAP1 POP SWAP2 SWAP1 POP JUMP JUMPDEST PUSH0 PUSH1 0x20 DUP3 ADD SWAP1 POP DUP2 DUP2 SUB PUSH0 DUP4 ADD MSTORE PUSH2 0x3EFA DUP2 PUSH2 0x3EC1 JUMP JUMPDEST SWAP1 POP SWAP2 SWAP1 POP JUMP JUMPDEST PUSH32 0x416C72656164792072657665616C656421212100000000000000000000000000 PUSH0 DUP3 ADD MSTORE POP JUMP JUMPDEST PUSH0 PUSH2 0x3F35 PUSH1 0x13 DUP4 PUSH2 0x2D4B JUMP JUMPDEST SWAP2 POP PUSH2 0x3F40 DUP3 PUSH2 0x3F01 JUMP JUMPDEST PUSH1 0x20 DUP3 ADD SWAP1 POP SWAP2 SWAP1 POP JUMP JUMPDEST PUSH0 PUSH1 0x20 DUP3 ADD SWAP1 POP DUP2 DUP2 SUB PUSH0 DUP4 ADD MSTORE PUSH2 0x3F62 DUP2 PUSH2 0x3F29 JUMP JUMPDEST SWAP1 POP SWAP2 SWAP1 POP JUMP JUMPDEST PUSH2 0x3F72 DUP2 PUSH2 0x2E86 JUMP JUMPDEST DUP2 EQ PUSH2 0x3F7C JUMPI PUSH0 PUSH0 REVERT JUMPDEST POP JUMP JUMPDEST PUSH0 DUP2 CALLDATALOAD SWAP1 POP PUSH2 0x3F8D DUP2 PUSH2 0x3F69 JUMP JUMPDEST SWAP3 SWAP2 POP POP JUMP JUMPDEST PUSH0 PUSH1 0x20 DUP3 DUP5 SUB SLT ISZERO PUSH2 0x3FA8 JUMPI PUSH2 0x3FA7 PUSH2 0x294F JUMP JUMPDEST JUMPDEST PUSH0 PUSH2 0x3FB5 DUP5 DUP3 DUP6 ADD PUSH2 0x3F7F JUMP JUMPDEST SWAP2 POP POP SWAP3 SWAP2 POP POP JUMP JUMPDEST PUSH0 PUSH2 0x3FC8 DUP3 PUSH2 0x2BD3 JUMP JUMPDEST SWAP2 POP PUSH2 0x3FD3 DUP4 PUSH2 0x2BD3 JUMP JUMPDEST SWAP3 POP DUP3 DUP3 ADD SWAP1 POP DUP1 DUP3 GT ISZERO PUSH2 0x3FEB JUMPI PUSH2 0x3FEA PUSH2 0x355B JUMP JUMPDEST JUMPDEST SWAP3 SWAP2 POP POP JUMP JUMPDEST PUSH32 0x4F6E6C79207265736F6C76696E67206D61726B65742121210000000000000000 PUSH0 DUP3 ADD MSTORE POP JUMP JUMPDEST PUSH0 PUSH2 0x4025 PUSH1 0x18 DUP4 PUSH2 0x2D4B JUMP JUMPDEST SWAP2 POP PUSH2 0x4030 DUP3 PUSH2 0x3FF1 JUMP JUMPDEST PUSH1 0x20 DUP3 ADD SWAP1 POP SWAP2 SWAP1 POP JUMP JUMPDEST PUSH0 PUSH1 0x20 DUP3 ADD SWAP1 POP DUP2 DUP2 SUB PUSH0 DUP4 ADD MSTORE PUSH2 0x4052 DUP2 PUSH2 0x4019 JUMP JUMPDEST SWAP1 POP SWAP2 SWAP1 POP JUMP JUMPDEST PUSH0 DUP2 MLOAD SWAP1 POP PUSH2 0x4067 DUP2 PUSH2 0x3F69 JUMP JUMPDEST SWAP3 SWAP2 POP POP JUMP JUMPDEST PUSH0 PUSH1 0x20 DUP3 DUP5 SUB SLT ISZERO PUSH2 0x4082 JUMPI PUSH2 0x4081 PUSH2 0x294F JUMP JUMPDEST JUMPDEST PUSH0 PUSH2 0x408F DUP5 DUP3 DUP6 ADD PUSH2 0x4059 JUMP JUMPDEST SWAP2 POP POP SWAP3 SWAP2 POP POP JUMP JUMPDEST PUSH32 0x5265656E7472616E637947756172643A207265656E7472616E742063616C6C00 PUSH0 DUP3 ADD MSTORE POP JUMP JUMPDEST PUSH0 PUSH2 0x40CC PUSH1 0x1F DUP4 PUSH2 0x2D4B JUMP JUMPDEST SWAP2 POP PUSH2 0x40D7 DUP3 PUSH2 0x4098 JUMP JUMPDEST PUSH1 0x20 DUP3 ADD SWAP1 POP SWAP2 SWAP1 POP JUMP JUMPDEST PUSH0 PUSH1 0x20 DUP3 ADD SWAP1 POP DUP2 DUP2 SUB PUSH0 DUP4 ADD MSTORE PUSH2 0x40F9 DUP2 PUSH2 0x40C0 JUMP JUMPDEST SWAP1 POP SWAP2 SWAP1 POP JUMP JUMPDEST PUSH0 PUSH8 0xFFFFFFFFFFFFFFFF DUP3 AND SWAP1 POP SWAP2 SWAP1 POP JUMP JUMPDEST PUSH2 0x411C DUP2 PUSH2 0x4100 JUMP JUMPDEST DUP3 MSTORE POP POP JUMP JUMPDEST PUSH0 PUSH2 0xFFFF DUP3 AND SWAP1 POP SWAP2 SWAP1 POP JUMP JUMPDEST PUSH2 0x4138 DUP2 PUSH2 0x4122 JUMP JUMPDEST DUP3 MSTORE POP POP JUMP JUMPDEST PUSH0 PUSH4 0xFFFFFFFF DUP3 AND SWAP1 POP SWAP2 SWAP1 POP JUMP JUMPDEST PUSH2 0x4156 DUP2 PUSH2 0x413E JUMP JUMPDEST DUP3 MSTORE POP POP JUMP JUMPDEST PUSH0 PUSH1 0xA0 DUP3 ADD SWAP1 POP PUSH2 0x416F PUSH0 DUP4 ADD DUP9 PUSH2 0x4113 JUMP JUMPDEST DUP2 DUP2 SUB PUSH1 0x20 DUP4 ADD MSTORE PUSH2 0x4181 DUP2 DUP8 PUSH2 0x2E4E JUMP JUMPDEST SWAP1 POP PUSH2 0x4190 PUSH1 0x40 DUP4 ADD DUP7 PUSH2 0x412F JUMP JUMPDEST PUSH2 0x419D PUSH1 0x60 DUP4 ADD DUP6 PUSH2 0x414D JUMP JUMPDEST PUSH2 0x41AA PUSH1 0x80 DUP4 ADD DUP5 PUSH2 0x2CC9 JUMP JUMPDEST SWAP7 SWAP6 POP POP POP POP POP POP JUMP JUMPDEST PUSH0 DUP2 MLOAD SWAP1 POP PUSH2 0x41C2 DUP2 PUSH2 0x2960 JUMP JUMPDEST SWAP3 SWAP2 POP POP JUMP JUMPDEST PUSH0 PUSH1 0x20 DUP3 DUP5 SUB SLT ISZERO PUSH2 0x41DD JUMPI PUSH2 0x41DC PUSH2 0x294F JUMP JUMPDEST JUMPDEST PUSH0 PUSH2 0x41EA DUP5 DUP3 DUP6 ADD PUSH2 0x41B4 JUMP JUMPDEST SWAP2 POP POP SWAP3 SWAP2 POP POP JUMP JUMPDEST PUSH32 0x4D61726B6574206E6F7420666F756E6400000000000000000000000000000000 PUSH0 DUP3 ADD MSTORE POP JUMP JUMPDEST PUSH0 PUSH2 0x4227 PUSH1 0x10 DUP4 PUSH2 0x2D4B JUMP JUMPDEST SWAP2 POP PUSH2 0x4232 DUP3 PUSH2 0x41F3 JUMP JUMPDEST PUSH1 0x20 DUP3 ADD SWAP1 POP SWAP2 SWAP1 POP JUMP JUMPDEST PUSH0 PUSH1 0x20 DUP3 ADD SWAP1 POP DUP2 DUP2 SUB PUSH0 DUP4 ADD MSTORE PUSH2 0x4254 DUP2 PUSH2 0x421B JUMP JUMPDEST SWAP1 POP SWAP2 SWAP1 POP JUMP JUMPDEST PUSH0 PUSH2 0x4265 DUP3 PUSH2 0x2BD3 JUMP JUMPDEST SWAP2 POP PUSH2 0x4270 DUP4 PUSH2 0x2BD3 JUMP JUMPDEST SWAP3 POP DUP3 DUP3 SUB SWAP1 POP DUP2 DUP2 GT ISZERO PUSH2 0x4288 JUMPI PUSH2 0x4287 PUSH2 0x355B JUMP JUMPDEST JUMPDEST SWAP3 SWAP2 POP POP JUMP JUMPDEST PUSH0 PUSH2 0x4298 DUP3 PUSH2 0x2BD3 JUMP JUMPDEST SWAP2 POP PUSH2 0x42A3 DUP4 PUSH2 0x2BD3 JUMP JUMPDEST SWAP3 POP DUP3 PUSH2 0x42B3 JUMPI PUSH2 0x42B2 PUSH2 0x352E JUMP JUMPDEST JUMPDEST DUP3 DUP3 MOD SWAP1 POP SWAP3 SWAP2 POP POP JUMP JUMPDEST PUSH0 DUP2 PUSH1 0x1 SHR SWAP1 POP SWAP2 SWAP1 POP JUMP JUMPDEST PUSH0 PUSH0 DUP3 SWAP2 POP DUP4 SWAP1 POP JUMPDEST PUSH1 0x1 DUP6 GT ISZERO PUSH2 0x4313 JUMPI DUP1 DUP7 DIV DUP2 GT ISZERO PUSH2 0x42EF JUMPI PUSH2 0x42EE PUSH2 0x355B JUMP JUMPDEST JUMPDEST PUSH1 0x1 DUP6 AND ISZERO PUSH2 0x42FE JUMPI DUP1 DUP3 MUL SWAP2 POP JUMPDEST DUP1 DUP2 MUL SWAP1 POP PUSH2 0x430C DUP6 PUSH2 0x42BE JUMP JUMPDEST SWAP5 POP PUSH2 0x42D3 JUMP JUMPDEST SWAP5 POP SWAP5 SWAP3 POP POP POP JUMP JUMPDEST PUSH0 DUP3 PUSH2 0x432B JUMPI PUSH1 0x1 SWAP1 POP PUSH2 0x43E6 JUMP JUMPDEST DUP2 PUSH2 0x4338 JUMPI PUSH0 SWAP1 POP PUSH2 0x43E6 JUMP JUMPDEST DUP2 PUSH1 0x1 DUP2 EQ PUSH2 0x434E JUMPI PUSH1 0x2 DUP2 EQ PUSH2 0x4358 JUMPI PUSH2 0x4387 JUMP JUMPDEST PUSH1 0x1 SWAP2 POP POP PUSH2 0x43E6 JUMP JUMPDEST PUSH1 0xFF DUP5 GT ISZERO PUSH2 0x436A JUMPI PUSH2 0x4369 PUSH2 0x355B JUMP JUMPDEST JUMPDEST DUP4 PUSH1 0x2 EXP SWAP2 POP DUP5 DUP3 GT ISZERO PUSH2 0x4381 JUMPI PUSH2 0x4380 PUSH2 0x355B JUMP JUMPDEST JUMPDEST POP PUSH2 0x43E6 JUMP JUMPDEST POP PUSH1 0x20 DUP4 LT PUSH2 0x133 DUP4 LT AND PUSH1 0x4E DUP5 LT PUSH1 0xB DUP5 LT AND OR ISZERO PUSH2 0x43BC JUMPI DUP3 DUP3 EXP SWAP1 POP DUP4 DUP2 GT ISZERO PUSH2 0x43B7 JUMPI PUSH2 0x43B6 PUSH2 0x355B JUMP JUMPDEST JUMPDEST PUSH2 0x43E6 JUMP JUMPDEST PUSH2 0x43C9 DUP5 DUP5 DUP5 PUSH1 0x1 PUSH2 0x42CA JUMP JUMPDEST SWAP3 POP SWAP1 POP DUP2 DUP5 DIV DUP2 GT ISZERO PUSH2 0x43E0 JUMPI PUSH2 0x43DF PUSH2 0x355B JUMP JUMPDEST JUMPDEST DUP2 DUP2 MUL SWAP1 POP JUMPDEST SWAP4 SWAP3 POP POP POP JUMP JUMPDEST PUSH0 PUSH2 0x43F7 DUP3 PUSH2 0x2BD3 JUMP JUMPDEST SWAP2 POP PUSH2 0x4402 DUP4 PUSH2 0x2BD3 JUMP JUMPDEST SWAP3 POP PUSH2 0x442F PUSH32 0xFFFFFFFFFFFFFFFFFFFFFFFFFFFFFFFFFFFFFFFFFFFFFFFFFFFFFFFFFFFFFFFF DUP5 DUP5 PUSH2 0x431C JUMP JUMPDEST SWAP1 POP SWAP3 SWAP2 POP POP JUMP INVALID LOG2 PUSH5 0x6970667358 0x22 SLT KECCAK256 SAR GAS DUP4 PUSH7 0x10A98822DBD4F6 PUSH15 0xE5B70B8FBB12024567BD9BB017382E CALLF 0xF46C CALLDATALOAD 0xB0 PUSH5 0x736F6C6343 STOP ADDMOD 0x22 STOP CALLER "
		},
		"gasEstimates": {
			"creation": {
				"codeDepositCost": "3503400",
				"executionCost": "infinite",
				"totalCost": "infinite"
			},
			"external": {
				"OrderMarketid()": "2447",
				"claimWinnings(uint256,uint256)": "infinite",
				"createEvent(string,uint48,uint48,string,bytes)": "infinite",
				"deleteAdmin(address)": "29262",
				"handleOracleFulfillment(bytes32,bytes,bytes)": "infinite",
				"marketTotalPools(uint256)": "infinite",
				"markets(uint256)": "infinite",
				"owner()": "2508",
				"placeBet(uint256,bytes)": "infinite",
				"resolveMarket(uint256)": "infinite",
				"revealBets(uint256,uint256[],uint8[],uint256[])": "infinite",
				"setAdmin(address)": "27088"
			},
			"internal": {
				"_settleMarket(uint256,uint8)": "72994",
				"fulfillRequest(bytes32,bytes memory,bytes memory)": "infinite",
				"requestIdGetMarketId(bytes32)": "infinite"
			}
		},
		"methodIdentifiers": {
			"OrderMarketid()": "92b408ba",
			"claimWinnings(uint256,uint256)": "286db5c2",
			"createEvent(string,uint48,uint48,string,bytes)": "e8268509",
			"deleteAdmin(address)": "27e1f7df",
			"handleOracleFulfillment(bytes32,bytes,bytes)": "0ca76175",
			"marketTotalPools(uint256)": "96fcd761",
			"markets(uint256)": "b1283e77",
			"owner()": "8da5cb5b",
			"placeBet(uint256,bytes)": "35d2a269",
			"resolveMarket(uint256)": "6399d03d",
			"revealBets(uint256,uint256[],uint8[],uint256[])": "ff51b884",
			"setAdmin(address)": "704b6c02"
		}
	},
	"abi": [
		{
			"inputs": [
				{
					"internalType": "address",
					"name": "_functionsRouter",
					"type": "address"
				},
				{
					"internalType": "uint64",
					"name": "_subscription_id",
					"type": "uint64"
				}
			],
			"stateMutability": "nonpayable",
			"type": "constructor"
		},
		{
			"inputs": [],
			"name": "EmptyArgs",
			"type": "error"
		},
		{
			"inputs": [],
			"name": "EmptySecrets",
			"type": "error"
		},
		{
			"inputs": [],
			"name": "EmptySource",
			"type": "error"
		},
		{
			"inputs": [],
			"name": "NoInlineSecrets",
			"type": "error"
		},
		{
			"inputs": [],
			"name": "OnlyRouterCanFulfill",
			"type": "error"
		},
		{
			"anonymous": false,
			"inputs": [
				{
					"indexed": true,
					"internalType": "bytes32",
					"name": "id",
					"type": "bytes32"
				}
			],
			"name": "RequestFulfilled",
			"type": "event"
		},
		{
			"anonymous": false,
			"inputs": [
				{
					"indexed": true,
					"internalType": "bytes32",
					"name": "id",
					"type": "bytes32"
				}
			],
			"name": "RequestSent",
			"type": "event"
		},
		{
			"inputs": [],
			"name": "OrderMarketid",
			"outputs": [
				{
					"internalType": "uint256",
					"name": "",
					"type": "uint256"
				}
			],
			"stateMutability": "view",
			"type": "function"
		},
		{
			"inputs": [
				{
					"internalType": "uint256",
					"name": "_marketId",
					"type": "uint256"
				},
				{
					"internalType": "uint256",
					"name": "_betIndex",
					"type": "uint256"
				}
			],
			"name": "claimWinnings",
			"outputs": [],
			"stateMutability": "nonpayable",
			"type": "function"
		},
		{
			"inputs": [
				{
					"internalType": "string",
					"name": "description",
					"type": "string"
				},
				{
					"internalType": "uint48",
					"name": "deadlinetimestamp",
					"type": "uint48"
				},
				{
					"internalType": "uint48",
					"name": "analysiswindowtime",
					"type": "uint48"
				},
				{
					"internalType": "string",
					"name": "_functionsSource",
					"type": "string"
				},
				{
					"internalType": "bytes",
					"name": "_encryptedSecrets",
					"type": "bytes"
				}
			],
			"name": "createEvent",
			"outputs": [
				{
					"internalType": "uint256",
					"name": "market_id",
					"type": "uint256"
				}
			],
			"stateMutability": "nonpayable",
			"type": "function"
		},
		{
			"inputs": [
				{
					"internalType": "address",
					"name": "_admin",
					"type": "address"
				}
			],
			"name": "deleteAdmin",
			"outputs": [],
			"stateMutability": "nonpayable",
			"type": "function"
		},
		{
			"inputs": [
				{
					"internalType": "bytes32",
					"name": "requestId",
					"type": "bytes32"
				},
				{
					"internalType": "bytes",
					"name": "response",
					"type": "bytes"
				},
				{
					"internalType": "bytes",
					"name": "err",
					"type": "bytes"
				}
			],
			"name": "handleOracleFulfillment",
			"outputs": [],
			"stateMutability": "nonpayable",
			"type": "function"
		},
		{
			"inputs": [
				{
					"internalType": "uint256",
					"name": "id",
					"type": "uint256"
				}
			],
			"name": "marketTotalPools",
			"outputs": [
				{
					"internalType": "uint256",
					"name": "totalPool",
					"type": "uint256"
				}
			],
			"stateMutability": "view",
			"type": "function"
		},
		{
			"inputs": [
				{
					"internalType": "uint256",
					"name": "market_id",
					"type": "uint256"
				}
			],
			"name": "markets",
			"outputs": [
				{
					"internalType": "uint256",
					"name": "id",
					"type": "uint256"
				},
				{
					"internalType": "string",
					"name": "description",
					"type": "string"
				},
				{
					"internalType": "enum MarketData.MarketStatus",
					"name": "state",
					"type": "uint8"
				},
				{
					"internalType": "uint48",
					"name": "createTimeStamp",
					"type": "uint48"
				},
				{
					"internalType": "uint48",
					"name": "closeTime",
					"type": "uint48"
				},
				{
					"internalType": "uint48",
					"name": "resolveWindow",
					"type": "uint48"
				},
				{
					"internalType": "uint48",
					"name": "resolveTimeStamp",
					"type": "uint48"
				},
				{
					"internalType": "bytes32",
					"name": "functionsRequest_id",
					"type": "bytes32"
				},
				{
					"internalType": "string",
					"name": "functionsSource",
					"type": "string"
				},
				{
					"internalType": "bytes",
					"name": "encryptedSecrets",
					"type": "bytes"
				},
				{
					"internalType": "uint8",
					"name": "outcome",
					"type": "uint8"
				},
				{
					"internalType": "bool",
					"name": "resolved",
					"type": "bool"
				}
			],
			"stateMutability": "view",
			"type": "function"
		},
		{
			"inputs": [],
			"name": "owner",
			"outputs": [
				{
					"internalType": "address",
					"name": "",
					"type": "address"
				}
			],
			"stateMutability": "view",
			"type": "function"
		},
		{
			"inputs": [
				{
					"internalType": "uint256",
					"name": "_market_id",
					"type": "uint256"
				},
				{
					"internalType": "bytes",
					"name": "_encryptedBet",
					"type": "bytes"
				}
			],
			"name": "placeBet",
			"outputs": [],
			"stateMutability": "payable",
			"type": "function"
		},
		{
			"inputs": [
				{
					"internalType": "uint256",
					"name": "market_id",
					"type": "uint256"
				}
			],
			"name": "resolveMarket",
			"outputs": [
				{
					"internalType": "bytes32",
					"name": "request_id",
					"type": "bytes32"
				}
			],
			"stateMutability": "nonpayable",
			"type": "function"
		},
		{
			"inputs": [
				{
					"internalType": "uint256",
					"name": "market_id",
					"type": "uint256"
				},
				{
					"internalType": "uint256[]",
					"name": "_betIndices",
					"type": "uint256[]"
				},
				{
					"internalType": "uint8[]",
					"name": "_options",
					"type": "uint8[]"
				},
				{
					"internalType": "uint256[]",
					"name": "_amounts",
					"type": "uint256[]"
				}
			],
			"name": "revealBets",
			"outputs": [],
			"stateMutability": "nonpayable",
			"type": "function"
		},
		{
			"inputs": [
				{
					"internalType": "address",
					"name": "_admin",
					"type": "address"
				}
			],
			"name": "setAdmin",
			"outputs": [],
			"stateMutability": "nonpayable",
			"type": "function"
		}
	]
}