{
	"data": {
		"bytecode": {
			"linkReferences": {},
			"object": "60a060405234801561000f575f5ffd5b50604051615135380380615135833981810160405281019061003191906103bf565b33805f848073ffffffffffffffffffffffffffffffffffffffff1660808173ffffffffffffffffffffffffffffffffffffffff1681525050505f73ffffffffffffffffffffffffffffffffffffffff168273ffffffffffffffffffffffffffffffffffffffff16036100d8576040517f08c379a00000000000000000000000000000000000000000000000000000000081526004016100cf90610457565b60405180910390fd5b815f5f6101000a81548173ffffffffffffffffffffffffffffffffffffffff021916908373ffffffffffffffffffffffffffffffffffffffff1602179055505f73ffffffffffffffffffffffffffffffffffffffff168173ffffffffffffffffffffffffffffffffffffffff161461015a57610159816101f960201b60201c565b5b50505060016002819055504260075f6101000a81548165ffffffffffff021916908365ffffffffffff1602179055508160065f6101000a81548173ffffffffffffffffffffffffffffffffffffffff021916908373ffffffffffffffffffffffffffffffffffffffff16021790555080600660146101000a81548167ffffffffffffffff021916908367ffffffffffffffff16021790555050506104dd565b3373ffffffffffffffffffffffffffffffffffffffff168173ffffffffffffffffffffffffffffffffffffffff1603610267576040517f08c379a000000000000000000000000000000000000000000000000000000000815260040161025e906104bf565b60405180910390fd5b8060015f6101000a81548173ffffffffffffffffffffffffffffffffffffffff021916908373ffffffffffffffffffffffffffffffffffffffff1602179055508073ffffffffffffffffffffffffffffffffffffffff165f5f9054906101000a900473ffffffffffffffffffffffffffffffffffffffff1673ffffffffffffffffffffffffffffffffffffffff167fed8889f560326eb138920d842192f0eb3dd22b4f139c87a2c57538e05bae127860405160405180910390a350565b5f5ffd5b5f73ffffffffffffffffffffffffffffffffffffffff82169050919050565b5f61035182610328565b9050919050565b61036181610347565b811461036b575f5ffd5b50565b5f8151905061037c81610358565b92915050565b5f67ffffffffffffffff82169050919050565b61039e81610382565b81146103a8575f5ffd5b50565b5f815190506103b981610395565b92915050565b5f5f604083850312156103d5576103d4610324565b5b5f6103e28582860161036e565b92505060206103f3858286016103ab565b9150509250929050565b5f82825260208201905092915050565b7f43616e6e6f7420736574206f776e657220746f207a65726f00000000000000005f82015250565b5f6104416018836103fd565b915061044c8261040d565b602082019050919050565b5f6020820190508181035f83015261046e81610435565b9050919050565b7f43616e6e6f74207472616e7366657220746f2073656c660000000000000000005f82015250565b5f6104a96017836103fd565b91506104b482610475565b602082019050919050565b5f6020820190508181035f8301526104d68161049d565b9050919050565b608051614c396104fc5f395f81816103ce01526123780152614c395ff3fe6080604052600436106100f2575f3560e01c806379ba509711610089578063b1283e7711610058578063b1283e77146102f9578063e826850914610340578063f2fde38b1461037c578063ff51b884146103a4576100f2565b806379ba5097146102535780638da5cb5b1461026957806392b408ba1461029357806396fcd761146102bd576100f2565b80634585e33b116100c55780634585e33b1461018a5780636399d03d146101b25780636e04ff0d146101ee578063704b6c021461022b576100f2565b80630ca76175146100f657806327e1f7df1461011e578063286db5c21461014657806335d2a2691461016e575b5f5ffd5b348015610101575f5ffd5b5061011c6004803603810190610117919061308c565b6103cc565b005b348015610129575f5ffd5b50610144600480360381019061013f919061316e565b61048e565b005b348015610151575f5ffd5b5061016c600480360381019061016791906131cc565b6105ee565b005b6101886004803603810190610183919061320a565b610953565b005b348015610195575f5ffd5b506101b060048036038101906101ab91906132c1565b610b97565b005b3480156101bd575f5ffd5b506101d860048036038101906101d3919061330c565b610c28565b6040516101e59190613346565b60405180910390f35b3480156101f9575f5ffd5b50610214600480360381019061020f91906132c1565b61109e565b6040516102229291906133d9565b60405180910390f35b348015610236575f5ffd5b50610251600480360381019061024c919061316e565b6111b7565b005b34801561025e575f5ffd5b50610267611286565b005b348015610274575f5ffd5b5061027d611415565b60405161028a9190613416565b60405180910390f35b34801561029e575f5ffd5b506102a761143c565b6040516102b4919061343e565b60405180910390f35b3480156102c8575f5ffd5b506102e360048036038101906102de919061330c565b611442565b6040516102f0919061343e565b60405180910390f35b348015610304575f5ffd5b5061031f600480360381019061031a919061330c565b611457565b6040516103379c9b9a99989796959493929190613557565b60405180910390f35b34801561034b575f5ffd5b50610366600480360381019061036191906136ec565b6116b2565b604051610373919061343e565b60405180910390f35b348015610387575f5ffd5b506103a2600480360381019061039d919061316e565b61194c565b005b3480156103af575f5ffd5b506103ca60048036038101906103c59190613861565b611960565b005b7f000000000000000000000000000000000000000000000000000000000000000073ffffffffffffffffffffffffffffffffffffffff163373ffffffffffffffffffffffffffffffffffffffff1614610451576040517fc6829f8300000000000000000000000000000000000000000000000000000000815260040160405180910390fd5b61045c838383611c7c565b827f85e1543bf2f84fe80c6badbce3648c8539ad1df4d2b3d822938ca0538be727e660405160405180910390a2505050565b33610497611415565b73ffffffffffffffffffffffffffffffffffffffff168173ffffffffffffffffffffffffffffffffffffffff1614610504576040517f08c379a00000000000000000000000000000000000000000000000000000000081526004016104fb9061396f565b60405180910390fd5b816001151560085f8373ffffffffffffffffffffffffffffffffffffffff1673ffffffffffffffffffffffffffffffffffffffff1681526020019081526020015f205f9054906101000a900460ff16151514610595576040517f08c379a000000000000000000000000000000000000000000000000000000000815260040161058c906139d7565b60405180910390fd5b5f60085f8573ffffffffffffffffffffffffffffffffffffffff1673ffffffffffffffffffffffffffffffffffffffff1681526020019081526020015f205f6101000a81548160ff021916908315150217905550505050565b6105f6611d79565b5f60045f8481526020019081526020015f2090505f816004018381548110610621576106206139f5565b5b905f5260205f209060040201905060046005811115610643576106426134a9565b5b826002015f9054906101000a900460ff166005811115610666576106656134a9565b5b146106a6576040517f08c379a000000000000000000000000000000000000000000000000000000000815260040161069d90613a6c565b60405180910390fd5b3373ffffffffffffffffffffffffffffffffffffffff16815f015f9054906101000a900473ffffffffffffffffffffffffffffffffffffffff1673ffffffffffffffffffffffffffffffffffffffff1614610736576040517f08c379a000000000000000000000000000000000000000000000000000000000815260040161072d90613ad4565b60405180910390fd5b8060030160019054906101000a900460ff1615610788576040517f08c379a000000000000000000000000000000000000000000000000000000000815260040161077f90613b3c565b60405180910390fd5b816008015f9054906101000a900460ff1660ff16816003015f9054906101000a900460ff1660ff16146107f0576040517f08c379a00000000000000000000000000000000000000000000000000000000081526004016107e790613ba4565b60405180910390fd5b5f60035f8681526020019081526020015f205490505f83600301846008015f9054906101000a900460ff1660ff168154811061082f5761082e6139f5565b5b905f5260205f20015490505f8282856002015461084c9190613c1c565b6108569190613c4c565b90505f845f015f9054906101000a900473ffffffffffffffffffffffffffffffffffffffff1673ffffffffffffffffffffffffffffffffffffffff168260405161089f90613cba565b5f6040518083038185875af1925050503d805f81146108d9576040519150601f19603f3d011682016040523d82523d5f602084013e6108de565b606091505b50508091505080610924576040517f08c379a000000000000000000000000000000000000000000000000000000000815260040161091b90613d18565b60405180910390fd5b60018560030160016101000a81548160ff02191690831515021790555050505050505061094f611dc6565b5050565b5f60045f8481526020019081526020015f2090506001600581111561097b5761097a6134a9565b5b816002015f9054906101000a900460ff16600581111561099e5761099d6134a9565b5b146109de576040517f08c379a00000000000000000000000000000000000000000000000000000000081526004016109d590613d80565b60405180910390fd5b8060020160079054906101000a900465ffffffffffff1665ffffffffffff164210610a3e576040517f08c379a0000000000000000000000000000000000000000000000000000000008152600401610a3590613de8565b60405180910390fd5b5f3411610a80576040517f08c379a0000000000000000000000000000000000000000000000000000000008152600401610a7790613e50565b60405180910390fd5b806004016040518060a001604052803373ffffffffffffffffffffffffffffffffffffffff1681526020018481526020013481526020015f60ff1681526020015f1515815250908060018154018082558091505060019003905f5260205f2090600402015f909190919091505f820151815f015f6101000a81548173ffffffffffffffffffffffffffffffffffffffff021916908373ffffffffffffffffffffffffffffffffffffffff1602179055506020820151816001019081610b45919061407c565b50604082015181600201556060820151816003015f6101000a81548160ff021916908360ff16021790555060808201518160030160016101000a81548160ff0219169083151502179055505050505050565b5f8282810190610ba7919061330c565b90503073ffffffffffffffffffffffffffffffffffffffff16636399d03d826040518263ffffffff1660e01b8152600401610be2919061343e565b6020604051808303815f875af1158015610bfe573d5f5f3e3d5ffd5b505050506040513d601f19601f82011682018060405250810190610c22919061415f565b50505050565b5f5f60045f8481526020019081526020015f20905060016005811115610c5157610c506134a9565b5b816002015f9054906101000a900460ff166005811115610c7457610c736134a9565b5b1480610cb4575060026005811115610c8f57610c8e6134a9565b5b816002015f9054906101000a900460ff166005811115610cb257610cb16134a9565b5b145b610cf3576040517f08c379a0000000000000000000000000000000000000000000000000000000008152600401610cea906141d4565b60405180910390fd5b8060020160079054906101000a900465ffffffffffff1665ffffffffffff16421015610d54576040517f08c379a0000000000000000000000000000000000000000000000000000000008152600401610d4b9061423c565b60405180910390fd5b8060020160139054906101000a900465ffffffffffff1665ffffffffffff16421115610db5576040517f08c379a0000000000000000000000000000000000000000000000000000000008152600401610dac906142a4565b60405180910390fd5b6003816002015f6101000a81548160ff02191690836005811115610ddc57610ddb6134a9565b5b02179055505f600267ffffffffffffffff811115610dfd57610dfc612f68565b5b604051908082528060200260200182016040528015610e3057816020015b6060815260200190600190039081610e1b5790505b509050610e3c84611dd0565b815f81518110610e4f57610e4e6139f5565b5b6020026020010181905250816001018054610e6990613e9b565b80601f0160208091040260200160405190810160405280929190818152602001828054610e9590613e9b565b8015610ee05780601f10610eb757610100808354040283529160200191610ee0565b820191905f5260205f20905b815481529060010190602001808311610ec357829003601f168201915b505050505081600181518110610ef957610ef86139f5565b5b6020026020010181905250610f0c612e65565b610fa9836006018054610f1e90613e9b565b80601f0160208091040260200160405190810160405280929190818152602001828054610f4a90613e9b565b8015610f955780601f10610f6c57610100808354040283529160200191610f95565b820191905f5260205f20905b815481529060010190602001808311610f7857829003601f168201915b505050505082611e9a90919063ffffffff16565b610fbc8282611eaa90919063ffffffff16565b611059836007018054610fce90613e9b565b80601f0160208091040260200160405190810160405280929190818152602001828054610ffa90613e9b565b80156110455780601f1061101c57610100808354040283529160200191611045565b820191905f5260205f20905b81548152906001019060200180831161102857829003601f168201915b505050505082611ef190919063ffffffff16565b5f61108761106683611f69565b600660149054906101000a900467ffffffffffffffff16620493e05f612374565b905080846005018190555080945050505050919050565b5f60605f600190505b600554811161119a575f60045f8381526020019081526020015f209050600160058111156110d8576110d76134a9565b5b816002015f9054906101000a900460ff1660058111156110fb576110fa6134a9565b5b14801561112657508060020160079054906101000a900465ffffffffffff1665ffffffffffff164210155b801561115057508060020160139054906101000a900465ffffffffffff1665ffffffffffff164211155b1561118657600193508160405160200161116a919061343e565b60405160208183030381529060405292506001935050506111b0565b508080611192906142c2565b9150506110a7565b505f60405180602001604052805f815250915091505b9250929050565b336111c0611415565b73ffffffffffffffffffffffffffffffffffffffff168173ffffffffffffffffffffffffffffffffffffffff161461122d576040517f08c379a00000000000000000000000000000000000000000000000000000000081526004016112249061396f565b60405180910390fd5b600160085f8473ffffffffffffffffffffffffffffffffffffffff1673ffffffffffffffffffffffffffffffffffffffff1681526020019081526020015f205f6101000a81548160ff0219169083151502179055505050565b60015f9054906101000a900473ffffffffffffffffffffffffffffffffffffffff1673ffffffffffffffffffffffffffffffffffffffff163373ffffffffffffffffffffffffffffffffffffffff1614611315576040517f08c379a000000000000000000000000000000000000000000000000000000000815260040161130c90614353565b60405180910390fd5b5f5f5f9054906101000a900473ffffffffffffffffffffffffffffffffffffffff169050335f5f6101000a81548173ffffffffffffffffffffffffffffffffffffffff021916908373ffffffffffffffffffffffffffffffffffffffff1602179055505f60015f6101000a81548173ffffffffffffffffffffffffffffffffffffffff021916908373ffffffffffffffffffffffffffffffffffffffff1602179055503373ffffffffffffffffffffffffffffffffffffffff168173ffffffffffffffffffffffffffffffffffffffff167f8be0079c531659141344cd1fd0a4f28419497f9722a3daafe3b4186f6b6457e060405160405180910390a350565b5f5f5f9054906101000a900473ffffffffffffffffffffffffffffffffffffffff16905090565b60055481565b6003602052805f5260405f205f915090505481565b6004602052805f5260405f205f91509050805f01549080600101805461147c90613e9b565b80601f01602080910402602001604051908101604052809291908181526020018280546114a890613e9b565b80156114f35780601f106114ca576101008083540402835291602001916114f3565b820191905f5260205f20905b8154815290600101906020018083116114d657829003601f168201915b505050505090806002015f9054906101000a900460ff16908060020160019054906101000a900465ffffffffffff16908060020160079054906101000a900465ffffffffffff169080600201600d9054906101000a900465ffffffffffff16908060020160139054906101000a900465ffffffffffff169080600501549080600601805461158090613e9b565b80601f01602080910402602001604051908101604052809291908181526020018280546115ac90613e9b565b80156115f75780601f106115ce576101008083540402835291602001916115f7565b820191905f5260205f20905b8154815290600101906020018083116115da57829003601f168201915b50505050509080600701805461160c90613e9b565b80601f016020809104026020016040519081016040528092919081815260200182805461163890613e9b565b80156116835780601f1061165a57610100808354040283529160200191611683565b820191905f5260205f20905b81548152906001019060200180831161166657829003601f168201915b505050505090806008015f9054906101000a900460ff16908060080160019054906101000a900460ff1690508c565b5f336001151560085f8373ffffffffffffffffffffffffffffffffffffffff1673ffffffffffffffffffffffffffffffffffffffff1681526020019081526020015f205f9054906101000a900460ff16151514611744576040517f08c379a000000000000000000000000000000000000000000000000000000000815260040161173b906139d7565b60405180910390fd5b8565ffffffffffff16421061178e576040517f08c379a0000000000000000000000000000000000000000000000000000000008152600401611785906143e1565b60405180910390fd5b5f8565ffffffffffff16116117d8576040517f08c379a00000000000000000000000000000000000000000000000000000000081526004016117cf90614449565b60405180910390fd5b60055f8154809291906117ea906142c2565b9190505591505f60045f8481526020019081526020015f20905082815f01819055508781600101908161181d91906144cc565b506001816002015f6101000a81548160ff02191690836005811115611845576118446134a9565b5b0217905550428160020160016101000a81548165ffffffffffff021916908365ffffffffffff160217905550868160020160076101000a81548165ffffffffffff021916908365ffffffffffff1602179055508581600201600d6101000a81548165ffffffffffff021916908365ffffffffffff16021790555080600201600d9054906101000a900465ffffffffffff168160020160079054906101000a900465ffffffffffff166118f7919061459b565b8160020160136101000a81548165ffffffffffff021916908365ffffffffffff1602179055508481600601908161192e91906144cc565b5083816007019081611940919061407c565b50505095945050505050565b611954612453565b61195d816124e3565b50565b336001151560085f8373ffffffffffffffffffffffffffffffffffffffff1673ffffffffffffffffffffffffffffffffffffffff1681526020019081526020015f205f9054906101000a900460ff161515146119f1576040517f08c379a00000000000000000000000000000000000000000000000000000000081526004016119e8906139d7565b60405180910390fd5b5f60045f8a81526020019081526020015f20905060046005811115611a1957611a186134a9565b5b816002015f9054906101000a900460ff166005811115611a3c57611a3b6134a9565b5b14611a7c576040517f08c379a0000000000000000000000000000000000000000000000000000000008152600401611a739061461e565b60405180910390fd5b5f5f90505b88889050811015611c09575f826004018a8a84818110611aa457611aa36139f5565b5b9050602002013581548110611abc57611abb6139f5565b5b905f5260205f20906004020190505f816003015f9054906101000a900460ff1660ff1614611b1f576040517f08c379a0000000000000000000000000000000000000000000000000000000008152600401611b1690614686565b60405180910390fd5b878783818110611b3257611b316139f5565b5b9050602002016020810190611b4791906146ce565b816003015f6101000a81548160ff021916908360ff160217905550858583818110611b7557611b746139f5565b5b905060200201358160020181905550858583818110611b9757611b966139f5565b5b9050602002013583600301898985818110611bb557611bb46139f5565b5b9050602002016020810190611bca91906146ce565b60ff1681548110611bde57611bdd6139f5565b5b905f5260205f20015f828254611bf491906146f9565b92505081905550508080600101915050611a81565b505f5f90505b8160030180549050811015611c7057816003018181548110611c3457611c336139f5565b5b905f5260205f20015460035f8c81526020019081526020015f205f828254611c5c91906146f9565b925050819055508080600101915050611c0f565b50505050505050505050565b5f611c868461260e565b90505f60045f8381526020019081526020015f20905060036005811115611cb057611caf6134a9565b5b816002015f9054906101000a900460ff166005811115611cd357611cd26134a9565b5b14611d13576040517f08c379a0000000000000000000000000000000000000000000000000000000008152600401611d0a90614776565b60405180910390fd5b5f83511115611d4f576002816002015f6101000a81548160ff02191690836005811115611d4357611d426134a9565b5b02179055505050611d74565b5f84806020019051810190611d6491906147a8565b9050611d708382612696565b5050505b505050565b6002805403611dbd576040517f08c379a0000000000000000000000000000000000000000000000000000000008152600401611db49061481d565b60405180910390fd5b60028081905550565b6001600281905550565b60605f6001611dde84612714565b0190505f8167ffffffffffffffff811115611dfc57611dfb612f68565b5b6040519080825280601f01601f191660200182016040528015611e2e5781602001600182028036833780820191505090505b5090505f82602083010190505b600115611e8f578080600190039150507f3031323334353637383961626364656600000000000000000000000000000000600a86061a8153600a8581611e8457611e83613bc2565b5b0494505f8503611e3b575b819350505050919050565b611ea6825f5f84612865565b5050565b5f815103611ee4576040517ffe936cb700000000000000000000000000000000000000000000000000000000815260040160405180910390fd5b808260a001819052505050565b5f815103611f2b576040517fe889636f00000000000000000000000000000000000000000000000000000000815260040160405180910390fd5b600182602001906002811115611f4457611f436134a9565b5b90816002811115611f5857611f576134a9565b5b815250508082608001819052505050565b60605f611f7761010061290b565b9050611fc16040518060400160405280600c81526020017f636f64654c6f636174696f6e00000000000000000000000000000000000000008152508261293090919063ffffffff16565b611fe9835f01516002811115611fda57611fd96134a9565b5b8261295890919063ffffffff16565b6120316040518060400160405280600881526020017f6c616e67756167650000000000000000000000000000000000000000000000008152508261293090919063ffffffff16565b61205983604001515f81111561204a576120496134a9565b5b8261295890919063ffffffff16565b6120a16040518060400160405280600681526020017f736f7572636500000000000000000000000000000000000000000000000000008152508261293090919063ffffffff16565b6120b883606001518261293090919063ffffffff16565b5f8360a0015151111561216f5761210d6040518060400160405280600481526020017f61726773000000000000000000000000000000000000000000000000000000008152508261293090919063ffffffff16565b612116816129a7565b5f5f90505b8360a0015151811015612164576121598460a001518281518110612142576121416139f5565b5b60200260200101518361293090919063ffffffff16565b80600101905061211b565b5061216e816129cf565b5b5f83608001515111156122ae575f600281111561218f5761218e6134a9565b5b836020015160028111156121a6576121a56134a9565b5b036121dd576040517fa80d31f700000000000000000000000000000000000000000000000000000000815260040160405180910390fd5b6122256040518060400160405280600f81526020017f736563726574734c6f636174696f6e00000000000000000000000000000000008152508261293090919063ffffffff16565b61224e8360200151600281111561223f5761223e6134a9565b5b8261295890919063ffffffff16565b6122966040518060400160405280600781526020017f73656372657473000000000000000000000000000000000000000000000000008152508261293090919063ffffffff16565b6122ad8360800151826129f790919063ffffffff16565b5b5f8360c00151511115612365576123036040518060400160405280600981526020017f62797465734172677300000000000000000000000000000000000000000000008152508261293090919063ffffffff16565b61230c816129a7565b5f5f90505b8360c001515181101561235a5761234f8460c001518281518110612338576123376139f5565b5b6020026020010151836129f790919063ffffffff16565b806001019050612311565b50612364816129cf565b5b805f01515f0151915050919050565b5f5f7f000000000000000000000000000000000000000000000000000000000000000073ffffffffffffffffffffffffffffffffffffffff1663461d27628688600188886040518663ffffffff1660e01b81526004016123d8959493929190614897565b6020604051808303815f875af11580156123f4573d5f5f3e3d5ffd5b505050506040513d601f19601f82011682018060405250810190612418919061415f565b9050807f1131472297a800fee664d1d89cfa8f7676ff07189ecc53f80bbb5f4969099db860405160405180910390a280915050949350505050565b5f5f9054906101000a900473ffffffffffffffffffffffffffffffffffffffff1673ffffffffffffffffffffffffffffffffffffffff163373ffffffffffffffffffffffffffffffffffffffff16146124e1576040517f08c379a00000000000000000000000000000000000000000000000000000000081526004016124d890614939565b60405180910390fd5b565b3373ffffffffffffffffffffffffffffffffffffffff168173ffffffffffffffffffffffffffffffffffffffff1603612551576040517f08c379a0000000000000000000000000000000000000000000000000000000008152600401612548906149a1565b60405180910390fd5b8060015f6101000a81548173ffffffffffffffffffffffffffffffffffffffff021916908373ffffffffffffffffffffffffffffffffffffffff1602179055508073ffffffffffffffffffffffffffffffffffffffff165f5f9054906101000a900473ffffffffffffffffffffffffffffffffffffffff1673ffffffffffffffffffffffffffffffffffffffff167fed8889f560326eb138920d842192f0eb3dd22b4f139c87a2c57538e05bae127860405160405180910390a350565b5f5f600190505b6005548111612655578260045f8381526020019081526020015f2060050154036126425780915050612691565b808061264d906142c2565b915050612615565b506040517f08c379a000000000000000000000000000000000000000000000000000000000815260040161268890614a09565b60405180910390fd5b919050565b5f60045f8481526020019081526020015f20905081816008015f6101000a81548160ff021916908360ff16021790555060018160080160016101000a81548160ff0219169083151502179055506004816002015f6101000a81548160ff0219169083600581111561270a576127096134a9565b5b0217905550505050565b5f5f5f90507a184f03e93ff9f4daa797ed6e38ed64bf6a1f0100000000000000008310612770577a184f03e93ff9f4daa797ed6e38ed64bf6a1f010000000000000000838161276657612765613bc2565b5b0492506040810190505b6d04ee2d6d415b85acef810000000083106127ad576d04ee2d6d415b85acef810000000083816127a3576127a2613bc2565b5b0492506020810190505b662386f26fc1000083106127dc57662386f26fc1000083816127d2576127d1613bc2565b5b0492506010810190505b6305f5e1008310612805576305f5e10083816127fb576127fa613bc2565b5b0492506008810190505b612710831061282a5761271083816128205761281f613bc2565b5b0492506004810190505b6064831061284d576064838161284357612842613bc2565b5b0492506002810190505b600a831061285c576001810190505b80915050919050565b5f81510361289f576040517f22ce3edd00000000000000000000000000000000000000000000000000000000815260040160405180910390fd5b82845f019060028111156128b6576128b56134a9565b5b908160028111156128ca576128c96134a9565b5b815250508184604001905f8111156128e5576128e46134a9565b5b90815f8111156128f8576128f76134a9565b5b8152505080846060018190525050505050565b612913612ed4565b612920815f015183612a1f565b505f816020018181525050919050565b61293d8260038351612a95565b61295381835f0151612c3590919063ffffffff16565b505050565b61297960026005600660ff16901b17835f0151612c5190919063ffffffff16565b506129a3828260405160200161298f919061343e565b6040516020818303038152906040526129f7565b5050565b6129b2816004612cb8565b6001816020018181516129c591906146f9565b9150818152505050565b6129da816007612cb8565b6001816020018181516129ed9190614a27565b9150818152505050565b612a048260028351612a95565b612a1a81835f0151612c3590919063ffffffff16565b505050565b612a27612ef3565b5f602083612a359190614a5a565b14612a6157602082612a479190614a5a565b6020612a539190614a27565b82612a5e91906146f9565b91505b818360200181815250506040518084525f815282810160200181811015612a86575f5ffd5b80604052505082905092915050565b60178167ffffffffffffffff1611612acf57612ac98160058460ff16901b60ff1617845f0151612c5190919063ffffffff16565b50612c30565b60ff8167ffffffffffffffff1611612b2b57612b01601860058460ff16901b17845f0151612c5190919063ffffffff16565b50612b258167ffffffffffffffff166001855f0151612cdd9092919063ffffffff16565b50612c2f565b61ffff8167ffffffffffffffff1611612b8857612b5e601960058460ff16901b17845f0151612c5190919063ffffffff16565b50612b828167ffffffffffffffff166002855f0151612cdd9092919063ffffffff16565b50612c2e565b63ffffffff8167ffffffffffffffff1611612be757612bbd601a60058460ff16901b17845f0151612c5190919063ffffffff16565b50612be18167ffffffffffffffff166004855f0151612cdd9092919063ffffffff16565b50612c2d565b612c07601b60058460ff16901b17845f0151612c5190919063ffffffff16565b50612c2b8167ffffffffffffffff166008855f0151612cdd9092919063ffffffff16565b505b5b5b5b505050565b612c3d612ef3565b612c4983838451612d66565b905092915050565b612c59612ef3565b5f835f01515190505f600182612c6f91906146f9565b905084602001518210612c9357612c9285600283612c8d9190613c4c565b612e43565b5b84516020838201018581538151831115612cab578282525b5050849250505092915050565b612cd8601f60058360ff16901b17835f0151612c5190919063ffffffff16565b505050565b612ce5612ef3565b5f845f01515190505f8184612cfa91906146f9565b90508560200151811115612d1f57612d1e86600283612d199190613c4c565b612e43565b5b5f600185610100612d309190614bb9565b612d3a9190614a27565b905086518281018783198251161781528151841115612d57578382525b50508693505050509392505050565b612d6e612ef3565b8251821115612d7b575f5ffd5b5f845f01515190505f8382612d9091906146f9565b90508560200151811115612db557612db486600283612daf9190613c4c565b612e43565b5b5f5f87518051856020830101935080851115612dcf578482525b60208901925050505b60208610612e165780518252602082612df191906146f9565b9150602081612e0091906146f9565b9050602086612e0f9190614a27565b9550612dd8565b5f6001876020036101000a0390508019825116818451168181178552505050879450505050509392505050565b5f825f01519050612e548383612a1f565b50612e5f8382612c35565b50505050565b6040518060e001604052805f6002811115612e8357612e826134a9565b5b81526020015f6002811115612e9b57612e9a6134a9565b5b81526020015f5f811115612eb257612eb16134a9565b5b8152602001606081526020016060815260200160608152602001606081525090565b6040518060400160405280612ee7612ef3565b81526020015f81525090565b6040518060400160405280606081526020015f81525090565b5f604051905090565b5f5ffd5b5f5ffd5b5f819050919050565b612f2f81612f1d565b8114612f39575f5ffd5b50565b5f81359050612f4a81612f26565b92915050565b5f5ffd5b5f5ffd5b5f601f19601f8301169050919050565b7f4e487b71000000000000000000000000000000000000000000000000000000005f52604160045260245ffd5b612f9e82612f58565b810181811067ffffffffffffffff82111715612fbd57612fbc612f68565b5b80604052505050565b5f612fcf612f0c565b9050612fdb8282612f95565b919050565b5f67ffffffffffffffff821115612ffa57612ff9612f68565b5b61300382612f58565b9050602081019050919050565b828183375f83830152505050565b5f61303061302b84612fe0565b612fc6565b90508281526020810184848401111561304c5761304b612f54565b5b613057848285613010565b509392505050565b5f82601f83011261307357613072612f50565b5b813561308384826020860161301e565b91505092915050565b5f5f5f606084860312156130a3576130a2612f15565b5b5f6130b086828701612f3c565b935050602084013567ffffffffffffffff8111156130d1576130d0612f19565b5b6130dd8682870161305f565b925050604084013567ffffffffffffffff8111156130fe576130fd612f19565b5b61310a8682870161305f565b9150509250925092565b5f73ffffffffffffffffffffffffffffffffffffffff82169050919050565b5f61313d82613114565b9050919050565b61314d81613133565b8114613157575f5ffd5b50565b5f8135905061316881613144565b92915050565b5f6020828403121561318357613182612f15565b5b5f6131908482850161315a565b91505092915050565b5f819050919050565b6131ab81613199565b81146131b5575f5ffd5b50565b5f813590506131c6816131a2565b92915050565b5f5f604083850312156131e2576131e1612f15565b5b5f6131ef858286016131b8565b9250506020613200858286016131b8565b9150509250929050565b5f5f604083850312156132205761321f612f15565b5b5f61322d858286016131b8565b925050602083013567ffffffffffffffff81111561324e5761324d612f19565b5b61325a8582860161305f565b9150509250929050565b5f5ffd5b5f5ffd5b5f5f83601f84011261328157613280612f50565b5b8235905067ffffffffffffffff81111561329e5761329d613264565b5b6020830191508360018202830111156132ba576132b9613268565b5b9250929050565b5f5f602083850312156132d7576132d6612f15565b5b5f83013567ffffffffffffffff8111156132f4576132f3612f19565b5b6133008582860161326c565b92509250509250929050565b5f6020828403121561332157613320612f15565b5b5f61332e848285016131b8565b91505092915050565b61334081612f1d565b82525050565b5f6020820190506133595f830184613337565b92915050565b5f8115159050919050565b6133738161335f565b82525050565b5f81519050919050565b5f82825260208201905092915050565b8281835e5f83830152505050565b5f6133ab82613379565b6133b58185613383565b93506133c5818560208601613393565b6133ce81612f58565b840191505092915050565b5f6040820190506133ec5f83018561336a565b81810360208301526133fe81846133a1565b90509392505050565b61341081613133565b82525050565b5f6020820190506134295f830184613407565b92915050565b61343881613199565b82525050565b5f6020820190506134515f83018461342f565b92915050565b5f81519050919050565b5f82825260208201905092915050565b5f61347b82613457565b6134858185613461565b9350613495818560208601613393565b61349e81612f58565b840191505092915050565b7f4e487b71000000000000000000000000000000000000000000000000000000005f52602160045260245ffd5b600681106134e7576134e66134a9565b5b50565b5f8190506134f7826134d6565b919050565b5f613506826134ea565b9050919050565b613516816134fc565b82525050565b5f65ffffffffffff82169050919050565b6135368161351c565b82525050565b5f60ff82169050919050565b6135518161353c565b82525050565b5f6101808201905061356b5f83018f61342f565b818103602083015261357d818e613471565b905061358c604083018d61350d565b613599606083018c61352d565b6135a6608083018b61352d565b6135b360a083018a61352d565b6135c060c083018961352d565b6135cd60e0830188613337565b8181036101008301526135e08187613471565b90508181036101208301526135f581866133a1565b9050613605610140830185613548565b61361361016083018461336a565b9d9c50505050505050505050505050565b5f67ffffffffffffffff82111561363e5761363d612f68565b5b61364782612f58565b9050602081019050919050565b5f61366661366184613624565b612fc6565b90508281526020810184848401111561368257613681612f54565b5b61368d848285613010565b509392505050565b5f82601f8301126136a9576136a8612f50565b5b81356136b9848260208601613654565b91505092915050565b6136cb8161351c565b81146136d5575f5ffd5b50565b5f813590506136e6816136c2565b92915050565b5f5f5f5f5f60a0868803121561370557613704612f15565b5b5f86013567ffffffffffffffff81111561372257613721612f19565b5b61372e88828901613695565b955050602061373f888289016136d8565b9450506040613750888289016136d8565b935050606086013567ffffffffffffffff81111561377157613770612f19565b5b61377d88828901613695565b925050608086013567ffffffffffffffff81111561379e5761379d612f19565b5b6137aa8882890161305f565b9150509295509295909350565b5f5f83601f8401126137cc576137cb612f50565b5b8235905067ffffffffffffffff8111156137e9576137e8613264565b5b60208301915083602082028301111561380557613804613268565b5b9250929050565b5f5f83601f84011261382157613820612f50565b5b8235905067ffffffffffffffff81111561383e5761383d613264565b5b60208301915083602082028301111561385a57613859613268565b5b9250929050565b5f5f5f5f5f5f5f6080888a03121561387c5761387b612f15565b5b5f6138898a828b016131b8565b975050602088013567ffffffffffffffff8111156138aa576138a9612f19565b5b6138b68a828b016137b7565b9650965050604088013567ffffffffffffffff8111156138d9576138d8612f19565b5b6138e58a828b0161380c565b9450945050606088013567ffffffffffffffff81111561390857613907612f19565b5b6139148a828b016137b7565b925092505092959891949750929550565b7f596f75206e6f74206f776e6572212121000000000000000000000000000000005f82015250565b5f613959601083613461565b915061396482613925565b602082019050919050565b5f6020820190508181035f8301526139868161394d565b9050919050565b7f596f75206e6f742061646d696e212121000000000000000000000000000000005f82015250565b5f6139c1601083613461565b91506139cc8261398d565b602082019050919050565b5f6020820190508181035f8301526139ee816139b5565b9050919050565b7f4e487b71000000000000000000000000000000000000000000000000000000005f52603260045260245ffd5b7f4d757374206265207265736f6c766564210000000000000000000000000000005f82015250565b5f613a56601183613461565b9150613a6182613a22565b602082019050919050565b5f6020820190508181035f830152613a8381613a4a565b9050919050565b7f4e6f7420796f75722062657400000000000000000000000000000000000000005f82015250565b5f613abe600c83613461565b9150613ac982613a8a565b602082019050919050565b5f6020820190508181035f830152613aeb81613ab2565b9050919050565b7f416c726561647920636c61696d656421000000000000000000000000000000005f82015250565b5f613b26601083613461565b9150613b3182613af2565b602082019050919050565b5f6020820190508181035f830152613b5381613b1a565b9050919050565b7f4e6f742077696e6e696e67206f7074696f6e21000000000000000000000000005f82015250565b5f613b8e601383613461565b9150613b9982613b5a565b602082019050919050565b5f6020820190508181035f830152613bbb81613b82565b9050919050565b7f4e487b71000000000000000000000000000000000000000000000000000000005f52601260045260245ffd5b7f4e487b71000000000000000000000000000000000000000000000000000000005f52601160045260245ffd5b5f613c2682613199565b9150613c3183613199565b925082613c4157613c40613bc2565b5b828204905092915050565b5f613c5682613199565b9150613c6183613199565b9250828202613c6f81613199565b91508282048414831517613c8657613c85613bef565b5b5092915050565b5f81905092915050565b50565b5f613ca55f83613c8d565b9150613cb082613c97565b5f82019050919050565b5f613cc482613c9a565b9150819050919050565b7f5472616e73666572206661696c656421000000000000000000000000000000005f82015250565b5f613d02601083613461565b9150613d0d82613cce565b602082019050919050565b5f6020820190508181035f830152613d2f81613cf6565b9050919050565b7f4d61726b6574206e6f74206f70656e21212100000000000000000000000000005f82015250565b5f613d6a601283613461565b9150613d7582613d36565b602082019050919050565b5f6020820190508181035f830152613d9781613d5e565b9050919050565b7f42657474696e6720636c6f7365642121210000000000000000000000000000005f82015250565b5f613dd2601183613461565b9150613ddd82613d9e565b602082019050919050565b5f6020820190508181035f830152613dff81613dc6565b9050919050565b7f4d75737420626967676572207468616e203000000000000000000000000000005f82015250565b5f613e3a601283613461565b9150613e4582613e06565b602082019050919050565b5f6020820190508181035f830152613e6781613e2e565b9050919050565b7f4e487b71000000000000000000000000000000000000000000000000000000005f52602260045260245ffd5b5f6002820490506001821680613eb257607f821691505b602082108103613ec557613ec4613e6e565b5b50919050565b5f819050815f5260205f209050919050565b5f6020601f8301049050919050565b5f82821b905092915050565b5f60088302613f277fffffffffffffffffffffffffffffffffffffffffffffffffffffffffffffffff82613eec565b613f318683613eec565b95508019841693508086168417925050509392505050565b5f819050919050565b5f613f6c613f67613f6284613199565b613f49565b613199565b9050919050565b5f819050919050565b613f8583613f52565b613f99613f9182613f73565b848454613ef8565b825550505050565b5f5f905090565b613fb0613fa1565b613fbb818484613f7c565b505050565b5f5b82811015613fe157613fd65f828401613fa8565b600181019050613fc2565b505050565b601f82111561403457828211156140335761400081613ecb565b61400983613edd565b61401285613edd565b602086101561401f575f90505b80830161402e82840382613fc0565b505050505b5b505050565b5f82821c905092915050565b5f6140545f1984600802614039565b1980831691505092915050565b5f61406c8383614045565b9150826002028217905092915050565b61408582613379565b67ffffffffffffffff81111561409e5761409d612f68565b5b6140a88254613e9b565b6140b3828285613fe6565b5f60209050601f8311600181146140e4575f84156140d2578287015190505b6140dc8582614061565b865550614143565b601f1984166140f286613ecb565b5f5b82811015614119578489015182556001820191506020850194506020810190506140f4565b868310156141365784890151614132601f891682614045565b8355505b6001600288020188555050505b505050505050565b5f8151905061415981612f26565b92915050565b5f6020828403121561417457614173612f15565b5b5f6141818482850161414b565b91505092915050565b7f43616e2774206265207265736f6c76696e6700000000000000000000000000005f82015250565b5f6141be601283613461565b91506141c98261418a565b602082019050919050565b5f6020820190508181035f8301526141eb816141b2565b9050919050565b7f42657474696e67206e6f7420636c6f73656400000000000000000000000000005f82015250565b5f614226601283613461565b9150614231826141f2565b602082019050919050565b5f6020820190508181035f8301526142538161421a565b9050919050565b7f54696d656f757420666f72207265736f6c76696e6700000000000000000000005f82015250565b5f61428e601583613461565b91506142998261425a565b602082019050919050565b5f6020820190508181035f8301526142bb81614282565b9050919050565b5f6142cc82613199565b91507fffffffffffffffffffffffffffffffffffffffffffffffffffffffffffffffff82036142fe576142fd613bef565b5b600182019050919050565b7f4d7573742062652070726f706f736564206f776e6572000000000000000000005f82015250565b5f61433d601683613461565b915061434882614309565b602082019050919050565b5f6020820190508181035f83015261436a81614331565b9050919050565b7f446561646c696e652074696d657374616d70206d757374206265206c617465725f8201527f2121210000000000000000000000000000000000000000000000000000000000602082015250565b5f6143cb602383613461565b91506143d682614371565b604082019050919050565b5f6020820190508181035f8301526143f8816143bf565b9050919050565b7f5265736f6c76652074696d652063616e277420657175616c207a65726f2121215f82015250565b5f614433602083613461565b915061443e826143ff565b602082019050919050565b5f6020820190508181035f83015261446081614427565b9050919050565b5f819050815f5260205f209050919050565b601f8211156144c757828211156144c65761449381614467565b61449c83613edd565b6144a585613edd565b60208610156144b2575f90505b8083016144c182840382613fc0565b505050505b5b505050565b6144d582613457565b67ffffffffffffffff8111156144ee576144ed612f68565b5b6144f88254613e9b565b614503828285614479565b5f60209050601f831160018114614534575f8415614522578287015190505b61452c8582614061565b865550614593565b601f19841661454286614467565b5f5b8281101561456957848901518255600182019150602085019450602081019050614544565b868310156145865784890151614582601f891682614045565b8355505b6001600288020188555050505b505050505050565b5f6145a58261351c565b91506145b08361351c565b9250828201905065ffffffffffff8111156145ce576145cd613bef565b5b92915050565b7f4f6e6c79207265736f6c766564206d61726b65742100000000000000000000005f82015250565b5f614608601583613461565b9150614613826145d4565b602082019050919050565b5f6020820190508181035f830152614635816145fc565b9050919050565b7f416c72656164792072657665616c6564212121000000000000000000000000005f82015250565b5f614670601383613461565b915061467b8261463c565b602082019050919050565b5f6020820190508181035f83015261469d81614664565b9050919050565b6146ad8161353c565b81146146b7575f5ffd5b50565b5f813590506146c8816146a4565b92915050565b5f602082840312156146e3576146e2612f15565b5b5f6146f0848285016146ba565b91505092915050565b5f61470382613199565b915061470e83613199565b925082820190508082111561472657614725613bef565b5b92915050565b7f4f6e6c79207265736f6c76696e67206d61726b657421212100000000000000005f82015250565b5f614760601883613461565b915061476b8261472c565b602082019050919050565b5f6020820190508181035f83015261478d81614754565b9050919050565b5f815190506147a2816146a4565b92915050565b5f602082840312156147bd576147bc612f15565b5b5f6147ca84828501614794565b91505092915050565b7f5265656e7472616e637947756172643a207265656e7472616e742063616c6c005f82015250565b5f614807601f83613461565b9150614812826147d3565b602082019050919050565b5f6020820190508181035f830152614834816147fb565b9050919050565b5f67ffffffffffffffff82169050919050565b6148578161483b565b82525050565b5f61ffff82169050919050565b6148738161485d565b82525050565b5f63ffffffff82169050919050565b61489181614879565b82525050565b5f60a0820190506148aa5f83018861484e565b81810360208301526148bc81876133a1565b90506148cb604083018661486a565b6148d86060830185614888565b6148e56080830184613337565b9695505050505050565b7f4f6e6c792063616c6c61626c65206279206f776e6572000000000000000000005f82015250565b5f614923601683613461565b915061492e826148ef565b602082019050919050565b5f6020820190508181035f83015261495081614917565b9050919050565b7f43616e6e6f74207472616e7366657220746f2073656c660000000000000000005f82015250565b5f61498b601783613461565b915061499682614957565b602082019050919050565b5f6020820190508181035f8301526149b88161497f565b9050919050565b7f4d61726b6574206e6f7420666f756e64000000000000000000000000000000005f82015250565b5f6149f3601083613461565b91506149fe826149bf565b602082019050919050565b5f6020820190508181035f830152614a20816149e7565b9050919050565b5f614a3182613199565b9150614a3c83613199565b9250828203905081811115614a5457614a53613bef565b5b92915050565b5f614a6482613199565b9150614a6f83613199565b925082614a7f57614a7e613bc2565b5b828206905092915050565b5f8160011c9050919050565b5f5f8291508390505b6001851115614adf57808604811115614abb57614aba613bef565b5b6001851615614aca5780820291505b8081029050614ad885614a8a565b9450614a9f565b94509492505050565b5f82614af75760019050614bb2565b81614b04575f9050614bb2565b8160018114614b1a5760028114614b2457614b53565b6001915050614bb2565b60ff841115614b3657614b35613bef565b5b8360020a915084821115614b4d57614b4c613bef565b5b50614bb2565b5060208310610133831016604e8410600b8410161715614b885782820a905083811115614b8357614b82613bef565b5b614bb2565b614b958484846001614a96565b92509050818404811115614bac57614bab613bef565b5b81810290505b9392505050565b5f614bc382613199565b9150614bce83613199565b9250614bfb7fffffffffffffffffffffffffffffffffffffffffffffffffffffffffffffffff8484614ae8565b90509291505056fea2646970667358221220414317d6925d38599cca43a3764f305df1724781074a1f08a78b3453b9b6678d64736f6c63430008220033",
			"opcodes": "PUSH1 0xA0 PUSH1 0x40 MSTORE CALLVALUE DUP1 ISZERO PUSH2 0xF JUMPI PUSH0 PUSH0 REVERT JUMPDEST POP PUSH1 0x40 MLOAD PUSH2 0x5135 CODESIZE SUB DUP1 PUSH2 0x5135 DUP4 CODECOPY DUP2 DUP2 ADD PUSH1 0x40 MSTORE DUP2 ADD SWAP1 PUSH2 0x31 SWAP2 SWAP1 PUSH2 0x3BF JUMP JUMPDEST CALLER DUP1 PUSH0 DUP5 DUP1 PUSH20 0xFFFFFFFFFFFFFFFFFFFFFFFFFFFFFFFFFFFFFFFF AND PUSH1 0x80 DUP2 PUSH20 0xFFFFFFFFFFFFFFFFFFFFFFFFFFFFFFFFFFFFFFFF AND DUP2 MSTORE POP POP POP PUSH0 PUSH20 0xFFFFFFFFFFFFFFFFFFFFFFFFFFFFFFFFFFFFFFFF AND DUP3 PUSH20 0xFFFFFFFFFFFFFFFFFFFFFFFFFFFFFFFFFFFFFFFF AND SUB PUSH2 0xD8 JUMPI PUSH1 0x40 MLOAD PUSH32 0x8C379A000000000000000000000000000000000000000000000000000000000 DUP2 MSTORE PUSH1 0x4 ADD PUSH2 0xCF SWAP1 PUSH2 0x457 JUMP JUMPDEST PUSH1 0x40 MLOAD DUP1 SWAP2 SUB SWAP1 REVERT JUMPDEST DUP2 PUSH0 PUSH0 PUSH2 0x100 EXP DUP2 SLOAD DUP2 PUSH20 0xFFFFFFFFFFFFFFFFFFFFFFFFFFFFFFFFFFFFFFFF MUL NOT AND SWAP1 DUP4 PUSH20 0xFFFFFFFFFFFFFFFFFFFFFFFFFFFFFFFFFFFFFFFF AND MUL OR SWAP1 SSTORE POP PUSH0 PUSH20 0xFFFFFFFFFFFFFFFFFFFFFFFFFFFFFFFFFFFFFFFF AND DUP2 PUSH20 0xFFFFFFFFFFFFFFFFFFFFFFFFFFFFFFFFFFFFFFFF AND EQ PUSH2 0x15A JUMPI PUSH2 0x159 DUP2 PUSH2 0x1F9 PUSH1 0x20 SHL PUSH1 0x20 SHR JUMP JUMPDEST JUMPDEST POP POP POP PUSH1 0x1 PUSH1 0x2 DUP2 SWAP1 SSTORE POP TIMESTAMP PUSH1 0x7 PUSH0 PUSH2 0x100 EXP DUP2 SLOAD DUP2 PUSH6 0xFFFFFFFFFFFF MUL NOT AND SWAP1 DUP4 PUSH6 0xFFFFFFFFFFFF AND MUL OR SWAP1 SSTORE POP DUP2 PUSH1 0x6 PUSH0 PUSH2 0x100 EXP DUP2 SLOAD DUP2 PUSH20 0xFFFFFFFFFFFFFFFFFFFFFFFFFFFFFFFFFFFFFFFF MUL NOT AND SWAP1 DUP4 PUSH20 0xFFFFFFFFFFFFFFFFFFFFFFFFFFFFFFFFFFFFFFFF AND MUL OR SWAP1 SSTORE POP DUP1 PUSH1 0x6 PUSH1 0x14 PUSH2 0x100 EXP DUP2 SLOAD DUP2 PUSH8 0xFFFFFFFFFFFFFFFF MUL NOT AND SWAP1 DUP4 PUSH8 0xFFFFFFFFFFFFFFFF AND MUL OR SWAP1 SSTORE POP POP POP PUSH2 0x4DD JUMP JUMPDEST CALLER PUSH20 0xFFFFFFFFFFFFFFFFFFFFFFFFFFFFFFFFFFFFFFFF AND DUP2 PUSH20 0xFFFFFFFFFFFFFFFFFFFFFFFFFFFFFFFFFFFFFFFF AND SUB PUSH2 0x267 JUMPI PUSH1 0x40 MLOAD PUSH32 0x8C379A000000000000000000000000000000000000000000000000000000000 DUP2 MSTORE PUSH1 0x4 ADD PUSH2 0x25E SWAP1 PUSH2 0x4BF JUMP JUMPDEST PUSH1 0x40 MLOAD DUP1 SWAP2 SUB SWAP1 REVERT JUMPDEST DUP1 PUSH1 0x1 PUSH0 PUSH2 0x100 EXP DUP2 SLOAD DUP2 PUSH20 0xFFFFFFFFFFFFFFFFFFFFFFFFFFFFFFFFFFFFFFFF MUL NOT AND SWAP1 DUP4 PUSH20 0xFFFFFFFFFFFFFFFFFFFFFFFFFFFFFFFFFFFFFFFF AND MUL OR SWAP1 SSTORE POP DUP1 PUSH20 0xFFFFFFFFFFFFFFFFFFFFFFFFFFFFFFFFFFFFFFFF AND PUSH0 PUSH0 SWAP1 SLOAD SWAP1 PUSH2 0x100 EXP SWAP1 DIV PUSH20 0xFFFFFFFFFFFFFFFFFFFFFFFFFFFFFFFFFFFFFFFF AND PUSH20 0xFFFFFFFFFFFFFFFFFFFFFFFFFFFFFFFFFFFFFFFF AND PUSH32 0xED8889F560326EB138920D842192F0EB3DD22B4F139C87A2C57538E05BAE1278 PUSH1 0x40 MLOAD PUSH1 0x40 MLOAD DUP1 SWAP2 SUB SWAP1 LOG3 POP JUMP JUMPDEST PUSH0 PUSH0 REVERT JUMPDEST PUSH0 PUSH20 0xFFFFFFFFFFFFFFFFFFFFFFFFFFFFFFFFFFFFFFFF DUP3 AND SWAP1 POP SWAP2 SWAP1 POP JUMP JUMPDEST PUSH0 PUSH2 0x351 DUP3 PUSH2 0x328 JUMP JUMPDEST SWAP1 POP SWAP2 SWAP1 POP JUMP JUMPDEST PUSH2 0x361 DUP2 PUSH2 0x347 JUMP JUMPDEST DUP2 EQ PUSH2 0x36B JUMPI PUSH0 PUSH0 REVERT JUMPDEST POP JUMP JUMPDEST PUSH0 DUP2 MLOAD SWAP1 POP PUSH2 0x37C DUP2 PUSH2 0x358 JUMP JUMPDEST SWAP3 SWAP2 POP POP JUMP JUMPDEST PUSH0 PUSH8 0xFFFFFFFFFFFFFFFF DUP3 AND SWAP1 POP SWAP2 SWAP1 POP JUMP JUMPDEST PUSH2 0x39E DUP2 PUSH2 0x382 JUMP JUMPDEST DUP2 EQ PUSH2 0x3A8 JUMPI PUSH0 PUSH0 REVERT JUMPDEST POP JUMP JUMPDEST PUSH0 DUP2 MLOAD SWAP1 POP PUSH2 0x3B9 DUP2 PUSH2 0x395 JUMP JUMPDEST SWAP3 SWAP2 POP POP JUMP JUMPDEST PUSH0 PUSH0 PUSH1 0x40 DUP4 DUP6 SUB SLT ISZERO PUSH2 0x3D5 JUMPI PUSH2 0x3D4 PUSH2 0x324 JUMP JUMPDEST JUMPDEST PUSH0 PUSH2 0x3E2 DUP6 DUP3 DUP7 ADD PUSH2 0x36E JUMP JUMPDEST SWAP3 POP POP PUSH1 0x20 PUSH2 0x3F3 DUP6 DUP3 DUP7 ADD PUSH2 0x3AB JUMP JUMPDEST SWAP2 POP POP SWAP3 POP SWAP3 SWAP1 POP JUMP JUMPDEST PUSH0 DUP3 DUP3 MSTORE PUSH1 0x20 DUP3 ADD SWAP1 POP SWAP3 SWAP2 POP POP JUMP JUMPDEST PUSH32 0x43616E6E6F7420736574206F776E657220746F207A65726F0000000000000000 PUSH0 DUP3 ADD MSTORE POP JUMP JUMPDEST PUSH0 PUSH2 0x441 PUSH1 0x18 DUP4 PUSH2 0x3FD JUMP JUMPDEST SWAP2 POP PUSH2 0x44C DUP3 PUSH2 0x40D JUMP JUMPDEST PUSH1 0x20 DUP3 ADD SWAP1 POP SWAP2 SWAP1 POP JUMP JUMPDEST PUSH0 PUSH1 0x20 DUP3 ADD SWAP1 POP DUP2 DUP2 SUB PUSH0 DUP4 ADD MSTORE PUSH2 0x46E DUP2 PUSH2 0x435 JUMP JUMPDEST SWAP1 POP SWAP2 SWAP1 POP JUMP JUMPDEST PUSH32 0x43616E6E6F74207472616E7366657220746F2073656C66000000000000000000 PUSH0 DUP3 ADD MSTORE POP JUMP JUMPDEST PUSH0 PUSH2 0x4A9 PUSH1 0x17 DUP4 PUSH2 0x3FD JUMP JUMPDEST SWAP2 POP PUSH2 0x4B4 DUP3 PUSH2 0x475 JUMP JUMPDEST PUSH1 0x20 DUP3 ADD SWAP1 POP SWAP2 SWAP1 POP JUMP JUMPDEST PUSH0 PUSH1 0x20 DUP3 ADD SWAP1 POP DUP2 DUP2 SUB PUSH0 DUP4 ADD MSTORE PUSH2 0x4D6 DUP2 PUSH2 0x49D JUMP JUMPDEST SWAP1 POP SWAP2 SWAP1 POP JUMP JUMPDEST PUSH1 0x80 MLOAD PUSH2 0x4C39 PUSH2 0x4FC PUSH0 CODECOPY PUSH0 DUP2 DUP2 PUSH2 0x3CE ADD MSTORE PUSH2 0x2378 ADD MSTORE PUSH2 0x4C39 PUSH0 RETURN INVALID PUSH1 0x80 PUSH1 0x40 MSTORE PUSH1 0x4 CALLDATASIZE LT PUSH2 0xF2 JUMPI PUSH0 CALLDATALOAD PUSH1 0xE0 SHR DUP1 PUSH4 0x79BA5097 GT PUSH2 0x89 JUMPI DUP1 PUSH4 0xB1283E77 GT PUSH2 0x58 JUMPI DUP1 PUSH4 0xB1283E77 EQ PUSH2 0x2F9 JUMPI DUP1 PUSH4 0xE8268509 EQ PUSH2 0x340 JUMPI DUP1 PUSH4 0xF2FDE38B EQ PUSH2 0x37C JUMPI DUP1 PUSH4 0xFF51B884 EQ PUSH2 0x3A4 JUMPI PUSH2 0xF2 JUMP JUMPDEST DUP1 PUSH4 0x79BA5097 EQ PUSH2 0x253 JUMPI DUP1 PUSH4 0x8DA5CB5B EQ PUSH2 0x269 JUMPI DUP1 PUSH4 0x92B408BA EQ PUSH2 0x293 JUMPI DUP1 PUSH4 0x96FCD761 EQ PUSH2 0x2BD JUMPI PUSH2 0xF2 JUMP JUMPDEST DUP1 PUSH4 0x4585E33B GT PUSH2 0xC5 JUMPI DUP1 PUSH4 0x4585E33B EQ PUSH2 0x18A JUMPI DUP1 PUSH4 0x6399D03D EQ PUSH2 0x1B2 JUMPI DUP1 PUSH4 0x6E04FF0D EQ PUSH2 0x1EE JUMPI DUP1 PUSH4 0x704B6C02 EQ PUSH2 0x22B JUMPI PUSH2 0xF2 JUMP JUMPDEST DUP1 PUSH4 0xCA76175 EQ PUSH2 0xF6 JUMPI DUP1 PUSH4 0x27E1F7DF EQ PUSH2 0x11E JUMPI DUP1 PUSH4 0x286DB5C2 EQ PUSH2 0x146 JUMPI DUP1 PUSH4 0x35D2A269 EQ PUSH2 0x16E JUMPI JUMPDEST PUSH0 PUSH0 REVERT JUMPDEST CALLVALUE DUP1 ISZERO PUSH2 0x101 JUMPI PUSH0 PUSH0 REVERT JUMPDEST POP PUSH2 0x11C PUSH1 0x4 DUP1 CALLDATASIZE SUB DUP2 ADD SWAP1 PUSH2 0x117 SWAP2 SWAP1 PUSH2 0x308C JUMP JUMPDEST PUSH2 0x3CC JUMP JUMPDEST STOP JUMPDEST CALLVALUE DUP1 ISZERO PUSH2 0x129 JUMPI PUSH0 PUSH0 REVERT JUMPDEST POP PUSH2 0x144 PUSH1 0x4 DUP1 CALLDATASIZE SUB DUP2 ADD SWAP1 PUSH2 0x13F SWAP2 SWAP1 PUSH2 0x316E JUMP JUMPDEST PUSH2 0x48E JUMP JUMPDEST STOP JUMPDEST CALLVALUE DUP1 ISZERO PUSH2 0x151 JUMPI PUSH0 PUSH0 REVERT JUMPDEST POP PUSH2 0x16C PUSH1 0x4 DUP1 CALLDATASIZE SUB DUP2 ADD SWAP1 PUSH2 0x167 SWAP2 SWAP1 PUSH2 0x31CC JUMP JUMPDEST PUSH2 0x5EE JUMP JUMPDEST STOP JUMPDEST PUSH2 0x188 PUSH1 0x4 DUP1 CALLDATASIZE SUB DUP2 ADD SWAP1 PUSH2 0x183 SWAP2 SWAP1 PUSH2 0x320A JUMP JUMPDEST PUSH2 0x953 JUMP JUMPDEST STOP JUMPDEST CALLVALUE DUP1 ISZERO PUSH2 0x195 JUMPI PUSH0 PUSH0 REVERT JUMPDEST POP PUSH2 0x1B0 PUSH1 0x4 DUP1 CALLDATASIZE SUB DUP2 ADD SWAP1 PUSH2 0x1AB SWAP2 SWAP1 PUSH2 0x32C1 JUMP JUMPDEST PUSH2 0xB97 JUMP JUMPDEST STOP JUMPDEST CALLVALUE DUP1 ISZERO PUSH2 0x1BD JUMPI PUSH0 PUSH0 REVERT JUMPDEST POP PUSH2 0x1D8 PUSH1 0x4 DUP1 CALLDATASIZE SUB DUP2 ADD SWAP1 PUSH2 0x1D3 SWAP2 SWAP1 PUSH2 0x330C JUMP JUMPDEST PUSH2 0xC28 JUMP JUMPDEST PUSH1 0x40 MLOAD PUSH2 0x1E5 SWAP2 SWAP1 PUSH2 0x3346 JUMP JUMPDEST PUSH1 0x40 MLOAD DUP1 SWAP2 SUB SWAP1 RETURN JUMPDEST CALLVALUE DUP1 ISZERO PUSH2 0x1F9 JUMPI PUSH0 PUSH0 REVERT JUMPDEST POP PUSH2 0x214 PUSH1 0x4 DUP1 CALLDATASIZE SUB DUP2 ADD SWAP1 PUSH2 0x20F SWAP2 SWAP1 PUSH2 0x32C1 JUMP JUMPDEST PUSH2 0x109E JUMP JUMPDEST PUSH1 0x40 MLOAD PUSH2 0x222 SWAP3 SWAP2 SWAP1 PUSH2 0x33D9 JUMP JUMPDEST PUSH1 0x40 MLOAD DUP1 SWAP2 SUB SWAP1 RETURN JUMPDEST CALLVALUE DUP1 ISZERO PUSH2 0x236 JUMPI PUSH0 PUSH0 REVERT JUMPDEST POP PUSH2 0x251 PUSH1 0x4 DUP1 CALLDATASIZE SUB DUP2 ADD SWAP1 PUSH2 0x24C SWAP2 SWAP1 PUSH2 0x316E JUMP JUMPDEST PUSH2 0x11B7 JUMP JUMPDEST STOP JUMPDEST CALLVALUE DUP1 ISZERO PUSH2 0x25E JUMPI PUSH0 PUSH0 REVERT JUMPDEST POP PUSH2 0x267 PUSH2 0x1286 JUMP JUMPDEST STOP JUMPDEST CALLVALUE DUP1 ISZERO PUSH2 0x274 JUMPI PUSH0 PUSH0 REVERT JUMPDEST POP PUSH2 0x27D PUSH2 0x1415 JUMP JUMPDEST PUSH1 0x40 MLOAD PUSH2 0x28A SWAP2 SWAP1 PUSH2 0x3416 JUMP JUMPDEST PUSH1 0x40 MLOAD DUP1 SWAP2 SUB SWAP1 RETURN JUMPDEST CALLVALUE DUP1 ISZERO PUSH2 0x29E JUMPI PUSH0 PUSH0 REVERT JUMPDEST POP PUSH2 0x2A7 PUSH2 0x143C JUMP JUMPDEST PUSH1 0x40 MLOAD PUSH2 0x2B4 SWAP2 SWAP1 PUSH2 0x343E JUMP JUMPDEST PUSH1 0x40 MLOAD DUP1 SWAP2 SUB SWAP1 RETURN JUMPDEST CALLVALUE DUP1 ISZERO PUSH2 0x2C8 JUMPI PUSH0 PUSH0 REVERT JUMPDEST POP PUSH2 0x2E3 PUSH1 0x4 DUP1 CALLDATASIZE SUB DUP2 ADD SWAP1 PUSH2 0x2DE SWAP2 SWAP1 PUSH2 0x330C JUMP JUMPDEST PUSH2 0x1442 JUMP JUMPDEST PUSH1 0x40 MLOAD PUSH2 0x2F0 SWAP2 SWAP1 PUSH2 0x343E JUMP JUMPDEST PUSH1 0x40 MLOAD DUP1 SWAP2 SUB SWAP1 RETURN JUMPDEST CALLVALUE DUP1 ISZERO PUSH2 0x304 JUMPI PUSH0 PUSH0 REVERT JUMPDEST POP PUSH2 0x31F PUSH1 0x4 DUP1 CALLDATASIZE SUB DUP2 ADD SWAP1 PUSH2 0x31A SWAP2 SWAP1 PUSH2 0x330C JUMP JUMPDEST PUSH2 0x1457 JUMP JUMPDEST PUSH1 0x40 MLOAD PUSH2 0x337 SWAP13 SWAP12 SWAP11 SWAP10 SWAP9 SWAP8 SWAP7 SWAP6 SWAP5 SWAP4 SWAP3 SWAP2 SWAP1 PUSH2 0x3557 JUMP JUMPDEST PUSH1 0x40 MLOAD DUP1 SWAP2 SUB SWAP1 RETURN JUMPDEST CALLVALUE DUP1 ISZERO PUSH2 0x34B JUMPI PUSH0 PUSH0 REVERT JUMPDEST POP PUSH2 0x366 PUSH1 0x4 DUP1 CALLDATASIZE SUB DUP2 ADD SWAP1 PUSH2 0x361 SWAP2 SWAP1 PUSH2 0x36EC JUMP JUMPDEST PUSH2 0x16B2 JUMP JUMPDEST PUSH1 0x40 MLOAD PUSH2 0x373 SWAP2 SWAP1 PUSH2 0x343E JUMP JUMPDEST PUSH1 0x40 MLOAD DUP1 SWAP2 SUB SWAP1 RETURN JUMPDEST CALLVALUE DUP1 ISZERO PUSH2 0x387 JUMPI PUSH0 PUSH0 REVERT JUMPDEST POP PUSH2 0x3A2 PUSH1 0x4 DUP1 CALLDATASIZE SUB DUP2 ADD SWAP1 PUSH2 0x39D SWAP2 SWAP1 PUSH2 0x316E JUMP JUMPDEST PUSH2 0x194C JUMP JUMPDEST STOP JUMPDEST CALLVALUE DUP1 ISZERO PUSH2 0x3AF JUMPI PUSH0 PUSH0 REVERT JUMPDEST POP PUSH2 0x3CA PUSH1 0x4 DUP1 CALLDATASIZE SUB DUP2 ADD SWAP1 PUSH2 0x3C5 SWAP2 SWAP1 PUSH2 0x3861 JUMP JUMPDEST PUSH2 0x1960 JUMP JUMPDEST STOP JUMPDEST PUSH32 0x0 PUSH20 0xFFFFFFFFFFFFFFFFFFFFFFFFFFFFFFFFFFFFFFFF AND CALLER PUSH20 0xFFFFFFFFFFFFFFFFFFFFFFFFFFFFFFFFFFFFFFFF AND EQ PUSH2 0x451 JUMPI PUSH1 0x40 MLOAD PUSH32 0xC6829F8300000000000000000000000000000000000000000000000000000000 DUP2 MSTORE PUSH1 0x4 ADD PUSH1 0x40 MLOAD DUP1 SWAP2 SUB SWAP1 REVERT JUMPDEST PUSH2 0x45C DUP4 DUP4 DUP4 PUSH2 0x1C7C JUMP JUMPDEST DUP3 PUSH32 0x85E1543BF2F84FE80C6BADBCE3648C8539AD1DF4D2B3D822938CA0538BE727E6 PUSH1 0x40 MLOAD PUSH1 0x40 MLOAD DUP1 SWAP2 SUB SWAP1 LOG2 POP POP POP JUMP JUMPDEST CALLER PUSH2 0x497 PUSH2 0x1415 JUMP JUMPDEST PUSH20 0xFFFFFFFFFFFFFFFFFFFFFFFFFFFFFFFFFFFFFFFF AND DUP2 PUSH20 0xFFFFFFFFFFFFFFFFFFFFFFFFFFFFFFFFFFFFFFFF AND EQ PUSH2 0x504 JUMPI PUSH1 0x40 MLOAD PUSH32 0x8C379A000000000000000000000000000000000000000000000000000000000 DUP2 MSTORE PUSH1 0x4 ADD PUSH2 0x4FB SWAP1 PUSH2 0x396F JUMP JUMPDEST PUSH1 0x40 MLOAD DUP1 SWAP2 SUB SWAP1 REVERT JUMPDEST DUP2 PUSH1 0x1 ISZERO ISZERO PUSH1 0x8 PUSH0 DUP4 PUSH20 0xFFFFFFFFFFFFFFFFFFFFFFFFFFFFFFFFFFFFFFFF AND PUSH20 0xFFFFFFFFFFFFFFFFFFFFFFFFFFFFFFFFFFFFFFFF AND DUP2 MSTORE PUSH1 0x20 ADD SWAP1 DUP2 MSTORE PUSH1 0x20 ADD PUSH0 KECCAK256 PUSH0 SWAP1 SLOAD SWAP1 PUSH2 0x100 EXP SWAP1 DIV PUSH1 0xFF AND ISZERO ISZERO EQ PUSH2 0x595 JUMPI PUSH1 0x40 MLOAD PUSH32 0x8C379A000000000000000000000000000000000000000000000000000000000 DUP2 MSTORE PUSH1 0x4 ADD PUSH2 0x58C SWAP1 PUSH2 0x39D7 JUMP JUMPDEST PUSH1 0x40 MLOAD DUP1 SWAP2 SUB SWAP1 REVERT JUMPDEST PUSH0 PUSH1 0x8 PUSH0 DUP6 PUSH20 0xFFFFFFFFFFFFFFFFFFFFFFFFFFFFFFFFFFFFFFFF AND PUSH20 0xFFFFFFFFFFFFFFFFFFFFFFFFFFFFFFFFFFFFFFFF AND DUP2 MSTORE PUSH1 0x20 ADD SWAP1 DUP2 MSTORE PUSH1 0x20 ADD PUSH0 KECCAK256 PUSH0 PUSH2 0x100 EXP DUP2 SLOAD DUP2 PUSH1 0xFF MUL NOT AND SWAP1 DUP4 ISZERO ISZERO MUL OR SWAP1 SSTORE POP POP POP POP JUMP JUMPDEST PUSH2 0x5F6 PUSH2 0x1D79 JUMP JUMPDEST PUSH0 PUSH1 0x4 PUSH0 DUP5 DUP2 MSTORE PUSH1 0x20 ADD SWAP1 DUP2 MSTORE PUSH1 0x20 ADD PUSH0 KECCAK256 SWAP1 POP PUSH0 DUP2 PUSH1 0x4 ADD DUP4 DUP2 SLOAD DUP2 LT PUSH2 0x621 JUMPI PUSH2 0x620 PUSH2 0x39F5 JUMP JUMPDEST JUMPDEST SWAP1 PUSH0 MSTORE PUSH1 0x20 PUSH0 KECCAK256 SWAP1 PUSH1 0x4 MUL ADD SWAP1 POP PUSH1 0x4 PUSH1 0x5 DUP2 GT ISZERO PUSH2 0x643 JUMPI PUSH2 0x642 PUSH2 0x34A9 JUMP JUMPDEST JUMPDEST DUP3 PUSH1 0x2 ADD PUSH0 SWAP1 SLOAD SWAP1 PUSH2 0x100 EXP SWAP1 DIV PUSH1 0xFF AND PUSH1 0x5 DUP2 GT ISZERO PUSH2 0x666 JUMPI PUSH2 0x665 PUSH2 0x34A9 JUMP JUMPDEST JUMPDEST EQ PUSH2 0x6A6 JUMPI PUSH1 0x40 MLOAD PUSH32 0x8C379A000000000000000000000000000000000000000000000000000000000 DUP2 MSTORE PUSH1 0x4 ADD PUSH2 0x69D SWAP1 PUSH2 0x3A6C JUMP JUMPDEST PUSH1 0x40 MLOAD DUP1 SWAP2 SUB SWAP1 REVERT JUMPDEST CALLER PUSH20 0xFFFFFFFFFFFFFFFFFFFFFFFFFFFFFFFFFFFFFFFF AND DUP2 PUSH0 ADD PUSH0 SWAP1 SLOAD SWAP1 PUSH2 0x100 EXP SWAP1 DIV PUSH20 0xFFFFFFFFFFFFFFFFFFFFFFFFFFFFFFFFFFFFFFFF AND PUSH20 0xFFFFFFFFFFFFFFFFFFFFFFFFFFFFFFFFFFFFFFFF AND EQ PUSH2 0x736 JUMPI PUSH1 0x40 MLOAD PUSH32 0x8C379A000000000000000000000000000000000000000000000000000000000 DUP2 MSTORE PUSH1 0x4 ADD PUSH2 0x72D SWAP1 PUSH2 0x3AD4 JUMP JUMPDEST PUSH1 0x40 MLOAD DUP1 SWAP2 SUB SWAP1 REVERT JUMPDEST DUP1 PUSH1 0x3 ADD PUSH1 0x1 SWAP1 SLOAD SWAP1 PUSH2 0x100 EXP SWAP1 DIV PUSH1 0xFF AND ISZERO PUSH2 0x788 JUMPI PUSH1 0x40 MLOAD PUSH32 0x8C379A000000000000000000000000000000000000000000000000000000000 DUP2 MSTORE PUSH1 0x4 ADD PUSH2 0x77F SWAP1 PUSH2 0x3B3C JUMP JUMPDEST PUSH1 0x40 MLOAD DUP1 SWAP2 SUB SWAP1 REVERT JUMPDEST DUP2 PUSH1 0x8 ADD PUSH0 SWAP1 SLOAD SWAP1 PUSH2 0x100 EXP SWAP1 DIV PUSH1 0xFF AND PUSH1 0xFF AND DUP2 PUSH1 0x3 ADD PUSH0 SWAP1 SLOAD SWAP1 PUSH2 0x100 EXP SWAP1 DIV PUSH1 0xFF AND PUSH1 0xFF AND EQ PUSH2 0x7F0 JUMPI PUSH1 0x40 MLOAD PUSH32 0x8C379A000000000000000000000000000000000000000000000000000000000 DUP2 MSTORE PUSH1 0x4 ADD PUSH2 0x7E7 SWAP1 PUSH2 0x3BA4 JUMP JUMPDEST PUSH1 0x40 MLOAD DUP1 SWAP2 SUB SWAP1 REVERT JUMPDEST PUSH0 PUSH1 0x3 PUSH0 DUP7 DUP2 MSTORE PUSH1 0x20 ADD SWAP1 DUP2 MSTORE PUSH1 0x20 ADD PUSH0 KECCAK256 SLOAD SWAP1 POP PUSH0 DUP4 PUSH1 0x3 ADD DUP5 PUSH1 0x8 ADD PUSH0 SWAP1 SLOAD SWAP1 PUSH2 0x100 EXP SWAP1 DIV PUSH1 0xFF AND PUSH1 0xFF AND DUP2 SLOAD DUP2 LT PUSH2 0x82F JUMPI PUSH2 0x82E PUSH2 0x39F5 JUMP JUMPDEST JUMPDEST SWAP1 PUSH0 MSTORE PUSH1 0x20 PUSH0 KECCAK256 ADD SLOAD SWAP1 POP PUSH0 DUP3 DUP3 DUP6 PUSH1 0x2 ADD SLOAD PUSH2 0x84C SWAP2 SWAP1 PUSH2 0x3C1C JUMP JUMPDEST PUSH2 0x856 SWAP2 SWAP1 PUSH2 0x3C4C JUMP JUMPDEST SWAP1 POP PUSH0 DUP5 PUSH0 ADD PUSH0 SWAP1 SLOAD SWAP1 PUSH2 0x100 EXP SWAP1 DIV PUSH20 0xFFFFFFFFFFFFFFFFFFFFFFFFFFFFFFFFFFFFFFFF AND PUSH20 0xFFFFFFFFFFFFFFFFFFFFFFFFFFFFFFFFFFFFFFFF AND DUP3 PUSH1 0x40 MLOAD PUSH2 0x89F SWAP1 PUSH2 0x3CBA JUMP JUMPDEST PUSH0 PUSH1 0x40 MLOAD DUP1 DUP4 SUB DUP2 DUP6 DUP8 GAS CALL SWAP3 POP POP POP RETURNDATASIZE DUP1 PUSH0 DUP2 EQ PUSH2 0x8D9 JUMPI PUSH1 0x40 MLOAD SWAP2 POP PUSH1 0x1F NOT PUSH1 0x3F RETURNDATASIZE ADD AND DUP3 ADD PUSH1 0x40 MSTORE RETURNDATASIZE DUP3 MSTORE RETURNDATASIZE PUSH0 PUSH1 0x20 DUP5 ADD RETURNDATACOPY PUSH2 0x8DE JUMP JUMPDEST PUSH1 0x60 SWAP2 POP JUMPDEST POP POP DUP1 SWAP2 POP POP DUP1 PUSH2 0x924 JUMPI PUSH1 0x40 MLOAD PUSH32 0x8C379A000000000000000000000000000000000000000000000000000000000 DUP2 MSTORE PUSH1 0x4 ADD PUSH2 0x91B SWAP1 PUSH2 0x3D18 JUMP JUMPDEST PUSH1 0x40 MLOAD DUP1 SWAP2 SUB SWAP1 REVERT JUMPDEST PUSH1 0x1 DUP6 PUSH1 0x3 ADD PUSH1 0x1 PUSH2 0x100 EXP DUP2 SLOAD DUP2 PUSH1 0xFF MUL NOT AND SWAP1 DUP4 ISZERO ISZERO MUL OR SWAP1 SSTORE POP POP POP POP POP POP POP PUSH2 0x94F PUSH2 0x1DC6 JUMP JUMPDEST POP POP JUMP JUMPDEST PUSH0 PUSH1 0x4 PUSH0 DUP5 DUP2 MSTORE PUSH1 0x20 ADD SWAP1 DUP2 MSTORE PUSH1 0x20 ADD PUSH0 KECCAK256 SWAP1 POP PUSH1 0x1 PUSH1 0x5 DUP2 GT ISZERO PUSH2 0x97B JUMPI PUSH2 0x97A PUSH2 0x34A9 JUMP JUMPDEST JUMPDEST DUP2 PUSH1 0x2 ADD PUSH0 SWAP1 SLOAD SWAP1 PUSH2 0x100 EXP SWAP1 DIV PUSH1 0xFF AND PUSH1 0x5 DUP2 GT ISZERO PUSH2 0x99E JUMPI PUSH2 0x99D PUSH2 0x34A9 JUMP JUMPDEST JUMPDEST EQ PUSH2 0x9DE JUMPI PUSH1 0x40 MLOAD PUSH32 0x8C379A000000000000000000000000000000000000000000000000000000000 DUP2 MSTORE PUSH1 0x4 ADD PUSH2 0x9D5 SWAP1 PUSH2 0x3D80 JUMP JUMPDEST PUSH1 0x40 MLOAD DUP1 SWAP2 SUB SWAP1 REVERT JUMPDEST DUP1 PUSH1 0x2 ADD PUSH1 0x7 SWAP1 SLOAD SWAP1 PUSH2 0x100 EXP SWAP1 DIV PUSH6 0xFFFFFFFFFFFF AND PUSH6 0xFFFFFFFFFFFF AND TIMESTAMP LT PUSH2 0xA3E JUMPI PUSH1 0x40 MLOAD PUSH32 0x8C379A000000000000000000000000000000000000000000000000000000000 DUP2 MSTORE PUSH1 0x4 ADD PUSH2 0xA35 SWAP1 PUSH2 0x3DE8 JUMP JUMPDEST PUSH1 0x40 MLOAD DUP1 SWAP2 SUB SWAP1 REVERT JUMPDEST PUSH0 CALLVALUE GT PUSH2 0xA80 JUMPI PUSH1 0x40 MLOAD PUSH32 0x8C379A000000000000000000000000000000000000000000000000000000000 DUP2 MSTORE PUSH1 0x4 ADD PUSH2 0xA77 SWAP1 PUSH2 0x3E50 JUMP JUMPDEST PUSH1 0x40 MLOAD DUP1 SWAP2 SUB SWAP1 REVERT JUMPDEST DUP1 PUSH1 0x4 ADD PUSH1 0x40 MLOAD DUP1 PUSH1 0xA0 ADD PUSH1 0x40 MSTORE DUP1 CALLER PUSH20 0xFFFFFFFFFFFFFFFFFFFFFFFFFFFFFFFFFFFFFFFF AND DUP2 MSTORE PUSH1 0x20 ADD DUP5 DUP2 MSTORE PUSH1 0x20 ADD CALLVALUE DUP2 MSTORE PUSH1 0x20 ADD PUSH0 PUSH1 0xFF AND DUP2 MSTORE PUSH1 0x20 ADD PUSH0 ISZERO ISZERO DUP2 MSTORE POP SWAP1 DUP1 PUSH1 0x1 DUP2 SLOAD ADD DUP1 DUP3 SSTORE DUP1 SWAP2 POP POP PUSH1 0x1 SWAP1 SUB SWAP1 PUSH0 MSTORE PUSH1 0x20 PUSH0 KECCAK256 SWAP1 PUSH1 0x4 MUL ADD PUSH0 SWAP1 SWAP2 SWAP1 SWAP2 SWAP1 SWAP2 POP PUSH0 DUP3 ADD MLOAD DUP2 PUSH0 ADD PUSH0 PUSH2 0x100 EXP DUP2 SLOAD DUP2 PUSH20 0xFFFFFFFFFFFFFFFFFFFFFFFFFFFFFFFFFFFFFFFF MUL NOT AND SWAP1 DUP4 PUSH20 0xFFFFFFFFFFFFFFFFFFFFFFFFFFFFFFFFFFFFFFFF AND MUL OR SWAP1 SSTORE POP PUSH1 0x20 DUP3 ADD MLOAD DUP2 PUSH1 0x1 ADD SWAP1 DUP2 PUSH2 0xB45 SWAP2 SWAP1 PUSH2 0x407C JUMP JUMPDEST POP PUSH1 0x40 DUP3 ADD MLOAD DUP2 PUSH1 0x2 ADD SSTORE PUSH1 0x60 DUP3 ADD MLOAD DUP2 PUSH1 0x3 ADD PUSH0 PUSH2 0x100 EXP DUP2 SLOAD DUP2 PUSH1 0xFF MUL NOT AND SWAP1 DUP4 PUSH1 0xFF AND MUL OR SWAP1 SSTORE POP PUSH1 0x80 DUP3 ADD MLOAD DUP2 PUSH1 0x3 ADD PUSH1 0x1 PUSH2 0x100 EXP DUP2 SLOAD DUP2 PUSH1 0xFF MUL NOT AND SWAP1 DUP4 ISZERO ISZERO MUL OR SWAP1 SSTORE POP POP POP POP POP POP JUMP JUMPDEST PUSH0 DUP3 DUP3 DUP2 ADD SWAP1 PUSH2 0xBA7 SWAP2 SWAP1 PUSH2 0x330C JUMP JUMPDEST SWAP1 POP ADDRESS PUSH20 0xFFFFFFFFFFFFFFFFFFFFFFFFFFFFFFFFFFFFFFFF AND PUSH4 0x6399D03D DUP3 PUSH1 0x40 MLOAD DUP3 PUSH4 0xFFFFFFFF AND PUSH1 0xE0 SHL DUP2 MSTORE PUSH1 0x4 ADD PUSH2 0xBE2 SWAP2 SWAP1 PUSH2 0x343E JUMP JUMPDEST PUSH1 0x20 PUSH1 0x40 MLOAD DUP1 DUP4 SUB DUP2 PUSH0 DUP8 GAS CALL ISZERO DUP1 ISZERO PUSH2 0xBFE JUMPI RETURNDATASIZE PUSH0 PUSH0 RETURNDATACOPY RETURNDATASIZE PUSH0 REVERT JUMPDEST POP POP POP POP PUSH1 0x40 MLOAD RETURNDATASIZE PUSH1 0x1F NOT PUSH1 0x1F DUP3 ADD AND DUP3 ADD DUP1 PUSH1 0x40 MSTORE POP DUP2 ADD SWAP1 PUSH2 0xC22 SWAP2 SWAP1 PUSH2 0x415F JUMP JUMPDEST POP POP POP POP JUMP JUMPDEST PUSH0 PUSH0 PUSH1 0x4 PUSH0 DUP5 DUP2 MSTORE PUSH1 0x20 ADD SWAP1 DUP2 MSTORE PUSH1 0x20 ADD PUSH0 KECCAK256 SWAP1 POP PUSH1 0x1 PUSH1 0x5 DUP2 GT ISZERO PUSH2 0xC51 JUMPI PUSH2 0xC50 PUSH2 0x34A9 JUMP JUMPDEST JUMPDEST DUP2 PUSH1 0x2 ADD PUSH0 SWAP1 SLOAD SWAP1 PUSH2 0x100 EXP SWAP1 DIV PUSH1 0xFF AND PUSH1 0x5 DUP2 GT ISZERO PUSH2 0xC74 JUMPI PUSH2 0xC73 PUSH2 0x34A9 JUMP JUMPDEST JUMPDEST EQ DUP1 PUSH2 0xCB4 JUMPI POP PUSH1 0x2 PUSH1 0x5 DUP2 GT ISZERO PUSH2 0xC8F JUMPI PUSH2 0xC8E PUSH2 0x34A9 JUMP JUMPDEST JUMPDEST DUP2 PUSH1 0x2 ADD PUSH0 SWAP1 SLOAD SWAP1 PUSH2 0x100 EXP SWAP1 DIV PUSH1 0xFF AND PUSH1 0x5 DUP2 GT ISZERO PUSH2 0xCB2 JUMPI PUSH2 0xCB1 PUSH2 0x34A9 JUMP JUMPDEST JUMPDEST EQ JUMPDEST PUSH2 0xCF3 JUMPI PUSH1 0x40 MLOAD PUSH32 0x8C379A000000000000000000000000000000000000000000000000000000000 DUP2 MSTORE PUSH1 0x4 ADD PUSH2 0xCEA SWAP1 PUSH2 0x41D4 JUMP JUMPDEST PUSH1 0x40 MLOAD DUP1 SWAP2 SUB SWAP1 REVERT JUMPDEST DUP1 PUSH1 0x2 ADD PUSH1 0x7 SWAP1 SLOAD SWAP1 PUSH2 0x100 EXP SWAP1 DIV PUSH6 0xFFFFFFFFFFFF AND PUSH6 0xFFFFFFFFFFFF AND TIMESTAMP LT ISZERO PUSH2 0xD54 JUMPI PUSH1 0x40 MLOAD PUSH32 0x8C379A000000000000000000000000000000000000000000000000000000000 DUP2 MSTORE PUSH1 0x4 ADD PUSH2 0xD4B SWAP1 PUSH2 0x423C JUMP JUMPDEST PUSH1 0x40 MLOAD DUP1 SWAP2 SUB SWAP1 REVERT JUMPDEST DUP1 PUSH1 0x2 ADD PUSH1 0x13 SWAP1 SLOAD SWAP1 PUSH2 0x100 EXP SWAP1 DIV PUSH6 0xFFFFFFFFFFFF AND PUSH6 0xFFFFFFFFFFFF AND TIMESTAMP GT ISZERO PUSH2 0xDB5 JUMPI PUSH1 0x40 MLOAD PUSH32 0x8C379A000000000000000000000000000000000000000000000000000000000 DUP2 MSTORE PUSH1 0x4 ADD PUSH2 0xDAC SWAP1 PUSH2 0x42A4 JUMP JUMPDEST PUSH1 0x40 MLOAD DUP1 SWAP2 SUB SWAP1 REVERT JUMPDEST PUSH1 0x3 DUP2 PUSH1 0x2 ADD PUSH0 PUSH2 0x100 EXP DUP2 SLOAD DUP2 PUSH1 0xFF MUL NOT AND SWAP1 DUP4 PUSH1 0x5 DUP2 GT ISZERO PUSH2 0xDDC JUMPI PUSH2 0xDDB PUSH2 0x34A9 JUMP JUMPDEST JUMPDEST MUL OR SWAP1 SSTORE POP PUSH0 PUSH1 0x2 PUSH8 0xFFFFFFFFFFFFFFFF DUP2 GT ISZERO PUSH2 0xDFD JUMPI PUSH2 0xDFC PUSH2 0x2F68 JUMP JUMPDEST JUMPDEST PUSH1 0x40 MLOAD SWAP1 DUP1 DUP3 MSTORE DUP1 PUSH1 0x20 MUL PUSH1 0x20 ADD DUP3 ADD PUSH1 0x40 MSTORE DUP1 ISZERO PUSH2 0xE30 JUMPI DUP2 PUSH1 0x20 ADD JUMPDEST PUSH1 0x60 DUP2 MSTORE PUSH1 0x20 ADD SWAP1 PUSH1 0x1 SWAP1 SUB SWAP1 DUP2 PUSH2 0xE1B JUMPI SWAP1 POP JUMPDEST POP SWAP1 POP PUSH2 0xE3C DUP5 PUSH2 0x1DD0 JUMP JUMPDEST DUP2 PUSH0 DUP2 MLOAD DUP2 LT PUSH2 0xE4F JUMPI PUSH2 0xE4E PUSH2 0x39F5 JUMP JUMPDEST JUMPDEST PUSH1 0x20 MUL PUSH1 0x20 ADD ADD DUP2 SWAP1 MSTORE POP DUP2 PUSH1 0x1 ADD DUP1 SLOAD PUSH2 0xE69 SWAP1 PUSH2 0x3E9B JUMP JUMPDEST DUP1 PUSH1 0x1F ADD PUSH1 0x20 DUP1 SWAP2 DIV MUL PUSH1 0x20 ADD PUSH1 0x40 MLOAD SWAP1 DUP2 ADD PUSH1 0x40 MSTORE DUP1 SWAP3 SWAP2 SWAP1 DUP2 DUP2 MSTORE PUSH1 0x20 ADD DUP3 DUP1 SLOAD PUSH2 0xE95 SWAP1 PUSH2 0x3E9B JUMP JUMPDEST DUP1 ISZERO PUSH2 0xEE0 JUMPI DUP1 PUSH1 0x1F LT PUSH2 0xEB7 JUMPI PUSH2 0x100 DUP1 DUP4 SLOAD DIV MUL DUP4 MSTORE SWAP2 PUSH1 0x20 ADD SWAP2 PUSH2 0xEE0 JUMP JUMPDEST DUP3 ADD SWAP2 SWAP1 PUSH0 MSTORE PUSH1 0x20 PUSH0 KECCAK256 SWAP1 JUMPDEST DUP2 SLOAD DUP2 MSTORE SWAP1 PUSH1 0x1 ADD SWAP1 PUSH1 0x20 ADD DUP1 DUP4 GT PUSH2 0xEC3 JUMPI DUP3 SWAP1 SUB PUSH1 0x1F AND DUP3 ADD SWAP2 JUMPDEST POP POP POP POP POP DUP2 PUSH1 0x1 DUP2 MLOAD DUP2 LT PUSH2 0xEF9 JUMPI PUSH2 0xEF8 PUSH2 0x39F5 JUMP JUMPDEST JUMPDEST PUSH1 0x20 MUL PUSH1 0x20 ADD ADD DUP2 SWAP1 MSTORE POP PUSH2 0xF0C PUSH2 0x2E65 JUMP JUMPDEST PUSH2 0xFA9 DUP4 PUSH1 0x6 ADD DUP1 SLOAD PUSH2 0xF1E SWAP1 PUSH2 0x3E9B JUMP JUMPDEST DUP1 PUSH1 0x1F ADD PUSH1 0x20 DUP1 SWAP2 DIV MUL PUSH1 0x20 ADD PUSH1 0x40 MLOAD SWAP1 DUP2 ADD PUSH1 0x40 MSTORE DUP1 SWAP3 SWAP2 SWAP1 DUP2 DUP2 MSTORE PUSH1 0x20 ADD DUP3 DUP1 SLOAD PUSH2 0xF4A SWAP1 PUSH2 0x3E9B JUMP JUMPDEST DUP1 ISZERO PUSH2 0xF95 JUMPI DUP1 PUSH1 0x1F LT PUSH2 0xF6C JUMPI PUSH2 0x100 DUP1 DUP4 SLOAD DIV MUL DUP4 MSTORE SWAP2 PUSH1 0x20 ADD SWAP2 PUSH2 0xF95 JUMP JUMPDEST DUP3 ADD SWAP2 SWAP1 PUSH0 MSTORE PUSH1 0x20 PUSH0 KECCAK256 SWAP1 JUMPDEST DUP2 SLOAD DUP2 MSTORE SWAP1 PUSH1 0x1 ADD SWAP1 PUSH1 0x20 ADD DUP1 DUP4 GT PUSH2 0xF78 JUMPI DUP3 SWAP1 SUB PUSH1 0x1F AND DUP3 ADD SWAP2 JUMPDEST POP POP POP POP POP DUP3 PUSH2 0x1E9A SWAP1 SWAP2 SWAP1 PUSH4 0xFFFFFFFF AND JUMP JUMPDEST PUSH2 0xFBC DUP3 DUP3 PUSH2 0x1EAA SWAP1 SWAP2 SWAP1 PUSH4 0xFFFFFFFF AND JUMP JUMPDEST PUSH2 0x1059 DUP4 PUSH1 0x7 ADD DUP1 SLOAD PUSH2 0xFCE SWAP1 PUSH2 0x3E9B JUMP JUMPDEST DUP1 PUSH1 0x1F ADD PUSH1 0x20 DUP1 SWAP2 DIV MUL PUSH1 0x20 ADD PUSH1 0x40 MLOAD SWAP1 DUP2 ADD PUSH1 0x40 MSTORE DUP1 SWAP3 SWAP2 SWAP1 DUP2 DUP2 MSTORE PUSH1 0x20 ADD DUP3 DUP1 SLOAD PUSH2 0xFFA SWAP1 PUSH2 0x3E9B JUMP JUMPDEST DUP1 ISZERO PUSH2 0x1045 JUMPI DUP1 PUSH1 0x1F LT PUSH2 0x101C JUMPI PUSH2 0x100 DUP1 DUP4 SLOAD DIV MUL DUP4 MSTORE SWAP2 PUSH1 0x20 ADD SWAP2 PUSH2 0x1045 JUMP JUMPDEST DUP3 ADD SWAP2 SWAP1 PUSH0 MSTORE PUSH1 0x20 PUSH0 KECCAK256 SWAP1 JUMPDEST DUP2 SLOAD DUP2 MSTORE SWAP1 PUSH1 0x1 ADD SWAP1 PUSH1 0x20 ADD DUP1 DUP4 GT PUSH2 0x1028 JUMPI DUP3 SWAP1 SUB PUSH1 0x1F AND DUP3 ADD SWAP2 JUMPDEST POP POP POP POP POP DUP3 PUSH2 0x1EF1 SWAP1 SWAP2 SWAP1 PUSH4 0xFFFFFFFF AND JUMP JUMPDEST PUSH0 PUSH2 0x1087 PUSH2 0x1066 DUP4 PUSH2 0x1F69 JUMP JUMPDEST PUSH1 0x6 PUSH1 0x14 SWAP1 SLOAD SWAP1 PUSH2 0x100 EXP SWAP1 DIV PUSH8 0xFFFFFFFFFFFFFFFF AND PUSH3 0x493E0 PUSH0 PUSH2 0x2374 JUMP JUMPDEST SWAP1 POP DUP1 DUP5 PUSH1 0x5 ADD DUP2 SWAP1 SSTORE POP DUP1 SWAP5 POP POP POP POP POP SWAP2 SWAP1 POP JUMP JUMPDEST PUSH0 PUSH1 0x60 PUSH0 PUSH1 0x1 SWAP1 POP JUMPDEST PUSH1 0x5 SLOAD DUP2 GT PUSH2 0x119A JUMPI PUSH0 PUSH1 0x4 PUSH0 DUP4 DUP2 MSTORE PUSH1 0x20 ADD SWAP1 DUP2 MSTORE PUSH1 0x20 ADD PUSH0 KECCAK256 SWAP1 POP PUSH1 0x1 PUSH1 0x5 DUP2 GT ISZERO PUSH2 0x10D8 JUMPI PUSH2 0x10D7 PUSH2 0x34A9 JUMP JUMPDEST JUMPDEST DUP2 PUSH1 0x2 ADD PUSH0 SWAP1 SLOAD SWAP1 PUSH2 0x100 EXP SWAP1 DIV PUSH1 0xFF AND PUSH1 0x5 DUP2 GT ISZERO PUSH2 0x10FB JUMPI PUSH2 0x10FA PUSH2 0x34A9 JUMP JUMPDEST JUMPDEST EQ DUP1 ISZERO PUSH2 0x1126 JUMPI POP DUP1 PUSH1 0x2 ADD PUSH1 0x7 SWAP1 SLOAD SWAP1 PUSH2 0x100 EXP SWAP1 DIV PUSH6 0xFFFFFFFFFFFF AND PUSH6 0xFFFFFFFFFFFF AND TIMESTAMP LT ISZERO JUMPDEST DUP1 ISZERO PUSH2 0x1150 JUMPI POP DUP1 PUSH1 0x2 ADD PUSH1 0x13 SWAP1 SLOAD SWAP1 PUSH2 0x100 EXP SWAP1 DIV PUSH6 0xFFFFFFFFFFFF AND PUSH6 0xFFFFFFFFFFFF AND TIMESTAMP GT ISZERO JUMPDEST ISZERO PUSH2 0x1186 JUMPI PUSH1 0x1 SWAP4 POP DUP2 PUSH1 0x40 MLOAD PUSH1 0x20 ADD PUSH2 0x116A SWAP2 SWAP1 PUSH2 0x343E JUMP JUMPDEST PUSH1 0x40 MLOAD PUSH1 0x20 DUP2 DUP4 SUB SUB DUP2 MSTORE SWAP1 PUSH1 0x40 MSTORE SWAP3 POP PUSH1 0x1 SWAP4 POP POP POP PUSH2 0x11B0 JUMP JUMPDEST POP DUP1 DUP1 PUSH2 0x1192 SWAP1 PUSH2 0x42C2 JUMP JUMPDEST SWAP2 POP POP PUSH2 0x10A7 JUMP JUMPDEST POP PUSH0 PUSH1 0x40 MLOAD DUP1 PUSH1 0x20 ADD PUSH1 0x40 MSTORE DUP1 PUSH0 DUP2 MSTORE POP SWAP2 POP SWAP2 POP JUMPDEST SWAP3 POP SWAP3 SWAP1 POP JUMP JUMPDEST CALLER PUSH2 0x11C0 PUSH2 0x1415 JUMP JUMPDEST PUSH20 0xFFFFFFFFFFFFFFFFFFFFFFFFFFFFFFFFFFFFFFFF AND DUP2 PUSH20 0xFFFFFFFFFFFFFFFFFFFFFFFFFFFFFFFFFFFFFFFF AND EQ PUSH2 0x122D JUMPI PUSH1 0x40 MLOAD PUSH32 0x8C379A000000000000000000000000000000000000000000000000000000000 DUP2 MSTORE PUSH1 0x4 ADD PUSH2 0x1224 SWAP1 PUSH2 0x396F JUMP JUMPDEST PUSH1 0x40 MLOAD DUP1 SWAP2 SUB SWAP1 REVERT JUMPDEST PUSH1 0x1 PUSH1 0x8 PUSH0 DUP5 PUSH20 0xFFFFFFFFFFFFFFFFFFFFFFFFFFFFFFFFFFFFFFFF AND PUSH20 0xFFFFFFFFFFFFFFFFFFFFFFFFFFFFFFFFFFFFFFFF AND DUP2 MSTORE PUSH1 0x20 ADD SWAP1 DUP2 MSTORE PUSH1 0x20 ADD PUSH0 KECCAK256 PUSH0 PUSH2 0x100 EXP DUP2 SLOAD DUP2 PUSH1 0xFF MUL NOT AND SWAP1 DUP4 ISZERO ISZERO MUL OR SWAP1 SSTORE POP POP POP JUMP JUMPDEST PUSH1 0x1 PUSH0 SWAP1 SLOAD SWAP1 PUSH2 0x100 EXP SWAP1 DIV PUSH20 0xFFFFFFFFFFFFFFFFFFFFFFFFFFFFFFFFFFFFFFFF AND PUSH20 0xFFFFFFFFFFFFFFFFFFFFFFFFFFFFFFFFFFFFFFFF AND CALLER PUSH20 0xFFFFFFFFFFFFFFFFFFFFFFFFFFFFFFFFFFFFFFFF AND EQ PUSH2 0x1315 JUMPI PUSH1 0x40 MLOAD PUSH32 0x8C379A000000000000000000000000000000000000000000000000000000000 DUP2 MSTORE PUSH1 0x4 ADD PUSH2 0x130C SWAP1 PUSH2 0x4353 JUMP JUMPDEST PUSH1 0x40 MLOAD DUP1 SWAP2 SUB SWAP1 REVERT JUMPDEST PUSH0 PUSH0 PUSH0 SWAP1 SLOAD SWAP1 PUSH2 0x100 EXP SWAP1 DIV PUSH20 0xFFFFFFFFFFFFFFFFFFFFFFFFFFFFFFFFFFFFFFFF AND SWAP1 POP CALLER PUSH0 PUSH0 PUSH2 0x100 EXP DUP2 SLOAD DUP2 PUSH20 0xFFFFFFFFFFFFFFFFFFFFFFFFFFFFFFFFFFFFFFFF MUL NOT AND SWAP1 DUP4 PUSH20 0xFFFFFFFFFFFFFFFFFFFFFFFFFFFFFFFFFFFFFFFF AND MUL OR SWAP1 SSTORE POP PUSH0 PUSH1 0x1 PUSH0 PUSH2 0x100 EXP DUP2 SLOAD DUP2 PUSH20 0xFFFFFFFFFFFFFFFFFFFFFFFFFFFFFFFFFFFFFFFF MUL NOT AND SWAP1 DUP4 PUSH20 0xFFFFFFFFFFFFFFFFFFFFFFFFFFFFFFFFFFFFFFFF AND MUL OR SWAP1 SSTORE POP CALLER PUSH20 0xFFFFFFFFFFFFFFFFFFFFFFFFFFFFFFFFFFFFFFFF AND DUP2 PUSH20 0xFFFFFFFFFFFFFFFFFFFFFFFFFFFFFFFFFFFFFFFF AND PUSH32 0x8BE0079C531659141344CD1FD0A4F28419497F9722A3DAAFE3B4186F6B6457E0 PUSH1 0x40 MLOAD PUSH1 0x40 MLOAD DUP1 SWAP2 SUB SWAP1 LOG3 POP JUMP JUMPDEST PUSH0 PUSH0 PUSH0 SWAP1 SLOAD SWAP1 PUSH2 0x100 EXP SWAP1 DIV PUSH20 0xFFFFFFFFFFFFFFFFFFFFFFFFFFFFFFFFFFFFFFFF AND SWAP1 POP SWAP1 JUMP JUMPDEST PUSH1 0x5 SLOAD DUP2 JUMP JUMPDEST PUSH1 0x3 PUSH1 0x20 MSTORE DUP1 PUSH0 MSTORE PUSH1 0x40 PUSH0 KECCAK256 PUSH0 SWAP2 POP SWAP1 POP SLOAD DUP2 JUMP JUMPDEST PUSH1 0x4 PUSH1 0x20 MSTORE DUP1 PUSH0 MSTORE PUSH1 0x40 PUSH0 KECCAK256 PUSH0 SWAP2 POP SWAP1 POP DUP1 PUSH0 ADD SLOAD SWAP1 DUP1 PUSH1 0x1 ADD DUP1 SLOAD PUSH2 0x147C SWAP1 PUSH2 0x3E9B JUMP JUMPDEST DUP1 PUSH1 0x1F ADD PUSH1 0x20 DUP1 SWAP2 DIV MUL PUSH1 0x20 ADD PUSH1 0x40 MLOAD SWAP1 DUP2 ADD PUSH1 0x40 MSTORE DUP1 SWAP3 SWAP2 SWAP1 DUP2 DUP2 MSTORE PUSH1 0x20 ADD DUP3 DUP1 SLOAD PUSH2 0x14A8 SWAP1 PUSH2 0x3E9B JUMP JUMPDEST DUP1 ISZERO PUSH2 0x14F3 JUMPI DUP1 PUSH1 0x1F LT PUSH2 0x14CA JUMPI PUSH2 0x100 DUP1 DUP4 SLOAD DIV MUL DUP4 MSTORE SWAP2 PUSH1 0x20 ADD SWAP2 PUSH2 0x14F3 JUMP JUMPDEST DUP3 ADD SWAP2 SWAP1 PUSH0 MSTORE PUSH1 0x20 PUSH0 KECCAK256 SWAP1 JUMPDEST DUP2 SLOAD DUP2 MSTORE SWAP1 PUSH1 0x1 ADD SWAP1 PUSH1 0x20 ADD DUP1 DUP4 GT PUSH2 0x14D6 JUMPI DUP3 SWAP1 SUB PUSH1 0x1F AND DUP3 ADD SWAP2 JUMPDEST POP POP POP POP POP SWAP1 DUP1 PUSH1 0x2 ADD PUSH0 SWAP1 SLOAD SWAP1 PUSH2 0x100 EXP SWAP1 DIV PUSH1 0xFF AND SWAP1 DUP1 PUSH1 0x2 ADD PUSH1 0x1 SWAP1 SLOAD SWAP1 PUSH2 0x100 EXP SWAP1 DIV PUSH6 0xFFFFFFFFFFFF AND SWAP1 DUP1 PUSH1 0x2 ADD PUSH1 0x7 SWAP1 SLOAD SWAP1 PUSH2 0x100 EXP SWAP1 DIV PUSH6 0xFFFFFFFFFFFF AND SWAP1 DUP1 PUSH1 0x2 ADD PUSH1 0xD SWAP1 SLOAD SWAP1 PUSH2 0x100 EXP SWAP1 DIV PUSH6 0xFFFFFFFFFFFF AND SWAP1 DUP1 PUSH1 0x2 ADD PUSH1 0x13 SWAP1 SLOAD SWAP1 PUSH2 0x100 EXP SWAP1 DIV PUSH6 0xFFFFFFFFFFFF AND SWAP1 DUP1 PUSH1 0x5 ADD SLOAD SWAP1 DUP1 PUSH1 0x6 ADD DUP1 SLOAD PUSH2 0x1580 SWAP1 PUSH2 0x3E9B JUMP JUMPDEST DUP1 PUSH1 0x1F ADD PUSH1 0x20 DUP1 SWAP2 DIV MUL PUSH1 0x20 ADD PUSH1 0x40 MLOAD SWAP1 DUP2 ADD PUSH1 0x40 MSTORE DUP1 SWAP3 SWAP2 SWAP1 DUP2 DUP2 MSTORE PUSH1 0x20 ADD DUP3 DUP1 SLOAD PUSH2 0x15AC SWAP1 PUSH2 0x3E9B JUMP JUMPDEST DUP1 ISZERO PUSH2 0x15F7 JUMPI DUP1 PUSH1 0x1F LT PUSH2 0x15CE JUMPI PUSH2 0x100 DUP1 DUP4 SLOAD DIV MUL DUP4 MSTORE SWAP2 PUSH1 0x20 ADD SWAP2 PUSH2 0x15F7 JUMP JUMPDEST DUP3 ADD SWAP2 SWAP1 PUSH0 MSTORE PUSH1 0x20 PUSH0 KECCAK256 SWAP1 JUMPDEST DUP2 SLOAD DUP2 MSTORE SWAP1 PUSH1 0x1 ADD SWAP1 PUSH1 0x20 ADD DUP1 DUP4 GT PUSH2 0x15DA JUMPI DUP3 SWAP1 SUB PUSH1 0x1F AND DUP3 ADD SWAP2 JUMPDEST POP POP POP POP POP SWAP1 DUP1 PUSH1 0x7 ADD DUP1 SLOAD PUSH2 0x160C SWAP1 PUSH2 0x3E9B JUMP JUMPDEST DUP1 PUSH1 0x1F ADD PUSH1 0x20 DUP1 SWAP2 DIV MUL PUSH1 0x20 ADD PUSH1 0x40 MLOAD SWAP1 DUP2 ADD PUSH1 0x40 MSTORE DUP1 SWAP3 SWAP2 SWAP1 DUP2 DUP2 MSTORE PUSH1 0x20 ADD DUP3 DUP1 SLOAD PUSH2 0x1638 SWAP1 PUSH2 0x3E9B JUMP JUMPDEST DUP1 ISZERO PUSH2 0x1683 JUMPI DUP1 PUSH1 0x1F LT PUSH2 0x165A JUMPI PUSH2 0x100 DUP1 DUP4 SLOAD DIV MUL DUP4 MSTORE SWAP2 PUSH1 0x20 ADD SWAP2 PUSH2 0x1683 JUMP JUMPDEST DUP3 ADD SWAP2 SWAP1 PUSH0 MSTORE PUSH1 0x20 PUSH0 KECCAK256 SWAP1 JUMPDEST DUP2 SLOAD DUP2 MSTORE SWAP1 PUSH1 0x1 ADD SWAP1 PUSH1 0x20 ADD DUP1 DUP4 GT PUSH2 0x1666 JUMPI DUP3 SWAP1 SUB PUSH1 0x1F AND DUP3 ADD SWAP2 JUMPDEST POP POP POP POP POP SWAP1 DUP1 PUSH1 0x8 ADD PUSH0 SWAP1 SLOAD SWAP1 PUSH2 0x100 EXP SWAP1 DIV PUSH1 0xFF AND SWAP1 DUP1 PUSH1 0x8 ADD PUSH1 0x1 SWAP1 SLOAD SWAP1 PUSH2 0x100 EXP SWAP1 DIV PUSH1 0xFF AND SWAP1 POP DUP13 JUMP JUMPDEST PUSH0 CALLER PUSH1 0x1 ISZERO ISZERO PUSH1 0x8 PUSH0 DUP4 PUSH20 0xFFFFFFFFFFFFFFFFFFFFFFFFFFFFFFFFFFFFFFFF AND PUSH20 0xFFFFFFFFFFFFFFFFFFFFFFFFFFFFFFFFFFFFFFFF AND DUP2 MSTORE PUSH1 0x20 ADD SWAP1 DUP2 MSTORE PUSH1 0x20 ADD PUSH0 KECCAK256 PUSH0 SWAP1 SLOAD SWAP1 PUSH2 0x100 EXP SWAP1 DIV PUSH1 0xFF AND ISZERO ISZERO EQ PUSH2 0x1744 JUMPI PUSH1 0x40 MLOAD PUSH32 0x8C379A000000000000000000000000000000000000000000000000000000000 DUP2 MSTORE PUSH1 0x4 ADD PUSH2 0x173B SWAP1 PUSH2 0x39D7 JUMP JUMPDEST PUSH1 0x40 MLOAD DUP1 SWAP2 SUB SWAP1 REVERT JUMPDEST DUP6 PUSH6 0xFFFFFFFFFFFF AND TIMESTAMP LT PUSH2 0x178E JUMPI PUSH1 0x40 MLOAD PUSH32 0x8C379A000000000000000000000000000000000000000000000000000000000 DUP2 MSTORE PUSH1 0x4 ADD PUSH2 0x1785 SWAP1 PUSH2 0x43E1 JUMP JUMPDEST PUSH1 0x40 MLOAD DUP1 SWAP2 SUB SWAP1 REVERT JUMPDEST PUSH0 DUP6 PUSH6 0xFFFFFFFFFFFF AND GT PUSH2 0x17D8 JUMPI PUSH1 0x40 MLOAD PUSH32 0x8C379A000000000000000000000000000000000000000000000000000000000 DUP2 MSTORE PUSH1 0x4 ADD PUSH2 0x17CF SWAP1 PUSH2 0x4449 JUMP JUMPDEST PUSH1 0x40 MLOAD DUP1 SWAP2 SUB SWAP1 REVERT JUMPDEST PUSH1 0x5 PUSH0 DUP2 SLOAD DUP1 SWAP3 SWAP2 SWAP1 PUSH2 0x17EA SWAP1 PUSH2 0x42C2 JUMP JUMPDEST SWAP2 SWAP1 POP SSTORE SWAP2 POP PUSH0 PUSH1 0x4 PUSH0 DUP5 DUP2 MSTORE PUSH1 0x20 ADD SWAP1 DUP2 MSTORE PUSH1 0x20 ADD PUSH0 KECCAK256 SWAP1 POP DUP3 DUP2 PUSH0 ADD DUP2 SWAP1 SSTORE POP DUP8 DUP2 PUSH1 0x1 ADD SWAP1 DUP2 PUSH2 0x181D SWAP2 SWAP1 PUSH2 0x44CC JUMP JUMPDEST POP PUSH1 0x1 DUP2 PUSH1 0x2 ADD PUSH0 PUSH2 0x100 EXP DUP2 SLOAD DUP2 PUSH1 0xFF MUL NOT AND SWAP1 DUP4 PUSH1 0x5 DUP2 GT ISZERO PUSH2 0x1845 JUMPI PUSH2 0x1844 PUSH2 0x34A9 JUMP JUMPDEST JUMPDEST MUL OR SWAP1 SSTORE POP TIMESTAMP DUP2 PUSH1 0x2 ADD PUSH1 0x1 PUSH2 0x100 EXP DUP2 SLOAD DUP2 PUSH6 0xFFFFFFFFFFFF MUL NOT AND SWAP1 DUP4 PUSH6 0xFFFFFFFFFFFF AND MUL OR SWAP1 SSTORE POP DUP7 DUP2 PUSH1 0x2 ADD PUSH1 0x7 PUSH2 0x100 EXP DUP2 SLOAD DUP2 PUSH6 0xFFFFFFFFFFFF MUL NOT AND SWAP1 DUP4 PUSH6 0xFFFFFFFFFFFF AND MUL OR SWAP1 SSTORE POP DUP6 DUP2 PUSH1 0x2 ADD PUSH1 0xD PUSH2 0x100 EXP DUP2 SLOAD DUP2 PUSH6 0xFFFFFFFFFFFF MUL NOT AND SWAP1 DUP4 PUSH6 0xFFFFFFFFFFFF AND MUL OR SWAP1 SSTORE POP DUP1 PUSH1 0x2 ADD PUSH1 0xD SWAP1 SLOAD SWAP1 PUSH2 0x100 EXP SWAP1 DIV PUSH6 0xFFFFFFFFFFFF AND DUP2 PUSH1 0x2 ADD PUSH1 0x7 SWAP1 SLOAD SWAP1 PUSH2 0x100 EXP SWAP1 DIV PUSH6 0xFFFFFFFFFFFF AND PUSH2 0x18F7 SWAP2 SWAP1 PUSH2 0x459B JUMP JUMPDEST DUP2 PUSH1 0x2 ADD PUSH1 0x13 PUSH2 0x100 EXP DUP2 SLOAD DUP2 PUSH6 0xFFFFFFFFFFFF MUL NOT AND SWAP1 DUP4 PUSH6 0xFFFFFFFFFFFF AND MUL OR SWAP1 SSTORE POP DUP5 DUP2 PUSH1 0x6 ADD SWAP1 DUP2 PUSH2 0x192E SWAP2 SWAP1 PUSH2 0x44CC JUMP JUMPDEST POP DUP4 DUP2 PUSH1 0x7 ADD SWAP1 DUP2 PUSH2 0x1940 SWAP2 SWAP1 PUSH2 0x407C JUMP JUMPDEST POP POP POP SWAP6 SWAP5 POP POP POP POP POP JUMP JUMPDEST PUSH2 0x1954 PUSH2 0x2453 JUMP JUMPDEST PUSH2 0x195D DUP2 PUSH2 0x24E3 JUMP JUMPDEST POP JUMP JUMPDEST CALLER PUSH1 0x1 ISZERO ISZERO PUSH1 0x8 PUSH0 DUP4 PUSH20 0xFFFFFFFFFFFFFFFFFFFFFFFFFFFFFFFFFFFFFFFF AND PUSH20 0xFFFFFFFFFFFFFFFFFFFFFFFFFFFFFFFFFFFFFFFF AND DUP2 MSTORE PUSH1 0x20 ADD SWAP1 DUP2 MSTORE PUSH1 0x20 ADD PUSH0 KECCAK256 PUSH0 SWAP1 SLOAD SWAP1 PUSH2 0x100 EXP SWAP1 DIV PUSH1 0xFF AND ISZERO ISZERO EQ PUSH2 0x19F1 JUMPI PUSH1 0x40 MLOAD PUSH32 0x8C379A000000000000000000000000000000000000000000000000000000000 DUP2 MSTORE PUSH1 0x4 ADD PUSH2 0x19E8 SWAP1 PUSH2 0x39D7 JUMP JUMPDEST PUSH1 0x40 MLOAD DUP1 SWAP2 SUB SWAP1 REVERT JUMPDEST PUSH0 PUSH1 0x4 PUSH0 DUP11 DUP2 MSTORE PUSH1 0x20 ADD SWAP1 DUP2 MSTORE PUSH1 0x20 ADD PUSH0 KECCAK256 SWAP1 POP PUSH1 0x4 PUSH1 0x5 DUP2 GT ISZERO PUSH2 0x1A19 JUMPI PUSH2 0x1A18 PUSH2 0x34A9 JUMP JUMPDEST JUMPDEST DUP2 PUSH1 0x2 ADD PUSH0 SWAP1 SLOAD SWAP1 PUSH2 0x100 EXP SWAP1 DIV PUSH1 0xFF AND PUSH1 0x5 DUP2 GT ISZERO PUSH2 0x1A3C JUMPI PUSH2 0x1A3B PUSH2 0x34A9 JUMP JUMPDEST JUMPDEST EQ PUSH2 0x1A7C JUMPI PUSH1 0x40 MLOAD PUSH32 0x8C379A000000000000000000000000000000000000000000000000000000000 DUP2 MSTORE PUSH1 0x4 ADD PUSH2 0x1A73 SWAP1 PUSH2 0x461E JUMP JUMPDEST PUSH1 0x40 MLOAD DUP1 SWAP2 SUB SWAP1 REVERT JUMPDEST PUSH0 PUSH0 SWAP1 POP JUMPDEST DUP9 DUP9 SWAP1 POP DUP2 LT ISZERO PUSH2 0x1C09 JUMPI PUSH0 DUP3 PUSH1 0x4 ADD DUP11 DUP11 DUP5 DUP2 DUP2 LT PUSH2 0x1AA4 JUMPI PUSH2 0x1AA3 PUSH2 0x39F5 JUMP JUMPDEST JUMPDEST SWAP1 POP PUSH1 0x20 MUL ADD CALLDATALOAD DUP2 SLOAD DUP2 LT PUSH2 0x1ABC JUMPI PUSH2 0x1ABB PUSH2 0x39F5 JUMP JUMPDEST JUMPDEST SWAP1 PUSH0 MSTORE PUSH1 0x20 PUSH0 KECCAK256 SWAP1 PUSH1 0x4 MUL ADD SWAP1 POP PUSH0 DUP2 PUSH1 0x3 ADD PUSH0 SWAP1 SLOAD SWAP1 PUSH2 0x100 EXP SWAP1 DIV PUSH1 0xFF AND PUSH1 0xFF AND EQ PUSH2 0x1B1F JUMPI PUSH1 0x40 MLOAD PUSH32 0x8C379A000000000000000000000000000000000000000000000000000000000 DUP2 MSTORE PUSH1 0x4 ADD PUSH2 0x1B16 SWAP1 PUSH2 0x4686 JUMP JUMPDEST PUSH1 0x40 MLOAD DUP1 SWAP2 SUB SWAP1 REVERT JUMPDEST DUP8 DUP8 DUP4 DUP2 DUP2 LT PUSH2 0x1B32 JUMPI PUSH2 0x1B31 PUSH2 0x39F5 JUMP JUMPDEST JUMPDEST SWAP1 POP PUSH1 0x20 MUL ADD PUSH1 0x20 DUP2 ADD SWAP1 PUSH2 0x1B47 SWAP2 SWAP1 PUSH2 0x46CE JUMP JUMPDEST DUP2 PUSH1 0x3 ADD PUSH0 PUSH2 0x100 EXP DUP2 SLOAD DUP2 PUSH1 0xFF MUL NOT AND SWAP1 DUP4 PUSH1 0xFF AND MUL OR SWAP1 SSTORE POP DUP6 DUP6 DUP4 DUP2 DUP2 LT PUSH2 0x1B75 JUMPI PUSH2 0x1B74 PUSH2 0x39F5 JUMP JUMPDEST JUMPDEST SWAP1 POP PUSH1 0x20 MUL ADD CALLDATALOAD DUP2 PUSH1 0x2 ADD DUP2 SWAP1 SSTORE POP DUP6 DUP6 DUP4 DUP2 DUP2 LT PUSH2 0x1B97 JUMPI PUSH2 0x1B96 PUSH2 0x39F5 JUMP JUMPDEST JUMPDEST SWAP1 POP PUSH1 0x20 MUL ADD CALLDATALOAD DUP4 PUSH1 0x3 ADD DUP10 DUP10 DUP6 DUP2 DUP2 LT PUSH2 0x1BB5 JUMPI PUSH2 0x1BB4 PUSH2 0x39F5 JUMP JUMPDEST JUMPDEST SWAP1 POP PUSH1 0x20 MUL ADD PUSH1 0x20 DUP2 ADD SWAP1 PUSH2 0x1BCA SWAP2 SWAP1 PUSH2 0x46CE JUMP JUMPDEST PUSH1 0xFF AND DUP2 SLOAD DUP2 LT PUSH2 0x1BDE JUMPI PUSH2 0x1BDD PUSH2 0x39F5 JUMP JUMPDEST JUMPDEST SWAP1 PUSH0 MSTORE PUSH1 0x20 PUSH0 KECCAK256 ADD PUSH0 DUP3 DUP3 SLOAD PUSH2 0x1BF4 SWAP2 SWAP1 PUSH2 0x46F9 JUMP JUMPDEST SWAP3 POP POP DUP2 SWAP1 SSTORE POP POP DUP1 DUP1 PUSH1 0x1 ADD SWAP2 POP POP PUSH2 0x1A81 JUMP JUMPDEST POP PUSH0 PUSH0 SWAP1 POP JUMPDEST DUP2 PUSH1 0x3 ADD DUP1 SLOAD SWAP1 POP DUP2 LT ISZERO PUSH2 0x1C70 JUMPI DUP2 PUSH1 0x3 ADD DUP2 DUP2 SLOAD DUP2 LT PUSH2 0x1C34 JUMPI PUSH2 0x1C33 PUSH2 0x39F5 JUMP JUMPDEST JUMPDEST SWAP1 PUSH0 MSTORE PUSH1 0x20 PUSH0 KECCAK256 ADD SLOAD PUSH1 0x3 PUSH0 DUP13 DUP2 MSTORE PUSH1 0x20 ADD SWAP1 DUP2 MSTORE PUSH1 0x20 ADD PUSH0 KECCAK256 PUSH0 DUP3 DUP3 SLOAD PUSH2 0x1C5C SWAP2 SWAP1 PUSH2 0x46F9 JUMP JUMPDEST SWAP3 POP POP DUP2 SWAP1 SSTORE POP DUP1 DUP1 PUSH1 0x1 ADD SWAP2 POP POP PUSH2 0x1C0F JUMP JUMPDEST POP POP POP POP POP POP POP POP POP POP JUMP JUMPDEST PUSH0 PUSH2 0x1C86 DUP5 PUSH2 0x260E JUMP JUMPDEST SWAP1 POP PUSH0 PUSH1 0x4 PUSH0 DUP4 DUP2 MSTORE PUSH1 0x20 ADD SWAP1 DUP2 MSTORE PUSH1 0x20 ADD PUSH0 KECCAK256 SWAP1 POP PUSH1 0x3 PUSH1 0x5 DUP2 GT ISZERO PUSH2 0x1CB0 JUMPI PUSH2 0x1CAF PUSH2 0x34A9 JUMP JUMPDEST JUMPDEST DUP2 PUSH1 0x2 ADD PUSH0 SWAP1 SLOAD SWAP1 PUSH2 0x100 EXP SWAP1 DIV PUSH1 0xFF AND PUSH1 0x5 DUP2 GT ISZERO PUSH2 0x1CD3 JUMPI PUSH2 0x1CD2 PUSH2 0x34A9 JUMP JUMPDEST JUMPDEST EQ PUSH2 0x1D13 JUMPI PUSH1 0x40 MLOAD PUSH32 0x8C379A000000000000000000000000000000000000000000000000000000000 DUP2 MSTORE PUSH1 0x4 ADD PUSH2 0x1D0A SWAP1 PUSH2 0x4776 JUMP JUMPDEST PUSH1 0x40 MLOAD DUP1 SWAP2 SUB SWAP1 REVERT JUMPDEST PUSH0 DUP4 MLOAD GT ISZERO PUSH2 0x1D4F JUMPI PUSH1 0x2 DUP2 PUSH1 0x2 ADD PUSH0 PUSH2 0x100 EXP DUP2 SLOAD DUP2 PUSH1 0xFF MUL NOT AND SWAP1 DUP4 PUSH1 0x5 DUP2 GT ISZERO PUSH2 0x1D43 JUMPI PUSH2 0x1D42 PUSH2 0x34A9 JUMP JUMPDEST JUMPDEST MUL OR SWAP1 SSTORE POP POP POP PUSH2 0x1D74 JUMP JUMPDEST PUSH0 DUP5 DUP1 PUSH1 0x20 ADD SWAP1 MLOAD DUP2 ADD SWAP1 PUSH2 0x1D64 SWAP2 SWAP1 PUSH2 0x47A8 JUMP JUMPDEST SWAP1 POP PUSH2 0x1D70 DUP4 DUP3 PUSH2 0x2696 JUMP JUMPDEST POP POP POP JUMPDEST POP POP POP JUMP JUMPDEST PUSH1 0x2 DUP1 SLOAD SUB PUSH2 0x1DBD JUMPI PUSH1 0x40 MLOAD PUSH32 0x8C379A000000000000000000000000000000000000000000000000000000000 DUP2 MSTORE PUSH1 0x4 ADD PUSH2 0x1DB4 SWAP1 PUSH2 0x481D JUMP JUMPDEST PUSH1 0x40 MLOAD DUP1 SWAP2 SUB SWAP1 REVERT JUMPDEST PUSH1 0x2 DUP1 DUP2 SWAP1 SSTORE POP JUMP JUMPDEST PUSH1 0x1 PUSH1 0x2 DUP2 SWAP1 SSTORE POP JUMP JUMPDEST PUSH1 0x60 PUSH0 PUSH1 0x1 PUSH2 0x1DDE DUP5 PUSH2 0x2714 JUMP JUMPDEST ADD SWAP1 POP PUSH0 DUP2 PUSH8 0xFFFFFFFFFFFFFFFF DUP2 GT ISZERO PUSH2 0x1DFC JUMPI PUSH2 0x1DFB PUSH2 0x2F68 JUMP JUMPDEST JUMPDEST PUSH1 0x40 MLOAD SWAP1 DUP1 DUP3 MSTORE DUP1 PUSH1 0x1F ADD PUSH1 0x1F NOT AND PUSH1 0x20 ADD DUP3 ADD PUSH1 0x40 MSTORE DUP1 ISZERO PUSH2 0x1E2E JUMPI DUP2 PUSH1 0x20 ADD PUSH1 0x1 DUP3 MUL DUP1 CALLDATASIZE DUP4 CALLDATACOPY DUP1 DUP3 ADD SWAP2 POP POP SWAP1 POP JUMPDEST POP SWAP1 POP PUSH0 DUP3 PUSH1 0x20 DUP4 ADD ADD SWAP1 POP JUMPDEST PUSH1 0x1 ISZERO PUSH2 0x1E8F JUMPI DUP1 DUP1 PUSH1 0x1 SWAP1 SUB SWAP2 POP POP PUSH32 0x3031323334353637383961626364656600000000000000000000000000000000 PUSH1 0xA DUP7 MOD BYTE DUP2 MSTORE8 PUSH1 0xA DUP6 DUP2 PUSH2 0x1E84 JUMPI PUSH2 0x1E83 PUSH2 0x3BC2 JUMP JUMPDEST JUMPDEST DIV SWAP5 POP PUSH0 DUP6 SUB PUSH2 0x1E3B JUMPI JUMPDEST DUP2 SWAP4 POP POP POP POP SWAP2 SWAP1 POP JUMP JUMPDEST PUSH2 0x1EA6 DUP3 PUSH0 PUSH0 DUP5 PUSH2 0x2865 JUMP JUMPDEST POP POP JUMP JUMPDEST PUSH0 DUP2 MLOAD SUB PUSH2 0x1EE4 JUMPI PUSH1 0x40 MLOAD PUSH32 0xFE936CB700000000000000000000000000000000000000000000000000000000 DUP2 MSTORE PUSH1 0x4 ADD PUSH1 0x40 MLOAD DUP1 SWAP2 SUB SWAP1 REVERT JUMPDEST DUP1 DUP3 PUSH1 0xA0 ADD DUP2 SWAP1 MSTORE POP POP POP JUMP JUMPDEST PUSH0 DUP2 MLOAD SUB PUSH2 0x1F2B JUMPI PUSH1 0x40 MLOAD PUSH32 0xE889636F00000000000000000000000000000000000000000000000000000000 DUP2 MSTORE PUSH1 0x4 ADD PUSH1 0x40 MLOAD DUP1 SWAP2 SUB SWAP1 REVERT JUMPDEST PUSH1 0x1 DUP3 PUSH1 0x20 ADD SWAP1 PUSH1 0x2 DUP2 GT ISZERO PUSH2 0x1F44 JUMPI PUSH2 0x1F43 PUSH2 0x34A9 JUMP JUMPDEST JUMPDEST SWAP1 DUP2 PUSH1 0x2 DUP2 GT ISZERO PUSH2 0x1F58 JUMPI PUSH2 0x1F57 PUSH2 0x34A9 JUMP JUMPDEST JUMPDEST DUP2 MSTORE POP POP DUP1 DUP3 PUSH1 0x80 ADD DUP2 SWAP1 MSTORE POP POP POP JUMP JUMPDEST PUSH1 0x60 PUSH0 PUSH2 0x1F77 PUSH2 0x100 PUSH2 0x290B JUMP JUMPDEST SWAP1 POP PUSH2 0x1FC1 PUSH1 0x40 MLOAD DUP1 PUSH1 0x40 ADD PUSH1 0x40 MSTORE DUP1 PUSH1 0xC DUP2 MSTORE PUSH1 0x20 ADD PUSH32 0x636F64654C6F636174696F6E0000000000000000000000000000000000000000 DUP2 MSTORE POP DUP3 PUSH2 0x2930 SWAP1 SWAP2 SWAP1 PUSH4 0xFFFFFFFF AND JUMP JUMPDEST PUSH2 0x1FE9 DUP4 PUSH0 ADD MLOAD PUSH1 0x2 DUP2 GT ISZERO PUSH2 0x1FDA JUMPI PUSH2 0x1FD9 PUSH2 0x34A9 JUMP JUMPDEST JUMPDEST DUP3 PUSH2 0x2958 SWAP1 SWAP2 SWAP1 PUSH4 0xFFFFFFFF AND JUMP JUMPDEST PUSH2 0x2031 PUSH1 0x40 MLOAD DUP1 PUSH1 0x40 ADD PUSH1 0x40 MSTORE DUP1 PUSH1 0x8 DUP2 MSTORE PUSH1 0x20 ADD PUSH32 0x6C616E6775616765000000000000000000000000000000000000000000000000 DUP2 MSTORE POP DUP3 PUSH2 0x2930 SWAP1 SWAP2 SWAP1 PUSH4 0xFFFFFFFF AND JUMP JUMPDEST PUSH2 0x2059 DUP4 PUSH1 0x40 ADD MLOAD PUSH0 DUP2 GT ISZERO PUSH2 0x204A JUMPI PUSH2 0x2049 PUSH2 0x34A9 JUMP JUMPDEST JUMPDEST DUP3 PUSH2 0x2958 SWAP1 SWAP2 SWAP1 PUSH4 0xFFFFFFFF AND JUMP JUMPDEST PUSH2 0x20A1 PUSH1 0x40 MLOAD DUP1 PUSH1 0x40 ADD PUSH1 0x40 MSTORE DUP1 PUSH1 0x6 DUP2 MSTORE PUSH1 0x20 ADD PUSH32 0x736F757263650000000000000000000000000000000000000000000000000000 DUP2 MSTORE POP DUP3 PUSH2 0x2930 SWAP1 SWAP2 SWAP1 PUSH4 0xFFFFFFFF AND JUMP JUMPDEST PUSH2 0x20B8 DUP4 PUSH1 0x60 ADD MLOAD DUP3 PUSH2 0x2930 SWAP1 SWAP2 SWAP1 PUSH4 0xFFFFFFFF AND JUMP JUMPDEST PUSH0 DUP4 PUSH1 0xA0 ADD MLOAD MLOAD GT ISZERO PUSH2 0x216F JUMPI PUSH2 0x210D PUSH1 0x40 MLOAD DUP1 PUSH1 0x40 ADD PUSH1 0x40 MSTORE DUP1 PUSH1 0x4 DUP2 MSTORE PUSH1 0x20 ADD PUSH32 0x6172677300000000000000000000000000000000000000000000000000000000 DUP2 MSTORE POP DUP3 PUSH2 0x2930 SWAP1 SWAP2 SWAP1 PUSH4 0xFFFFFFFF AND JUMP JUMPDEST PUSH2 0x2116 DUP2 PUSH2 0x29A7 JUMP JUMPDEST PUSH0 PUSH0 SWAP1 POP JUMPDEST DUP4 PUSH1 0xA0 ADD MLOAD MLOAD DUP2 LT ISZERO PUSH2 0x2164 JUMPI PUSH2 0x2159 DUP5 PUSH1 0xA0 ADD MLOAD DUP3 DUP2 MLOAD DUP2 LT PUSH2 0x2142 JUMPI PUSH2 0x2141 PUSH2 0x39F5 JUMP JUMPDEST JUMPDEST PUSH1 0x20 MUL PUSH1 0x20 ADD ADD MLOAD DUP4 PUSH2 0x2930 SWAP1 SWAP2 SWAP1 PUSH4 0xFFFFFFFF AND JUMP JUMPDEST DUP1 PUSH1 0x1 ADD SWAP1 POP PUSH2 0x211B JUMP JUMPDEST POP PUSH2 0x216E DUP2 PUSH2 0x29CF JUMP JUMPDEST JUMPDEST PUSH0 DUP4 PUSH1 0x80 ADD MLOAD MLOAD GT ISZERO PUSH2 0x22AE JUMPI PUSH0 PUSH1 0x2 DUP2 GT ISZERO PUSH2 0x218F JUMPI PUSH2 0x218E PUSH2 0x34A9 JUMP JUMPDEST JUMPDEST DUP4 PUSH1 0x20 ADD MLOAD PUSH1 0x2 DUP2 GT ISZERO PUSH2 0x21A6 JUMPI PUSH2 0x21A5 PUSH2 0x34A9 JUMP JUMPDEST JUMPDEST SUB PUSH2 0x21DD JUMPI PUSH1 0x40 MLOAD PUSH32 0xA80D31F700000000000000000000000000000000000000000000000000000000 DUP2 MSTORE PUSH1 0x4 ADD PUSH1 0x40 MLOAD DUP1 SWAP2 SUB SWAP1 REVERT JUMPDEST PUSH2 0x2225 PUSH1 0x40 MLOAD DUP1 PUSH1 0x40 ADD PUSH1 0x40 MSTORE DUP1 PUSH1 0xF DUP2 MSTORE PUSH1 0x20 ADD PUSH32 0x736563726574734C6F636174696F6E0000000000000000000000000000000000 DUP2 MSTORE POP DUP3 PUSH2 0x2930 SWAP1 SWAP2 SWAP1 PUSH4 0xFFFFFFFF AND JUMP JUMPDEST PUSH2 0x224E DUP4 PUSH1 0x20 ADD MLOAD PUSH1 0x2 DUP2 GT ISZERO PUSH2 0x223F JUMPI PUSH2 0x223E PUSH2 0x34A9 JUMP JUMPDEST JUMPDEST DUP3 PUSH2 0x2958 SWAP1 SWAP2 SWAP1 PUSH4 0xFFFFFFFF AND JUMP JUMPDEST PUSH2 0x2296 PUSH1 0x40 MLOAD DUP1 PUSH1 0x40 ADD PUSH1 0x40 MSTORE DUP1 PUSH1 0x7 DUP2 MSTORE PUSH1 0x20 ADD PUSH32 0x7365637265747300000000000000000000000000000000000000000000000000 DUP2 MSTORE POP DUP3 PUSH2 0x2930 SWAP1 SWAP2 SWAP1 PUSH4 0xFFFFFFFF AND JUMP JUMPDEST PUSH2 0x22AD DUP4 PUSH1 0x80 ADD MLOAD DUP3 PUSH2 0x29F7 SWAP1 SWAP2 SWAP1 PUSH4 0xFFFFFFFF AND JUMP JUMPDEST JUMPDEST PUSH0 DUP4 PUSH1 0xC0 ADD MLOAD MLOAD GT ISZERO PUSH2 0x2365 JUMPI PUSH2 0x2303 PUSH1 0x40 MLOAD DUP1 PUSH1 0x40 ADD PUSH1 0x40 MSTORE DUP1 PUSH1 0x9 DUP2 MSTORE PUSH1 0x20 ADD PUSH32 0x6279746573417267730000000000000000000000000000000000000000000000 DUP2 MSTORE POP DUP3 PUSH2 0x2930 SWAP1 SWAP2 SWAP1 PUSH4 0xFFFFFFFF AND JUMP JUMPDEST PUSH2 0x230C DUP2 PUSH2 0x29A7 JUMP JUMPDEST PUSH0 PUSH0 SWAP1 POP JUMPDEST DUP4 PUSH1 0xC0 ADD MLOAD MLOAD DUP2 LT ISZERO PUSH2 0x235A JUMPI PUSH2 0x234F DUP5 PUSH1 0xC0 ADD MLOAD DUP3 DUP2 MLOAD DUP2 LT PUSH2 0x2338 JUMPI PUSH2 0x2337 PUSH2 0x39F5 JUMP JUMPDEST JUMPDEST PUSH1 0x20 MUL PUSH1 0x20 ADD ADD MLOAD DUP4 PUSH2 0x29F7 SWAP1 SWAP2 SWAP1 PUSH4 0xFFFFFFFF AND JUMP JUMPDEST DUP1 PUSH1 0x1 ADD SWAP1 POP PUSH2 0x2311 JUMP JUMPDEST POP PUSH2 0x2364 DUP2 PUSH2 0x29CF JUMP JUMPDEST JUMPDEST DUP1 PUSH0 ADD MLOAD PUSH0 ADD MLOAD SWAP2 POP POP SWAP2 SWAP1 POP JUMP JUMPDEST PUSH0 PUSH0 PUSH32 0x0 PUSH20 0xFFFFFFFFFFFFFFFFFFFFFFFFFFFFFFFFFFFFFFFF AND PUSH4 0x461D2762 DUP7 DUP9 PUSH1 0x1 DUP9 DUP9 PUSH1 0x40 MLOAD DUP7 PUSH4 0xFFFFFFFF AND PUSH1 0xE0 SHL DUP2 MSTORE PUSH1 0x4 ADD PUSH2 0x23D8 SWAP6 SWAP5 SWAP4 SWAP3 SWAP2 SWAP1 PUSH2 0x4897 JUMP JUMPDEST PUSH1 0x20 PUSH1 0x40 MLOAD DUP1 DUP4 SUB DUP2 PUSH0 DUP8 GAS CALL ISZERO DUP1 ISZERO PUSH2 0x23F4 JUMPI RETURNDATASIZE PUSH0 PUSH0 RETURNDATACOPY RETURNDATASIZE PUSH0 REVERT JUMPDEST POP POP POP POP PUSH1 0x40 MLOAD RETURNDATASIZE PUSH1 0x1F NOT PUSH1 0x1F DUP3 ADD AND DUP3 ADD DUP1 PUSH1 0x40 MSTORE POP DUP2 ADD SWAP1 PUSH2 0x2418 SWAP2 SWAP1 PUSH2 0x415F JUMP JUMPDEST SWAP1 POP DUP1 PUSH32 0x1131472297A800FEE664D1D89CFA8F7676FF07189ECC53F80BBB5F4969099DB8 PUSH1 0x40 MLOAD PUSH1 0x40 MLOAD DUP1 SWAP2 SUB SWAP1 LOG2 DUP1 SWAP2 POP POP SWAP5 SWAP4 POP POP POP POP JUMP JUMPDEST PUSH0 PUSH0 SWAP1 SLOAD SWAP1 PUSH2 0x100 EXP SWAP1 DIV PUSH20 0xFFFFFFFFFFFFFFFFFFFFFFFFFFFFFFFFFFFFFFFF AND PUSH20 0xFFFFFFFFFFFFFFFFFFFFFFFFFFFFFFFFFFFFFFFF AND CALLER PUSH20 0xFFFFFFFFFFFFFFFFFFFFFFFFFFFFFFFFFFFFFFFF AND EQ PUSH2 0x24E1 JUMPI PUSH1 0x40 MLOAD PUSH32 0x8C379A000000000000000000000000000000000000000000000000000000000 DUP2 MSTORE PUSH1 0x4 ADD PUSH2 0x24D8 SWAP1 PUSH2 0x4939 JUMP JUMPDEST PUSH1 0x40 MLOAD DUP1 SWAP2 SUB SWAP1 REVERT JUMPDEST JUMP JUMPDEST CALLER PUSH20 0xFFFFFFFFFFFFFFFFFFFFFFFFFFFFFFFFFFFFFFFF AND DUP2 PUSH20 0xFFFFFFFFFFFFFFFFFFFFFFFFFFFFFFFFFFFFFFFF AND SUB PUSH2 0x2551 JUMPI PUSH1 0x40 MLOAD PUSH32 0x8C379A000000000000000000000000000000000000000000000000000000000 DUP2 MSTORE PUSH1 0x4 ADD PUSH2 0x2548 SWAP1 PUSH2 0x49A1 JUMP JUMPDEST PUSH1 0x40 MLOAD DUP1 SWAP2 SUB SWAP1 REVERT JUMPDEST DUP1 PUSH1 0x1 PUSH0 PUSH2 0x100 EXP DUP2 SLOAD DUP2 PUSH20 0xFFFFFFFFFFFFFFFFFFFFFFFFFFFFFFFFFFFFFFFF MUL NOT AND SWAP1 DUP4 PUSH20 0xFFFFFFFFFFFFFFFFFFFFFFFFFFFFFFFFFFFFFFFF AND MUL OR SWAP1 SSTORE POP DUP1 PUSH20 0xFFFFFFFFFFFFFFFFFFFFFFFFFFFFFFFFFFFFFFFF AND PUSH0 PUSH0 SWAP1 SLOAD SWAP1 PUSH2 0x100 EXP SWAP1 DIV PUSH20 0xFFFFFFFFFFFFFFFFFFFFFFFFFFFFFFFFFFFFFFFF AND PUSH20 0xFFFFFFFFFFFFFFFFFFFFFFFFFFFFFFFFFFFFFFFF AND PUSH32 0xED8889F560326EB138920D842192F0EB3DD22B4F139C87A2C57538E05BAE1278 PUSH1 0x40 MLOAD PUSH1 0x40 MLOAD DUP1 SWAP2 SUB SWAP1 LOG3 POP JUMP JUMPDEST PUSH0 PUSH0 PUSH1 0x1 SWAP1 POP JUMPDEST PUSH1 0x5 SLOAD DUP2 GT PUSH2 0x2655 JUMPI DUP3 PUSH1 0x4 PUSH0 DUP4 DUP2 MSTORE PUSH1 0x20 ADD SWAP1 DUP2 MSTORE PUSH1 0x20 ADD PUSH0 KECCAK256 PUSH1 0x5 ADD SLOAD SUB PUSH2 0x2642 JUMPI DUP1 SWAP2 POP POP PUSH2 0x2691 JUMP JUMPDEST DUP1 DUP1 PUSH2 0x264D SWAP1 PUSH2 0x42C2 JUMP JUMPDEST SWAP2 POP POP PUSH2 0x2615 JUMP JUMPDEST POP PUSH1 0x40 MLOAD PUSH32 0x8C379A000000000000000000000000000000000000000000000000000000000 DUP2 MSTORE PUSH1 0x4 ADD PUSH2 0x2688 SWAP1 PUSH2 0x4A09 JUMP JUMPDEST PUSH1 0x40 MLOAD DUP1 SWAP2 SUB SWAP1 REVERT JUMPDEST SWAP2 SWAP1 POP JUMP JUMPDEST PUSH0 PUSH1 0x4 PUSH0 DUP5 DUP2 MSTORE PUSH1 0x20 ADD SWAP1 DUP2 MSTORE PUSH1 0x20 ADD PUSH0 KECCAK256 SWAP1 POP DUP2 DUP2 PUSH1 0x8 ADD PUSH0 PUSH2 0x100 EXP DUP2 SLOAD DUP2 PUSH1 0xFF MUL NOT AND SWAP1 DUP4 PUSH1 0xFF AND MUL OR SWAP1 SSTORE POP PUSH1 0x1 DUP2 PUSH1 0x8 ADD PUSH1 0x1 PUSH2 0x100 EXP DUP2 SLOAD DUP2 PUSH1 0xFF MUL NOT AND SWAP1 DUP4 ISZERO ISZERO MUL OR SWAP1 SSTORE POP PUSH1 0x4 DUP2 PUSH1 0x2 ADD PUSH0 PUSH2 0x100 EXP DUP2 SLOAD DUP2 PUSH1 0xFF MUL NOT AND SWAP1 DUP4 PUSH1 0x5 DUP2 GT ISZERO PUSH2 0x270A JUMPI PUSH2 0x2709 PUSH2 0x34A9 JUMP JUMPDEST JUMPDEST MUL OR SWAP1 SSTORE POP POP POP POP JUMP JUMPDEST PUSH0 PUSH0 PUSH0 SWAP1 POP PUSH27 0x184F03E93FF9F4DAA797ED6E38ED64BF6A1F010000000000000000 DUP4 LT PUSH2 0x2770 JUMPI PUSH27 0x184F03E93FF9F4DAA797ED6E38ED64BF6A1F010000000000000000 DUP4 DUP2 PUSH2 0x2766 JUMPI PUSH2 0x2765 PUSH2 0x3BC2 JUMP JUMPDEST JUMPDEST DIV SWAP3 POP PUSH1 0x40 DUP2 ADD SWAP1 POP JUMPDEST PUSH14 0x4EE2D6D415B85ACEF8100000000 DUP4 LT PUSH2 0x27AD JUMPI PUSH14 0x4EE2D6D415B85ACEF8100000000 DUP4 DUP2 PUSH2 0x27A3 JUMPI PUSH2 0x27A2 PUSH2 0x3BC2 JUMP JUMPDEST JUMPDEST DIV SWAP3 POP PUSH1 0x20 DUP2 ADD SWAP1 POP JUMPDEST PUSH7 0x2386F26FC10000 DUP4 LT PUSH2 0x27DC JUMPI PUSH7 0x2386F26FC10000 DUP4 DUP2 PUSH2 0x27D2 JUMPI PUSH2 0x27D1 PUSH2 0x3BC2 JUMP JUMPDEST JUMPDEST DIV SWAP3 POP PUSH1 0x10 DUP2 ADD SWAP1 POP JUMPDEST PUSH4 0x5F5E100 DUP4 LT PUSH2 0x2805 JUMPI PUSH4 0x5F5E100 DUP4 DUP2 PUSH2 0x27FB JUMPI PUSH2 0x27FA PUSH2 0x3BC2 JUMP JUMPDEST JUMPDEST DIV SWAP3 POP PUSH1 0x8 DUP2 ADD SWAP1 POP JUMPDEST PUSH2 0x2710 DUP4 LT PUSH2 0x282A JUMPI PUSH2 0x2710 DUP4 DUP2 PUSH2 0x2820 JUMPI PUSH2 0x281F PUSH2 0x3BC2 JUMP JUMPDEST JUMPDEST DIV SWAP3 POP PUSH1 0x4 DUP2 ADD SWAP1 POP JUMPDEST PUSH1 0x64 DUP4 LT PUSH2 0x284D JUMPI PUSH1 0x64 DUP4 DUP2 PUSH2 0x2843 JUMPI PUSH2 0x2842 PUSH2 0x3BC2 JUMP JUMPDEST JUMPDEST DIV SWAP3 POP PUSH1 0x2 DUP2 ADD SWAP1 POP JUMPDEST PUSH1 0xA DUP4 LT PUSH2 0x285C JUMPI PUSH1 0x1 DUP2 ADD SWAP1 POP JUMPDEST DUP1 SWAP2 POP POP SWAP2 SWAP1 POP JUMP JUMPDEST PUSH0 DUP2 MLOAD SUB PUSH2 0x289F JUMPI PUSH1 0x40 MLOAD PUSH32 0x22CE3EDD00000000000000000000000000000000000000000000000000000000 DUP2 MSTORE PUSH1 0x4 ADD PUSH1 0x40 MLOAD DUP1 SWAP2 SUB SWAP1 REVERT JUMPDEST DUP3 DUP5 PUSH0 ADD SWAP1 PUSH1 0x2 DUP2 GT ISZERO PUSH2 0x28B6 JUMPI PUSH2 0x28B5 PUSH2 0x34A9 JUMP JUMPDEST JUMPDEST SWAP1 DUP2 PUSH1 0x2 DUP2 GT ISZERO PUSH2 0x28CA JUMPI PUSH2 0x28C9 PUSH2 0x34A9 JUMP JUMPDEST JUMPDEST DUP2 MSTORE POP POP DUP2 DUP5 PUSH1 0x40 ADD SWAP1 PUSH0 DUP2 GT ISZERO PUSH2 0x28E5 JUMPI PUSH2 0x28E4 PUSH2 0x34A9 JUMP JUMPDEST JUMPDEST SWAP1 DUP2 PUSH0 DUP2 GT ISZERO PUSH2 0x28F8 JUMPI PUSH2 0x28F7 PUSH2 0x34A9 JUMP JUMPDEST JUMPDEST DUP2 MSTORE POP POP DUP1 DUP5 PUSH1 0x60 ADD DUP2 SWAP1 MSTORE POP POP POP POP POP JUMP JUMPDEST PUSH2 0x2913 PUSH2 0x2ED4 JUMP JUMPDEST PUSH2 0x2920 DUP2 PUSH0 ADD MLOAD DUP4 PUSH2 0x2A1F JUMP JUMPDEST POP PUSH0 DUP2 PUSH1 0x20 ADD DUP2 DUP2 MSTORE POP POP SWAP2 SWAP1 POP JUMP JUMPDEST PUSH2 0x293D DUP3 PUSH1 0x3 DUP4 MLOAD PUSH2 0x2A95 JUMP JUMPDEST PUSH2 0x2953 DUP2 DUP4 PUSH0 ADD MLOAD PUSH2 0x2C35 SWAP1 SWAP2 SWAP1 PUSH4 0xFFFFFFFF AND JUMP JUMPDEST POP POP POP JUMP JUMPDEST PUSH2 0x2979 PUSH1 0x2 PUSH1 0x5 PUSH1 0x6 PUSH1 0xFF AND SWAP1 SHL OR DUP4 PUSH0 ADD MLOAD PUSH2 0x2C51 SWAP1 SWAP2 SWAP1 PUSH4 0xFFFFFFFF AND JUMP JUMPDEST POP PUSH2 0x29A3 DUP3 DUP3 PUSH1 0x40 MLOAD PUSH1 0x20 ADD PUSH2 0x298F SWAP2 SWAP1 PUSH2 0x343E JUMP JUMPDEST PUSH1 0x40 MLOAD PUSH1 0x20 DUP2 DUP4 SUB SUB DUP2 MSTORE SWAP1 PUSH1 0x40 MSTORE PUSH2 0x29F7 JUMP JUMPDEST POP POP JUMP JUMPDEST PUSH2 0x29B2 DUP2 PUSH1 0x4 PUSH2 0x2CB8 JUMP JUMPDEST PUSH1 0x1 DUP2 PUSH1 0x20 ADD DUP2 DUP2 MLOAD PUSH2 0x29C5 SWAP2 SWAP1 PUSH2 0x46F9 JUMP JUMPDEST SWAP2 POP DUP2 DUP2 MSTORE POP POP POP JUMP JUMPDEST PUSH2 0x29DA DUP2 PUSH1 0x7 PUSH2 0x2CB8 JUMP JUMPDEST PUSH1 0x1 DUP2 PUSH1 0x20 ADD DUP2 DUP2 MLOAD PUSH2 0x29ED SWAP2 SWAP1 PUSH2 0x4A27 JUMP JUMPDEST SWAP2 POP DUP2 DUP2 MSTORE POP POP POP JUMP JUMPDEST PUSH2 0x2A04 DUP3 PUSH1 0x2 DUP4 MLOAD PUSH2 0x2A95 JUMP JUMPDEST PUSH2 0x2A1A DUP2 DUP4 PUSH0 ADD MLOAD PUSH2 0x2C35 SWAP1 SWAP2 SWAP1 PUSH4 0xFFFFFFFF AND JUMP JUMPDEST POP POP POP JUMP JUMPDEST PUSH2 0x2A27 PUSH2 0x2EF3 JUMP JUMPDEST PUSH0 PUSH1 0x20 DUP4 PUSH2 0x2A35 SWAP2 SWAP1 PUSH2 0x4A5A JUMP JUMPDEST EQ PUSH2 0x2A61 JUMPI PUSH1 0x20 DUP3 PUSH2 0x2A47 SWAP2 SWAP1 PUSH2 0x4A5A JUMP JUMPDEST PUSH1 0x20 PUSH2 0x2A53 SWAP2 SWAP1 PUSH2 0x4A27 JUMP JUMPDEST DUP3 PUSH2 0x2A5E SWAP2 SWAP1 PUSH2 0x46F9 JUMP JUMPDEST SWAP2 POP JUMPDEST DUP2 DUP4 PUSH1 0x20 ADD DUP2 DUP2 MSTORE POP POP PUSH1 0x40 MLOAD DUP1 DUP5 MSTORE PUSH0 DUP2 MSTORE DUP3 DUP2 ADD PUSH1 0x20 ADD DUP2 DUP2 LT ISZERO PUSH2 0x2A86 JUMPI PUSH0 PUSH0 REVERT JUMPDEST DUP1 PUSH1 0x40 MSTORE POP POP DUP3 SWAP1 POP SWAP3 SWAP2 POP POP JUMP JUMPDEST PUSH1 0x17 DUP2 PUSH8 0xFFFFFFFFFFFFFFFF AND GT PUSH2 0x2ACF JUMPI PUSH2 0x2AC9 DUP2 PUSH1 0x5 DUP5 PUSH1 0xFF AND SWAP1 SHL PUSH1 0xFF AND OR DUP5 PUSH0 ADD MLOAD PUSH2 0x2C51 SWAP1 SWAP2 SWAP1 PUSH4 0xFFFFFFFF AND JUMP JUMPDEST POP PUSH2 0x2C30 JUMP JUMPDEST PUSH1 0xFF DUP2 PUSH8 0xFFFFFFFFFFFFFFFF AND GT PUSH2 0x2B2B JUMPI PUSH2 0x2B01 PUSH1 0x18 PUSH1 0x5 DUP5 PUSH1 0xFF AND SWAP1 SHL OR DUP5 PUSH0 ADD MLOAD PUSH2 0x2C51 SWAP1 SWAP2 SWAP1 PUSH4 0xFFFFFFFF AND JUMP JUMPDEST POP PUSH2 0x2B25 DUP2 PUSH8 0xFFFFFFFFFFFFFFFF AND PUSH1 0x1 DUP6 PUSH0 ADD MLOAD PUSH2 0x2CDD SWAP1 SWAP3 SWAP2 SWAP1 PUSH4 0xFFFFFFFF AND JUMP JUMPDEST POP PUSH2 0x2C2F JUMP JUMPDEST PUSH2 0xFFFF DUP2 PUSH8 0xFFFFFFFFFFFFFFFF AND GT PUSH2 0x2B88 JUMPI PUSH2 0x2B5E PUSH1 0x19 PUSH1 0x5 DUP5 PUSH1 0xFF AND SWAP1 SHL OR DUP5 PUSH0 ADD MLOAD PUSH2 0x2C51 SWAP1 SWAP2 SWAP1 PUSH4 0xFFFFFFFF AND JUMP JUMPDEST POP PUSH2 0x2B82 DUP2 PUSH8 0xFFFFFFFFFFFFFFFF AND PUSH1 0x2 DUP6 PUSH0 ADD MLOAD PUSH2 0x2CDD SWAP1 SWAP3 SWAP2 SWAP1 PUSH4 0xFFFFFFFF AND JUMP JUMPDEST POP PUSH2 0x2C2E JUMP JUMPDEST PUSH4 0xFFFFFFFF DUP2 PUSH8 0xFFFFFFFFFFFFFFFF AND GT PUSH2 0x2BE7 JUMPI PUSH2 0x2BBD PUSH1 0x1A PUSH1 0x5 DUP5 PUSH1 0xFF AND SWAP1 SHL OR DUP5 PUSH0 ADD MLOAD PUSH2 0x2C51 SWAP1 SWAP2 SWAP1 PUSH4 0xFFFFFFFF AND JUMP JUMPDEST POP PUSH2 0x2BE1 DUP2 PUSH8 0xFFFFFFFFFFFFFFFF AND PUSH1 0x4 DUP6 PUSH0 ADD MLOAD PUSH2 0x2CDD SWAP1 SWAP3 SWAP2 SWAP1 PUSH4 0xFFFFFFFF AND JUMP JUMPDEST POP PUSH2 0x2C2D JUMP JUMPDEST PUSH2 0x2C07 PUSH1 0x1B PUSH1 0x5 DUP5 PUSH1 0xFF AND SWAP1 SHL OR DUP5 PUSH0 ADD MLOAD PUSH2 0x2C51 SWAP1 SWAP2 SWAP1 PUSH4 0xFFFFFFFF AND JUMP JUMPDEST POP PUSH2 0x2C2B DUP2 PUSH8 0xFFFFFFFFFFFFFFFF AND PUSH1 0x8 DUP6 PUSH0 ADD MLOAD PUSH2 0x2CDD SWAP1 SWAP3 SWAP2 SWAP1 PUSH4 0xFFFFFFFF AND JUMP JUMPDEST POP JUMPDEST JUMPDEST JUMPDEST JUMPDEST POP POP POP JUMP JUMPDEST PUSH2 0x2C3D PUSH2 0x2EF3 JUMP JUMPDEST PUSH2 0x2C49 DUP4 DUP4 DUP5 MLOAD PUSH2 0x2D66 JUMP JUMPDEST SWAP1 POP SWAP3 SWAP2 POP POP JUMP JUMPDEST PUSH2 0x2C59 PUSH2 0x2EF3 JUMP JUMPDEST PUSH0 DUP4 PUSH0 ADD MLOAD MLOAD SWAP1 POP PUSH0 PUSH1 0x1 DUP3 PUSH2 0x2C6F SWAP2 SWAP1 PUSH2 0x46F9 JUMP JUMPDEST SWAP1 POP DUP5 PUSH1 0x20 ADD MLOAD DUP3 LT PUSH2 0x2C93 JUMPI PUSH2 0x2C92 DUP6 PUSH1 0x2 DUP4 PUSH2 0x2C8D SWAP2 SWAP1 PUSH2 0x3C4C JUMP JUMPDEST PUSH2 0x2E43 JUMP JUMPDEST JUMPDEST DUP5 MLOAD PUSH1 0x20 DUP4 DUP3 ADD ADD DUP6 DUP2 MSTORE8 DUP2 MLOAD DUP4 GT ISZERO PUSH2 0x2CAB JUMPI DUP3 DUP3 MSTORE JUMPDEST POP POP DUP5 SWAP3 POP POP POP SWAP3 SWAP2 POP POP JUMP JUMPDEST PUSH2 0x2CD8 PUSH1 0x1F PUSH1 0x5 DUP4 PUSH1 0xFF AND SWAP1 SHL OR DUP4 PUSH0 ADD MLOAD PUSH2 0x2C51 SWAP1 SWAP2 SWAP1 PUSH4 0xFFFFFFFF AND JUMP JUMPDEST POP POP POP JUMP JUMPDEST PUSH2 0x2CE5 PUSH2 0x2EF3 JUMP JUMPDEST PUSH0 DUP5 PUSH0 ADD MLOAD MLOAD SWAP1 POP PUSH0 DUP2 DUP5 PUSH2 0x2CFA SWAP2 SWAP1 PUSH2 0x46F9 JUMP JUMPDEST SWAP1 POP DUP6 PUSH1 0x20 ADD MLOAD DUP2 GT ISZERO PUSH2 0x2D1F JUMPI PUSH2 0x2D1E DUP7 PUSH1 0x2 DUP4 PUSH2 0x2D19 SWAP2 SWAP1 PUSH2 0x3C4C JUMP JUMPDEST PUSH2 0x2E43 JUMP JUMPDEST JUMPDEST PUSH0 PUSH1 0x1 DUP6 PUSH2 0x100 PUSH2 0x2D30 SWAP2 SWAP1 PUSH2 0x4BB9 JUMP JUMPDEST PUSH2 0x2D3A SWAP2 SWAP1 PUSH2 0x4A27 JUMP JUMPDEST SWAP1 POP DUP7 MLOAD DUP3 DUP2 ADD DUP8 DUP4 NOT DUP3 MLOAD AND OR DUP2 MSTORE DUP2 MLOAD DUP5 GT ISZERO PUSH2 0x2D57 JUMPI DUP4 DUP3 MSTORE JUMPDEST POP POP DUP7 SWAP4 POP POP POP POP SWAP4 SWAP3 POP POP POP JUMP JUMPDEST PUSH2 0x2D6E PUSH2 0x2EF3 JUMP JUMPDEST DUP3 MLOAD DUP3 GT ISZERO PUSH2 0x2D7B JUMPI PUSH0 PUSH0 REVERT JUMPDEST PUSH0 DUP5 PUSH0 ADD MLOAD MLOAD SWAP1 POP PUSH0 DUP4 DUP3 PUSH2 0x2D90 SWAP2 SWAP1 PUSH2 0x46F9 JUMP JUMPDEST SWAP1 POP DUP6 PUSH1 0x20 ADD MLOAD DUP2 GT ISZERO PUSH2 0x2DB5 JUMPI PUSH2 0x2DB4 DUP7 PUSH1 0x2 DUP4 PUSH2 0x2DAF SWAP2 SWAP1 PUSH2 0x3C4C JUMP JUMPDEST PUSH2 0x2E43 JUMP JUMPDEST JUMPDEST PUSH0 PUSH0 DUP8 MLOAD DUP1 MLOAD DUP6 PUSH1 0x20 DUP4 ADD ADD SWAP4 POP DUP1 DUP6 GT ISZERO PUSH2 0x2DCF JUMPI DUP5 DUP3 MSTORE JUMPDEST PUSH1 0x20 DUP10 ADD SWAP3 POP POP POP JUMPDEST PUSH1 0x20 DUP7 LT PUSH2 0x2E16 JUMPI DUP1 MLOAD DUP3 MSTORE PUSH1 0x20 DUP3 PUSH2 0x2DF1 SWAP2 SWAP1 PUSH2 0x46F9 JUMP JUMPDEST SWAP2 POP PUSH1 0x20 DUP2 PUSH2 0x2E00 SWAP2 SWAP1 PUSH2 0x46F9 JUMP JUMPDEST SWAP1 POP PUSH1 0x20 DUP7 PUSH2 0x2E0F SWAP2 SWAP1 PUSH2 0x4A27 JUMP JUMPDEST SWAP6 POP PUSH2 0x2DD8 JUMP JUMPDEST PUSH0 PUSH1 0x1 DUP8 PUSH1 0x20 SUB PUSH2 0x100 EXP SUB SWAP1 POP DUP1 NOT DUP3 MLOAD AND DUP2 DUP5 MLOAD AND DUP2 DUP2 OR DUP6 MSTORE POP POP POP DUP8 SWAP5 POP POP POP POP POP SWAP4 SWAP3 POP POP POP JUMP JUMPDEST PUSH0 DUP3 PUSH0 ADD MLOAD SWAP1 POP PUSH2 0x2E54 DUP4 DUP4 PUSH2 0x2A1F JUMP JUMPDEST POP PUSH2 0x2E5F DUP4 DUP3 PUSH2 0x2C35 JUMP JUMPDEST POP POP POP POP JUMP JUMPDEST PUSH1 0x40 MLOAD DUP1 PUSH1 0xE0 ADD PUSH1 0x40 MSTORE DUP1 PUSH0 PUSH1 0x2 DUP2 GT ISZERO PUSH2 0x2E83 JUMPI PUSH2 0x2E82 PUSH2 0x34A9 JUMP JUMPDEST JUMPDEST DUP2 MSTORE PUSH1 0x20 ADD PUSH0 PUSH1 0x2 DUP2 GT ISZERO PUSH2 0x2E9B JUMPI PUSH2 0x2E9A PUSH2 0x34A9 JUMP JUMPDEST JUMPDEST DUP2 MSTORE PUSH1 0x20 ADD PUSH0 PUSH0 DUP2 GT ISZERO PUSH2 0x2EB2 JUMPI PUSH2 0x2EB1 PUSH2 0x34A9 JUMP JUMPDEST JUMPDEST DUP2 MSTORE PUSH1 0x20 ADD PUSH1 0x60 DUP2 MSTORE PUSH1 0x20 ADD PUSH1 0x60 DUP2 MSTORE PUSH1 0x20 ADD PUSH1 0x60 DUP2 MSTORE PUSH1 0x20 ADD PUSH1 0x60 DUP2 MSTORE POP SWAP1 JUMP JUMPDEST PUSH1 0x40 MLOAD DUP1 PUSH1 0x40 ADD PUSH1 0x40 MSTORE DUP1 PUSH2 0x2EE7 PUSH2 0x2EF3 JUMP JUMPDEST DUP2 MSTORE PUSH1 0x20 ADD PUSH0 DUP2 MSTORE POP SWAP1 JUMP JUMPDEST PUSH1 0x40 MLOAD DUP1 PUSH1 0x40 ADD PUSH1 0x40 MSTORE DUP1 PUSH1 0x60 DUP2 MSTORE PUSH1 0x20 ADD PUSH0 DUP2 MSTORE POP SWAP1 JUMP JUMPDEST PUSH0 PUSH1 0x40 MLOAD SWAP1 POP SWAP1 JUMP JUMPDEST PUSH0 PUSH0 REVERT JUMPDEST PUSH0 PUSH0 REVERT JUMPDEST PUSH0 DUP2 SWAP1 POP SWAP2 SWAP1 POP JUMP JUMPDEST PUSH2 0x2F2F DUP2 PUSH2 0x2F1D JUMP JUMPDEST DUP2 EQ PUSH2 0x2F39 JUMPI PUSH0 PUSH0 REVERT JUMPDEST POP JUMP JUMPDEST PUSH0 DUP2 CALLDATALOAD SWAP1 POP PUSH2 0x2F4A DUP2 PUSH2 0x2F26 JUMP JUMPDEST SWAP3 SWAP2 POP POP JUMP JUMPDEST PUSH0 PUSH0 REVERT JUMPDEST PUSH0 PUSH0 REVERT JUMPDEST PUSH0 PUSH1 0x1F NOT PUSH1 0x1F DUP4 ADD AND SWAP1 POP SWAP2 SWAP1 POP JUMP JUMPDEST PUSH32 0x4E487B7100000000000000000000000000000000000000000000000000000000 PUSH0 MSTORE PUSH1 0x41 PUSH1 0x4 MSTORE PUSH1 0x24 PUSH0 REVERT JUMPDEST PUSH2 0x2F9E DUP3 PUSH2 0x2F58 JUMP JUMPDEST DUP2 ADD DUP2 DUP2 LT PUSH8 0xFFFFFFFFFFFFFFFF DUP3 GT OR ISZERO PUSH2 0x2FBD JUMPI PUSH2 0x2FBC PUSH2 0x2F68 JUMP JUMPDEST JUMPDEST DUP1 PUSH1 0x40 MSTORE POP POP POP JUMP JUMPDEST PUSH0 PUSH2 0x2FCF PUSH2 0x2F0C JUMP JUMPDEST SWAP1 POP PUSH2 0x2FDB DUP3 DUP3 PUSH2 0x2F95 JUMP JUMPDEST SWAP2 SWAP1 POP JUMP JUMPDEST PUSH0 PUSH8 0xFFFFFFFFFFFFFFFF DUP3 GT ISZERO PUSH2 0x2FFA JUMPI PUSH2 0x2FF9 PUSH2 0x2F68 JUMP JUMPDEST JUMPDEST PUSH2 0x3003 DUP3 PUSH2 0x2F58 JUMP JUMPDEST SWAP1 POP PUSH1 0x20 DUP2 ADD SWAP1 POP SWAP2 SWAP1 POP JUMP JUMPDEST DUP3 DUP2 DUP4 CALLDATACOPY PUSH0 DUP4 DUP4 ADD MSTORE POP POP POP JUMP JUMPDEST PUSH0 PUSH2 0x3030 PUSH2 0x302B DUP5 PUSH2 0x2FE0 JUMP JUMPDEST PUSH2 0x2FC6 JUMP JUMPDEST SWAP1 POP DUP3 DUP2 MSTORE PUSH1 0x20 DUP2 ADD DUP5 DUP5 DUP5 ADD GT ISZERO PUSH2 0x304C JUMPI PUSH2 0x304B PUSH2 0x2F54 JUMP JUMPDEST JUMPDEST PUSH2 0x3057 DUP5 DUP3 DUP6 PUSH2 0x3010 JUMP JUMPDEST POP SWAP4 SWAP3 POP POP POP JUMP JUMPDEST PUSH0 DUP3 PUSH1 0x1F DUP4 ADD SLT PUSH2 0x3073 JUMPI PUSH2 0x3072 PUSH2 0x2F50 JUMP JUMPDEST JUMPDEST DUP2 CALLDATALOAD PUSH2 0x3083 DUP5 DUP3 PUSH1 0x20 DUP7 ADD PUSH2 0x301E JUMP JUMPDEST SWAP2 POP POP SWAP3 SWAP2 POP POP JUMP JUMPDEST PUSH0 PUSH0 PUSH0 PUSH1 0x60 DUP5 DUP7 SUB SLT ISZERO PUSH2 0x30A3 JUMPI PUSH2 0x30A2 PUSH2 0x2F15 JUMP JUMPDEST JUMPDEST PUSH0 PUSH2 0x30B0 DUP7 DUP3 DUP8 ADD PUSH2 0x2F3C JUMP JUMPDEST SWAP4 POP POP PUSH1 0x20 DUP5 ADD CALLDATALOAD PUSH8 0xFFFFFFFFFFFFFFFF DUP2 GT ISZERO PUSH2 0x30D1 JUMPI PUSH2 0x30D0 PUSH2 0x2F19 JUMP JUMPDEST JUMPDEST PUSH2 0x30DD DUP7 DUP3 DUP8 ADD PUSH2 0x305F JUMP JUMPDEST SWAP3 POP POP PUSH1 0x40 DUP5 ADD CALLDATALOAD PUSH8 0xFFFFFFFFFFFFFFFF DUP2 GT ISZERO PUSH2 0x30FE JUMPI PUSH2 0x30FD PUSH2 0x2F19 JUMP JUMPDEST JUMPDEST PUSH2 0x310A DUP7 DUP3 DUP8 ADD PUSH2 0x305F JUMP JUMPDEST SWAP2 POP POP SWAP3 POP SWAP3 POP SWAP3 JUMP JUMPDEST PUSH0 PUSH20 0xFFFFFFFFFFFFFFFFFFFFFFFFFFFFFFFFFFFFFFFF DUP3 AND SWAP1 POP SWAP2 SWAP1 POP JUMP JUMPDEST PUSH0 PUSH2 0x313D DUP3 PUSH2 0x3114 JUMP JUMPDEST SWAP1 POP SWAP2 SWAP1 POP JUMP JUMPDEST PUSH2 0x314D DUP2 PUSH2 0x3133 JUMP JUMPDEST DUP2 EQ PUSH2 0x3157 JUMPI PUSH0 PUSH0 REVERT JUMPDEST POP JUMP JUMPDEST PUSH0 DUP2 CALLDATALOAD SWAP1 POP PUSH2 0x3168 DUP2 PUSH2 0x3144 JUMP JUMPDEST SWAP3 SWAP2 POP POP JUMP JUMPDEST PUSH0 PUSH1 0x20 DUP3 DUP5 SUB SLT ISZERO PUSH2 0x3183 JUMPI PUSH2 0x3182 PUSH2 0x2F15 JUMP JUMPDEST JUMPDEST PUSH0 PUSH2 0x3190 DUP5 DUP3 DUP6 ADD PUSH2 0x315A JUMP JUMPDEST SWAP2 POP POP SWAP3 SWAP2 POP POP JUMP JUMPDEST PUSH0 DUP2 SWAP1 POP SWAP2 SWAP1 POP JUMP JUMPDEST PUSH2 0x31AB DUP2 PUSH2 0x3199 JUMP JUMPDEST DUP2 EQ PUSH2 0x31B5 JUMPI PUSH0 PUSH0 REVERT JUMPDEST POP JUMP JUMPDEST PUSH0 DUP2 CALLDATALOAD SWAP1 POP PUSH2 0x31C6 DUP2 PUSH2 0x31A2 JUMP JUMPDEST SWAP3 SWAP2 POP POP JUMP JUMPDEST PUSH0 PUSH0 PUSH1 0x40 DUP4 DUP6 SUB SLT ISZERO PUSH2 0x31E2 JUMPI PUSH2 0x31E1 PUSH2 0x2F15 JUMP JUMPDEST JUMPDEST PUSH0 PUSH2 0x31EF DUP6 DUP3 DUP7 ADD PUSH2 0x31B8 JUMP JUMPDEST SWAP3 POP POP PUSH1 0x20 PUSH2 0x3200 DUP6 DUP3 DUP7 ADD PUSH2 0x31B8 JUMP JUMPDEST SWAP2 POP POP SWAP3 POP SWAP3 SWAP1 POP JUMP JUMPDEST PUSH0 PUSH0 PUSH1 0x40 DUP4 DUP6 SUB SLT ISZERO PUSH2 0x3220 JUMPI PUSH2 0x321F PUSH2 0x2F15 JUMP JUMPDEST JUMPDEST PUSH0 PUSH2 0x322D DUP6 DUP3 DUP7 ADD PUSH2 0x31B8 JUMP JUMPDEST SWAP3 POP POP PUSH1 0x20 DUP4 ADD CALLDATALOAD PUSH8 0xFFFFFFFFFFFFFFFF DUP2 GT ISZERO PUSH2 0x324E JUMPI PUSH2 0x324D PUSH2 0x2F19 JUMP JUMPDEST JUMPDEST PUSH2 0x325A DUP6 DUP3 DUP7 ADD PUSH2 0x305F JUMP JUMPDEST SWAP2 POP POP SWAP3 POP SWAP3 SWAP1 POP JUMP JUMPDEST PUSH0 PUSH0 REVERT JUMPDEST PUSH0 PUSH0 REVERT JUMPDEST PUSH0 PUSH0 DUP4 PUSH1 0x1F DUP5 ADD SLT PUSH2 0x3281 JUMPI PUSH2 0x3280 PUSH2 0x2F50 JUMP JUMPDEST JUMPDEST DUP3 CALLDATALOAD SWAP1 POP PUSH8 0xFFFFFFFFFFFFFFFF DUP2 GT ISZERO PUSH2 0x329E JUMPI PUSH2 0x329D PUSH2 0x3264 JUMP JUMPDEST JUMPDEST PUSH1 0x20 DUP4 ADD SWAP2 POP DUP4 PUSH1 0x1 DUP3 MUL DUP4 ADD GT ISZERO PUSH2 0x32BA JUMPI PUSH2 0x32B9 PUSH2 0x3268 JUMP JUMPDEST JUMPDEST SWAP3 POP SWAP3 SWAP1 POP JUMP JUMPDEST PUSH0 PUSH0 PUSH1 0x20 DUP4 DUP6 SUB SLT ISZERO PUSH2 0x32D7 JUMPI PUSH2 0x32D6 PUSH2 0x2F15 JUMP JUMPDEST JUMPDEST PUSH0 DUP4 ADD CALLDATALOAD PUSH8 0xFFFFFFFFFFFFFFFF DUP2 GT ISZERO PUSH2 0x32F4 JUMPI PUSH2 0x32F3 PUSH2 0x2F19 JUMP JUMPDEST JUMPDEST PUSH2 0x3300 DUP6 DUP3 DUP7 ADD PUSH2 0x326C JUMP JUMPDEST SWAP3 POP SWAP3 POP POP SWAP3 POP SWAP3 SWAP1 POP JUMP JUMPDEST PUSH0 PUSH1 0x20 DUP3 DUP5 SUB SLT ISZERO PUSH2 0x3321 JUMPI PUSH2 0x3320 PUSH2 0x2F15 JUMP JUMPDEST JUMPDEST PUSH0 PUSH2 0x332E DUP5 DUP3 DUP6 ADD PUSH2 0x31B8 JUMP JUMPDEST SWAP2 POP POP SWAP3 SWAP2 POP POP JUMP JUMPDEST PUSH2 0x3340 DUP2 PUSH2 0x2F1D JUMP JUMPDEST DUP3 MSTORE POP POP JUMP JUMPDEST PUSH0 PUSH1 0x20 DUP3 ADD SWAP1 POP PUSH2 0x3359 PUSH0 DUP4 ADD DUP5 PUSH2 0x3337 JUMP JUMPDEST SWAP3 SWAP2 POP POP JUMP JUMPDEST PUSH0 DUP2 ISZERO ISZERO SWAP1 POP SWAP2 SWAP1 POP JUMP JUMPDEST PUSH2 0x3373 DUP2 PUSH2 0x335F JUMP JUMPDEST DUP3 MSTORE POP POP JUMP JUMPDEST PUSH0 DUP2 MLOAD SWAP1 POP SWAP2 SWAP1 POP JUMP JUMPDEST PUSH0 DUP3 DUP3 MSTORE PUSH1 0x20 DUP3 ADD SWAP1 POP SWAP3 SWAP2 POP POP JUMP JUMPDEST DUP3 DUP2 DUP4 MCOPY PUSH0 DUP4 DUP4 ADD MSTORE POP POP POP JUMP JUMPDEST PUSH0 PUSH2 0x33AB DUP3 PUSH2 0x3379 JUMP JUMPDEST PUSH2 0x33B5 DUP2 DUP6 PUSH2 0x3383 JUMP JUMPDEST SWAP4 POP PUSH2 0x33C5 DUP2 DUP6 PUSH1 0x20 DUP7 ADD PUSH2 0x3393 JUMP JUMPDEST PUSH2 0x33CE DUP2 PUSH2 0x2F58 JUMP JUMPDEST DUP5 ADD SWAP2 POP POP SWAP3 SWAP2 POP POP JUMP JUMPDEST PUSH0 PUSH1 0x40 DUP3 ADD SWAP1 POP PUSH2 0x33EC PUSH0 DUP4 ADD DUP6 PUSH2 0x336A JUMP JUMPDEST DUP2 DUP2 SUB PUSH1 0x20 DUP4 ADD MSTORE PUSH2 0x33FE DUP2 DUP5 PUSH2 0x33A1 JUMP JUMPDEST SWAP1 POP SWAP4 SWAP3 POP POP POP JUMP JUMPDEST PUSH2 0x3410 DUP2 PUSH2 0x3133 JUMP JUMPDEST DUP3 MSTORE POP POP JUMP JUMPDEST PUSH0 PUSH1 0x20 DUP3 ADD SWAP1 POP PUSH2 0x3429 PUSH0 DUP4 ADD DUP5 PUSH2 0x3407 JUMP JUMPDEST SWAP3 SWAP2 POP POP JUMP JUMPDEST PUSH2 0x3438 DUP2 PUSH2 0x3199 JUMP JUMPDEST DUP3 MSTORE POP POP JUMP JUMPDEST PUSH0 PUSH1 0x20 DUP3 ADD SWAP1 POP PUSH2 0x3451 PUSH0 DUP4 ADD DUP5 PUSH2 0x342F JUMP JUMPDEST SWAP3 SWAP2 POP POP JUMP JUMPDEST PUSH0 DUP2 MLOAD SWAP1 POP SWAP2 SWAP1 POP JUMP JUMPDEST PUSH0 DUP3 DUP3 MSTORE PUSH1 0x20 DUP3 ADD SWAP1 POP SWAP3 SWAP2 POP POP JUMP JUMPDEST PUSH0 PUSH2 0x347B DUP3 PUSH2 0x3457 JUMP JUMPDEST PUSH2 0x3485 DUP2 DUP6 PUSH2 0x3461 JUMP JUMPDEST SWAP4 POP PUSH2 0x3495 DUP2 DUP6 PUSH1 0x20 DUP7 ADD PUSH2 0x3393 JUMP JUMPDEST PUSH2 0x349E DUP2 PUSH2 0x2F58 JUMP JUMPDEST DUP5 ADD SWAP2 POP POP SWAP3 SWAP2 POP POP JUMP JUMPDEST PUSH32 0x4E487B7100000000000000000000000000000000000000000000000000000000 PUSH0 MSTORE PUSH1 0x21 PUSH1 0x4 MSTORE PUSH1 0x24 PUSH0 REVERT JUMPDEST PUSH1 0x6 DUP2 LT PUSH2 0x34E7 JUMPI PUSH2 0x34E6 PUSH2 0x34A9 JUMP JUMPDEST JUMPDEST POP JUMP JUMPDEST PUSH0 DUP2 SWAP1 POP PUSH2 0x34F7 DUP3 PUSH2 0x34D6 JUMP JUMPDEST SWAP2 SWAP1 POP JUMP JUMPDEST PUSH0 PUSH2 0x3506 DUP3 PUSH2 0x34EA JUMP JUMPDEST SWAP1 POP SWAP2 SWAP1 POP JUMP JUMPDEST PUSH2 0x3516 DUP2 PUSH2 0x34FC JUMP JUMPDEST DUP3 MSTORE POP POP JUMP JUMPDEST PUSH0 PUSH6 0xFFFFFFFFFFFF DUP3 AND SWAP1 POP SWAP2 SWAP1 POP JUMP JUMPDEST PUSH2 0x3536 DUP2 PUSH2 0x351C JUMP JUMPDEST DUP3 MSTORE POP POP JUMP JUMPDEST PUSH0 PUSH1 0xFF DUP3 AND SWAP1 POP SWAP2 SWAP1 POP JUMP JUMPDEST PUSH2 0x3551 DUP2 PUSH2 0x353C JUMP JUMPDEST DUP3 MSTORE POP POP JUMP JUMPDEST PUSH0 PUSH2 0x180 DUP3 ADD SWAP1 POP PUSH2 0x356B PUSH0 DUP4 ADD DUP16 PUSH2 0x342F JUMP JUMPDEST DUP2 DUP2 SUB PUSH1 0x20 DUP4 ADD MSTORE PUSH2 0x357D DUP2 DUP15 PUSH2 0x3471 JUMP JUMPDEST SWAP1 POP PUSH2 0x358C PUSH1 0x40 DUP4 ADD DUP14 PUSH2 0x350D JUMP JUMPDEST PUSH2 0x3599 PUSH1 0x60 DUP4 ADD DUP13 PUSH2 0x352D JUMP JUMPDEST PUSH2 0x35A6 PUSH1 0x80 DUP4 ADD DUP12 PUSH2 0x352D JUMP JUMPDEST PUSH2 0x35B3 PUSH1 0xA0 DUP4 ADD DUP11 PUSH2 0x352D JUMP JUMPDEST PUSH2 0x35C0 PUSH1 0xC0 DUP4 ADD DUP10 PUSH2 0x352D JUMP JUMPDEST PUSH2 0x35CD PUSH1 0xE0 DUP4 ADD DUP9 PUSH2 0x3337 JUMP JUMPDEST DUP2 DUP2 SUB PUSH2 0x100 DUP4 ADD MSTORE PUSH2 0x35E0 DUP2 DUP8 PUSH2 0x3471 JUMP JUMPDEST SWAP1 POP DUP2 DUP2 SUB PUSH2 0x120 DUP4 ADD MSTORE PUSH2 0x35F5 DUP2 DUP7 PUSH2 0x33A1 JUMP JUMPDEST SWAP1 POP PUSH2 0x3605 PUSH2 0x140 DUP4 ADD DUP6 PUSH2 0x3548 JUMP JUMPDEST PUSH2 0x3613 PUSH2 0x160 DUP4 ADD DUP5 PUSH2 0x336A JUMP JUMPDEST SWAP14 SWAP13 POP POP POP POP POP POP POP POP POP POP POP POP POP JUMP JUMPDEST PUSH0 PUSH8 0xFFFFFFFFFFFFFFFF DUP3 GT ISZERO PUSH2 0x363E JUMPI PUSH2 0x363D PUSH2 0x2F68 JUMP JUMPDEST JUMPDEST PUSH2 0x3647 DUP3 PUSH2 0x2F58 JUMP JUMPDEST SWAP1 POP PUSH1 0x20 DUP2 ADD SWAP1 POP SWAP2 SWAP1 POP JUMP JUMPDEST PUSH0 PUSH2 0x3666 PUSH2 0x3661 DUP5 PUSH2 0x3624 JUMP JUMPDEST PUSH2 0x2FC6 JUMP JUMPDEST SWAP1 POP DUP3 DUP2 MSTORE PUSH1 0x20 DUP2 ADD DUP5 DUP5 DUP5 ADD GT ISZERO PUSH2 0x3682 JUMPI PUSH2 0x3681 PUSH2 0x2F54 JUMP JUMPDEST JUMPDEST PUSH2 0x368D DUP5 DUP3 DUP6 PUSH2 0x3010 JUMP JUMPDEST POP SWAP4 SWAP3 POP POP POP JUMP JUMPDEST PUSH0 DUP3 PUSH1 0x1F DUP4 ADD SLT PUSH2 0x36A9 JUMPI PUSH2 0x36A8 PUSH2 0x2F50 JUMP JUMPDEST JUMPDEST DUP2 CALLDATALOAD PUSH2 0x36B9 DUP5 DUP3 PUSH1 0x20 DUP7 ADD PUSH2 0x3654 JUMP JUMPDEST SWAP2 POP POP SWAP3 SWAP2 POP POP JUMP JUMPDEST PUSH2 0x36CB DUP2 PUSH2 0x351C JUMP JUMPDEST DUP2 EQ PUSH2 0x36D5 JUMPI PUSH0 PUSH0 REVERT JUMPDEST POP JUMP JUMPDEST PUSH0 DUP2 CALLDATALOAD SWAP1 POP PUSH2 0x36E6 DUP2 PUSH2 0x36C2 JUMP JUMPDEST SWAP3 SWAP2 POP POP JUMP JUMPDEST PUSH0 PUSH0 PUSH0 PUSH0 PUSH0 PUSH1 0xA0 DUP7 DUP9 SUB SLT ISZERO PUSH2 0x3705 JUMPI PUSH2 0x3704 PUSH2 0x2F15 JUMP JUMPDEST JUMPDEST PUSH0 DUP7 ADD CALLDATALOAD PUSH8 0xFFFFFFFFFFFFFFFF DUP2 GT ISZERO PUSH2 0x3722 JUMPI PUSH2 0x3721 PUSH2 0x2F19 JUMP JUMPDEST JUMPDEST PUSH2 0x372E DUP9 DUP3 DUP10 ADD PUSH2 0x3695 JUMP JUMPDEST SWAP6 POP POP PUSH1 0x20 PUSH2 0x373F DUP9 DUP3 DUP10 ADD PUSH2 0x36D8 JUMP JUMPDEST SWAP5 POP POP PUSH1 0x40 PUSH2 0x3750 DUP9 DUP3 DUP10 ADD PUSH2 0x36D8 JUMP JUMPDEST SWAP4 POP POP PUSH1 0x60 DUP7 ADD CALLDATALOAD PUSH8 0xFFFFFFFFFFFFFFFF DUP2 GT ISZERO PUSH2 0x3771 JUMPI PUSH2 0x3770 PUSH2 0x2F19 JUMP JUMPDEST JUMPDEST PUSH2 0x377D DUP9 DUP3 DUP10 ADD PUSH2 0x3695 JUMP JUMPDEST SWAP3 POP POP PUSH1 0x80 DUP7 ADD CALLDATALOAD PUSH8 0xFFFFFFFFFFFFFFFF DUP2 GT ISZERO PUSH2 0x379E JUMPI PUSH2 0x379D PUSH2 0x2F19 JUMP JUMPDEST JUMPDEST PUSH2 0x37AA DUP9 DUP3 DUP10 ADD PUSH2 0x305F JUMP JUMPDEST SWAP2 POP POP SWAP3 SWAP6 POP SWAP3 SWAP6 SWAP1 SWAP4 POP JUMP JUMPDEST PUSH0 PUSH0 DUP4 PUSH1 0x1F DUP5 ADD SLT PUSH2 0x37CC JUMPI PUSH2 0x37CB PUSH2 0x2F50 JUMP JUMPDEST JUMPDEST DUP3 CALLDATALOAD SWAP1 POP PUSH8 0xFFFFFFFFFFFFFFFF DUP2 GT ISZERO PUSH2 0x37E9 JUMPI PUSH2 0x37E8 PUSH2 0x3264 JUMP JUMPDEST JUMPDEST PUSH1 0x20 DUP4 ADD SWAP2 POP DUP4 PUSH1 0x20 DUP3 MUL DUP4 ADD GT ISZERO PUSH2 0x3805 JUMPI PUSH2 0x3804 PUSH2 0x3268 JUMP JUMPDEST JUMPDEST SWAP3 POP SWAP3 SWAP1 POP JUMP JUMPDEST PUSH0 PUSH0 DUP4 PUSH1 0x1F DUP5 ADD SLT PUSH2 0x3821 JUMPI PUSH2 0x3820 PUSH2 0x2F50 JUMP JUMPDEST JUMPDEST DUP3 CALLDATALOAD SWAP1 POP PUSH8 0xFFFFFFFFFFFFFFFF DUP2 GT ISZERO PUSH2 0x383E JUMPI PUSH2 0x383D PUSH2 0x3264 JUMP JUMPDEST JUMPDEST PUSH1 0x20 DUP4 ADD SWAP2 POP DUP4 PUSH1 0x20 DUP3 MUL DUP4 ADD GT ISZERO PUSH2 0x385A JUMPI PUSH2 0x3859 PUSH2 0x3268 JUMP JUMPDEST JUMPDEST SWAP3 POP SWAP3 SWAP1 POP JUMP JUMPDEST PUSH0 PUSH0 PUSH0 PUSH0 PUSH0 PUSH0 PUSH0 PUSH1 0x80 DUP9 DUP11 SUB SLT ISZERO PUSH2 0x387C JUMPI PUSH2 0x387B PUSH2 0x2F15 JUMP JUMPDEST JUMPDEST PUSH0 PUSH2 0x3889 DUP11 DUP3 DUP12 ADD PUSH2 0x31B8 JUMP JUMPDEST SWAP8 POP POP PUSH1 0x20 DUP9 ADD CALLDATALOAD PUSH8 0xFFFFFFFFFFFFFFFF DUP2 GT ISZERO PUSH2 0x38AA JUMPI PUSH2 0x38A9 PUSH2 0x2F19 JUMP JUMPDEST JUMPDEST PUSH2 0x38B6 DUP11 DUP3 DUP12 ADD PUSH2 0x37B7 JUMP JUMPDEST SWAP7 POP SWAP7 POP POP PUSH1 0x40 DUP9 ADD CALLDATALOAD PUSH8 0xFFFFFFFFFFFFFFFF DUP2 GT ISZERO PUSH2 0x38D9 JUMPI PUSH2 0x38D8 PUSH2 0x2F19 JUMP JUMPDEST JUMPDEST PUSH2 0x38E5 DUP11 DUP3 DUP12 ADD PUSH2 0x380C JUMP JUMPDEST SWAP5 POP SWAP5 POP POP PUSH1 0x60 DUP9 ADD CALLDATALOAD PUSH8 0xFFFFFFFFFFFFFFFF DUP2 GT ISZERO PUSH2 0x3908 JUMPI PUSH2 0x3907 PUSH2 0x2F19 JUMP JUMPDEST JUMPDEST PUSH2 0x3914 DUP11 DUP3 DUP12 ADD PUSH2 0x37B7 JUMP JUMPDEST SWAP3 POP SWAP3 POP POP SWAP3 SWAP6 SWAP9 SWAP2 SWAP5 SWAP8 POP SWAP3 SWAP6 POP JUMP JUMPDEST PUSH32 0x596F75206E6F74206F776E657221212100000000000000000000000000000000 PUSH0 DUP3 ADD MSTORE POP JUMP JUMPDEST PUSH0 PUSH2 0x3959 PUSH1 0x10 DUP4 PUSH2 0x3461 JUMP JUMPDEST SWAP2 POP PUSH2 0x3964 DUP3 PUSH2 0x3925 JUMP JUMPDEST PUSH1 0x20 DUP3 ADD SWAP1 POP SWAP2 SWAP1 POP JUMP JUMPDEST PUSH0 PUSH1 0x20 DUP3 ADD SWAP1 POP DUP2 DUP2 SUB PUSH0 DUP4 ADD MSTORE PUSH2 0x3986 DUP2 PUSH2 0x394D JUMP JUMPDEST SWAP1 POP SWAP2 SWAP1 POP JUMP JUMPDEST PUSH32 0x596F75206E6F742061646D696E21212100000000000000000000000000000000 PUSH0 DUP3 ADD MSTORE POP JUMP JUMPDEST PUSH0 PUSH2 0x39C1 PUSH1 0x10 DUP4 PUSH2 0x3461 JUMP JUMPDEST SWAP2 POP PUSH2 0x39CC DUP3 PUSH2 0x398D JUMP JUMPDEST PUSH1 0x20 DUP3 ADD SWAP1 POP SWAP2 SWAP1 POP JUMP JUMPDEST PUSH0 PUSH1 0x20 DUP3 ADD SWAP1 POP DUP2 DUP2 SUB PUSH0 DUP4 ADD MSTORE PUSH2 0x39EE DUP2 PUSH2 0x39B5 JUMP JUMPDEST SWAP1 POP SWAP2 SWAP1 POP JUMP JUMPDEST PUSH32 0x4E487B7100000000000000000000000000000000000000000000000000000000 PUSH0 MSTORE PUSH1 0x32 PUSH1 0x4 MSTORE PUSH1 0x24 PUSH0 REVERT JUMPDEST PUSH32 0x4D757374206265207265736F6C76656421000000000000000000000000000000 PUSH0 DUP3 ADD MSTORE POP JUMP JUMPDEST PUSH0 PUSH2 0x3A56 PUSH1 0x11 DUP4 PUSH2 0x3461 JUMP JUMPDEST SWAP2 POP PUSH2 0x3A61 DUP3 PUSH2 0x3A22 JUMP JUMPDEST PUSH1 0x20 DUP3 ADD SWAP1 POP SWAP2 SWAP1 POP JUMP JUMPDEST PUSH0 PUSH1 0x20 DUP3 ADD SWAP1 POP DUP2 DUP2 SUB PUSH0 DUP4 ADD MSTORE PUSH2 0x3A83 DUP2 PUSH2 0x3A4A JUMP JUMPDEST SWAP1 POP SWAP2 SWAP1 POP JUMP JUMPDEST PUSH32 0x4E6F7420796F7572206265740000000000000000000000000000000000000000 PUSH0 DUP3 ADD MSTORE POP JUMP JUMPDEST PUSH0 PUSH2 0x3ABE PUSH1 0xC DUP4 PUSH2 0x3461 JUMP JUMPDEST SWAP2 POP PUSH2 0x3AC9 DUP3 PUSH2 0x3A8A JUMP JUMPDEST PUSH1 0x20 DUP3 ADD SWAP1 POP SWAP2 SWAP1 POP JUMP JUMPDEST PUSH0 PUSH1 0x20 DUP3 ADD SWAP1 POP DUP2 DUP2 SUB PUSH0 DUP4 ADD MSTORE PUSH2 0x3AEB DUP2 PUSH2 0x3AB2 JUMP JUMPDEST SWAP1 POP SWAP2 SWAP1 POP JUMP JUMPDEST PUSH32 0x416C726561647920636C61696D65642100000000000000000000000000000000 PUSH0 DUP3 ADD MSTORE POP JUMP JUMPDEST PUSH0 PUSH2 0x3B26 PUSH1 0x10 DUP4 PUSH2 0x3461 JUMP JUMPDEST SWAP2 POP PUSH2 0x3B31 DUP3 PUSH2 0x3AF2 JUMP JUMPDEST PUSH1 0x20 DUP3 ADD SWAP1 POP SWAP2 SWAP1 POP JUMP JUMPDEST PUSH0 PUSH1 0x20 DUP3 ADD SWAP1 POP DUP2 DUP2 SUB PUSH0 DUP4 ADD MSTORE PUSH2 0x3B53 DUP2 PUSH2 0x3B1A JUMP JUMPDEST SWAP1 POP SWAP2 SWAP1 POP JUMP JUMPDEST PUSH32 0x4E6F742077696E6E696E67206F7074696F6E2100000000000000000000000000 PUSH0 DUP3 ADD MSTORE POP JUMP JUMPDEST PUSH0 PUSH2 0x3B8E PUSH1 0x13 DUP4 PUSH2 0x3461 JUMP JUMPDEST SWAP2 POP PUSH2 0x3B99 DUP3 PUSH2 0x3B5A JUMP JUMPDEST PUSH1 0x20 DUP3 ADD SWAP1 POP SWAP2 SWAP1 POP JUMP JUMPDEST PUSH0 PUSH1 0x20 DUP3 ADD SWAP1 POP DUP2 DUP2 SUB PUSH0 DUP4 ADD MSTORE PUSH2 0x3BBB DUP2 PUSH2 0x3B82 JUMP JUMPDEST SWAP1 POP SWAP2 SWAP1 POP JUMP JUMPDEST PUSH32 0x4E487B7100000000000000000000000000000000000000000000000000000000 PUSH0 MSTORE PUSH1 0x12 PUSH1 0x4 MSTORE PUSH1 0x24 PUSH0 REVERT JUMPDEST PUSH32 0x4E487B7100000000000000000000000000000000000000000000000000000000 PUSH0 MSTORE PUSH1 0x11 PUSH1 0x4 MSTORE PUSH1 0x24 PUSH0 REVERT JUMPDEST PUSH0 PUSH2 0x3C26 DUP3 PUSH2 0x3199 JUMP JUMPDEST SWAP2 POP PUSH2 0x3C31 DUP4 PUSH2 0x3199 JUMP JUMPDEST SWAP3 POP DUP3 PUSH2 0x3C41 JUMPI PUSH2 0x3C40 PUSH2 0x3BC2 JUMP JUMPDEST JUMPDEST DUP3 DUP3 DIV SWAP1 POP SWAP3 SWAP2 POP POP JUMP JUMPDEST PUSH0 PUSH2 0x3C56 DUP3 PUSH2 0x3199 JUMP JUMPDEST SWAP2 POP PUSH2 0x3C61 DUP4 PUSH2 0x3199 JUMP JUMPDEST SWAP3 POP DUP3 DUP3 MUL PUSH2 0x3C6F DUP2 PUSH2 0x3199 JUMP JUMPDEST SWAP2 POP DUP3 DUP3 DIV DUP5 EQ DUP4 ISZERO OR PUSH2 0x3C86 JUMPI PUSH2 0x3C85 PUSH2 0x3BEF JUMP JUMPDEST JUMPDEST POP SWAP3 SWAP2 POP POP JUMP JUMPDEST PUSH0 DUP2 SWAP1 POP SWAP3 SWAP2 POP POP JUMP JUMPDEST POP JUMP JUMPDEST PUSH0 PUSH2 0x3CA5 PUSH0 DUP4 PUSH2 0x3C8D JUMP JUMPDEST SWAP2 POP PUSH2 0x3CB0 DUP3 PUSH2 0x3C97 JUMP JUMPDEST PUSH0 DUP3 ADD SWAP1 POP SWAP2 SWAP1 POP JUMP JUMPDEST PUSH0 PUSH2 0x3CC4 DUP3 PUSH2 0x3C9A JUMP JUMPDEST SWAP2 POP DUP2 SWAP1 POP SWAP2 SWAP1 POP JUMP JUMPDEST PUSH32 0x5472616E73666572206661696C65642100000000000000000000000000000000 PUSH0 DUP3 ADD MSTORE POP JUMP JUMPDEST PUSH0 PUSH2 0x3D02 PUSH1 0x10 DUP4 PUSH2 0x3461 JUMP JUMPDEST SWAP2 POP PUSH2 0x3D0D DUP3 PUSH2 0x3CCE JUMP JUMPDEST PUSH1 0x20 DUP3 ADD SWAP1 POP SWAP2 SWAP1 POP JUMP JUMPDEST PUSH0 PUSH1 0x20 DUP3 ADD SWAP1 POP DUP2 DUP2 SUB PUSH0 DUP4 ADD MSTORE PUSH2 0x3D2F DUP2 PUSH2 0x3CF6 JUMP JUMPDEST SWAP1 POP SWAP2 SWAP1 POP JUMP JUMPDEST PUSH32 0x4D61726B6574206E6F74206F70656E2121210000000000000000000000000000 PUSH0 DUP3 ADD MSTORE POP JUMP JUMPDEST PUSH0 PUSH2 0x3D6A PUSH1 0x12 DUP4 PUSH2 0x3461 JUMP JUMPDEST SWAP2 POP PUSH2 0x3D75 DUP3 PUSH2 0x3D36 JUMP JUMPDEST PUSH1 0x20 DUP3 ADD SWAP1 POP SWAP2 SWAP1 POP JUMP JUMPDEST PUSH0 PUSH1 0x20 DUP3 ADD SWAP1 POP DUP2 DUP2 SUB PUSH0 DUP4 ADD MSTORE PUSH2 0x3D97 DUP2 PUSH2 0x3D5E JUMP JUMPDEST SWAP1 POP SWAP2 SWAP1 POP JUMP JUMPDEST PUSH32 0x42657474696E6720636C6F736564212121000000000000000000000000000000 PUSH0 DUP3 ADD MSTORE POP JUMP JUMPDEST PUSH0 PUSH2 0x3DD2 PUSH1 0x11 DUP4 PUSH2 0x3461 JUMP JUMPDEST SWAP2 POP PUSH2 0x3DDD DUP3 PUSH2 0x3D9E JUMP JUMPDEST PUSH1 0x20 DUP3 ADD SWAP1 POP SWAP2 SWAP1 POP JUMP JUMPDEST PUSH0 PUSH1 0x20 DUP3 ADD SWAP1 POP DUP2 DUP2 SUB PUSH0 DUP4 ADD MSTORE PUSH2 0x3DFF DUP2 PUSH2 0x3DC6 JUMP JUMPDEST SWAP1 POP SWAP2 SWAP1 POP JUMP JUMPDEST PUSH32 0x4D75737420626967676572207468616E20300000000000000000000000000000 PUSH0 DUP3 ADD MSTORE POP JUMP JUMPDEST PUSH0 PUSH2 0x3E3A PUSH1 0x12 DUP4 PUSH2 0x3461 JUMP JUMPDEST SWAP2 POP PUSH2 0x3E45 DUP3 PUSH2 0x3E06 JUMP JUMPDEST PUSH1 0x20 DUP3 ADD SWAP1 POP SWAP2 SWAP1 POP JUMP JUMPDEST PUSH0 PUSH1 0x20 DUP3 ADD SWAP1 POP DUP2 DUP2 SUB PUSH0 DUP4 ADD MSTORE PUSH2 0x3E67 DUP2 PUSH2 0x3E2E JUMP JUMPDEST SWAP1 POP SWAP2 SWAP1 POP JUMP JUMPDEST PUSH32 0x4E487B7100000000000000000000000000000000000000000000000000000000 PUSH0 MSTORE PUSH1 0x22 PUSH1 0x4 MSTORE PUSH1 0x24 PUSH0 REVERT JUMPDEST PUSH0 PUSH1 0x2 DUP3 DIV SWAP1 POP PUSH1 0x1 DUP3 AND DUP1 PUSH2 0x3EB2 JUMPI PUSH1 0x7F DUP3 AND SWAP2 POP JUMPDEST PUSH1 0x20 DUP3 LT DUP2 SUB PUSH2 0x3EC5 JUMPI PUSH2 0x3EC4 PUSH2 0x3E6E JUMP JUMPDEST JUMPDEST POP SWAP2 SWAP1 POP JUMP JUMPDEST PUSH0 DUP2 SWAP1 POP DUP2 PUSH0 MSTORE PUSH1 0x20 PUSH0 KECCAK256 SWAP1 POP SWAP2 SWAP1 POP JUMP JUMPDEST PUSH0 PUSH1 0x20 PUSH1 0x1F DUP4 ADD DIV SWAP1 POP SWAP2 SWAP1 POP JUMP JUMPDEST PUSH0 DUP3 DUP3 SHL SWAP1 POP SWAP3 SWAP2 POP POP JUMP JUMPDEST PUSH0 PUSH1 0x8 DUP4 MUL PUSH2 0x3F27 PUSH32 0xFFFFFFFFFFFFFFFFFFFFFFFFFFFFFFFFFFFFFFFFFFFFFFFFFFFFFFFFFFFFFFFF DUP3 PUSH2 0x3EEC JUMP JUMPDEST PUSH2 0x3F31 DUP7 DUP4 PUSH2 0x3EEC JUMP JUMPDEST SWAP6 POP DUP1 NOT DUP5 AND SWAP4 POP DUP1 DUP7 AND DUP5 OR SWAP3 POP POP POP SWAP4 SWAP3 POP POP POP JUMP JUMPDEST PUSH0 DUP2 SWAP1 POP SWAP2 SWAP1 POP JUMP JUMPDEST PUSH0 PUSH2 0x3F6C PUSH2 0x3F67 PUSH2 0x3F62 DUP5 PUSH2 0x3199 JUMP JUMPDEST PUSH2 0x3F49 JUMP JUMPDEST PUSH2 0x3199 JUMP JUMPDEST SWAP1 POP SWAP2 SWAP1 POP JUMP JUMPDEST PUSH0 DUP2 SWAP1 POP SWAP2 SWAP1 POP JUMP JUMPDEST PUSH2 0x3F85 DUP4 PUSH2 0x3F52 JUMP JUMPDEST PUSH2 0x3F99 PUSH2 0x3F91 DUP3 PUSH2 0x3F73 JUMP JUMPDEST DUP5 DUP5 SLOAD PUSH2 0x3EF8 JUMP JUMPDEST DUP3 SSTORE POP POP POP POP JUMP JUMPDEST PUSH0 PUSH0 SWAP1 POP SWAP1 JUMP JUMPDEST PUSH2 0x3FB0 PUSH2 0x3FA1 JUMP JUMPDEST PUSH2 0x3FBB DUP2 DUP5 DUP5 PUSH2 0x3F7C JUMP JUMPDEST POP POP POP JUMP JUMPDEST PUSH0 JUMPDEST DUP3 DUP2 LT ISZERO PUSH2 0x3FE1 JUMPI PUSH2 0x3FD6 PUSH0 DUP3 DUP5 ADD PUSH2 0x3FA8 JUMP JUMPDEST PUSH1 0x1 DUP2 ADD SWAP1 POP PUSH2 0x3FC2 JUMP JUMPDEST POP POP POP JUMP JUMPDEST PUSH1 0x1F DUP3 GT ISZERO PUSH2 0x4034 JUMPI DUP3 DUP3 GT ISZERO PUSH2 0x4033 JUMPI PUSH2 0x4000 DUP2 PUSH2 0x3ECB JUMP JUMPDEST PUSH2 0x4009 DUP4 PUSH2 0x3EDD JUMP JUMPDEST PUSH2 0x4012 DUP6 PUSH2 0x3EDD JUMP JUMPDEST PUSH1 0x20 DUP7 LT ISZERO PUSH2 0x401F JUMPI PUSH0 SWAP1 POP JUMPDEST DUP1 DUP4 ADD PUSH2 0x402E DUP3 DUP5 SUB DUP3 PUSH2 0x3FC0 JUMP JUMPDEST POP POP POP POP JUMPDEST JUMPDEST POP POP POP JUMP JUMPDEST PUSH0 DUP3 DUP3 SHR SWAP1 POP SWAP3 SWAP2 POP POP JUMP JUMPDEST PUSH0 PUSH2 0x4054 PUSH0 NOT DUP5 PUSH1 0x8 MUL PUSH2 0x4039 JUMP JUMPDEST NOT DUP1 DUP4 AND SWAP2 POP POP SWAP3 SWAP2 POP POP JUMP JUMPDEST PUSH0 PUSH2 0x406C DUP4 DUP4 PUSH2 0x4045 JUMP JUMPDEST SWAP2 POP DUP3 PUSH1 0x2 MUL DUP3 OR SWAP1 POP SWAP3 SWAP2 POP POP JUMP JUMPDEST PUSH2 0x4085 DUP3 PUSH2 0x3379 JUMP JUMPDEST PUSH8 0xFFFFFFFFFFFFFFFF DUP2 GT ISZERO PUSH2 0x409E JUMPI PUSH2 0x409D PUSH2 0x2F68 JUMP JUMPDEST JUMPDEST PUSH2 0x40A8 DUP3 SLOAD PUSH2 0x3E9B JUMP JUMPDEST PUSH2 0x40B3 DUP3 DUP3 DUP6 PUSH2 0x3FE6 JUMP JUMPDEST PUSH0 PUSH1 0x20 SWAP1 POP PUSH1 0x1F DUP4 GT PUSH1 0x1 DUP2 EQ PUSH2 0x40E4 JUMPI PUSH0 DUP5 ISZERO PUSH2 0x40D2 JUMPI DUP3 DUP8 ADD MLOAD SWAP1 POP JUMPDEST PUSH2 0x40DC DUP6 DUP3 PUSH2 0x4061 JUMP JUMPDEST DUP7 SSTORE POP PUSH2 0x4143 JUMP JUMPDEST PUSH1 0x1F NOT DUP5 AND PUSH2 0x40F2 DUP7 PUSH2 0x3ECB JUMP JUMPDEST PUSH0 JUMPDEST DUP3 DUP2 LT ISZERO PUSH2 0x4119 JUMPI DUP5 DUP10 ADD MLOAD DUP3 SSTORE PUSH1 0x1 DUP3 ADD SWAP2 POP PUSH1 0x20 DUP6 ADD SWAP5 POP PUSH1 0x20 DUP2 ADD SWAP1 POP PUSH2 0x40F4 JUMP JUMPDEST DUP7 DUP4 LT ISZERO PUSH2 0x4136 JUMPI DUP5 DUP10 ADD MLOAD PUSH2 0x4132 PUSH1 0x1F DUP10 AND DUP3 PUSH2 0x4045 JUMP JUMPDEST DUP4 SSTORE POP JUMPDEST PUSH1 0x1 PUSH1 0x2 DUP9 MUL ADD DUP9 SSTORE POP POP POP JUMPDEST POP POP POP POP POP POP JUMP JUMPDEST PUSH0 DUP2 MLOAD SWAP1 POP PUSH2 0x4159 DUP2 PUSH2 0x2F26 JUMP JUMPDEST SWAP3 SWAP2 POP POP JUMP JUMPDEST PUSH0 PUSH1 0x20 DUP3 DUP5 SUB SLT ISZERO PUSH2 0x4174 JUMPI PUSH2 0x4173 PUSH2 0x2F15 JUMP JUMPDEST JUMPDEST PUSH0 PUSH2 0x4181 DUP5 DUP3 DUP6 ADD PUSH2 0x414B JUMP JUMPDEST SWAP2 POP POP SWAP3 SWAP2 POP POP JUMP JUMPDEST PUSH32 0x43616E2774206265207265736F6C76696E670000000000000000000000000000 PUSH0 DUP3 ADD MSTORE POP JUMP JUMPDEST PUSH0 PUSH2 0x41BE PUSH1 0x12 DUP4 PUSH2 0x3461 JUMP JUMPDEST SWAP2 POP PUSH2 0x41C9 DUP3 PUSH2 0x418A JUMP JUMPDEST PUSH1 0x20 DUP3 ADD SWAP1 POP SWAP2 SWAP1 POP JUMP JUMPDEST PUSH0 PUSH1 0x20 DUP3 ADD SWAP1 POP DUP2 DUP2 SUB PUSH0 DUP4 ADD MSTORE PUSH2 0x41EB DUP2 PUSH2 0x41B2 JUMP JUMPDEST SWAP1 POP SWAP2 SWAP1 POP JUMP JUMPDEST PUSH32 0x42657474696E67206E6F7420636C6F7365640000000000000000000000000000 PUSH0 DUP3 ADD MSTORE POP JUMP JUMPDEST PUSH0 PUSH2 0x4226 PUSH1 0x12 DUP4 PUSH2 0x3461 JUMP JUMPDEST SWAP2 POP PUSH2 0x4231 DUP3 PUSH2 0x41F2 JUMP JUMPDEST PUSH1 0x20 DUP3 ADD SWAP1 POP SWAP2 SWAP1 POP JUMP JUMPDEST PUSH0 PUSH1 0x20 DUP3 ADD SWAP1 POP DUP2 DUP2 SUB PUSH0 DUP4 ADD MSTORE PUSH2 0x4253 DUP2 PUSH2 0x421A JUMP JUMPDEST SWAP1 POP SWAP2 SWAP1 POP JUMP JUMPDEST PUSH32 0x54696D656F757420666F72207265736F6C76696E670000000000000000000000 PUSH0 DUP3 ADD MSTORE POP JUMP JUMPDEST PUSH0 PUSH2 0x428E PUSH1 0x15 DUP4 PUSH2 0x3461 JUMP JUMPDEST SWAP2 POP PUSH2 0x4299 DUP3 PUSH2 0x425A JUMP JUMPDEST PUSH1 0x20 DUP3 ADD SWAP1 POP SWAP2 SWAP1 POP JUMP JUMPDEST PUSH0 PUSH1 0x20 DUP3 ADD SWAP1 POP DUP2 DUP2 SUB PUSH0 DUP4 ADD MSTORE PUSH2 0x42BB DUP2 PUSH2 0x4282 JUMP JUMPDEST SWAP1 POP SWAP2 SWAP1 POP JUMP JUMPDEST PUSH0 PUSH2 0x42CC DUP3 PUSH2 0x3199 JUMP JUMPDEST SWAP2 POP PUSH32 0xFFFFFFFFFFFFFFFFFFFFFFFFFFFFFFFFFFFFFFFFFFFFFFFFFFFFFFFFFFFFFFFF DUP3 SUB PUSH2 0x42FE JUMPI PUSH2 0x42FD PUSH2 0x3BEF JUMP JUMPDEST JUMPDEST PUSH1 0x1 DUP3 ADD SWAP1 POP SWAP2 SWAP1 POP JUMP JUMPDEST PUSH32 0x4D7573742062652070726F706F736564206F776E657200000000000000000000 PUSH0 DUP3 ADD MSTORE POP JUMP JUMPDEST PUSH0 PUSH2 0x433D PUSH1 0x16 DUP4 PUSH2 0x3461 JUMP JUMPDEST SWAP2 POP PUSH2 0x4348 DUP3 PUSH2 0x4309 JUMP JUMPDEST PUSH1 0x20 DUP3 ADD SWAP1 POP SWAP2 SWAP1 POP JUMP JUMPDEST PUSH0 PUSH1 0x20 DUP3 ADD SWAP1 POP DUP2 DUP2 SUB PUSH0 DUP4 ADD MSTORE PUSH2 0x436A DUP2 PUSH2 0x4331 JUMP JUMPDEST SWAP1 POP SWAP2 SWAP1 POP JUMP JUMPDEST PUSH32 0x446561646C696E652074696D657374616D70206D757374206265206C61746572 PUSH0 DUP3 ADD MSTORE PUSH32 0x2121210000000000000000000000000000000000000000000000000000000000 PUSH1 0x20 DUP3 ADD MSTORE POP JUMP JUMPDEST PUSH0 PUSH2 0x43CB PUSH1 0x23 DUP4 PUSH2 0x3461 JUMP JUMPDEST SWAP2 POP PUSH2 0x43D6 DUP3 PUSH2 0x4371 JUMP JUMPDEST PUSH1 0x40 DUP3 ADD SWAP1 POP SWAP2 SWAP1 POP JUMP JUMPDEST PUSH0 PUSH1 0x20 DUP3 ADD SWAP1 POP DUP2 DUP2 SUB PUSH0 DUP4 ADD MSTORE PUSH2 0x43F8 DUP2 PUSH2 0x43BF JUMP JUMPDEST SWAP1 POP SWAP2 SWAP1 POP JUMP JUMPDEST PUSH32 0x5265736F6C76652074696D652063616E277420657175616C207A65726F212121 PUSH0 DUP3 ADD MSTORE POP JUMP JUMPDEST PUSH0 PUSH2 0x4433 PUSH1 0x20 DUP4 PUSH2 0x3461 JUMP JUMPDEST SWAP2 POP PUSH2 0x443E DUP3 PUSH2 0x43FF JUMP JUMPDEST PUSH1 0x20 DUP3 ADD SWAP1 POP SWAP2 SWAP1 POP JUMP JUMPDEST PUSH0 PUSH1 0x20 DUP3 ADD SWAP1 POP DUP2 DUP2 SUB PUSH0 DUP4 ADD MSTORE PUSH2 0x4460 DUP2 PUSH2 0x4427 JUMP JUMPDEST SWAP1 POP SWAP2 SWAP1 POP JUMP JUMPDEST PUSH0 DUP2 SWAP1 POP DUP2 PUSH0 MSTORE PUSH1 0x20 PUSH0 KECCAK256 SWAP1 POP SWAP2 SWAP1 POP JUMP JUMPDEST PUSH1 0x1F DUP3 GT ISZERO PUSH2 0x44C7 JUMPI DUP3 DUP3 GT ISZERO PUSH2 0x44C6 JUMPI PUSH2 0x4493 DUP2 PUSH2 0x4467 JUMP JUMPDEST PUSH2 0x449C DUP4 PUSH2 0x3EDD JUMP JUMPDEST PUSH2 0x44A5 DUP6 PUSH2 0x3EDD JUMP JUMPDEST PUSH1 0x20 DUP7 LT ISZERO PUSH2 0x44B2 JUMPI PUSH0 SWAP1 POP JUMPDEST DUP1 DUP4 ADD PUSH2 0x44C1 DUP3 DUP5 SUB DUP3 PUSH2 0x3FC0 JUMP JUMPDEST POP POP POP POP JUMPDEST JUMPDEST POP POP POP JUMP JUMPDEST PUSH2 0x44D5 DUP3 PUSH2 0x3457 JUMP JUMPDEST PUSH8 0xFFFFFFFFFFFFFFFF DUP2 GT ISZERO PUSH2 0x44EE JUMPI PUSH2 0x44ED PUSH2 0x2F68 JUMP JUMPDEST JUMPDEST PUSH2 0x44F8 DUP3 SLOAD PUSH2 0x3E9B JUMP JUMPDEST PUSH2 0x4503 DUP3 DUP3 DUP6 PUSH2 0x4479 JUMP JUMPDEST PUSH0 PUSH1 0x20 SWAP1 POP PUSH1 0x1F DUP4 GT PUSH1 0x1 DUP2 EQ PUSH2 0x4534 JUMPI PUSH0 DUP5 ISZERO PUSH2 0x4522 JUMPI DUP3 DUP8 ADD MLOAD SWAP1 POP JUMPDEST PUSH2 0x452C DUP6 DUP3 PUSH2 0x4061 JUMP JUMPDEST DUP7 SSTORE POP PUSH2 0x4593 JUMP JUMPDEST PUSH1 0x1F NOT DUP5 AND PUSH2 0x4542 DUP7 PUSH2 0x4467 JUMP JUMPDEST PUSH0 JUMPDEST DUP3 DUP2 LT ISZERO PUSH2 0x4569 JUMPI DUP5 DUP10 ADD MLOAD DUP3 SSTORE PUSH1 0x1 DUP3 ADD SWAP2 POP PUSH1 0x20 DUP6 ADD SWAP5 POP PUSH1 0x20 DUP2 ADD SWAP1 POP PUSH2 0x4544 JUMP JUMPDEST DUP7 DUP4 LT ISZERO PUSH2 0x4586 JUMPI DUP5 DUP10 ADD MLOAD PUSH2 0x4582 PUSH1 0x1F DUP10 AND DUP3 PUSH2 0x4045 JUMP JUMPDEST DUP4 SSTORE POP JUMPDEST PUSH1 0x1 PUSH1 0x2 DUP9 MUL ADD DUP9 SSTORE POP POP POP JUMPDEST POP POP POP POP POP POP JUMP JUMPDEST PUSH0 PUSH2 0x45A5 DUP3 PUSH2 0x351C JUMP JUMPDEST SWAP2 POP PUSH2 0x45B0 DUP4 PUSH2 0x351C JUMP JUMPDEST SWAP3 POP DUP3 DUP3 ADD SWAP1 POP PUSH6 0xFFFFFFFFFFFF DUP2 GT ISZERO PUSH2 0x45CE JUMPI PUSH2 0x45CD PUSH2 0x3BEF JUMP JUMPDEST JUMPDEST SWAP3 SWAP2 POP POP JUMP JUMPDEST PUSH32 0x4F6E6C79207265736F6C766564206D61726B6574210000000000000000000000 PUSH0 DUP3 ADD MSTORE POP JUMP JUMPDEST PUSH0 PUSH2 0x4608 PUSH1 0x15 DUP4 PUSH2 0x3461 JUMP JUMPDEST SWAP2 POP PUSH2 0x4613 DUP3 PUSH2 0x45D4 JUMP JUMPDEST PUSH1 0x20 DUP3 ADD SWAP1 POP SWAP2 SWAP1 POP JUMP JUMPDEST PUSH0 PUSH1 0x20 DUP3 ADD SWAP1 POP DUP2 DUP2 SUB PUSH0 DUP4 ADD MSTORE PUSH2 0x4635 DUP2 PUSH2 0x45FC JUMP JUMPDEST SWAP1 POP SWAP2 SWAP1 POP JUMP JUMPDEST PUSH32 0x416C72656164792072657665616C656421212100000000000000000000000000 PUSH0 DUP3 ADD MSTORE POP JUMP JUMPDEST PUSH0 PUSH2 0x4670 PUSH1 0x13 DUP4 PUSH2 0x3461 JUMP JUMPDEST SWAP2 POP PUSH2 0x467B DUP3 PUSH2 0x463C JUMP JUMPDEST PUSH1 0x20 DUP3 ADD SWAP1 POP SWAP2 SWAP1 POP JUMP JUMPDEST PUSH0 PUSH1 0x20 DUP3 ADD SWAP1 POP DUP2 DUP2 SUB PUSH0 DUP4 ADD MSTORE PUSH2 0x469D DUP2 PUSH2 0x4664 JUMP JUMPDEST SWAP1 POP SWAP2 SWAP1 POP JUMP JUMPDEST PUSH2 0x46AD DUP2 PUSH2 0x353C JUMP JUMPDEST DUP2 EQ PUSH2 0x46B7 JUMPI PUSH0 PUSH0 REVERT JUMPDEST POP JUMP JUMPDEST PUSH0 DUP2 CALLDATALOAD SWAP1 POP PUSH2 0x46C8 DUP2 PUSH2 0x46A4 JUMP JUMPDEST SWAP3 SWAP2 POP POP JUMP JUMPDEST PUSH0 PUSH1 0x20 DUP3 DUP5 SUB SLT ISZERO PUSH2 0x46E3 JUMPI PUSH2 0x46E2 PUSH2 0x2F15 JUMP JUMPDEST JUMPDEST PUSH0 PUSH2 0x46F0 DUP5 DUP3 DUP6 ADD PUSH2 0x46BA JUMP JUMPDEST SWAP2 POP POP SWAP3 SWAP2 POP POP JUMP JUMPDEST PUSH0 PUSH2 0x4703 DUP3 PUSH2 0x3199 JUMP JUMPDEST SWAP2 POP PUSH2 0x470E DUP4 PUSH2 0x3199 JUMP JUMPDEST SWAP3 POP DUP3 DUP3 ADD SWAP1 POP DUP1 DUP3 GT ISZERO PUSH2 0x4726 JUMPI PUSH2 0x4725 PUSH2 0x3BEF JUMP JUMPDEST JUMPDEST SWAP3 SWAP2 POP POP JUMP JUMPDEST PUSH32 0x4F6E6C79207265736F6C76696E67206D61726B65742121210000000000000000 PUSH0 DUP3 ADD MSTORE POP JUMP JUMPDEST PUSH0 PUSH2 0x4760 PUSH1 0x18 DUP4 PUSH2 0x3461 JUMP JUMPDEST SWAP2 POP PUSH2 0x476B DUP3 PUSH2 0x472C JUMP JUMPDEST PUSH1 0x20 DUP3 ADD SWAP1 POP SWAP2 SWAP1 POP JUMP JUMPDEST PUSH0 PUSH1 0x20 DUP3 ADD SWAP1 POP DUP2 DUP2 SUB PUSH0 DUP4 ADD MSTORE PUSH2 0x478D DUP2 PUSH2 0x4754 JUMP JUMPDEST SWAP1 POP SWAP2 SWAP1 POP JUMP JUMPDEST PUSH0 DUP2 MLOAD SWAP1 POP PUSH2 0x47A2 DUP2 PUSH2 0x46A4 JUMP JUMPDEST SWAP3 SWAP2 POP POP JUMP JUMPDEST PUSH0 PUSH1 0x20 DUP3 DUP5 SUB SLT ISZERO PUSH2 0x47BD JUMPI PUSH2 0x47BC PUSH2 0x2F15 JUMP JUMPDEST JUMPDEST PUSH0 PUSH2 0x47CA DUP5 DUP3 DUP6 ADD PUSH2 0x4794 JUMP JUMPDEST SWAP2 POP POP SWAP3 SWAP2 POP POP JUMP JUMPDEST PUSH32 0x5265656E7472616E637947756172643A207265656E7472616E742063616C6C00 PUSH0 DUP3 ADD MSTORE POP JUMP JUMPDEST PUSH0 PUSH2 0x4807 PUSH1 0x1F DUP4 PUSH2 0x3461 JUMP JUMPDEST SWAP2 POP PUSH2 0x4812 DUP3 PUSH2 0x47D3 JUMP JUMPDEST PUSH1 0x20 DUP3 ADD SWAP1 POP SWAP2 SWAP1 POP JUMP JUMPDEST PUSH0 PUSH1 0x20 DUP3 ADD SWAP1 POP DUP2 DUP2 SUB PUSH0 DUP4 ADD MSTORE PUSH2 0x4834 DUP2 PUSH2 0x47FB JUMP JUMPDEST SWAP1 POP SWAP2 SWAP1 POP JUMP JUMPDEST PUSH0 PUSH8 0xFFFFFFFFFFFFFFFF DUP3 AND SWAP1 POP SWAP2 SWAP1 POP JUMP JUMPDEST PUSH2 0x4857 DUP2 PUSH2 0x483B JUMP JUMPDEST DUP3 MSTORE POP POP JUMP JUMPDEST PUSH0 PUSH2 0xFFFF DUP3 AND SWAP1 POP SWAP2 SWAP1 POP JUMP JUMPDEST PUSH2 0x4873 DUP2 PUSH2 0x485D JUMP JUMPDEST DUP3 MSTORE POP POP JUMP JUMPDEST PUSH0 PUSH4 0xFFFFFFFF DUP3 AND SWAP1 POP SWAP2 SWAP1 POP JUMP JUMPDEST PUSH2 0x4891 DUP2 PUSH2 0x4879 JUMP JUMPDEST DUP3 MSTORE POP POP JUMP JUMPDEST PUSH0 PUSH1 0xA0 DUP3 ADD SWAP1 POP PUSH2 0x48AA PUSH0 DUP4 ADD DUP9 PUSH2 0x484E JUMP JUMPDEST DUP2 DUP2 SUB PUSH1 0x20 DUP4 ADD MSTORE PUSH2 0x48BC DUP2 DUP8 PUSH2 0x33A1 JUMP JUMPDEST SWAP1 POP PUSH2 0x48CB PUSH1 0x40 DUP4 ADD DUP7 PUSH2 0x486A JUMP JUMPDEST PUSH2 0x48D8 PUSH1 0x60 DUP4 ADD DUP6 PUSH2 0x4888 JUMP JUMPDEST PUSH2 0x48E5 PUSH1 0x80 DUP4 ADD DUP5 PUSH2 0x3337 JUMP JUMPDEST SWAP7 SWAP6 POP POP POP POP POP POP JUMP JUMPDEST PUSH32 0x4F6E6C792063616C6C61626C65206279206F776E657200000000000000000000 PUSH0 DUP3 ADD MSTORE POP JUMP JUMPDEST PUSH0 PUSH2 0x4923 PUSH1 0x16 DUP4 PUSH2 0x3461 JUMP JUMPDEST SWAP2 POP PUSH2 0x492E DUP3 PUSH2 0x48EF JUMP JUMPDEST PUSH1 0x20 DUP3 ADD SWAP1 POP SWAP2 SWAP1 POP JUMP JUMPDEST PUSH0 PUSH1 0x20 DUP3 ADD SWAP1 POP DUP2 DUP2 SUB PUSH0 DUP4 ADD MSTORE PUSH2 0x4950 DUP2 PUSH2 0x4917 JUMP JUMPDEST SWAP1 POP SWAP2 SWAP1 POP JUMP JUMPDEST PUSH32 0x43616E6E6F74207472616E7366657220746F2073656C66000000000000000000 PUSH0 DUP3 ADD MSTORE POP JUMP JUMPDEST PUSH0 PUSH2 0x498B PUSH1 0x17 DUP4 PUSH2 0x3461 JUMP JUMPDEST SWAP2 POP PUSH2 0x4996 DUP3 PUSH2 0x4957 JUMP JUMPDEST PUSH1 0x20 DUP3 ADD SWAP1 POP SWAP2 SWAP1 POP JUMP JUMPDEST PUSH0 PUSH1 0x20 DUP3 ADD SWAP1 POP DUP2 DUP2 SUB PUSH0 DUP4 ADD MSTORE PUSH2 0x49B8 DUP2 PUSH2 0x497F JUMP JUMPDEST SWAP1 POP SWAP2 SWAP1 POP JUMP JUMPDEST PUSH32 0x4D61726B6574206E6F7420666F756E6400000000000000000000000000000000 PUSH0 DUP3 ADD MSTORE POP JUMP JUMPDEST PUSH0 PUSH2 0x49F3 PUSH1 0x10 DUP4 PUSH2 0x3461 JUMP JUMPDEST SWAP2 POP PUSH2 0x49FE DUP3 PUSH2 0x49BF JUMP JUMPDEST PUSH1 0x20 DUP3 ADD SWAP1 POP SWAP2 SWAP1 POP JUMP JUMPDEST PUSH0 PUSH1 0x20 DUP3 ADD SWAP1 POP DUP2 DUP2 SUB PUSH0 DUP4 ADD MSTORE PUSH2 0x4A20 DUP2 PUSH2 0x49E7 JUMP JUMPDEST SWAP1 POP SWAP2 SWAP1 POP JUMP JUMPDEST PUSH0 PUSH2 0x4A31 DUP3 PUSH2 0x3199 JUMP JUMPDEST SWAP2 POP PUSH2 0x4A3C DUP4 PUSH2 0x3199 JUMP JUMPDEST SWAP3 POP DUP3 DUP3 SUB SWAP1 POP DUP2 DUP2 GT ISZERO PUSH2 0x4A54 JUMPI PUSH2 0x4A53 PUSH2 0x3BEF JUMP JUMPDEST JUMPDEST SWAP3 SWAP2 POP POP JUMP JUMPDEST PUSH0 PUSH2 0x4A64 DUP3 PUSH2 0x3199 JUMP JUMPDEST SWAP2 POP PUSH2 0x4A6F DUP4 PUSH2 0x3199 JUMP JUMPDEST SWAP3 POP DUP3 PUSH2 0x4A7F JUMPI PUSH2 0x4A7E PUSH2 0x3BC2 JUMP JUMPDEST JUMPDEST DUP3 DUP3 MOD SWAP1 POP SWAP3 SWAP2 POP POP JUMP JUMPDEST PUSH0 DUP2 PUSH1 0x1 SHR SWAP1 POP SWAP2 SWAP1 POP JUMP JUMPDEST PUSH0 PUSH0 DUP3 SWAP2 POP DUP4 SWAP1 POP JUMPDEST PUSH1 0x1 DUP6 GT ISZERO PUSH2 0x4ADF JUMPI DUP1 DUP7 DIV DUP2 GT ISZERO PUSH2 0x4ABB JUMPI PUSH2 0x4ABA PUSH2 0x3BEF JUMP JUMPDEST JUMPDEST PUSH1 0x1 DUP6 AND ISZERO PUSH2 0x4ACA JUMPI DUP1 DUP3 MUL SWAP2 POP JUMPDEST DUP1 DUP2 MUL SWAP1 POP PUSH2 0x4AD8 DUP6 PUSH2 0x4A8A JUMP JUMPDEST SWAP5 POP PUSH2 0x4A9F JUMP JUMPDEST SWAP5 POP SWAP5 SWAP3 POP POP POP JUMP JUMPDEST PUSH0 DUP3 PUSH2 0x4AF7 JUMPI PUSH1 0x1 SWAP1 POP PUSH2 0x4BB2 JUMP JUMPDEST DUP2 PUSH2 0x4B04 JUMPI PUSH0 SWAP1 POP PUSH2 0x4BB2 JUMP JUMPDEST DUP2 PUSH1 0x1 DUP2 EQ PUSH2 0x4B1A JUMPI PUSH1 0x2 DUP2 EQ PUSH2 0x4B24 JUMPI PUSH2 0x4B53 JUMP JUMPDEST PUSH1 0x1 SWAP2 POP POP PUSH2 0x4BB2 JUMP JUMPDEST PUSH1 0xFF DUP5 GT ISZERO PUSH2 0x4B36 JUMPI PUSH2 0x4B35 PUSH2 0x3BEF JUMP JUMPDEST JUMPDEST DUP4 PUSH1 0x2 EXP SWAP2 POP DUP5 DUP3 GT ISZERO PUSH2 0x4B4D JUMPI PUSH2 0x4B4C PUSH2 0x3BEF JUMP JUMPDEST JUMPDEST POP PUSH2 0x4BB2 JUMP JUMPDEST POP PUSH1 0x20 DUP4 LT PUSH2 0x133 DUP4 LT AND PUSH1 0x4E DUP5 LT PUSH1 0xB DUP5 LT AND OR ISZERO PUSH2 0x4B88 JUMPI DUP3 DUP3 EXP SWAP1 POP DUP4 DUP2 GT ISZERO PUSH2 0x4B83 JUMPI PUSH2 0x4B82 PUSH2 0x3BEF JUMP JUMPDEST JUMPDEST PUSH2 0x4BB2 JUMP JUMPDEST PUSH2 0x4B95 DUP5 DUP5 DUP5 PUSH1 0x1 PUSH2 0x4A96 JUMP JUMPDEST SWAP3 POP SWAP1 POP DUP2 DUP5 DIV DUP2 GT ISZERO PUSH2 0x4BAC JUMPI PUSH2 0x4BAB PUSH2 0x3BEF JUMP JUMPDEST JUMPDEST DUP2 DUP2 MUL SWAP1 POP JUMPDEST SWAP4 SWAP3 POP POP POP JUMP JUMPDEST PUSH0 PUSH2 0x4BC3 DUP3 PUSH2 0x3199 JUMP JUMPDEST SWAP2 POP PUSH2 0x4BCE DUP4 PUSH2 0x3199 JUMP JUMPDEST SWAP3 POP PUSH2 0x4BFB PUSH32 0xFFFFFFFFFFFFFFFFFFFFFFFFFFFFFFFFFFFFFFFFFFFFFFFFFFFFFFFFFFFFFFFF DUP5 DUP5 PUSH2 0x4AE8 JUMP JUMPDEST SWAP1 POP SWAP3 SWAP2 POP POP JUMP INVALID LOG2 PUSH5 0x6970667358 0x22 SLT KECCAK256 COINBASE NUMBER OR 0xD6 SWAP3 TSTORE CODESIZE MSIZE SWAP13 0xCA NUMBER LOG3 PUSH23 0x4F305DF1724781074A1F08A78B3453B9B6678D64736F6C PUSH4 0x43000822 STOP CALLER "
		},
		"gasEstimates": {
			"creation": {
				"codeDepositCost": "3902600",
				"executionCost": "infinite",
				"totalCost": "infinite"
			},
			"external": {
				"OrderMarketid()": "2492",
				"acceptOwnership()": "54554",
				"checkUpkeep(bytes)": "infinite",
				"claimWinnings(uint256,uint256)": "infinite",
				"createEvent(string,uint48,uint48,string,bytes)": "infinite",
				"deleteAdmin(address)": "29318",
				"handleOracleFulfillment(bytes32,bytes,bytes)": "infinite",
				"marketTotalPools(uint256)": "infinite",
				"markets(uint256)": "infinite",
				"owner()": "2559",
				"performUpkeep(bytes)": "infinite",
				"placeBet(uint256,bytes)": "infinite",
				"resolveMarket(uint256)": "infinite",
				"revealBets(uint256,uint256[],uint8[],uint256[])": "infinite",
				"setAdmin(address)": "27099",
				"transferOwnership(address)": "30715"
			},
			"internal": {
				"_settleMarket(uint256,uint8)": "72994",
				"fulfillRequest(bytes32,bytes memory,bytes memory)": "infinite",
				"requestIdGetMarketId(bytes32)": "infinite"
			}
		},
		"methodIdentifiers": {
			"OrderMarketid()": "92b408ba",
			"acceptOwnership()": "79ba5097",
			"checkUpkeep(bytes)": "6e04ff0d",
			"claimWinnings(uint256,uint256)": "286db5c2",
			"createEvent(string,uint48,uint48,string,bytes)": "e8268509",
			"deleteAdmin(address)": "27e1f7df",
			"handleOracleFulfillment(bytes32,bytes,bytes)": "0ca76175",
			"marketTotalPools(uint256)": "96fcd761",
			"markets(uint256)": "b1283e77",
			"owner()": "8da5cb5b",
			"performUpkeep(bytes)": "4585e33b",
			"placeBet(uint256,bytes)": "35d2a269",
			"resolveMarket(uint256)": "6399d03d",
			"revealBets(uint256,uint256[],uint8[],uint256[])": "ff51b884",
			"setAdmin(address)": "704b6c02",
			"transferOwnership(address)": "f2fde38b"
		}
	},
	"abi": [
		{
			"inputs": [
				{
					"internalType": "address",
					"name": "_functionsRouter",
					"type": "address"
				},
				{
					"internalType": "uint64",
					"name": "_subscription_id",
					"type": "uint64"
				}
			],
			"stateMutability": "nonpayable",
			"type": "constructor"
		},
		{
			"inputs": [],
			"name": "EmptyArgs",
			"type": "error"
		},
		{
			"inputs": [],
			"name": "EmptySecrets",
			"type": "error"
		},
		{
			"inputs": [],
			"name": "EmptySource",
			"type": "error"
		},
		{
			"inputs": [],
			"name": "NoInlineSecrets",
			"type": "error"
		},
		{
			"inputs": [],
			"name": "OnlyRouterCanFulfill",
			"type": "error"
		},
		{
			"anonymous": false,
			"inputs": [
				{
					"indexed": true,
					"internalType": "address",
					"name": "from",
					"type": "address"
				},
				{
					"indexed": true,
					"internalType": "address",
					"name": "to",
					"type": "address"
				}
			],
			"name": "OwnershipTransferRequested",
			"type": "event"
		},
		{
			"anonymous": false,
			"inputs": [
				{
					"indexed": true,
					"internalType": "address",
					"name": "from",
					"type": "address"
				},
				{
					"indexed": true,
					"internalType": "address",
					"name": "to",
					"type": "address"
				}
			],
			"name": "OwnershipTransferred",
			"type": "event"
		},
		{
			"anonymous": false,
			"inputs": [
				{
					"indexed": true,
					"internalType": "bytes32",
					"name": "id",
					"type": "bytes32"
				}
			],
			"name": "RequestFulfilled",
			"type": "event"
		},
		{
			"anonymous": false,
			"inputs": [
				{
					"indexed": true,
					"internalType": "bytes32",
					"name": "id",
					"type": "bytes32"
				}
			],
			"name": "RequestSent",
			"type": "event"
		},
		{
			"inputs": [],
			"name": "OrderMarketid",
			"outputs": [
				{
					"internalType": "uint256",
					"name": "",
					"type": "uint256"
				}
			],
			"stateMutability": "view",
			"type": "function"
		},
		{
			"inputs": [],
			"name": "acceptOwnership",
			"outputs": [],
			"stateMutability": "nonpayable",
			"type": "function"
		},
		{
			"inputs": [
				{
					"internalType": "bytes",
					"name": "",
					"type": "bytes"
				}
			],
			"name": "checkUpkeep",
			"outputs": [
				{
					"internalType": "bool",
					"name": "upkeepNeeded",
					"type": "bool"
				},
				{
					"internalType": "bytes",
					"name": "performData",
					"type": "bytes"
				}
			],
			"stateMutability": "view",
			"type": "function"
		},
		{
			"inputs": [
				{
					"internalType": "uint256",
					"name": "_marketId",
					"type": "uint256"
				},
				{
					"internalType": "uint256",
					"name": "_betIndex",
					"type": "uint256"
				}
			],
			"name": "claimWinnings",
			"outputs": [],
			"stateMutability": "nonpayable",
			"type": "function"
		},
		{
			"inputs": [
				{
					"internalType": "string",
					"name": "description",
					"type": "string"
				},
				{
					"internalType": "uint48",
					"name": "deadlinetimestamp",
					"type": "uint48"
				},
				{
					"internalType": "uint48",
					"name": "analysiswindowtime",
					"type": "uint48"
				},
				{
					"internalType": "string",
					"name": "_functionsSource",
					"type": "string"
				},
				{
					"internalType": "bytes",
					"name": "_encryptedSecrets",
					"type": "bytes"
				}
			],
			"name": "createEvent",
			"outputs": [
				{
					"internalType": "uint256",
					"name": "market_id",
					"type": "uint256"
				}
			],
			"stateMutability": "nonpayable",
			"type": "function"
		},
		{
			"inputs": [
				{
					"internalType": "address",
					"name": "_admin",
					"type": "address"
				}
			],
			"name": "deleteAdmin",
			"outputs": [],
			"stateMutability": "nonpayable",
			"type": "function"
		},
		{
			"inputs": [
				{
					"internalType": "bytes32",
					"name": "requestId",
					"type": "bytes32"
				},
				{
					"internalType": "bytes",
					"name": "response",
					"type": "bytes"
				},
				{
					"internalType": "bytes",
					"name": "err",
					"type": "bytes"
				}
			],
			"name": "handleOracleFulfillment",
			"outputs": [],
			"stateMutability": "nonpayable",
			"type": "function"
		},
		{
			"inputs": [
				{
					"internalType": "uint256",
					"name": "id",
					"type": "uint256"
				}
			],
			"name": "marketTotalPools",
			"outputs": [
				{
					"internalType": "uint256",
					"name": "totalPool",
					"type": "uint256"
				}
			],
			"stateMutability": "view",
			"type": "function"
		},
		{
			"inputs": [
				{
					"internalType": "uint256",
					"name": "market_id",
					"type": "uint256"
				}
			],
			"name": "markets",
			"outputs": [
				{
					"internalType": "uint256",
					"name": "id",
					"type": "uint256"
				},
				{
					"internalType": "string",
					"name": "description",
					"type": "string"
				},
				{
					"internalType": "enum MarketData.MarketStatus",
					"name": "state",
					"type": "uint8"
				},
				{
					"internalType": "uint48",
					"name": "createTimeStamp",
					"type": "uint48"
				},
				{
					"internalType": "uint48",
					"name": "closeTime",
					"type": "uint48"
				},
				{
					"internalType": "uint48",
					"name": "resolveWindow",
					"type": "uint48"
				},
				{
					"internalType": "uint48",
					"name": "resolveTimeStamp",
					"type": "uint48"
				},
				{
					"internalType": "bytes32",
					"name": "functionsRequest_id",
					"type": "bytes32"
				},
				{
					"internalType": "string",
					"name": "functionsSource",
					"type": "string"
				},
				{
					"internalType": "bytes",
					"name": "encryptedSecrets",
					"type": "bytes"
				},
				{
					"internalType": "uint8",
					"name": "outcome",
					"type": "uint8"
				},
				{
					"internalType": "bool",
					"name": "resolved",
					"type": "bool"
				}
			],
			"stateMutability": "view",
			"type": "function"
		},
		{
			"inputs": [],
			"name": "owner",
			"outputs": [
				{
					"internalType": "address",
					"name": "",
					"type": "address"
				}
			],
			"stateMutability": "view",
			"type": "function"
		},
		{
			"inputs": [
				{
					"internalType": "bytes",
					"name": "performData",
					"type": "bytes"
				}
			],
			"name": "performUpkeep",
			"outputs": [],
			"stateMutability": "nonpayable",
			"type": "function"
		},
		{
			"inputs": [
				{
					"internalType": "uint256",
					"name": "_market_id",
					"type": "uint256"
				},
				{
					"internalType": "bytes",
					"name": "_encryptedBet",
					"type": "bytes"
				}
			],
			"name": "placeBet",
			"outputs": [],
			"stateMutability": "payable",
			"type": "function"
		},
		{
			"inputs": [
				{
					"internalType": "uint256",
					"name": "market_id",
					"type": "uint256"
				}
			],
			"name": "resolveMarket",
			"outputs": [
				{
					"internalType": "bytes32",
					"name": "request_id",
					"type": "bytes32"
				}
			],
			"stateMutability": "nonpayable",
			"type": "function"
		},
		{
			"inputs": [
				{
					"internalType": "uint256",
					"name": "market_id",
					"type": "uint256"
				},
				{
					"internalType": "uint256[]",
					"name": "_betIndices",
					"type": "uint256[]"
				},
				{
					"internalType": "uint8[]",
					"name": "_options",
					"type": "uint8[]"
				},
				{
					"internalType": "uint256[]",
					"name": "_amounts",
					"type": "uint256[]"
				}
			],
			"name": "revealBets",
			"outputs": [],
			"stateMutability": "nonpayable",
			"type": "function"
		},
		{
			"inputs": [
				{
					"internalType": "address",
					"name": "_admin",
					"type": "address"
				}
			],
			"name": "setAdmin",
			"outputs": [],
			"stateMutability": "nonpayable",
			"type": "function"
		},
		{
			"inputs": [
				{
					"internalType": "address",
					"name": "to",
					"type": "address"
				}
			],
			"name": "transferOwnership",
			"outputs": [],
			"stateMutability": "nonpayable",
			"type": "function"
		}
	]
}